{
	"contracts/Quoter/Quoter.sol": {
		"Quoter": {
			"abi": [
				{
					"inputs": [
						{
							"internalType": "address",
							"name": "_factory",
							"type": "address"
						},
						{
							"internalType": "address",
							"name": "_WETH9",
							"type": "address"
						}
					],
					"stateMutability": "nonpayable",
					"type": "constructor"
				},
				{
					"inputs": [],
					"name": "WETH9",
					"outputs": [
						{
							"internalType": "address",
							"name": "",
							"type": "address"
						}
					],
					"stateMutability": "view",
					"type": "function"
				},
				{
					"inputs": [],
					"name": "factory",
					"outputs": [
						{
							"internalType": "address",
							"name": "",
							"type": "address"
						}
					],
					"stateMutability": "view",
					"type": "function"
				},
				{
					"inputs": [
						{
							"internalType": "bytes",
							"name": "path",
							"type": "bytes"
						},
						{
							"internalType": "uint256",
							"name": "amountIn",
							"type": "uint256"
						}
					],
					"name": "quoteExactInput",
					"outputs": [
						{
							"internalType": "uint256",
							"name": "amountOut",
							"type": "uint256"
						}
					],
					"stateMutability": "nonpayable",
					"type": "function"
				},
				{
					"inputs": [
						{
							"internalType": "address",
							"name": "tokenIn",
							"type": "address"
						},
						{
							"internalType": "address",
							"name": "tokenOut",
							"type": "address"
						},
						{
							"internalType": "uint24",
							"name": "fee",
							"type": "uint24"
						},
						{
							"internalType": "uint256",
							"name": "amountIn",
							"type": "uint256"
						},
						{
							"internalType": "uint160",
							"name": "sqrtPriceLimitX96",
							"type": "uint160"
						}
					],
					"name": "quoteExactInputSingle",
					"outputs": [
						{
							"internalType": "uint256",
							"name": "amountOut",
							"type": "uint256"
						}
					],
					"stateMutability": "nonpayable",
					"type": "function"
				},
				{
					"inputs": [
						{
							"internalType": "bytes",
							"name": "path",
							"type": "bytes"
						},
						{
							"internalType": "uint256",
							"name": "amountOut",
							"type": "uint256"
						}
					],
					"name": "quoteExactOutput",
					"outputs": [
						{
							"internalType": "uint256",
							"name": "amountIn",
							"type": "uint256"
						}
					],
					"stateMutability": "nonpayable",
					"type": "function"
				},
				{
					"inputs": [
						{
							"internalType": "address",
							"name": "tokenIn",
							"type": "address"
						},
						{
							"internalType": "address",
							"name": "tokenOut",
							"type": "address"
						},
						{
							"internalType": "uint24",
							"name": "fee",
							"type": "uint24"
						},
						{
							"internalType": "uint256",
							"name": "amountOut",
							"type": "uint256"
						},
						{
							"internalType": "uint160",
							"name": "sqrtPriceLimitX96",
							"type": "uint160"
						}
					],
					"name": "quoteExactOutputSingle",
					"outputs": [
						{
							"internalType": "uint256",
							"name": "amountIn",
							"type": "uint256"
						}
					],
					"stateMutability": "nonpayable",
					"type": "function"
				},
				{
					"inputs": [
						{
							"internalType": "int256",
							"name": "amount0Delta",
							"type": "int256"
						},
						{
							"internalType": "int256",
							"name": "amount1Delta",
							"type": "int256"
						},
						{
							"internalType": "bytes",
							"name": "path",
							"type": "bytes"
						}
					],
					"name": "uniswapV3SwapCallback",
					"outputs": [],
					"stateMutability": "view",
					"type": "function"
				}
			],
			"devdoc": {
				"details": "These functions are not gas efficient and should _not_ be called on chain. Instead, optimistically execute the swap and check the amounts in the callback.",
				"kind": "dev",
				"methods": {
					"quoteExactInput(bytes,uint256)": {
						"params": {
							"amountIn": "The amount of the first token to swap",
							"path": "The path of the swap, i.e. each token pair and the pool fee"
						},
						"returns": {
							"amountOut": "The amount of the last token that would be received"
						}
					},
					"quoteExactInputSingle(address,address,uint24,uint256,uint160)": {
						"params": {
							"amountIn": "The desired input amount",
							"fee": "The fee of the token pool to consider for the pair",
							"sqrtPriceLimitX96": "The price limit of the pool that cannot be exceeded by the swap",
							"tokenIn": "The token being swapped in",
							"tokenOut": "The token being swapped out"
						},
						"returns": {
							"amountOut": "The amount of `tokenOut` that would be received"
						}
					},
					"quoteExactOutput(bytes,uint256)": {
						"params": {
							"amountOut": "The amount of the last token to receive",
							"path": "The path of the swap, i.e. each token pair and the pool fee"
						},
						"returns": {
							"amountIn": "The amount of first token required to be paid"
						}
					},
					"quoteExactOutputSingle(address,address,uint24,uint256,uint160)": {
						"params": {
							"amountOut": "The desired output amount",
							"fee": "The fee of the token pool to consider for the pair",
							"sqrtPriceLimitX96": "The price limit of the pool that cannot be exceeded by the swap",
							"tokenIn": "The token being swapped in",
							"tokenOut": "The token being swapped out"
						},
						"returns": {
							"amountIn": "The amount required as the input for the swap in order to receive `amountOut`"
						}
					},
					"uniswapV3SwapCallback(int256,int256,bytes)": {
						"details": "In the implementation you must pay the pool tokens owed for the swap. The caller of this method must be checked to be a UniswapV3Pool deployed by the canonical UniswapV3Factory. amount0Delta and amount1Delta can both be 0 if no tokens were swapped.",
						"params": {
							"amount0Delta": "The amount of token0 that was sent (negative) or must be received (positive) by the pool by the end of the swap. If positive, the callback must send that amount of token0 to the pool.",
							"amount1Delta": "The amount of token1 that was sent (negative) or must be received (positive) by the pool by the end of the swap. If positive, the callback must send that amount of token1 to the pool.",
							"data": "Any data passed through by the caller via the IUniswapV3PoolActions#swap call"
						}
					}
				},
				"stateVariables": {
					"amountOutCached": {
						"details": "Transient storage variable used to check a safety condition in exact output swaps."
					}
				},
				"title": "Provides quotes for swaps",
				"version": 1
			},
			"evm": {
				"assembly": "    /* \"contracts/Quoter/Quoter.sol\":642:6363  contract Quoter is IQuoter, IUniswapV3SwapCallback, PeripheryImmutableState {... */\n  mstore(0x40, 0xc0)\n    /* \"contracts/Quoter/Quoter.sol\":917:1007  constructor(address _factory, address _WETH9) PeripheryImmutableState(_factory, _WETH9) {} */\n  callvalue\n  dup1\n  iszero\n  tag_1\n  jumpi\n  0x00\n  dup1\n  revert\ntag_1:\n  pop\n  mload(0x40)\n  sub(codesize, bytecodeSize)\n  dup1\n  bytecodeSize\n  dup4\n  codecopy\n  dup2\n  add\n  0x40\n  dup2\n  swap1\n  mstore\n  tag_2\n  swap2\n  tag_3\n  jump\t// in\ntag_2:\n  not(sub(shl(0x60, 0x01), 0x01))\n    /* \"contracts/Quoter/PeripheryImmutableState.sol\":510:528  factory = _factory */\n  0x60\n  swap3\n  dup4\n  shl\n  dup2\n  and\n  0x80\n  mstore\n    /* \"contracts/Quoter/PeripheryImmutableState.sol\":538:552  WETH9 = _WETH9 */\n  swap2\n  shl\n  and\n  0xa0\n  mstore\n    /* \"contracts/Quoter/Quoter.sol\":642:6363  contract Quoter is IQuoter, IUniswapV3SwapCallback, PeripheryImmutableState {... */\n  jump(tag_9)\n    /* \"#utility.yul\":14:193   */\ntag_10:\n    /* \"#utility.yul\":95:108   */\n  dup1\n  mload\n  sub(shl(0xa0, 0x01), 0x01)\n    /* \"#utility.yul\":137:168   */\n  dup2\n  and\n    /* \"#utility.yul\":127:169   */\n  dup2\n  eq\n    /* \"#utility.yul\":117:119   */\n  tag_12\n  jumpi\n    /* \"#utility.yul\":183:184   */\n  0x00\n    /* \"#utility.yul\":180:181   */\n  dup1\n    /* \"#utility.yul\":173:185   */\n  revert\n    /* \"#utility.yul\":117:119   */\ntag_12:\n    /* \"#utility.yul\":76:193   */\n  swap2\n  swap1\n  pop\n  jump\t// out\n    /* \"#utility.yul\":198:505   */\ntag_3:\n  0x00\n  dup1\n    /* \"#utility.yul\":338:340   */\n  0x40\n    /* \"#utility.yul\":326:335   */\n  dup4\n    /* \"#utility.yul\":317:324   */\n  dup6\n    /* \"#utility.yul\":313:336   */\n  sub\n    /* \"#utility.yul\":309:341   */\n  slt\n    /* \"#utility.yul\":306:308   */\n  iszero\n  tag_14\n  jumpi\n    /* \"#utility.yul\":359:365   */\n  dup2\n    /* \"#utility.yul\":351:357   */\n  dup3\n    /* \"#utility.yul\":344:366   */\n  revert\n    /* \"#utility.yul\":306:308   */\ntag_14:\n    /* \"#utility.yul\":387:429   */\n  tag_15\n    /* \"#utility.yul\":419:428   */\n  dup4\n    /* \"#utility.yul\":387:429   */\n  tag_10\n  jump\t// in\ntag_15:\n    /* \"#utility.yul\":377:429   */\n  swap2\n  pop\n    /* \"#utility.yul\":448:499   */\n  tag_16\n    /* \"#utility.yul\":495:497   */\n  0x20\n    /* \"#utility.yul\":484:493   */\n  dup5\n    /* \"#utility.yul\":480:498   */\n  add\n    /* \"#utility.yul\":448:499   */\n  tag_10\n  jump\t// in\ntag_16:\n    /* \"#utility.yul\":438:499   */\n  swap1\n  pop\n    /* \"#utility.yul\":296:505   */\n  swap3\n  pop\n  swap3\n  swap1\n  pop\n  jump\t// out\ntag_9:\n    /* \"contracts/Quoter/Quoter.sol\":642:6363  contract Quoter is IQuoter, IUniswapV3SwapCallback, PeripheryImmutableState {... */\n  shr(0x60, mload(0x80))\n  shr(0x60, mload(0xa0))\n  codecopy(0x00, dataOffset(sub_0), dataSize(sub_0))\n  assignImmutable(\"0x94bf69fb65508f6e4ddb8e9d68af175b29ca55b7385169421c8fce2c4390b244\")\n  assignImmutable(\"0x2c5c3a7f960335d25bf882a63919889d98f0b7566195d92a493f94d76e14e9b5\")\n  return(0x00, dataSize(sub_0))\nstop\n\nsub_0: assembly {\n        /* \"contracts/Quoter/Quoter.sol\":642:6363  contract Quoter is IQuoter, IUniswapV3SwapCallback, PeripheryImmutableState {... */\n      mstore(0x40, 0x80)\n      callvalue\n      dup1\n      iszero\n      tag_1\n      jumpi\n      0x00\n      dup1\n      revert\n    tag_1:\n      pop\n      jumpi(tag_2, lt(calldatasize, 0x04))\n      shr(0xe0, calldataload(0x00))\n      dup1\n      0xc45a0155\n      gt\n      tag_10\n      jumpi\n      dup1\n      0xc45a0155\n      eq\n      tag_6\n      jumpi\n      dup1\n      0xcdca1753\n      eq\n      tag_7\n      jumpi\n      dup1\n      0xf7729d43\n      eq\n      tag_8\n      jumpi\n      dup1\n      0xfa461e33\n      eq\n      tag_9\n      jumpi\n      jump(tag_2)\n    tag_10:\n      dup1\n      0x2f80bb1d\n      eq\n      tag_3\n      jumpi\n      dup1\n      0x30d07f21\n      eq\n      tag_4\n      jumpi\n      dup1\n      0x4aa4a4fc\n      eq\n      tag_5\n      jumpi\n    tag_2:\n      0x00\n      dup1\n      revert\n        /* \"contracts/Quoter/Quoter.sol\":5696:6361  function quoteExactOutput(bytes memory path, uint256 amountOut) external override returns (uint256 amountIn) {... */\n    tag_3:\n      tag_11\n      tag_12\n      calldatasize\n      0x04\n      tag_13\n      jump\t// in\n    tag_12:\n      tag_14\n      jump\t// in\n    tag_11:\n      mload(0x40)\n      tag_15\n      swap2\n      swap1\n      tag_16\n      jump\t// in\n    tag_15:\n      mload(0x40)\n      dup1\n      swap2\n      sub\n      swap1\n      return\n        /* \"contracts/Quoter/Quoter.sol\":4588:5662  function quoteExactOutputSingle(... */\n    tag_4:\n      tag_11\n      tag_18\n      calldatasize\n      0x04\n      tag_19\n      jump\t// in\n    tag_18:\n      tag_20\n      jump\t// in\n        /* \"contracts/Quoter/PeripheryImmutableState.sol\":408:447  address public immutable override WETH9 */\n    tag_5:\n      tag_22\n      tag_23\n      jump\t// in\n    tag_22:\n      mload(0x40)\n      tag_15\n      swap2\n      swap1\n      tag_25\n      jump\t// in\n        /* \"contracts/Quoter/PeripheryImmutableState.sol\":316:357  address public immutable override factory */\n    tag_6:\n      tag_22\n      tag_27\n      jump\t// in\n        /* \"contracts/Quoter/Quoter.sol\":3894:4554  function quoteExactInput(bytes memory path, uint256 amountIn) external override returns (uint256 amountOut) {... */\n    tag_7:\n      tag_11\n      tag_30\n      calldatasize\n      0x04\n      tag_13\n      jump\t// in\n    tag_30:\n      tag_31\n      jump\t// in\n        /* \"contracts/Quoter/Quoter.sol\":3042:3860  function quoteExactInputSingle(... */\n    tag_8:\n      tag_11\n      tag_34\n      calldatasize\n      0x04\n      tag_19\n      jump\t// in\n    tag_34:\n      tag_35\n      jump\t// in\n        /* \"contracts/Quoter/Quoter.sol\":1311:2556  function uniswapV3SwapCallback(... */\n    tag_9:\n      tag_37\n      tag_38\n      calldatasize\n      0x04\n      tag_39\n      jump\t// in\n    tag_38:\n      tag_40\n      jump\t// in\n    tag_37:\n      stop\n        /* \"contracts/Quoter/Quoter.sol\":5696:6361  function quoteExactOutput(bytes memory path, uint256 amountOut) external override returns (uint256 amountIn) {... */\n    tag_14:\n        /* \"contracts/Quoter/Quoter.sol\":5787:5803  uint256 amountIn */\n      0x00\n        /* \"contracts/Quoter/Quoter.sol\":5815:6355  while (true) {... */\n    tag_42:\n        /* \"contracts/Quoter/Quoter.sol\":5842:5863  bool hasMultiplePools */\n      0x00\n        /* \"contracts/Quoter/Quoter.sol\":5866:5889  path.hasMultiplePools() */\n      tag_44\n        /* \"contracts/Quoter/Quoter.sol\":5866:5870  path */\n      dup5\n        /* \"contracts/Quoter/Quoter.sol\":5866:5887  path.hasMultiplePools */\n      tag_45\n        /* \"contracts/Quoter/Quoter.sol\":5866:5889  path.hasMultiplePools() */\n      jump\t// in\n    tag_44:\n        /* \"contracts/Quoter/Quoter.sol\":5842:5889  bool hasMultiplePools = path.hasMultiplePools() */\n      swap1\n      pop\n        /* \"contracts/Quoter/Quoter.sol\":5905:5921  address tokenOut */\n      0x00\n        /* \"contracts/Quoter/Quoter.sol\":5923:5938  address tokenIn */\n      dup1\n        /* \"contracts/Quoter/Quoter.sol\":5940:5950  uint24 fee */\n      0x00\n        /* \"contracts/Quoter/Quoter.sol\":5954:5976  path.decodeFirstPool() */\n      tag_46\n        /* \"contracts/Quoter/Quoter.sol\":5954:5958  path */\n      dup8\n        /* \"contracts/Quoter/Quoter.sol\":5954:5974  path.decodeFirstPool */\n      tag_47\n        /* \"contracts/Quoter/Quoter.sol\":5954:5976  path.decodeFirstPool() */\n      jump\t// in\n    tag_46:\n        /* \"contracts/Quoter/Quoter.sol\":5904:5976  (address tokenOut, address tokenIn, uint24 fee) = path.decodeFirstPool() */\n      swap3\n      pop\n      swap3\n      pop\n      swap3\n      pop\n        /* \"contracts/Quoter/Quoter.sol\":6082:6142  quoteExactOutputSingle(tokenIn, tokenOut, fee, amountOut, 0) */\n      tag_48\n        /* \"contracts/Quoter/Quoter.sol\":6105:6112  tokenIn */\n      dup3\n        /* \"contracts/Quoter/Quoter.sol\":6114:6122  tokenOut */\n      dup5\n        /* \"contracts/Quoter/Quoter.sol\":6124:6127  fee */\n      dup4\n        /* \"contracts/Quoter/Quoter.sol\":6129:6138  amountOut */\n      dup10\n        /* \"contracts/Quoter/Quoter.sol\":6140:6141  0 */\n      0x00\n        /* \"contracts/Quoter/Quoter.sol\":6082:6104  quoteExactOutputSingle */\n      tag_20\n        /* \"contracts/Quoter/Quoter.sol\":6082:6142  quoteExactOutputSingle(tokenIn, tokenOut, fee, amountOut, 0) */\n      jump\t// in\n    tag_48:\n        /* \"contracts/Quoter/Quoter.sol\":6070:6142  amountOut = quoteExactOutputSingle(tokenIn, tokenOut, fee, amountOut, 0) */\n      swap6\n      pop\n        /* \"contracts/Quoter/Quoter.sol\":6216:6232  hasMultiplePools */\n      dup4\n        /* \"contracts/Quoter/Quoter.sol\":6212:6345  if (hasMultiplePools) {... */\n      iszero\n      tag_49\n      jumpi\n        /* \"contracts/Quoter/Quoter.sol\":6259:6275  path.skipToken() */\n      tag_50\n        /* \"contracts/Quoter/Quoter.sol\":6259:6263  path */\n      dup8\n        /* \"contracts/Quoter/Quoter.sol\":6259:6273  path.skipToken */\n      tag_51\n        /* \"contracts/Quoter/Quoter.sol\":6259:6275  path.skipToken() */\n      jump\t// in\n    tag_50:\n        /* \"contracts/Quoter/Quoter.sol\":6252:6275  path = path.skipToken() */\n      swap7\n      pop\n        /* \"contracts/Quoter/Quoter.sol\":6212:6345  if (hasMultiplePools) {... */\n      jump(tag_52)\n    tag_49:\n        /* \"contracts/Quoter/Quoter.sol\":6321:6330  amountOut */\n      dup6\n        /* \"contracts/Quoter/Quoter.sol\":6314:6330  return amountOut */\n      swap5\n      pop\n      pop\n      pop\n      pop\n      pop\n      jump(tag_43)\n        /* \"contracts/Quoter/Quoter.sol\":6212:6345  if (hasMultiplePools) {... */\n    tag_52:\n        /* \"contracts/Quoter/Quoter.sol\":5815:6355  while (true) {... */\n      pop\n      pop\n      pop\n      pop\n      jump(tag_42)\n    tag_43:\n        /* \"contracts/Quoter/Quoter.sol\":5696:6361  function quoteExactOutput(bytes memory path, uint256 amountOut) external override returns (uint256 amountIn) {... */\n      swap3\n      swap2\n      pop\n      pop\n      jump\t// out\n        /* \"contracts/Quoter/Quoter.sol\":4588:5662  function quoteExactOutputSingle(... */\n    tag_20:\n        /* \"contracts/Quoter/Quoter.sol\":4784:4800  uint256 amountIn */\n      0x00\n        /* \"contracts/Quoter/Quoter.sol\":4830:4848  tokenIn < tokenOut */\n      0xffffffffffffffffffffffffffffffffffffffff\n      dup1\n      dup7\n      and\n      dup8\n      dup3\n      and\n      lt\n      swap1\n        /* \"contracts/Quoter/Quoter.sol\":4972:4994  sqrtPriceLimitX96 == 0 */\n      dup4\n      and\n        /* \"contracts/Quoter/Quoter.sol\":4968:5023  if (sqrtPriceLimitX96 == 0) amountOutCached = amountOut */\n      tag_54\n      jumpi\n        /* \"contracts/Quoter/Quoter.sol\":4996:5011  amountOutCached */\n      0x00\n        /* \"contracts/Quoter/Quoter.sol\":4996:5023  amountOutCached = amountOut */\n      dup5\n      swap1\n      sstore\n        /* \"contracts/Quoter/Quoter.sol\":4968:5023  if (sqrtPriceLimitX96 == 0) amountOutCached = amountOut */\n    tag_54:\n        /* \"contracts/Quoter/Quoter.sol\":5049:5080  getPool(tokenIn, tokenOut, fee) */\n      tag_55\n        /* \"contracts/Quoter/Quoter.sol\":5057:5064  tokenIn */\n      dup8\n        /* \"contracts/Quoter/Quoter.sol\":5066:5074  tokenOut */\n      dup8\n        /* \"contracts/Quoter/Quoter.sol\":5076:5079  fee */\n      dup8\n        /* \"contracts/Quoter/Quoter.sol\":5049:5056  getPool */\n      tag_56\n        /* \"contracts/Quoter/Quoter.sol\":5049:5080  getPool(tokenIn, tokenOut, fee) */\n      jump\t// in\n    tag_55:\n        /* \"contracts/Quoter/Quoter.sol\":5049:5085  getPool(tokenIn, tokenOut, fee).swap */\n      0xffffffffffffffffffffffffffffffffffffffff\n      and\n      0x128acb08\n        /* \"contracts/Quoter/Quoter.sol\":5111:5115  this */\n      address\n        /* \"contracts/Quoter/Quoter.sol\":5184:5194  zeroForOne */\n      dup4\n        /* \"contracts/Quoter/Quoter.sol\":5213:5233  amountOut.toInt256() */\n      tag_57\n        /* \"contracts/Quoter/Quoter.sol\":5213:5222  amountOut */\n      dup9\n        /* \"contracts/Quoter/Quoter.sol\":5213:5231  amountOut.toInt256 */\n      tag_58\n        /* \"contracts/Quoter/Quoter.sol\":5213:5233  amountOut.toInt256() */\n      jump\t// in\n    tag_57:\n        /* \"contracts/Quoter/Quoter.sol\":5212:5233  -amountOut.toInt256() */\n      0x00\n      sub\n        /* \"contracts/Quoter/Quoter.sol\":5251:5273  sqrtPriceLimitX96 == 0 */\n      0xffffffffffffffffffffffffffffffffffffffff\n      dup9\n      and\n      iszero\n        /* \"contracts/Quoter/Quoter.sol\":5251:5408  sqrtPriceLimitX96 == 0... */\n      tag_59\n      jumpi\n        /* \"contracts/Quoter/Quoter.sol\":5391:5408  sqrtPriceLimitX96 */\n      dup8\n        /* \"contracts/Quoter/Quoter.sol\":5251:5408  sqrtPriceLimitX96 == 0... */\n      jump(tag_62)\n    tag_59:\n        /* \"contracts/Quoter/Quoter.sol\":5297:5307  zeroForOne */\n      dup6\n        /* \"contracts/Quoter/Quoter.sol\":5297:5367  zeroForOne ? TickMath.MIN_SQRT_RATIO + 1 : TickMath.MAX_SQRT_RATIO - 1 */\n      tag_61\n      jumpi\n        /* \"contracts/Quoter/Quoter.sol\":5340:5367  TickMath.MAX_SQRT_RATIO - 1 */\n      0xfffd8963efd1fc6a506488495d951d5263988d25\n        /* \"contracts/Quoter/Quoter.sol\":5297:5367  zeroForOne ? TickMath.MIN_SQRT_RATIO + 1 : TickMath.MAX_SQRT_RATIO - 1 */\n      jump(tag_62)\n    tag_61:\n        /* \"contracts/Quoter/Quoter.sol\":5310:5337  TickMath.MIN_SQRT_RATIO + 1 */\n      0x01000276a4\n        /* \"contracts/Quoter/Quoter.sol\":5297:5367  zeroForOne ? TickMath.MIN_SQRT_RATIO + 1 : TickMath.MAX_SQRT_RATIO - 1 */\n    tag_62:\n        /* \"contracts/Quoter/Quoter.sol\":5443:5451  tokenOut */\n      dup12\n        /* \"contracts/Quoter/Quoter.sol\":5453:5456  fee */\n      dup12\n        /* \"contracts/Quoter/Quoter.sol\":5458:5465  tokenIn */\n      dup15\n        /* \"contracts/Quoter/Quoter.sol\":5426:5466  abi.encodePacked(tokenOut, fee, tokenIn) */\n      add(0x20, mload(0x40))\n      tag_63\n      swap4\n      swap3\n      swap2\n      swap1\n      tag_64\n      jump\t// in\n    tag_63:\n      mload(0x40)\n      0x20\n      dup2\n      dup4\n      sub\n      sub\n      dup2\n      mstore\n      swap1\n      0x40\n      mstore\n        /* \"contracts/Quoter/Quoter.sol\":5049:5480  getPool(tokenIn, tokenOut, fee).swap(... */\n      mload(0x40)\n      dup7\n      0xffffffff\n      and\n      0xe0\n      shl\n      dup2\n      mstore\n      0x04\n      add\n      tag_65\n      swap6\n      swap5\n      swap4\n      swap3\n      swap2\n      swap1\n      tag_66\n      jump\t// in\n    tag_65:\n      0x40\n      dup1\n      mload\n      dup1\n      dup4\n      sub\n      dup2\n      0x00\n      dup8\n      dup1\n      extcodesize\n      iszero\n      dup1\n      iszero\n      tag_67\n      jumpi\n      0x00\n      dup1\n      revert\n    tag_67:\n      pop\n      gas\n      call\n      swap3\n      pop\n      pop\n      pop\n      dup1\n      iszero\n      tag_68\n      jumpi\n      pop\n      0x40\n      dup1\n      mload\n      0x1f\n      returndatasize\n      swap1\n      dup2\n      add\n      0xffffffffffffffffffffffffffffffffffffffffffffffffffffffffffffffe0\n      and\n      dup3\n      add\n      swap1\n      swap3\n      mstore\n      tag_69\n      swap2\n      dup2\n      add\n      swap1\n      tag_70\n      jump\t// in\n    tag_69:\n      0x01\n    tag_68:\n        /* \"contracts/Quoter/Quoter.sol\":5033:5656  try... */\n      tag_71\n      jumpi\n      returndatasize\n      dup1\n      dup1\n      iszero\n      tag_75\n      jumpi\n      mload(0x40)\n      swap2\n      pop\n      and(add(returndatasize, 0x3f), not(0x1f))\n      dup3\n      add\n      0x40\n      mstore\n      returndatasize\n      dup3\n      mstore\n      returndatasize\n      0x00\n      0x20\n      dup5\n      add\n      returndatacopy\n      jump(tag_74)\n    tag_75:\n      0x60\n      swap2\n      pop\n    tag_74:\n      pop\n        /* \"contracts/Quoter/Quoter.sol\":5538:5560  sqrtPriceLimitX96 == 0 */\n      0xffffffffffffffffffffffffffffffffffffffff\n      dup5\n      and\n        /* \"contracts/Quoter/Quoter.sol\":5534:5584  if (sqrtPriceLimitX96 == 0) delete amountOutCached */\n      tag_76\n      jumpi\n        /* \"contracts/Quoter/Quoter.sol\":5569:5584  amountOutCached */\n      0x00\n        /* \"contracts/Quoter/Quoter.sol\":5562:5584  delete amountOutCached */\n      dup1\n      sstore\n        /* \"contracts/Quoter/Quoter.sol\":5534:5584  if (sqrtPriceLimitX96 == 0) delete amountOutCached */\n    tag_76:\n        /* \"contracts/Quoter/Quoter.sol\":5620:5645  parseRevertReason(reason) */\n      tag_77\n        /* \"contracts/Quoter/Quoter.sol\":5638:5644  reason */\n      dup2\n        /* \"contracts/Quoter/Quoter.sol\":5620:5637  parseRevertReason */\n      tag_78\n        /* \"contracts/Quoter/Quoter.sol\":5620:5645  parseRevertReason(reason) */\n      jump\t// in\n    tag_77:\n        /* \"contracts/Quoter/Quoter.sol\":5613:5645  return parseRevertReason(reason) */\n      swap3\n      pop\n      pop\n      pop\n      jump(tag_53)\n        /* \"contracts/Quoter/Quoter.sol\":5033:5656  try... */\n    tag_71:\n      pop\n      pop\n        /* \"contracts/Quoter/Quoter.sol\":4588:5662  function quoteExactOutputSingle(... */\n      pop\n    tag_53:\n      swap6\n      swap5\n      pop\n      pop\n      pop\n      pop\n      pop\n      jump\t// out\n        /* \"contracts/Quoter/PeripheryImmutableState.sol\":408:447  address public immutable override WETH9 */\n    tag_23:\n      immutable(\"0x94bf69fb65508f6e4ddb8e9d68af175b29ca55b7385169421c8fce2c4390b244\")\n      dup2\n      jump\t// out\n        /* \"contracts/Quoter/PeripheryImmutableState.sol\":316:357  address public immutable override factory */\n    tag_27:\n      immutable(\"0x2c5c3a7f960335d25bf882a63919889d98f0b7566195d92a493f94d76e14e9b5\")\n      dup2\n      jump\t// out\n        /* \"contracts/Quoter/Quoter.sol\":3894:4554  function quoteExactInput(bytes memory path, uint256 amountIn) external override returns (uint256 amountOut) {... */\n    tag_31:\n        /* \"contracts/Quoter/Quoter.sol\":3983:4000  uint256 amountOut */\n      0x00\n        /* \"contracts/Quoter/Quoter.sol\":4012:4548  while (true) {... */\n    tag_81:\n        /* \"contracts/Quoter/Quoter.sol\":4039:4060  bool hasMultiplePools */\n      0x00\n        /* \"contracts/Quoter/Quoter.sol\":4063:4086  path.hasMultiplePools() */\n      tag_83\n        /* \"contracts/Quoter/Quoter.sol\":4063:4067  path */\n      dup5\n        /* \"contracts/Quoter/Quoter.sol\":4063:4084  path.hasMultiplePools */\n      tag_45\n        /* \"contracts/Quoter/Quoter.sol\":4063:4086  path.hasMultiplePools() */\n      jump\t// in\n    tag_83:\n        /* \"contracts/Quoter/Quoter.sol\":4039:4086  bool hasMultiplePools = path.hasMultiplePools() */\n      swap1\n      pop\n        /* \"contracts/Quoter/Quoter.sol\":4102:4117  address tokenIn */\n      0x00\n        /* \"contracts/Quoter/Quoter.sol\":4119:4135  address tokenOut */\n      dup1\n        /* \"contracts/Quoter/Quoter.sol\":4137:4147  uint24 fee */\n      0x00\n        /* \"contracts/Quoter/Quoter.sol\":4151:4173  path.decodeFirstPool() */\n      tag_84\n        /* \"contracts/Quoter/Quoter.sol\":4151:4155  path */\n      dup8\n        /* \"contracts/Quoter/Quoter.sol\":4151:4171  path.decodeFirstPool */\n      tag_47\n        /* \"contracts/Quoter/Quoter.sol\":4151:4173  path.decodeFirstPool() */\n      jump\t// in\n    tag_84:\n        /* \"contracts/Quoter/Quoter.sol\":4101:4173  (address tokenIn, address tokenOut, uint24 fee) = path.decodeFirstPool() */\n      swap3\n      pop\n      swap3\n      pop\n      swap3\n      pop\n        /* \"contracts/Quoter/Quoter.sol\":4278:4336  quoteExactInputSingle(tokenIn, tokenOut, fee, amountIn, 0) */\n      tag_85\n        /* \"contracts/Quoter/Quoter.sol\":4300:4307  tokenIn */\n      dup4\n        /* \"contracts/Quoter/Quoter.sol\":4309:4317  tokenOut */\n      dup4\n        /* \"contracts/Quoter/Quoter.sol\":4319:4322  fee */\n      dup4\n        /* \"contracts/Quoter/Quoter.sol\":4324:4332  amountIn */\n      dup10\n        /* \"contracts/Quoter/Quoter.sol\":4334:4335  0 */\n      0x00\n        /* \"contracts/Quoter/Quoter.sol\":4278:4299  quoteExactInputSingle */\n      tag_35\n        /* \"contracts/Quoter/Quoter.sol\":4278:4336  quoteExactInputSingle(tokenIn, tokenOut, fee, amountIn, 0) */\n      jump\t// in\n    tag_85:\n        /* \"contracts/Quoter/Quoter.sol\":4267:4336  amountIn = quoteExactInputSingle(tokenIn, tokenOut, fee, amountIn, 0) */\n      swap6\n      pop\n        /* \"contracts/Quoter/Quoter.sol\":4410:4426  hasMultiplePools */\n      dup4\n        /* \"contracts/Quoter/Quoter.sol\":4406:4538  if (hasMultiplePools) {... */\n      iszero\n      tag_49\n      jumpi\n        /* \"contracts/Quoter/Quoter.sol\":4453:4469  path.skipToken() */\n      tag_87\n        /* \"contracts/Quoter/Quoter.sol\":4453:4457  path */\n      dup8\n        /* \"contracts/Quoter/Quoter.sol\":4453:4467  path.skipToken */\n      tag_51\n        /* \"contracts/Quoter/Quoter.sol\":4453:4469  path.skipToken() */\n      jump\t// in\n    tag_87:\n        /* \"contracts/Quoter/Quoter.sol\":4446:4469  path = path.skipToken() */\n      swap7\n      pop\n        /* \"contracts/Quoter/Quoter.sol\":4012:4548  while (true) {... */\n      pop\n      pop\n      pop\n      pop\n      jump(tag_81)\n        /* \"contracts/Quoter/Quoter.sol\":3042:3860  function quoteExactInputSingle(... */\n    tag_35:\n        /* \"contracts/Quoter/Quoter.sol\":3236:3253  uint256 amountOut */\n      0x00\n        /* \"contracts/Quoter/Quoter.sol\":3283:3301  tokenIn < tokenOut */\n      0xffffffffffffffffffffffffffffffffffffffff\n      dup1\n      dup7\n      and\n      swap1\n      dup8\n      and\n      lt\n        /* \"contracts/Quoter/Quoter.sol\":3328:3359  getPool(tokenIn, tokenOut, fee) */\n      tag_90\n        /* \"contracts/Quoter/Quoter.sol\":3283:3290  tokenIn */\n      dup8\n        /* \"contracts/Quoter/Quoter.sol\":3293:3301  tokenOut */\n      dup8\n        /* \"contracts/Quoter/Quoter.sol\":3355:3358  fee */\n      dup8\n        /* \"contracts/Quoter/Quoter.sol\":3328:3335  getPool */\n      tag_56\n        /* \"contracts/Quoter/Quoter.sol\":3328:3359  getPool(tokenIn, tokenOut, fee) */\n      jump\t// in\n    tag_90:\n        /* \"contracts/Quoter/Quoter.sol\":3328:3364  getPool(tokenIn, tokenOut, fee).swap */\n      0xffffffffffffffffffffffffffffffffffffffff\n      and\n      0x128acb08\n        /* \"contracts/Quoter/Quoter.sol\":3390:3394  this */\n      address\n        /* \"contracts/Quoter/Quoter.sol\":3463:3473  zeroForOne */\n      dup4\n        /* \"contracts/Quoter/Quoter.sol\":3491:3510  amountIn.toInt256() */\n      tag_91\n        /* \"contracts/Quoter/Quoter.sol\":3491:3499  amountIn */\n      dup9\n        /* \"contracts/Quoter/Quoter.sol\":3491:3508  amountIn.toInt256 */\n      tag_58\n        /* \"contracts/Quoter/Quoter.sol\":3491:3510  amountIn.toInt256() */\n      jump\t// in\n    tag_91:\n        /* \"contracts/Quoter/Quoter.sol\":3528:3550  sqrtPriceLimitX96 == 0 */\n      0xffffffffffffffffffffffffffffffffffffffff\n      dup9\n      and\n      iszero\n        /* \"contracts/Quoter/Quoter.sol\":3528:3685  sqrtPriceLimitX96 == 0... */\n      tag_92\n      jumpi\n        /* \"contracts/Quoter/Quoter.sol\":3668:3685  sqrtPriceLimitX96 */\n      dup8\n        /* \"contracts/Quoter/Quoter.sol\":3528:3685  sqrtPriceLimitX96 == 0... */\n      jump(tag_95)\n    tag_92:\n        /* \"contracts/Quoter/Quoter.sol\":3574:3584  zeroForOne */\n      dup6\n        /* \"contracts/Quoter/Quoter.sol\":3574:3644  zeroForOne ? TickMath.MIN_SQRT_RATIO + 1 : TickMath.MAX_SQRT_RATIO - 1 */\n      tag_94\n      jumpi\n        /* \"contracts/Quoter/Quoter.sol\":3617:3644  TickMath.MAX_SQRT_RATIO - 1 */\n      0xfffd8963efd1fc6a506488495d951d5263988d25\n        /* \"contracts/Quoter/Quoter.sol\":3574:3644  zeroForOne ? TickMath.MIN_SQRT_RATIO + 1 : TickMath.MAX_SQRT_RATIO - 1 */\n      jump(tag_95)\n    tag_94:\n        /* \"contracts/Quoter/Quoter.sol\":3587:3614  TickMath.MIN_SQRT_RATIO + 1 */\n      0x01000276a4\n        /* \"contracts/Quoter/Quoter.sol\":3574:3644  zeroForOne ? TickMath.MIN_SQRT_RATIO + 1 : TickMath.MAX_SQRT_RATIO - 1 */\n    tag_95:\n        /* \"contracts/Quoter/Quoter.sol\":3720:3727  tokenIn */\n      dup13\n        /* \"contracts/Quoter/Quoter.sol\":3729:3732  fee */\n      dup12\n        /* \"contracts/Quoter/Quoter.sol\":3734:3742  tokenOut */\n      dup14\n        /* \"contracts/Quoter/Quoter.sol\":3703:3743  abi.encodePacked(tokenIn, fee, tokenOut) */\n      add(0x20, mload(0x40))\n      tag_96\n      swap4\n      swap3\n      swap2\n      swap1\n      tag_64\n      jump\t// in\n    tag_96:\n      mload(0x40)\n      0x20\n      dup2\n      dup4\n      sub\n      sub\n      dup2\n      mstore\n      swap1\n      0x40\n      mstore\n        /* \"contracts/Quoter/Quoter.sol\":3328:3757  getPool(tokenIn, tokenOut, fee).swap(... */\n      mload(0x40)\n      dup7\n      0xffffffff\n      and\n      0xe0\n      shl\n      dup2\n      mstore\n      0x04\n      add\n      tag_97\n      swap6\n      swap5\n      swap4\n      swap3\n      swap2\n      swap1\n      tag_66\n      jump\t// in\n    tag_97:\n      0x40\n      dup1\n      mload\n      dup1\n      dup4\n      sub\n      dup2\n      0x00\n      dup8\n      dup1\n      extcodesize\n      iszero\n      dup1\n      iszero\n      tag_98\n      jumpi\n      0x00\n      dup1\n      revert\n    tag_98:\n      pop\n      gas\n      call\n      swap3\n      pop\n      pop\n      pop\n      dup1\n      iszero\n      tag_99\n      jumpi\n      pop\n      0x40\n      dup1\n      mload\n      0x1f\n      returndatasize\n      swap1\n      dup2\n      add\n      0xffffffffffffffffffffffffffffffffffffffffffffffffffffffffffffffe0\n      and\n      dup3\n      add\n      swap1\n      swap3\n      mstore\n      tag_100\n      swap2\n      dup2\n      add\n      swap1\n      tag_70\n      jump\t// in\n    tag_100:\n      0x01\n    tag_99:\n        /* \"contracts/Quoter/Quoter.sol\":3312:3854  try... */\n      tag_71\n      jumpi\n      returndatasize\n      dup1\n      dup1\n      iszero\n      tag_105\n      jumpi\n      mload(0x40)\n      swap2\n      pop\n      and(add(returndatasize, 0x3f), not(0x1f))\n      dup3\n      add\n      0x40\n      mstore\n      returndatasize\n      dup3\n      mstore\n      returndatasize\n      0x00\n      0x20\n      dup5\n      add\n      returndatacopy\n      jump(tag_104)\n    tag_105:\n      0x60\n      swap2\n      pop\n    tag_104:\n      pop\n        /* \"contracts/Quoter/Quoter.sol\":3818:3843  parseRevertReason(reason) */\n      tag_77\n        /* \"contracts/Quoter/Quoter.sol\":3836:3842  reason */\n      dup2\n        /* \"contracts/Quoter/Quoter.sol\":3818:3835  parseRevertReason */\n      tag_78\n        /* \"contracts/Quoter/Quoter.sol\":3818:3843  parseRevertReason(reason) */\n      jump\t// in\n        /* \"contracts/Quoter/Quoter.sol\":1311:2556  function uniswapV3SwapCallback(... */\n    tag_40:\n        /* \"contracts/Quoter/Quoter.sol\":1489:1490  0 */\n      0x00\n        /* \"contracts/Quoter/Quoter.sol\":1474:1486  amount0Delta */\n      dup4\n        /* \"contracts/Quoter/Quoter.sol\":1474:1490  amount0Delta > 0 */\n      sgt\n        /* \"contracts/Quoter/Quoter.sol\":1474:1510  amount0Delta > 0 || amount1Delta > 0 */\n      dup1\n      tag_109\n      jumpi\n      pop\n        /* \"contracts/Quoter/Quoter.sol\":1509:1510  0 */\n      0x00\n        /* \"contracts/Quoter/Quoter.sol\":1494:1506  amount1Delta */\n      dup3\n        /* \"contracts/Quoter/Quoter.sol\":1494:1510  amount1Delta > 0 */\n      sgt\n        /* \"contracts/Quoter/Quoter.sol\":1474:1510  amount0Delta > 0 || amount1Delta > 0 */\n    tag_109:\n        /* \"contracts/Quoter/Quoter.sol\":1466:1511  require(amount0Delta > 0 || amount1Delta > 0) */\n      tag_110\n      jumpi\n      0x00\n      dup1\n      revert\n    tag_110:\n        /* \"contracts/Quoter/Quoter.sol\":1585:1600  address tokenIn */\n      0x00\n        /* \"contracts/Quoter/Quoter.sol\":1602:1618  address tokenOut */\n      dup1\n        /* \"contracts/Quoter/Quoter.sol\":1620:1630  uint24 fee */\n      0x00\n        /* \"contracts/Quoter/Quoter.sol\":1634:1656  path.decodeFirstPool() */\n      tag_111\n        /* \"contracts/Quoter/Quoter.sol\":1634:1638  path */\n      dup5\n        /* \"contracts/Quoter/Quoter.sol\":1634:1654  path.decodeFirstPool */\n      tag_47\n        /* \"contracts/Quoter/Quoter.sol\":1634:1656  path.decodeFirstPool() */\n      jump\t// in\n    tag_111:\n        /* \"contracts/Quoter/Quoter.sol\":1584:1656  (address tokenIn, address tokenOut, uint24 fee) = path.decodeFirstPool() */\n      swap3\n      pop\n      swap3\n      pop\n      swap3\n      pop\n        /* \"contracts/Quoter/Quoter.sol\":1666:1732  CallbackValidation.verifyCallback(factory, tokenIn, tokenOut, fee) */\n      tag_112\n        /* \"contracts/Quoter/Quoter.sol\":1700:1707  factory */\n      immutable(\"0x2c5c3a7f960335d25bf882a63919889d98f0b7566195d92a493f94d76e14e9b5\")\n        /* \"contracts/Quoter/Quoter.sol\":1709:1716  tokenIn */\n      dup5\n        /* \"contracts/Quoter/Quoter.sol\":1718:1726  tokenOut */\n      dup5\n        /* \"contracts/Quoter/Quoter.sol\":1728:1731  fee */\n      dup5\n        /* \"contracts/Quoter/Quoter.sol\":1666:1699  CallbackValidation.verifyCallback */\n      tag_113\n        /* \"contracts/Quoter/Quoter.sol\":1666:1732  CallbackValidation.verifyCallback(factory, tokenIn, tokenOut, fee) */\n      jump\t// in\n    tag_112:\n      pop\n        /* \"contracts/Quoter/Quoter.sol\":1744:1761  bool isExactInput */\n      0x00\n        /* \"contracts/Quoter/Quoter.sol\":1763:1782  uint256 amountToPay */\n      dup1\n        /* \"contracts/Quoter/Quoter.sol\":1784:1806  uint256 amountReceived */\n      0x00\n        /* \"contracts/Quoter/Quoter.sol\":1837:1838  0 */\n      dup1\n        /* \"contracts/Quoter/Quoter.sol\":1822:1834  amount0Delta */\n      dup10\n        /* \"contracts/Quoter/Quoter.sol\":1822:1838  amount0Delta > 0 */\n      sgt\n        /* \"contracts/Quoter/Quoter.sol\":1822:2010  amount0Delta > 0... */\n      tag_114\n      jumpi\n        /* \"contracts/Quoter/Quoter.sol\":1955:1962  tokenIn */\n      dup6\n        /* \"contracts/Quoter/Quoter.sol\":1944:1962  tokenOut < tokenIn */\n      0xffffffffffffffffffffffffffffffffffffffff\n      and\n        /* \"contracts/Quoter/Quoter.sol\":1944:1952  tokenOut */\n      dup6\n        /* \"contracts/Quoter/Quoter.sol\":1944:1962  tokenOut < tokenIn */\n      0xffffffffffffffffffffffffffffffffffffffff\n      and\n      lt\n        /* \"contracts/Quoter/Quoter.sol\":1972:1984  amount1Delta */\n      dup9\n        /* \"contracts/Quoter/Quoter.sol\":1996:2008  amount0Delta */\n      dup11\n        /* \"contracts/Quoter/Quoter.sol\":1995:2008  -amount0Delta */\n      0x00\n      sub\n        /* \"contracts/Quoter/Quoter.sol\":1822:2010  amount0Delta > 0... */\n      jump(tag_115)\n    tag_114:\n        /* \"contracts/Quoter/Quoter.sol\":1868:1876  tokenOut */\n      dup5\n        /* \"contracts/Quoter/Quoter.sol\":1858:1876  tokenIn < tokenOut */\n      0xffffffffffffffffffffffffffffffffffffffff\n      and\n        /* \"contracts/Quoter/Quoter.sol\":1858:1865  tokenIn */\n      dup7\n        /* \"contracts/Quoter/Quoter.sol\":1858:1876  tokenIn < tokenOut */\n      0xffffffffffffffffffffffffffffffffffffffff\n      and\n      lt\n        /* \"contracts/Quoter/Quoter.sol\":1886:1898  amount0Delta */\n      dup10\n        /* \"contracts/Quoter/Quoter.sol\":1910:1922  amount1Delta */\n      dup10\n        /* \"contracts/Quoter/Quoter.sol\":1909:1922  -amount1Delta */\n      0x00\n      sub\n        /* \"contracts/Quoter/Quoter.sol\":1822:2010  amount0Delta > 0... */\n    tag_115:\n        /* \"contracts/Quoter/Quoter.sol\":1743:2010  (bool isExactInput, uint256 amountToPay, uint256 amountReceived) =... */\n      swap3\n      pop\n      swap3\n      pop\n      swap3\n      pop\n        /* \"contracts/Quoter/Quoter.sol\":2024:2036  isExactInput */\n      dup3\n        /* \"contracts/Quoter/Quoter.sol\":2020:2550  if (isExactInput) {... */\n      iszero\n      tag_116\n      jumpi\n        /* \"contracts/Quoter/Quoter.sol\":2096:2100  0x40 */\n      0x40\n        /* \"contracts/Quoter/Quoter.sol\":2090:2101  mload(0x40) */\n      mload\n        /* \"contracts/Quoter/Quoter.sol\":2130:2144  amountReceived */\n      dup2\n        /* \"contracts/Quoter/Quoter.sol\":2125:2128  ptr */\n      dup2\n        /* \"contracts/Quoter/Quoter.sol\":2118:2145  mstore(ptr, amountReceived) */\n      mstore\n        /* \"contracts/Quoter/Quoter.sol\":2174:2176  32 */\n      0x20\n        /* \"contracts/Quoter/Quoter.sol\":2169:2172  ptr */\n      dup2\n        /* \"contracts/Quoter/Quoter.sol\":2162:2177  revert(ptr, 32) */\n      revert\n        /* \"contracts/Quoter/Quoter.sol\":2061:2191  {... */\n    tag_116:\n        /* \"contracts/Quoter/Quoter.sol\":2326:2341  amountOutCached */\n      sload(0x00)\n        /* \"contracts/Quoter/Quoter.sol\":2326:2346  amountOutCached != 0 */\n      iszero\n        /* \"contracts/Quoter/Quoter.sol\":2322:2390  if (amountOutCached != 0) require(amountReceived == amountOutCached) */\n      tag_119\n      jumpi\n        /* \"contracts/Quoter/Quoter.sol\":2374:2389  amountOutCached */\n      sload(0x00)\n        /* \"contracts/Quoter/Quoter.sol\":2356:2370  amountReceived */\n      dup2\n        /* \"contracts/Quoter/Quoter.sol\":2356:2389  amountReceived == amountOutCached */\n      eq\n        /* \"contracts/Quoter/Quoter.sol\":2348:2390  require(amountReceived == amountOutCached) */\n      tag_119\n      jumpi\n      0x00\n      dup1\n      revert\n    tag_119:\n        /* \"contracts/Quoter/Quoter.sol\":2448:2452  0x40 */\n      0x40\n        /* \"contracts/Quoter/Quoter.sol\":2442:2453  mload(0x40) */\n      mload\n        /* \"contracts/Quoter/Quoter.sol\":2482:2493  amountToPay */\n      dup3\n        /* \"contracts/Quoter/Quoter.sol\":2477:2480  ptr */\n      dup2\n        /* \"contracts/Quoter/Quoter.sol\":2470:2494  mstore(ptr, amountToPay) */\n      mstore\n        /* \"contracts/Quoter/Quoter.sol\":2523:2525  32 */\n      0x20\n        /* \"contracts/Quoter/Quoter.sol\":2518:2521  ptr */\n      dup2\n        /* \"contracts/Quoter/Quoter.sol\":2511:2526  revert(ptr, 32) */\n      revert\n        /* \"contracts/Quoter/Path.sol\":992:1130  function hasMultiplePools(bytes memory path) internal pure returns (bool) {... */\n    tag_45:\n        /* \"contracts/Quoter/Path.sol\":1083:1094  path.length */\n      mload\n        /* \"contracts/Quoter/Path.sol\":777:801  POP_OFFSET + NEXT_OFFSET */\n      0x42\n      gt\n        /* \"contracts/Quoter/Path.sol\":1083:1123  path.length >= MULTIPLE_POOLS_MIN_LENGTH */\n      iszero\n      swap1\n        /* \"contracts/Quoter/Path.sol\":992:1130  function hasMultiplePools(bytes memory path) internal pure returns (bool) {... */\n      jump\t// out\n        /* \"contracts/Quoter/Path.sol\":1392:1706  function decodeFirstPool(bytes memory path)... */\n    tag_47:\n        /* \"contracts/Quoter/Path.sol\":1496:1510  address tokenA */\n      0x00\n      dup1\n      dup1\n        /* \"contracts/Quoter/Path.sol\":1596:1613  path.toAddress(0) */\n      tag_122\n        /* \"contracts/Quoter/Path.sol\":1596:1600  path */\n      dup5\n        /* \"contracts/Quoter/Path.sol\":1496:1510  address tokenA */\n      dup3\n        /* \"contracts/Quoter/Path.sol\":1596:1610  path.toAddress */\n      tag_123\n        /* \"contracts/Quoter/Path.sol\":1596:1613  path.toAddress(0) */\n      jump\t// in\n    tag_122:\n        /* \"contracts/Quoter/Path.sol\":1587:1613  tokenA = path.toAddress(0) */\n      swap3\n      pop\n        /* \"contracts/Quoter/Path.sol\":1629:1653  path.toUint24(ADDR_SIZE) */\n      tag_124\n        /* \"contracts/Quoter/Path.sol\":1629:1633  path */\n      dup5\n        /* \"contracts/Quoter/Path.sol\":304:306  20 */\n      0x14\n        /* \"contracts/Quoter/Path.sol\":1629:1642  path.toUint24 */\n      tag_125\n        /* \"contracts/Quoter/Path.sol\":1629:1653  path.toUint24(ADDR_SIZE) */\n      jump\t// in\n    tag_124:\n        /* \"contracts/Quoter/Path.sol\":1623:1653  fee = path.toUint24(ADDR_SIZE) */\n      swap1\n      pop\n        /* \"contracts/Quoter/Path.sol\":1672:1699  path.toAddress(NEXT_OFFSET) */\n      tag_126\n        /* \"contracts/Quoter/Path.sol\":1672:1676  path */\n      dup5\n        /* \"contracts/Quoter/Path.sol\":507:527  ADDR_SIZE + FEE_SIZE */\n      0x17\n        /* \"contracts/Quoter/Path.sol\":1672:1686  path.toAddress */\n      tag_123\n        /* \"contracts/Quoter/Path.sol\":1672:1699  path.toAddress(NEXT_OFFSET) */\n      jump\t// in\n    tag_126:\n        /* \"contracts/Quoter/Path.sol\":1663:1699  tokenB = path.toAddress(NEXT_OFFSET) */\n      swap2\n      pop\n        /* \"contracts/Quoter/Path.sol\":1392:1706  function decodeFirstPool(bytes memory path)... */\n      swap2\n      swap4\n      swap1\n      swap3\n      pop\n      jump\t// out\n        /* \"contracts/Quoter/Path.sol\":2248:2397  function skipToken(bytes memory path) internal pure returns (bytes memory) {... */\n    tag_51:\n        /* \"contracts/Quoter/Path.sol\":2364:2375  path.length */\n      dup1\n      mload\n        /* \"contracts/Quoter/Path.sol\":2309:2321  bytes memory */\n      0x60\n      swap1\n        /* \"contracts/Quoter/Path.sol\":2340:2390  path.slice(NEXT_OFFSET, path.length - NEXT_OFFSET) */\n      tag_43\n      swap1\n        /* \"contracts/Quoter/Path.sol\":2364:2368  path */\n      dup4\n      swap1\n        /* \"contracts/Quoter/Path.sol\":507:527  ADDR_SIZE + FEE_SIZE */\n      0x17\n      swap1\n        /* \"contracts/Quoter/Path.sol\":2364:2389  path.length - NEXT_OFFSET */\n      0xffffffffffffffffffffffffffffffffffffffffffffffffffffffffffffffe9\n      add\n        /* \"contracts/Quoter/Path.sol\":2340:2350  path.slice */\n      tag_129\n        /* \"contracts/Quoter/Path.sol\":2340:2390  path.slice(NEXT_OFFSET, path.length - NEXT_OFFSET) */\n      jump\t// in\n        /* \"contracts/Quoter/Quoter.sol\":1013:1262  function getPool(... */\n    tag_56:\n        /* \"contracts/Quoter/Quoter.sol\":1126:1140  IUniswapV3Pool */\n      0x00\n        /* \"contracts/Quoter/Quoter.sol\":1174:1254  PoolAddress.computeAddress(factory, PoolAddress.getPoolKey(tokenA, tokenB, fee)) */\n      tag_131\n        /* \"contracts/Quoter/Quoter.sol\":1201:1208  factory */\n      immutable(\"0x2c5c3a7f960335d25bf882a63919889d98f0b7566195d92a493f94d76e14e9b5\")\n        /* \"contracts/Quoter/Quoter.sol\":1210:1253  PoolAddress.getPoolKey(tokenA, tokenB, fee) */\n      tag_132\n        /* \"contracts/Quoter/Quoter.sol\":1233:1239  tokenA */\n      dup7\n        /* \"contracts/Quoter/Quoter.sol\":1241:1247  tokenB */\n      dup7\n        /* \"contracts/Quoter/Quoter.sol\":1249:1252  fee */\n      dup7\n        /* \"contracts/Quoter/Quoter.sol\":1210:1232  PoolAddress.getPoolKey */\n      tag_133\n        /* \"contracts/Quoter/Quoter.sol\":1210:1253  PoolAddress.getPoolKey(tokenA, tokenB, fee) */\n      jump\t// in\n    tag_132:\n        /* \"contracts/Quoter/Quoter.sol\":1174:1200  PoolAddress.computeAddress */\n      tag_134\n        /* \"contracts/Quoter/Quoter.sol\":1174:1254  PoolAddress.computeAddress(factory, PoolAddress.getPoolKey(tokenA, tokenB, fee)) */\n      jump\t// in\n    tag_131:\n        /* \"contracts/Quoter/Quoter.sol\":1152:1255  return IUniswapV3Pool(PoolAddress.computeAddress(factory, PoolAddress.getPoolKey(tokenA, tokenB, fee))) */\n      swap5\n        /* \"contracts/Quoter/Quoter.sol\":1013:1262  function getPool(... */\n      swap4\n      pop\n      pop\n      pop\n      pop\n      jump\t// out\n        /* \"contracts/Quoter/SafeCast.sol\":924:1045  function toInt256(uint256 y) internal pure returns (int256 z) {... */\n    tag_58:\n        /* \"contracts/Quoter/SafeCast.sol\":976:984  int256 z */\n      0x00\n        /* \"contracts/Quoter/SafeCast.sol\":1008:1014  2**255 */\n      0x8000000000000000000000000000000000000000000000000000000000000000\n        /* \"contracts/Quoter/SafeCast.sol\":1004:1005  y */\n      dup3\n        /* \"contracts/Quoter/SafeCast.sol\":1004:1014  y < 2**255 */\n      lt\n        /* \"contracts/Quoter/SafeCast.sol\":996:1015  require(y < 2**255) */\n      tag_136\n      jumpi\n      0x00\n      dup1\n      revert\n    tag_136:\n      pop\n        /* \"contracts/Quoter/SafeCast.sol\":1036:1037  y */\n      swap1\n        /* \"contracts/Quoter/SafeCast.sol\":924:1045  function toInt256(uint256 y) internal pure returns (int256 z) {... */\n      jump\t// out\n        /* \"contracts/Quoter/Quoter.sol\":2636:3008  function parseRevertReason(bytes memory reason) private pure returns (uint256) {... */\n    tag_78:\n        /* \"contracts/Quoter/Quoter.sol\":2706:2713  uint256 */\n      0x00\n        /* \"contracts/Quoter/Quoter.sol\":2729:2735  reason */\n      dup2\n        /* \"contracts/Quoter/Quoter.sol\":2729:2742  reason.length */\n      mload\n        /* \"contracts/Quoter/Quoter.sol\":2746:2748  32 */\n      0x20\n        /* \"contracts/Quoter/Quoter.sol\":2729:2748  reason.length != 32 */\n      eq\n        /* \"contracts/Quoter/Quoter.sol\":2725:2956  if (reason.length != 32) {... */\n      tag_138\n      jumpi\n        /* \"contracts/Quoter/Quoter.sol\":2784:2786  68 */\n      0x44\n        /* \"contracts/Quoter/Quoter.sol\":2768:2774  reason */\n      dup3\n        /* \"contracts/Quoter/Quoter.sol\":2768:2781  reason.length */\n      mload\n        /* \"contracts/Quoter/Quoter.sol\":2768:2786  reason.length < 68 */\n      lt\n        /* \"contracts/Quoter/Quoter.sol\":2764:2814  if (reason.length < 68) revert('Unexpected error') */\n      iszero\n      tag_139\n      jumpi\n        /* \"contracts/Quoter/Quoter.sol\":2788:2814  revert('Unexpected error') */\n      mload(0x40)\n      0x08c379a000000000000000000000000000000000000000000000000000000000\n      dup2\n      mstore\n      0x04\n      add\n      tag_140\n      swap1\n      tag_141\n      jump\t// in\n    tag_140:\n      mload(0x40)\n      dup1\n      swap2\n      sub\n      swap1\n      revert\n        /* \"contracts/Quoter/Quoter.sol\":2764:2814  if (reason.length < 68) revert('Unexpected error') */\n    tag_139:\n        /* \"contracts/Quoter/Quoter.sol\":2877:2881  0x04 */\n      0x04\n        /* \"contracts/Quoter/Quoter.sol\":2869:2875  reason */\n      dup3\n        /* \"contracts/Quoter/Quoter.sol\":2865:2882  add(reason, 0x04) */\n      add\n        /* \"contracts/Quoter/Quoter.sol\":2855:2882  reason := add(reason, 0x04) */\n      swap2\n      pop\n        /* \"contracts/Quoter/Quoter.sol\":2927:2933  reason */\n      dup2\n        /* \"contracts/Quoter/Quoter.sol\":2916:2944  abi.decode(reason, (string)) */\n      dup1\n      0x20\n      add\n      swap1\n      mload\n      dup2\n      add\n      swap1\n      tag_142\n      swap2\n      swap1\n      tag_143\n      jump\t// in\n    tag_142:\n        /* \"contracts/Quoter/Quoter.sol\":2909:2945  revert(abi.decode(reason, (string))) */\n      mload(0x40)\n      0x08c379a000000000000000000000000000000000000000000000000000000000\n      dup2\n      mstore\n      0x04\n      add\n      tag_140\n      swap2\n      swap1\n      tag_145\n      jump\t// in\n        /* \"contracts/Quoter/Quoter.sol\":2725:2956  if (reason.length != 32) {... */\n    tag_138:\n        /* \"contracts/Quoter/Quoter.sol\":2983:2989  reason */\n      dup2\n        /* \"contracts/Quoter/Quoter.sol\":2972:3001  abi.decode(reason, (uint256)) */\n      dup1\n      0x20\n      add\n      swap1\n      mload\n      dup2\n      add\n      swap1\n      tag_43\n      swap2\n      swap1\n      tag_147\n      jump\t// in\n        /* \"contracts/Quoter/CallbackValidation.sol\":647:906  function verifyCallback(... */\n    tag_113:\n        /* \"contracts/Quoter/CallbackValidation.sol\":793:812  IUniswapV3Pool pool */\n      0x00\n        /* \"contracts/Quoter/CallbackValidation.sol\":831:899  verifyCallback(factory, PoolAddress.getPoolKey(tokenA, tokenB, fee)) */\n      tag_53\n        /* \"contracts/Quoter/CallbackValidation.sol\":846:853  factory */\n      dup6\n        /* \"contracts/Quoter/CallbackValidation.sol\":855:898  PoolAddress.getPoolKey(tokenA, tokenB, fee) */\n      tag_150\n        /* \"contracts/Quoter/CallbackValidation.sol\":878:884  tokenA */\n      dup7\n        /* \"contracts/Quoter/CallbackValidation.sol\":886:892  tokenB */\n      dup7\n        /* \"contracts/Quoter/CallbackValidation.sol\":894:897  fee */\n      dup7\n        /* \"contracts/Quoter/CallbackValidation.sol\":855:877  PoolAddress.getPoolKey */\n      tag_133\n        /* \"contracts/Quoter/CallbackValidation.sol\":855:898  PoolAddress.getPoolKey(tokenA, tokenB, fee) */\n      jump\t// in\n    tag_150:\n        /* \"contracts/Quoter/CallbackValidation.sol\":831:845  verifyCallback */\n      tag_151\n        /* \"contracts/Quoter/CallbackValidation.sol\":831:899  verifyCallback(factory, PoolAddress.getPoolKey(tokenA, tokenB, fee)) */\n      jump\t// in\n        /* \"contracts/Quoter/BytesLib.sol\":3412:3828  function toAddress(bytes memory _bytes, uint256 _start) internal pure returns (address) {... */\n    tag_123:\n        /* \"contracts/Quoter/BytesLib.sol\":3491:3498  address */\n      0x00\n        /* \"contracts/Quoter/BytesLib.sol\":3533:3539  _start */\n      dup2\n        /* \"contracts/Quoter/BytesLib.sol\":3518:3524  _start */\n      dup3\n        /* \"contracts/Quoter/BytesLib.sol\":3527:3529  20 */\n      0x14\n        /* \"contracts/Quoter/BytesLib.sol\":3518:3529  _start + 20 */\n      add\n        /* \"contracts/Quoter/BytesLib.sol\":3518:3539  _start + 20 >= _start */\n      lt\n      iszero\n        /* \"contracts/Quoter/BytesLib.sol\":3510:3562  require(_start + 20 >= _start, 'toAddress_overflow') */\n      tag_153\n      jumpi\n      0x40\n      dup1\n      mload\n      0x08c379a000000000000000000000000000000000000000000000000000000000\n      dup2\n      mstore\n      0x20\n      0x04\n      dup3\n      add\n      mstore\n      0x12\n      0x24\n      dup3\n      add\n      mstore\n      0x746f416464726573735f6f766572666c6f770000000000000000000000000000\n      0x44\n      dup3\n      add\n      mstore\n      swap1\n      mload\n      swap1\n      dup2\n      swap1\n      sub\n      0x64\n      add\n      swap1\n      revert\n    tag_153:\n        /* \"contracts/Quoter/BytesLib.sol\":3597:3603  _start */\n      dup2\n        /* \"contracts/Quoter/BytesLib.sol\":3606:3608  20 */\n      0x14\n        /* \"contracts/Quoter/BytesLib.sol\":3597:3608  _start + 20 */\n      add\n        /* \"contracts/Quoter/BytesLib.sol\":3580:3586  _bytes */\n      dup4\n        /* \"contracts/Quoter/BytesLib.sol\":3580:3593  _bytes.length */\n      mload\n        /* \"contracts/Quoter/BytesLib.sol\":3580:3608  _bytes.length >= _start + 20 */\n      lt\n      iszero\n        /* \"contracts/Quoter/BytesLib.sol\":3572:3634  require(_bytes.length >= _start + 20, 'toAddress_outOfBounds') */\n      tag_154\n      jumpi\n      0x40\n      dup1\n      mload\n      0x08c379a000000000000000000000000000000000000000000000000000000000\n      dup2\n      mstore\n      0x20\n      0x04\n      dup3\n      add\n      mstore\n      0x15\n      0x24\n      dup3\n      add\n      mstore\n      0x746f416464726573735f6f75744f66426f756e64730000000000000000000000\n      0x44\n      dup3\n      add\n      mstore\n      swap1\n      mload\n      swap1\n      dup2\n      swap1\n      sub\n      0x64\n      add\n      swap1\n      revert\n    tag_154:\n      pop\n        /* \"contracts/Quoter/BytesLib.sol\":3722:3752  add(add(_bytes, 0x20), _start) */\n      add\n        /* \"contracts/Quoter/BytesLib.sol\":3738:3742  0x20 */\n      0x20\n        /* \"contracts/Quoter/BytesLib.sol\":3722:3752  add(add(_bytes, 0x20), _start) */\n      add\n        /* \"contracts/Quoter/BytesLib.sol\":3716:3753  mload(add(add(_bytes, 0x20), _start)) */\n      mload\n        /* \"contracts/Quoter/BytesLib.sol\":3755:3782  0x1000000000000000000000000 */\n      0x01000000000000000000000000\n        /* \"contracts/Quoter/BytesLib.sol\":3712:3783  div(mload(add(add(_bytes, 0x20), _start)), 0x1000000000000000000000000) */\n      swap1\n      div\n      swap1\n        /* \"contracts/Quoter/BytesLib.sol\":3412:3828  function toAddress(bytes memory _bytes, uint256 _start) internal pure returns (address) {... */\n      jump\t// out\n        /* \"contracts/Quoter/BytesLib.sol\":3834:4199  function toUint24(bytes memory _bytes, uint256 _start) internal pure returns (uint24) {... */\n    tag_125:\n        /* \"contracts/Quoter/BytesLib.sol\":3912:3918  uint24 */\n      0x00\n        /* \"contracts/Quoter/BytesLib.sol\":3952:3958  _start */\n      dup2\n        /* \"contracts/Quoter/BytesLib.sol\":3938:3944  _start */\n      dup3\n        /* \"contracts/Quoter/BytesLib.sol\":3947:3948  3 */\n      0x03\n        /* \"contracts/Quoter/BytesLib.sol\":3938:3948  _start + 3 */\n      add\n        /* \"contracts/Quoter/BytesLib.sol\":3938:3958  _start + 3 >= _start */\n      lt\n      iszero\n        /* \"contracts/Quoter/BytesLib.sol\":3930:3980  require(_start + 3 >= _start, 'toUint24_overflow') */\n      tag_156\n      jumpi\n      0x40\n      dup1\n      mload\n      0x08c379a000000000000000000000000000000000000000000000000000000000\n      dup2\n      mstore\n      0x20\n      0x04\n      dup3\n      add\n      mstore\n      0x11\n      0x24\n      dup3\n      add\n      mstore\n      0x746f55696e7432345f6f766572666c6f77000000000000000000000000000000\n      0x44\n      dup3\n      add\n      mstore\n      swap1\n      mload\n      swap1\n      dup2\n      swap1\n      sub\n      0x64\n      add\n      swap1\n      revert\n    tag_156:\n        /* \"contracts/Quoter/BytesLib.sol\":4015:4021  _start */\n      dup2\n        /* \"contracts/Quoter/BytesLib.sol\":4024:4025  3 */\n      0x03\n        /* \"contracts/Quoter/BytesLib.sol\":4015:4025  _start + 3 */\n      add\n        /* \"contracts/Quoter/BytesLib.sol\":3998:4004  _bytes */\n      dup4\n        /* \"contracts/Quoter/BytesLib.sol\":3998:4011  _bytes.length */\n      mload\n        /* \"contracts/Quoter/BytesLib.sol\":3998:4025  _bytes.length >= _start + 3 */\n      lt\n      iszero\n        /* \"contracts/Quoter/BytesLib.sol\":3990:4050  require(_bytes.length >= _start + 3, 'toUint24_outOfBounds') */\n      tag_157\n      jumpi\n      0x40\n      dup1\n      mload\n      0x08c379a000000000000000000000000000000000000000000000000000000000\n      dup2\n      mstore\n      0x20\n      0x04\n      dup3\n      add\n      mstore\n      0x14\n      0x24\n      dup3\n      add\n      mstore\n      0x746f55696e7432345f6f75744f66426f756e6473000000000000000000000000\n      0x44\n      dup3\n      add\n      mstore\n      swap1\n      mload\n      swap1\n      dup2\n      swap1\n      sub\n      0x64\n      add\n      swap1\n      revert\n    tag_157:\n      pop\n        /* \"contracts/Quoter/BytesLib.sol\":4127:4156  add(add(_bytes, 0x3), _start) */\n      add\n        /* \"contracts/Quoter/BytesLib.sol\":4143:4146  0x3 */\n      0x03\n        /* \"contracts/Quoter/BytesLib.sol\":4127:4156  add(add(_bytes, 0x3), _start) */\n      add\n        /* \"contracts/Quoter/BytesLib.sol\":4121:4157  mload(add(add(_bytes, 0x3), _start)) */\n      mload\n      swap1\n        /* \"contracts/Quoter/BytesLib.sol\":3834:4199  function toUint24(bytes memory _bytes, uint256 _start) internal pure returns (uint24) {... */\n      jump\t// out\n        /* \"contracts/Quoter/BytesLib.sol\":399:3406  function slice(... */\n    tag_129:\n        /* \"contracts/Quoter/BytesLib.sol\":521:533  bytes memory */\n      0x60\n        /* \"contracts/Quoter/BytesLib.sol\":569:576  _length */\n      dup2\n        /* \"contracts/Quoter/BytesLib.sol\":553:560  _length */\n      dup3\n        /* \"contracts/Quoter/BytesLib.sol\":563:565  31 */\n      0x1f\n        /* \"contracts/Quoter/BytesLib.sol\":553:565  _length + 31 */\n      add\n        /* \"contracts/Quoter/BytesLib.sol\":553:576  _length + 31 >= _length */\n      lt\n      iszero\n        /* \"contracts/Quoter/BytesLib.sol\":545:595  require(_length + 31 >= _length, 'slice_overflow') */\n      tag_159\n      jumpi\n      0x40\n      dup1\n      mload\n      0x08c379a000000000000000000000000000000000000000000000000000000000\n      dup2\n      mstore\n      0x20\n      0x04\n      dup3\n      add\n      mstore\n      0x0e\n      0x24\n      dup3\n      add\n      mstore\n      0x736c6963655f6f766572666c6f77000000000000000000000000000000000000\n      0x44\n      dup3\n      add\n      mstore\n      swap1\n      mload\n      swap1\n      dup2\n      swap1\n      sub\n      0x64\n      add\n      swap1\n      revert\n    tag_159:\n        /* \"contracts/Quoter/BytesLib.sol\":633:639  _start */\n      dup3\n        /* \"contracts/Quoter/BytesLib.sol\":622:629  _length */\n      dup3\n        /* \"contracts/Quoter/BytesLib.sol\":613:619  _start */\n      dup5\n        /* \"contracts/Quoter/BytesLib.sol\":613:629  _start + _length */\n      add\n        /* \"contracts/Quoter/BytesLib.sol\":613:639  _start + _length >= _start */\n      lt\n      iszero\n        /* \"contracts/Quoter/BytesLib.sol\":605:658  require(_start + _length >= _start, 'slice_overflow') */\n      tag_160\n      jumpi\n      0x40\n      dup1\n      mload\n      0x08c379a000000000000000000000000000000000000000000000000000000000\n      dup2\n      mstore\n      0x20\n      0x04\n      dup3\n      add\n      mstore\n      0x0e\n      0x24\n      dup3\n      add\n      mstore\n      0x736c6963655f6f766572666c6f77000000000000000000000000000000000000\n      0x44\n      dup3\n      add\n      mstore\n      swap1\n      mload\n      swap1\n      dup2\n      swap1\n      sub\n      0x64\n      add\n      swap1\n      revert\n    tag_160:\n        /* \"contracts/Quoter/BytesLib.sol\":702:709  _length */\n      dup2\n        /* \"contracts/Quoter/BytesLib.sol\":693:699  _start */\n      dup4\n        /* \"contracts/Quoter/BytesLib.sol\":693:709  _start + _length */\n      add\n        /* \"contracts/Quoter/BytesLib.sol\":676:682  _bytes */\n      dup5\n        /* \"contracts/Quoter/BytesLib.sol\":676:689  _bytes.length */\n      mload\n        /* \"contracts/Quoter/BytesLib.sol\":676:709  _bytes.length >= _start + _length */\n      lt\n      iszero\n        /* \"contracts/Quoter/BytesLib.sol\":668:731  require(_bytes.length >= _start + _length, 'slice_outOfBounds') */\n      tag_161\n      jumpi\n      0x40\n      dup1\n      mload\n      0x08c379a000000000000000000000000000000000000000000000000000000000\n      dup2\n      mstore\n      0x20\n      0x04\n      dup3\n      add\n      mstore\n      0x11\n      0x24\n      dup3\n      add\n      mstore\n      0x736c6963655f6f75744f66426f756e6473000000000000000000000000000000\n      0x44\n      dup3\n      add\n      mstore\n      swap1\n      mload\n      swap1\n      dup2\n      swap1\n      sub\n      0x64\n      add\n      swap1\n      revert\n    tag_161:\n        /* \"contracts/Quoter/BytesLib.sol\":742:764  bytes memory tempBytes */\n      0x60\n        /* \"contracts/Quoter/BytesLib.sol\":805:820  iszero(_length) */\n      dup3\n      iszero\n        /* \"contracts/Quoter/BytesLib.sol\":837:2936  case 0 {... */\n      dup1\n      iszero\n      tag_163\n      jumpi\n        /* \"contracts/Quoter/BytesLib.sol\":3089:3093  0x40 */\n      0x40\n        /* \"contracts/Quoter/BytesLib.sol\":3083:3094  mload(0x40) */\n      mload\n        /* \"contracts/Quoter/BytesLib.sol\":3070:3094  tempBytes := mload(0x40) */\n      swap2\n      pop\n        /* \"contracts/Quoter/BytesLib.sol\":3287:3288  0 */\n      0x00\n        /* \"contracts/Quoter/BytesLib.sol\":3276:3285  tempBytes */\n      dup3\n        /* \"contracts/Quoter/BytesLib.sol\":3269:3289  mstore(tempBytes, 0) */\n      mstore\n        /* \"contracts/Quoter/BytesLib.sol\":3339:3343  0x20 */\n      0x20\n        /* \"contracts/Quoter/BytesLib.sol\":3328:3337  tempBytes */\n      dup3\n        /* \"contracts/Quoter/BytesLib.sol\":3324:3344  add(tempBytes, 0x20) */\n      add\n        /* \"contracts/Quoter/BytesLib.sol\":3318:3322  0x40 */\n      0x40\n        /* \"contracts/Quoter/BytesLib.sol\":3311:3345  mstore(0x40, add(tempBytes, 0x20)) */\n      mstore\n        /* \"contracts/Quoter/BytesLib.sol\":798:3363  switch iszero(_length)... */\n      jump(tag_162)\n        /* \"contracts/Quoter/BytesLib.sol\":837:2936  case 0 {... */\n    tag_163:\n        /* \"contracts/Quoter/BytesLib.sol\":1031:1035  0x40 */\n      0x40\n        /* \"contracts/Quoter/BytesLib.sol\":1025:1036  mload(0x40) */\n      mload\n        /* \"contracts/Quoter/BytesLib.sol\":1012:1036  tempBytes := mload(0x40) */\n      swap2\n      pop\n        /* \"contracts/Quoter/BytesLib.sol\":1726:1728  31 */\n      0x1f\n        /* \"contracts/Quoter/BytesLib.sol\":1717:1724  _length */\n      dup5\n        /* \"contracts/Quoter/BytesLib.sol\":1713:1729  and(_length, 31) */\n      and\n        /* \"contracts/Quoter/BytesLib.sol\":2128:2137  lengthmod */\n      dup1\n        /* \"contracts/Quoter/BytesLib.sol\":2121:2138  iszero(lengthmod) */\n      iszero\n        /* \"contracts/Quoter/BytesLib.sol\":2115:2119  0x20 */\n      0x20\n        /* \"contracts/Quoter/BytesLib.sol\":2111:2139  mul(0x20, iszero(lengthmod)) */\n      mul\n        /* \"contracts/Quoter/BytesLib.sol\":2099:2108  lengthmod */\n      dup2\n        /* \"contracts/Quoter/BytesLib.sol\":2088:2097  tempBytes */\n      dup5\n        /* \"contracts/Quoter/BytesLib.sol\":2084:2109  add(tempBytes, lengthmod) */\n      add\n        /* \"contracts/Quoter/BytesLib.sol\":2080:2140  add(add(tempBytes, lengthmod), mul(0x20, iszero(lengthmod))) */\n      add\n        /* \"contracts/Quoter/BytesLib.sol\":2180:2187  _length */\n      dup6\n        /* \"contracts/Quoter/BytesLib.sol\":2176:2178  mc */\n      dup2\n        /* \"contracts/Quoter/BytesLib.sol\":2172:2188  add(mc, _length) */\n      add\n        /* \"contracts/Quoter/BytesLib.sol\":2448:2454  _start */\n      dup8\n        /* \"contracts/Quoter/BytesLib.sol\":2434:2443  lengthmod */\n      dup4\n        /* \"contracts/Quoter/BytesLib.sol\":2427:2444  iszero(lengthmod) */\n      iszero\n        /* \"contracts/Quoter/BytesLib.sol\":2421:2425  0x20 */\n      0x20\n        /* \"contracts/Quoter/BytesLib.sol\":2417:2445  mul(0x20, iszero(lengthmod)) */\n      mul\n        /* \"contracts/Quoter/BytesLib.sol\":2405:2414  lengthmod */\n      dup5\n        /* \"contracts/Quoter/BytesLib.sol\":2397:2403  _bytes */\n      dup12\n        /* \"contracts/Quoter/BytesLib.sol\":2393:2415  add(_bytes, lengthmod) */\n      add\n        /* \"contracts/Quoter/BytesLib.sol\":2389:2446  add(add(_bytes, lengthmod), mul(0x20, iszero(lengthmod))) */\n      add\n        /* \"contracts/Quoter/BytesLib.sol\":2385:2455  add(add(add(_bytes, lengthmod), mul(0x20, iszero(lengthmod))), _start) */\n      add\n        /* \"contracts/Quoter/BytesLib.sol\":2210:2671  for {... */\n    tag_164:\n        /* \"contracts/Quoter/BytesLib.sol\":2485:2488  end */\n      dup2\n        /* \"contracts/Quoter/BytesLib.sol\":2481:2483  mc */\n      dup4\n        /* \"contracts/Quoter/BytesLib.sol\":2478:2489  lt(mc, end) */\n      lt\n        /* \"contracts/Quoter/BytesLib.sol\":2210:2671  for {... */\n      iszero\n      tag_166\n      jumpi\n        /* \"contracts/Quoter/BytesLib.sol\":2639:2648  mload(cc) */\n      dup1\n      mload\n        /* \"contracts/Quoter/BytesLib.sol\":2628:2649  mstore(mc, mload(cc)) */\n      dup4\n      mstore\n        /* \"contracts/Quoter/BytesLib.sol\":2530:2534  0x20 */\n      0x20\n        /* \"contracts/Quoter/BytesLib.sol\":2522:2535  add(mc, 0x20) */\n      swap3\n      dup4\n      add\n      swap3\n        /* \"contracts/Quoter/BytesLib.sol\":2566:2579  add(cc, 0x20) */\n      add\n        /* \"contracts/Quoter/BytesLib.sol\":2210:2671  for {... */\n      jump(tag_164)\n    tag_166:\n      pop\n      pop\n        /* \"contracts/Quoter/BytesLib.sol\":2693:2719  mstore(tempBytes, _length) */\n      dup6\n      dup5\n      mstore\n        /* \"contracts/Quoter/BytesLib.sol\":2913:2915  31 */\n      0x1f\n        /* \"contracts/Quoter/BytesLib.sol\":2896:2907  add(mc, 31) */\n      add\n        /* \"contracts/Quoter/BytesLib.sol\":2909:2916  not(31) */\n      0xffffffffffffffffffffffffffffffffffffffffffffffffffffffffffffffe0\n        /* \"contracts/Quoter/BytesLib.sol\":2892:2917  and(add(mc, 31), not(31)) */\n      and\n        /* \"contracts/Quoter/BytesLib.sol\":2886:2890  0x40 */\n      0x40\n        /* \"contracts/Quoter/BytesLib.sol\":2879:2918  mstore(0x40, and(add(mc, 31), not(31))) */\n      mstore\n      pop\n        /* \"contracts/Quoter/BytesLib.sol\":798:3363  switch iszero(_length)... */\n    tag_162:\n      pop\n        /* \"contracts/Quoter/BytesLib.sol\":3390:3399  tempBytes */\n      swap5\n        /* \"contracts/Quoter/BytesLib.sol\":399:3406  function slice(... */\n      swap4\n      pop\n      pop\n      pop\n      pop\n      jump\t// out\n        /* \"contracts/Quoter/PoolAddress.sol\":784:1058  function getPoolKey(... */\n    tag_133:\n        /* \"contracts/Quoter/PoolAddress.sol\":901:915  PoolKey memory */\n      tag_167\n      tag_168\n      jump\t// in\n    tag_167:\n        /* \"contracts/Quoter/PoolAddress.sol\":940:946  tokenB */\n      dup3\n        /* \"contracts/Quoter/PoolAddress.sol\":931:946  tokenA > tokenB */\n      0xffffffffffffffffffffffffffffffffffffffff\n      and\n        /* \"contracts/Quoter/PoolAddress.sol\":931:937  tokenA */\n      dup5\n        /* \"contracts/Quoter/PoolAddress.sol\":931:946  tokenA > tokenB */\n      0xffffffffffffffffffffffffffffffffffffffff\n      and\n      gt\n        /* \"contracts/Quoter/PoolAddress.sol\":927:983  if (tokenA > tokenB) (tokenA, tokenB) = (tokenB, tokenA) */\n      iszero\n      tag_170\n      jumpi\n        /* \"contracts/Quoter/PoolAddress.sol\":968:974  tokenB */\n      swap2\n      swap3\n        /* \"contracts/Quoter/PoolAddress.sol\":976:982  tokenA */\n      swap2\n        /* \"contracts/Quoter/PoolAddress.sol\":927:983  if (tokenA > tokenB) (tokenA, tokenB) = (tokenB, tokenA) */\n    tag_170:\n      pop\n        /* \"contracts/Quoter/PoolAddress.sol\":1000:1051  PoolKey({token0: tokenA, token1: tokenB, fee: fee}) */\n      0x40\n      dup1\n      mload\n      0x60\n      dup2\n      add\n      dup3\n      mstore\n      0xffffffffffffffffffffffffffffffffffffffff\n      swap5\n      dup6\n      and\n      dup2\n      mstore\n      swap3\n      swap1\n      swap4\n      and\n      0x20\n      dup4\n      add\n      mstore\n      0xffffff\n      and\n      swap2\n      dup2\n      add\n      swap2\n      swap1\n      swap2\n      mstore\n      swap1\n        /* \"contracts/Quoter/PoolAddress.sol\":784:1058  function getPoolKey(... */\n      jump\t// out\n        /* \"contracts/Quoter/PoolAddress.sol\":1305:1817  function computeAddress(address factory, PoolKey memory key) internal pure returns (address pool) {... */\n    tag_134:\n        /* \"contracts/Quoter/PoolAddress.sol\":1389:1401  address pool */\n      0x00\n        /* \"contracts/Quoter/PoolAddress.sol\":1434:1437  key */\n      dup2\n        /* \"contracts/Quoter/PoolAddress.sol\":1434:1444  key.token1 */\n      0x20\n      add\n      mload\n        /* \"contracts/Quoter/PoolAddress.sol\":1421:1444  key.token0 < key.token1 */\n      0xffffffffffffffffffffffffffffffffffffffff\n      and\n        /* \"contracts/Quoter/PoolAddress.sol\":1421:1424  key */\n      dup3\n        /* \"contracts/Quoter/PoolAddress.sol\":1421:1431  key.token0 */\n      0x00\n      add\n      mload\n        /* \"contracts/Quoter/PoolAddress.sol\":1421:1444  key.token0 < key.token1 */\n      0xffffffffffffffffffffffffffffffffffffffff\n      and\n      lt\n        /* \"contracts/Quoter/PoolAddress.sol\":1413:1445  require(key.token0 < key.token1) */\n      tag_172\n      jumpi\n      0x00\n      dup1\n      revert\n    tag_172:\n      pop\n        /* \"contracts/Quoter/PoolAddress.sol\":1668:1678  key.token0 */\n      dup1\n      mload\n        /* \"contracts/Quoter/PoolAddress.sol\":1680:1690  key.token1 */\n      0x20\n      dup1\n      dup4\n      add\n      mload\n        /* \"contracts/Quoter/PoolAddress.sol\":1692:1699  key.fee */\n      0x40\n      swap4\n      dup5\n      add\n      mload\n        /* \"contracts/Quoter/PoolAddress.sol\":1657:1700  abi.encode(key.token0, key.token1, key.fee) */\n      dup5\n      mload\n      0xffffffffffffffffffffffffffffffffffffffff\n      swap5\n      dup6\n      and\n      dup2\n      dup6\n      add\n      mstore\n      swap4\n      swap1\n      swap2\n      and\n      dup4\n      dup6\n      add\n      mstore\n      0xffffff\n      and\n      0x60\n      dup1\n      dup5\n      add\n      swap2\n      swap1\n      swap2\n      mstore\n      dup4\n      mload\n      dup1\n      dup5\n      sub\n      dup3\n      add\n      dup2\n      mstore\n      0x80\n      dup5\n      add\n      dup6\n      mstore\n        /* \"contracts/Quoter/PoolAddress.sol\":1647:1701  keccak256(abi.encode(key.token0, key.token1, key.fee)) */\n      dup1\n      mload\n      swap1\n      dup4\n      add\n      keccak256\n        /* \"contracts/Quoter/PoolAddress.sol\":1539:1768  abi.encodePacked(... */\n      0xff00000000000000000000000000000000000000000000000000000000000000\n      0xa0\n      dup6\n      add\n      mstore\n      swap5\n      swap1\n      shl\n      0xffffffffffffffffffffffffffffffffffffffff000000000000000000000000\n      and\n      0xa1\n      dup4\n      add\n      mstore\n      0xb5\n      dup3\n      add\n      swap4\n      swap1\n      swap4\n      mstore\n        /* \"contracts/Quoter/PoolAddress.sol\":241:307  0xf1804c752c7c65cc02f2ee3526f62cd20f9f0f6b31c1608c7d7504d2c177bc23 */\n      0xf1804c752c7c65cc02f2ee3526f62cd20f9f0f6b31c1608c7d7504d2c177bc23\n        /* \"contracts/Quoter/PoolAddress.sol\":1539:1768  abi.encodePacked(... */\n      0xd5\n      dup1\n      dup4\n      add\n      swap2\n      swap1\n      swap2\n      mstore\n      dup3\n      mload\n      dup1\n      dup4\n      sub\n      swap1\n      swap2\n      add\n      dup2\n      mstore\n      0xf5\n      swap1\n      swap2\n      add\n      swap1\n      swap2\n      mstore\n        /* \"contracts/Quoter/PoolAddress.sol\":1508:1786  keccak256(... */\n      dup1\n      mload\n      swap2\n      add\n      keccak256\n      swap1\n        /* \"contracts/Quoter/PoolAddress.sol\":1305:1817  function computeAddress(address factory, PoolKey memory key) internal pure returns (address pool) {... */\n      jump\t// out\n        /* \"contracts/Quoter/CallbackValidation.sol\":1153:1432  function verifyCallback(address factory, PoolAddress.PoolKey memory poolKey)... */\n    tag_151:\n        /* \"contracts/Quoter/CallbackValidation.sol\":1277:1296  IUniswapV3Pool pool */\n      0x00\n        /* \"contracts/Quoter/CallbackValidation.sol\":1334:1378  PoolAddress.computeAddress(factory, poolKey) */\n      tag_174\n        /* \"contracts/Quoter/CallbackValidation.sol\":1361:1368  factory */\n      dup4\n        /* \"contracts/Quoter/CallbackValidation.sol\":1370:1377  poolKey */\n      dup4\n        /* \"contracts/Quoter/CallbackValidation.sol\":1334:1360  PoolAddress.computeAddress */\n      tag_134\n        /* \"contracts/Quoter/CallbackValidation.sol\":1334:1378  PoolAddress.computeAddress(factory, poolKey) */\n      jump\t// in\n    tag_174:\n        /* \"contracts/Quoter/CallbackValidation.sol\":1312:1379  pool = IUniswapV3Pool(PoolAddress.computeAddress(factory, poolKey)) */\n      swap1\n      pop\n        /* \"contracts/Quoter/CallbackValidation.sol\":1397:1407  msg.sender */\n      caller\n        /* \"contracts/Quoter/CallbackValidation.sol\":1397:1424  msg.sender == address(pool) */\n      0xffffffffffffffffffffffffffffffffffffffff\n      dup3\n      and\n      eq\n        /* \"contracts/Quoter/CallbackValidation.sol\":1389:1425  require(msg.sender == address(pool)) */\n      tag_43\n      jumpi\n      0x00\n      dup1\n      revert\n    tag_168:\n      0x40\n      dup1\n      mload\n      0x60\n      dup2\n      add\n      dup3\n      mstore\n      0x00\n      dup1\n      dup3\n      mstore\n      0x20\n      dup3\n      add\n      dup2\n      swap1\n      mstore\n      swap2\n      dup2\n      add\n      swap2\n      swap1\n      swap2\n      mstore\n      swap1\n      jump\t// out\n        /* \"#utility.yul\":14:499   */\n    tag_177:\n      0x00\n        /* \"#utility.yul\":111:114   */\n      dup3\n        /* \"#utility.yul\":104:108   */\n      0x1f\n        /* \"#utility.yul\":96:102   */\n      dup4\n        /* \"#utility.yul\":92:109   */\n      add\n        /* \"#utility.yul\":88:115   */\n      slt\n        /* \"#utility.yul\":78:80   */\n      tag_179\n      jumpi\n        /* \"#utility.yul\":133:138   */\n      dup1\n        /* \"#utility.yul\":126:131   */\n      dup2\n        /* \"#utility.yul\":119:139   */\n      revert\n        /* \"#utility.yul\":78:80   */\n    tag_179:\n        /* \"#utility.yul\":173:179   */\n      dup2\n        /* \"#utility.yul\":160:180   */\n      calldataload\n        /* \"#utility.yul\":204:253   */\n      tag_180\n        /* \"#utility.yul\":219:252   */\n      tag_181\n        /* \"#utility.yul\":249:251   */\n      dup3\n        /* \"#utility.yul\":219:252   */\n      tag_182\n      jump\t// in\n    tag_181:\n        /* \"#utility.yul\":204:253   */\n      tag_183\n      jump\t// in\n    tag_180:\n        /* \"#utility.yul\":278:280   */\n      dup2\n        /* \"#utility.yul\":269:276   */\n      dup2\n        /* \"#utility.yul\":262:281   */\n      mstore\n        /* \"#utility.yul\":324:327   */\n      dup5\n        /* \"#utility.yul\":317:321   */\n      0x20\n        /* \"#utility.yul\":312:314   */\n      dup4\n        /* \"#utility.yul\":304:310   */\n      dup7\n        /* \"#utility.yul\":300:315   */\n      add\n        /* \"#utility.yul\":296:322   */\n      add\n        /* \"#utility.yul\":293:328   */\n      gt\n        /* \"#utility.yul\":290:292   */\n      iszero\n      tag_184\n      jumpi\n        /* \"#utility.yul\":345:350   */\n      dup3\n        /* \"#utility.yul\":338:343   */\n      dup4\n        /* \"#utility.yul\":331:351   */\n      revert\n        /* \"#utility.yul\":290:292   */\n    tag_184:\n        /* \"#utility.yul\":414:416   */\n      dup2\n        /* \"#utility.yul\":407:411   */\n      0x20\n        /* \"#utility.yul\":399:405   */\n      dup6\n        /* \"#utility.yul\":395:412   */\n      add\n        /* \"#utility.yul\":388:392   */\n      0x20\n        /* \"#utility.yul\":379:386   */\n      dup4\n        /* \"#utility.yul\":375:393   */\n      add\n        /* \"#utility.yul\":362:417   */\n      calldatacopy\n        /* \"#utility.yul\":437:453   */\n      swap1\n      dup2\n      add\n        /* \"#utility.yul\":455:459   */\n      0x20\n        /* \"#utility.yul\":433:460   */\n      add\n        /* \"#utility.yul\":426:468   */\n      swap2\n      swap1\n      swap2\n      mstore\n        /* \"#utility.yul\":441:448   */\n      swap3\n        /* \"#utility.yul\":68:499   */\n      swap2\n      pop\n      pop\n      jump\t// out\n        /* \"#utility.yul\":504:1299   */\n    tag_19:\n      0x00\n      dup1\n      0x00\n      dup1\n      0x00\n        /* \"#utility.yul\":683:686   */\n      0xa0\n        /* \"#utility.yul\":671:680   */\n      dup7\n        /* \"#utility.yul\":662:669   */\n      dup9\n        /* \"#utility.yul\":658:681   */\n      sub\n        /* \"#utility.yul\":654:687   */\n      slt\n        /* \"#utility.yul\":651:653   */\n      iszero\n      tag_186\n      jumpi\n        /* \"#utility.yul\":705:711   */\n      dup1\n        /* \"#utility.yul\":697:703   */\n      dup2\n        /* \"#utility.yul\":690:712   */\n      revert\n        /* \"#utility.yul\":651:653   */\n    tag_186:\n        /* \"#utility.yul\":749:758   */\n      dup6\n        /* \"#utility.yul\":736:759   */\n      calldataload\n        /* \"#utility.yul\":768:801   */\n      tag_187\n        /* \"#utility.yul\":795:800   */\n      dup2\n        /* \"#utility.yul\":768:801   */\n      tag_188\n      jump\t// in\n    tag_187:\n        /* \"#utility.yul\":820:825   */\n      swap5\n      pop\n        /* \"#utility.yul\":877:879   */\n      0x20\n        /* \"#utility.yul\":862:880   */\n      dup7\n      add\n        /* \"#utility.yul\":849:881   */\n      calldataload\n        /* \"#utility.yul\":890:925   */\n      tag_189\n        /* \"#utility.yul\":849:881   */\n      dup2\n        /* \"#utility.yul\":890:925   */\n      tag_188\n      jump\t// in\n    tag_189:\n        /* \"#utility.yul\":944:951   */\n      swap4\n      pop\n        /* \"#utility.yul\":1003:1005   */\n      0x40\n        /* \"#utility.yul\":988:1006   */\n      dup7\n      add\n        /* \"#utility.yul\":975:1007   */\n      calldataload\n        /* \"#utility.yul\":1051:1059   */\n      0xffffff\n        /* \"#utility.yul\":1038:1060   */\n      dup2\n      and\n        /* \"#utility.yul\":1026:1061   */\n      dup2\n      eq\n        /* \"#utility.yul\":1016:1018   */\n      tag_190\n      jumpi\n        /* \"#utility.yul\":1080:1086   */\n      dup2\n        /* \"#utility.yul\":1072:1078   */\n      dup3\n        /* \"#utility.yul\":1065:1087   */\n      revert\n        /* \"#utility.yul\":1016:1018   */\n    tag_190:\n        /* \"#utility.yul\":1108:1115   */\n      swap3\n      pop\n        /* \"#utility.yul\":1162:1164   */\n      0x60\n        /* \"#utility.yul\":1147:1165   */\n      dup7\n      add\n        /* \"#utility.yul\":1134:1166   */\n      calldataload\n      swap2\n      pop\n        /* \"#utility.yul\":1218:1221   */\n      0x80\n        /* \"#utility.yul\":1203:1222   */\n      dup7\n      add\n        /* \"#utility.yul\":1190:1223   */\n      calldataload\n        /* \"#utility.yul\":1232:1267   */\n      tag_191\n        /* \"#utility.yul\":1190:1223   */\n      dup2\n        /* \"#utility.yul\":1232:1267   */\n      tag_188\n      jump\t// in\n    tag_191:\n        /* \"#utility.yul\":1286:1293   */\n      dup1\n        /* \"#utility.yul\":1276:1293   */\n      swap2\n      pop\n      pop\n        /* \"#utility.yul\":641:1299   */\n      swap3\n      swap6\n      pop\n      swap3\n      swap6\n      swap1\n      swap4\n      pop\n      jump\t// out\n        /* \"#utility.yul\":1304:1714   */\n    tag_13:\n      0x00\n      dup1\n        /* \"#utility.yul\":1442:1444   */\n      0x40\n        /* \"#utility.yul\":1430:1439   */\n      dup4\n        /* \"#utility.yul\":1421:1428   */\n      dup6\n        /* \"#utility.yul\":1417:1440   */\n      sub\n        /* \"#utility.yul\":1413:1445   */\n      slt\n        /* \"#utility.yul\":1410:1412   */\n      iszero\n      tag_193\n      jumpi\n        /* \"#utility.yul\":1463:1469   */\n      dup2\n        /* \"#utility.yul\":1455:1461   */\n      dup3\n        /* \"#utility.yul\":1448:1470   */\n      revert\n        /* \"#utility.yul\":1410:1412   */\n    tag_193:\n        /* \"#utility.yul\":1508:1517   */\n      dup3\n        /* \"#utility.yul\":1495:1518   */\n      calldataload\n        /* \"#utility.yul\":1541:1559   */\n      0xffffffffffffffff\n        /* \"#utility.yul\":1533:1539   */\n      dup2\n        /* \"#utility.yul\":1530:1560   */\n      gt\n        /* \"#utility.yul\":1527:1529   */\n      iszero\n      tag_194\n      jumpi\n        /* \"#utility.yul\":1578:1584   */\n      dup3\n        /* \"#utility.yul\":1570:1576   */\n      dup4\n        /* \"#utility.yul\":1563:1585   */\n      revert\n        /* \"#utility.yul\":1527:1529   */\n    tag_194:\n        /* \"#utility.yul\":1606:1657   */\n      tag_195\n        /* \"#utility.yul\":1649:1656   */\n      dup6\n        /* \"#utility.yul\":1640:1646   */\n      dup3\n        /* \"#utility.yul\":1629:1638   */\n      dup7\n        /* \"#utility.yul\":1625:1647   */\n      add\n        /* \"#utility.yul\":1606:1657   */\n      tag_177\n      jump\t// in\n    tag_195:\n        /* \"#utility.yul\":1596:1657   */\n      swap6\n        /* \"#utility.yul\":1704:1706   */\n      0x20\n        /* \"#utility.yul\":1689:1707   */\n      swap5\n      swap1\n      swap5\n      add\n        /* \"#utility.yul\":1676:1708   */\n      calldataload\n      swap5\n      pop\n      pop\n      pop\n      pop\n        /* \"#utility.yul\":1400:1714   */\n      jump\t// out\n        /* \"#utility.yul\":1719:1972   */\n    tag_70:\n      0x00\n      dup1\n        /* \"#utility.yul\":1857:1859   */\n      0x40\n        /* \"#utility.yul\":1845:1854   */\n      dup4\n        /* \"#utility.yul\":1836:1843   */\n      dup6\n        /* \"#utility.yul\":1832:1855   */\n      sub\n        /* \"#utility.yul\":1828:1860   */\n      slt\n        /* \"#utility.yul\":1825:1827   */\n      iszero\n      tag_197\n      jumpi\n        /* \"#utility.yul\":1878:1884   */\n      dup2\n        /* \"#utility.yul\":1870:1876   */\n      dup3\n        /* \"#utility.yul\":1863:1885   */\n      revert\n        /* \"#utility.yul\":1825:1827   */\n    tag_197:\n      pop\n      pop\n        /* \"#utility.yul\":1906:1922   */\n      dup1\n      mload\n        /* \"#utility.yul\":1962:1964   */\n      0x20\n        /* \"#utility.yul\":1947:1965   */\n      swap1\n      swap2\n      add\n        /* \"#utility.yul\":1941:1966   */\n      mload\n        /* \"#utility.yul\":1906:1922   */\n      swap1\n      swap3\n        /* \"#utility.yul\":1941:1966   */\n      swap1\n      swap2\n      pop\n        /* \"#utility.yul\":1815:1972   */\n      jump\t// out\n        /* \"#utility.yul\":1977:2453   */\n    tag_39:\n      0x00\n      dup1\n      0x00\n        /* \"#utility.yul\":2130:2132   */\n      0x60\n        /* \"#utility.yul\":2118:2127   */\n      dup5\n        /* \"#utility.yul\":2109:2116   */\n      dup7\n        /* \"#utility.yul\":2105:2128   */\n      sub\n        /* \"#utility.yul\":2101:2133   */\n      slt\n        /* \"#utility.yul\":2098:2100   */\n      iszero\n      tag_199\n      jumpi\n        /* \"#utility.yul\":2151:2157   */\n      dup3\n        /* \"#utility.yul\":2143:2149   */\n      dup4\n        /* \"#utility.yul\":2136:2158   */\n      revert\n        /* \"#utility.yul\":2098:2100   */\n    tag_199:\n        /* \"#utility.yul\":2192:2201   */\n      dup4\n        /* \"#utility.yul\":2179:2202   */\n      calldataload\n        /* \"#utility.yul\":2169:2202   */\n      swap3\n      pop\n        /* \"#utility.yul\":2249:2251   */\n      0x20\n        /* \"#utility.yul\":2238:2247   */\n      dup5\n        /* \"#utility.yul\":2234:2252   */\n      add\n        /* \"#utility.yul\":2221:2253   */\n      calldataload\n        /* \"#utility.yul\":2211:2253   */\n      swap2\n      pop\n        /* \"#utility.yul\":2304:2306   */\n      0x40\n        /* \"#utility.yul\":2293:2302   */\n      dup5\n        /* \"#utility.yul\":2289:2307   */\n      add\n        /* \"#utility.yul\":2276:2308   */\n      calldataload\n        /* \"#utility.yul\":2331:2349   */\n      0xffffffffffffffff\n        /* \"#utility.yul\":2323:2329   */\n      dup2\n        /* \"#utility.yul\":2320:2350   */\n      gt\n        /* \"#utility.yul\":2317:2319   */\n      iszero\n      tag_200\n      jumpi\n        /* \"#utility.yul\":2368:2374   */\n      dup2\n        /* \"#utility.yul\":2360:2366   */\n      dup3\n        /* \"#utility.yul\":2353:2375   */\n      revert\n        /* \"#utility.yul\":2317:2319   */\n    tag_200:\n        /* \"#utility.yul\":2396:2447   */\n      tag_201\n        /* \"#utility.yul\":2439:2446   */\n      dup7\n        /* \"#utility.yul\":2430:2436   */\n      dup3\n        /* \"#utility.yul\":2419:2428   */\n      dup8\n        /* \"#utility.yul\":2415:2437   */\n      add\n        /* \"#utility.yul\":2396:2447   */\n      tag_177\n      jump\t// in\n    tag_201:\n        /* \"#utility.yul\":2386:2447   */\n      swap2\n      pop\n      pop\n        /* \"#utility.yul\":2088:2453   */\n      swap3\n      pop\n      swap3\n      pop\n      swap3\n      jump\t// out\n        /* \"#utility.yul\":2458:3134   */\n    tag_143:\n      0x00\n        /* \"#utility.yul\":2591:2593   */\n      0x20\n        /* \"#utility.yul\":2579:2588   */\n      dup3\n        /* \"#utility.yul\":2570:2577   */\n      dup5\n        /* \"#utility.yul\":2566:2589   */\n      sub\n        /* \"#utility.yul\":2562:2594   */\n      slt\n        /* \"#utility.yul\":2559:2561   */\n      iszero\n      tag_203\n      jumpi\n        /* \"#utility.yul\":2612:2618   */\n      dup1\n        /* \"#utility.yul\":2604:2610   */\n      dup2\n        /* \"#utility.yul\":2597:2619   */\n      revert\n        /* \"#utility.yul\":2559:2561   */\n    tag_203:\n        /* \"#utility.yul\":2650:2659   */\n      dup2\n        /* \"#utility.yul\":2644:2660   */\n      mload\n        /* \"#utility.yul\":2683:2701   */\n      0xffffffffffffffff\n        /* \"#utility.yul\":2675:2681   */\n      dup2\n        /* \"#utility.yul\":2672:2702   */\n      gt\n        /* \"#utility.yul\":2669:2671   */\n      iszero\n      tag_204\n      jumpi\n        /* \"#utility.yul\":2720:2726   */\n      dup2\n        /* \"#utility.yul\":2712:2718   */\n      dup3\n        /* \"#utility.yul\":2705:2727   */\n      revert\n        /* \"#utility.yul\":2669:2671   */\n    tag_204:\n        /* \"#utility.yul\":2748:2770   */\n      dup3\n      add\n        /* \"#utility.yul\":2801:2805   */\n      0x1f\n        /* \"#utility.yul\":2793:2806   */\n      dup2\n      add\n        /* \"#utility.yul\":2789:2816   */\n      dup5\n      sgt\n        /* \"#utility.yul\":2779:2781   */\n      tag_205\n      jumpi\n        /* \"#utility.yul\":2835:2841   */\n      dup2\n        /* \"#utility.yul\":2827:2833   */\n      dup3\n        /* \"#utility.yul\":2820:2842   */\n      revert\n        /* \"#utility.yul\":2779:2781   */\n    tag_205:\n        /* \"#utility.yul\":2869:2871   */\n      dup1\n        /* \"#utility.yul\":2863:2872   */\n      mload\n        /* \"#utility.yul\":2894:2943   */\n      tag_206\n        /* \"#utility.yul\":2909:2942   */\n      tag_181\n        /* \"#utility.yul\":2939:2941   */\n      dup3\n        /* \"#utility.yul\":2909:2942   */\n      tag_182\n      jump\t// in\n        /* \"#utility.yul\":2894:2943   */\n    tag_206:\n        /* \"#utility.yul\":2966:2968   */\n      dup2\n        /* \"#utility.yul\":2959:2964   */\n      dup2\n        /* \"#utility.yul\":2952:2969   */\n      mstore\n        /* \"#utility.yul\":3006:3013   */\n      dup6\n        /* \"#utility.yul\":3001:3003   */\n      0x20\n        /* \"#utility.yul\":2996:2998   */\n      dup4\n        /* \"#utility.yul\":2992:2994   */\n      dup6\n        /* \"#utility.yul\":2988:2999   */\n      add\n        /* \"#utility.yul\":2984:3004   */\n      add\n        /* \"#utility.yul\":2981:3014   */\n      gt\n        /* \"#utility.yul\":2978:2980   */\n      iszero\n      tag_208\n      jumpi\n        /* \"#utility.yul\":3032:3038   */\n      dup4\n        /* \"#utility.yul\":3024:3030   */\n      dup5\n        /* \"#utility.yul\":3017:3039   */\n      revert\n        /* \"#utility.yul\":2978:2980   */\n    tag_208:\n        /* \"#utility.yul\":3050:3104   */\n      tag_53\n        /* \"#utility.yul\":3101:3103   */\n      dup3\n        /* \"#utility.yul\":3096:3098   */\n      0x20\n        /* \"#utility.yul\":3089:3094   */\n      dup4\n        /* \"#utility.yul\":3085:3099   */\n      add\n        /* \"#utility.yul\":3080:3082   */\n      0x20\n        /* \"#utility.yul\":3076:3078   */\n      dup7\n        /* \"#utility.yul\":3072:3083   */\n      add\n        /* \"#utility.yul\":3050:3104   */\n      tag_210\n      jump\t// in\n        /* \"#utility.yul\":3139:3333   */\n    tag_147:\n      0x00\n        /* \"#utility.yul\":3262:3264   */\n      0x20\n        /* \"#utility.yul\":3250:3259   */\n      dup3\n        /* \"#utility.yul\":3241:3248   */\n      dup5\n        /* \"#utility.yul\":3237:3260   */\n      sub\n        /* \"#utility.yul\":3233:3265   */\n      slt\n        /* \"#utility.yul\":3230:3232   */\n      iszero\n      tag_212\n      jumpi\n        /* \"#utility.yul\":3283:3289   */\n      dup1\n        /* \"#utility.yul\":3275:3281   */\n      dup2\n        /* \"#utility.yul\":3268:3290   */\n      revert\n        /* \"#utility.yul\":3230:3232   */\n    tag_212:\n      pop\n        /* \"#utility.yul\":3311:3327   */\n      mload\n      swap2\n        /* \"#utility.yul\":3220:3333   */\n      swap1\n      pop\n      jump\t// out\n        /* \"#utility.yul\":3338:3656   */\n    tag_213:\n      0x00\n        /* \"#utility.yul\":3419:3424   */\n      dup2\n        /* \"#utility.yul\":3413:3425   */\n      mload\n        /* \"#utility.yul\":3446:3452   */\n      dup1\n        /* \"#utility.yul\":3441:3444   */\n      dup5\n        /* \"#utility.yul\":3434:3453   */\n      mstore\n        /* \"#utility.yul\":3462:3525   */\n      tag_215\n        /* \"#utility.yul\":3518:3524   */\n      dup2\n        /* \"#utility.yul\":3511:3515   */\n      0x20\n        /* \"#utility.yul\":3506:3509   */\n      dup7\n        /* \"#utility.yul\":3502:3516   */\n      add\n        /* \"#utility.yul\":3495:3499   */\n      0x20\n        /* \"#utility.yul\":3488:3493   */\n      dup7\n        /* \"#utility.yul\":3484:3500   */\n      add\n        /* \"#utility.yul\":3462:3525   */\n      tag_210\n      jump\t// in\n    tag_215:\n        /* \"#utility.yul\":3570:3572   */\n      0x1f\n        /* \"#utility.yul\":3558:3573   */\n      add\n        /* \"#utility.yul\":3575:3641   */\n      0xffffffffffffffffffffffffffffffffffffffffffffffffffffffffffffffe0\n        /* \"#utility.yul\":3554:3642   */\n      and\n        /* \"#utility.yul\":3545:3643   */\n      swap3\n      swap1\n      swap3\n      add\n        /* \"#utility.yul\":3645:3649   */\n      0x20\n        /* \"#utility.yul\":3541:3650   */\n      add\n      swap3\n        /* \"#utility.yul\":3389:3656   */\n      swap2\n      pop\n      pop\n      jump\t// out\n        /* \"#utility.yul\":3661:4175   */\n    tag_64:\n        /* \"#utility.yul\":3949:3951   */\n      0x60\n        /* \"#utility.yul\":3945:3960   */\n      swap4\n      dup5\n      shl\n        /* \"#utility.yul\":3854:3920   */\n      0xffffffffffffffffffffffffffffffffffffffff000000000000000000000000\n        /* \"#utility.yul\":3941:3965   */\n      swap1\n      dup2\n      and\n        /* \"#utility.yul\":3929:3966   */\n      dup3\n      mstore\n        /* \"#utility.yul\":4004:4007   */\n      0xe8\n        /* \"#utility.yul\":4000:4016   */\n      swap4\n      swap1\n      swap4\n      shl\n        /* \"#utility.yul\":4018:4084   */\n      0xffffff0000000000000000000000000000000000000000000000000000000000\n        /* \"#utility.yul\":3996:4085   */\n      and\n        /* \"#utility.yul\":3991:3993   */\n      0x14\n        /* \"#utility.yul\":3982:3994   */\n      dup3\n      add\n        /* \"#utility.yul\":3975:4086   */\n      mstore\n        /* \"#utility.yul\":4120:4135   */\n      swap3\n      shl\n        /* \"#utility.yul\":4116:4140   */\n      and\n        /* \"#utility.yul\":4111:4113   */\n      0x17\n        /* \"#utility.yul\":4102:4114   */\n      dup3\n      add\n        /* \"#utility.yul\":4095:4141   */\n      mstore\n        /* \"#utility.yul\":4166:4168   */\n      0x2b\n        /* \"#utility.yul\":4157:4169   */\n      add\n      swap1\n        /* \"#utility.yul\":3834:4175   */\n      jump\t// out\n        /* \"#utility.yul\":4180:4406   */\n    tag_25:\n        /* \"#utility.yul\":4356:4398   */\n      0xffffffffffffffffffffffffffffffffffffffff\n        /* \"#utility.yul\":4344:4399   */\n      swap2\n      swap1\n      swap2\n      and\n        /* \"#utility.yul\":4326:4400   */\n      dup2\n      mstore\n        /* \"#utility.yul\":4314:4316   */\n      0x20\n        /* \"#utility.yul\":4299:4317   */\n      add\n      swap1\n        /* \"#utility.yul\":4281:4406   */\n      jump\t// out\n        /* \"#utility.yul\":4411:5004   */\n    tag_66:\n      0x00\n        /* \"#utility.yul\":4654:4696   */\n      0xffffffffffffffffffffffffffffffffffffffff\n        /* \"#utility.yul\":4735:4737   */\n      dup1\n        /* \"#utility.yul\":4727:4733   */\n      dup9\n        /* \"#utility.yul\":4723:4738   */\n      and\n        /* \"#utility.yul\":4712:4721   */\n      dup4\n        /* \"#utility.yul\":4705:4739   */\n      mstore\n        /* \"#utility.yul\":4789:4795   */\n      dup7\n        /* \"#utility.yul\":4782:4796   */\n      iszero\n        /* \"#utility.yul\":4775:4797   */\n      iszero\n        /* \"#utility.yul\":4770:4772   */\n      0x20\n        /* \"#utility.yul\":4759:4768   */\n      dup5\n        /* \"#utility.yul\":4755:4773   */\n      add\n        /* \"#utility.yul\":4748:4798   */\n      mstore\n        /* \"#utility.yul\":4834:4840   */\n      dup6\n        /* \"#utility.yul\":4829:4831   */\n      0x40\n        /* \"#utility.yul\":4818:4827   */\n      dup5\n        /* \"#utility.yul\":4814:4832   */\n      add\n        /* \"#utility.yul\":4807:4841   */\n      mstore\n        /* \"#utility.yul\":4889:4891   */\n      dup1\n        /* \"#utility.yul\":4881:4887   */\n      dup6\n        /* \"#utility.yul\":4877:4892   */\n      and\n        /* \"#utility.yul\":4872:4874   */\n      0x60\n        /* \"#utility.yul\":4861:4870   */\n      dup5\n        /* \"#utility.yul\":4857:4875   */\n      add\n        /* \"#utility.yul\":4850:4893   */\n      mstore\n      pop\n        /* \"#utility.yul\":4930:4933   */\n      0xa0\n        /* \"#utility.yul\":4924:4927   */\n      0x80\n        /* \"#utility.yul\":4913:4922   */\n      dup4\n        /* \"#utility.yul\":4909:4928   */\n      add\n        /* \"#utility.yul\":4902:4934   */\n      mstore\n        /* \"#utility.yul\":4951:4998   */\n      tag_219\n        /* \"#utility.yul\":4993:4996   */\n      0xa0\n        /* \"#utility.yul\":4982:4991   */\n      dup4\n        /* \"#utility.yul\":4978:4997   */\n      add\n        /* \"#utility.yul\":4970:4976   */\n      dup5\n        /* \"#utility.yul\":4951:4998   */\n      tag_213\n      jump\t// in\n    tag_219:\n        /* \"#utility.yul\":4943:4998   */\n      swap8\n        /* \"#utility.yul\":4634:5004   */\n      swap7\n      pop\n      pop\n      pop\n      pop\n      pop\n      pop\n      pop\n      jump\t// out\n        /* \"#utility.yul\":5009:5230   */\n    tag_145:\n      0x00\n        /* \"#utility.yul\":5158:5160   */\n      0x20\n        /* \"#utility.yul\":5147:5156   */\n      dup3\n        /* \"#utility.yul\":5140:5161   */\n      mstore\n        /* \"#utility.yul\":5178:5224   */\n      tag_221\n        /* \"#utility.yul\":5220:5222   */\n      0x20\n        /* \"#utility.yul\":5209:5218   */\n      dup4\n        /* \"#utility.yul\":5205:5223   */\n      add\n        /* \"#utility.yul\":5197:5203   */\n      dup5\n        /* \"#utility.yul\":5178:5224   */\n      tag_213\n      jump\t// in\n    tag_221:\n        /* \"#utility.yul\":5170:5224   */\n      swap4\n        /* \"#utility.yul\":5130:5230   */\n      swap3\n      pop\n      pop\n      pop\n      jump\t// out\n        /* \"#utility.yul\":5235:5575   */\n    tag_141:\n        /* \"#utility.yul\":5437:5439   */\n      0x20\n        /* \"#utility.yul\":5419:5440   */\n      dup1\n      dup3\n      mstore\n        /* \"#utility.yul\":5476:5478   */\n      0x10\n        /* \"#utility.yul\":5456:5474   */\n      swap1\n      dup3\n      add\n        /* \"#utility.yul\":5449:5479   */\n      mstore\n        /* \"#utility.yul\":5515:5533   */\n      0x556e6578706563746564206572726f7200000000000000000000000000000000\n        /* \"#utility.yul\":5510:5512   */\n      0x40\n        /* \"#utility.yul\":5495:5513   */\n      dup3\n      add\n        /* \"#utility.yul\":5488:5534   */\n      mstore\n        /* \"#utility.yul\":5566:5568   */\n      0x60\n        /* \"#utility.yul\":5551:5569   */\n      add\n      swap1\n        /* \"#utility.yul\":5409:5575   */\n      jump\t// out\n        /* \"#utility.yul\":5580:5757   */\n    tag_16:\n        /* \"#utility.yul\":5726:5751   */\n      swap1\n      dup2\n      mstore\n        /* \"#utility.yul\":5714:5716   */\n      0x20\n        /* \"#utility.yul\":5699:5717   */\n      add\n      swap1\n        /* \"#utility.yul\":5681:5757   */\n      jump\t// out\n        /* \"#utility.yul\":5762:6004   */\n    tag_183:\n        /* \"#utility.yul\":5832:5834   */\n      0x40\n        /* \"#utility.yul\":5826:5835   */\n      mload\n        /* \"#utility.yul\":5862:5879   */\n      dup2\n      dup2\n      add\n        /* \"#utility.yul\":5909:5927   */\n      0xffffffffffffffff\n        /* \"#utility.yul\":5894:5928   */\n      dup2\n      gt\n        /* \"#utility.yul\":5930:5952   */\n      dup3\n      dup3\n      lt\n        /* \"#utility.yul\":5891:5953   */\n      or\n        /* \"#utility.yul\":5888:5890   */\n      iszero\n      tag_225\n      jumpi\n        /* \"#utility.yul\":5956:5965   */\n      invalid\n        /* \"#utility.yul\":5888:5890   */\n    tag_225:\n        /* \"#utility.yul\":5983:5985   */\n      0x40\n        /* \"#utility.yul\":5976:5998   */\n      mstore\n        /* \"#utility.yul\":5806:6004   */\n      swap2\n      swap1\n      pop\n      jump\t// out\n        /* \"#utility.yul\":6009:6249   */\n    tag_182:\n      0x00\n        /* \"#utility.yul\":6092:6110   */\n      0xffffffffffffffff\n        /* \"#utility.yul\":6084:6090   */\n      dup3\n        /* \"#utility.yul\":6081:6111   */\n      gt\n        /* \"#utility.yul\":6078:6080   */\n      iszero\n      tag_227\n      jumpi\n        /* \"#utility.yul\":6114:6123   */\n      invalid\n        /* \"#utility.yul\":6078:6080   */\n    tag_227:\n      pop\n        /* \"#utility.yul\":6162:6166   */\n      0x1f\n        /* \"#utility.yul\":6150:6167   */\n      add\n        /* \"#utility.yul\":6169:6235   */\n      0xffffffffffffffffffffffffffffffffffffffffffffffffffffffffffffffe0\n        /* \"#utility.yul\":6146:6236   */\n      and\n        /* \"#utility.yul\":6238:6242   */\n      0x20\n        /* \"#utility.yul\":6142:6243   */\n      add\n      swap1\n        /* \"#utility.yul\":6068:6249   */\n      jump\t// out\n        /* \"#utility.yul\":6254:6512   */\n    tag_210:\n        /* \"#utility.yul\":6326:6327   */\n      0x00\n        /* \"#utility.yul\":6336:6449   */\n    tag_229:\n        /* \"#utility.yul\":6350:6356   */\n      dup4\n        /* \"#utility.yul\":6347:6348   */\n      dup2\n        /* \"#utility.yul\":6344:6357   */\n      lt\n        /* \"#utility.yul\":6336:6449   */\n      iszero\n      tag_231\n      jumpi\n        /* \"#utility.yul\":6426:6437   */\n      dup2\n      dup2\n      add\n        /* \"#utility.yul\":6420:6438   */\n      mload\n        /* \"#utility.yul\":6407:6418   */\n      dup4\n      dup3\n      add\n        /* \"#utility.yul\":6400:6439   */\n      mstore\n        /* \"#utility.yul\":6372:6374   */\n      0x20\n        /* \"#utility.yul\":6365:6375   */\n      add\n        /* \"#utility.yul\":6336:6449   */\n      jump(tag_229)\n    tag_231:\n        /* \"#utility.yul\":6467:6473   */\n      dup4\n        /* \"#utility.yul\":6464:6465   */\n      dup2\n        /* \"#utility.yul\":6461:6474   */\n      gt\n        /* \"#utility.yul\":6458:6460   */\n      iszero\n      tag_232\n      jumpi\n        /* \"#utility.yul\":6502:6503   */\n      0x00\n        /* \"#utility.yul\":6493:6499   */\n      dup5\n        /* \"#utility.yul\":6488:6491   */\n      dup5\n        /* \"#utility.yul\":6484:6500   */\n      add\n        /* \"#utility.yul\":6477:6504   */\n      mstore\n        /* \"#utility.yul\":6458:6460   */\n    tag_232:\n      pop\n        /* \"#utility.yul\":6307:6512   */\n      pop\n      pop\n      pop\n      jump\t// out\n        /* \"#utility.yul\":6517:6673   */\n    tag_188:\n        /* \"#utility.yul\":6605:6647   */\n      0xffffffffffffffffffffffffffffffffffffffff\n        /* \"#utility.yul\":6598:6603   */\n      dup2\n        /* \"#utility.yul\":6594:6648   */\n      and\n        /* \"#utility.yul\":6587:6592   */\n      dup2\n        /* \"#utility.yul\":6584:6649   */\n      eq\n        /* \"#utility.yul\":6574:6576   */\n      tag_234\n      jumpi\n        /* \"#utility.yul\":6663:6664   */\n      0x00\n        /* \"#utility.yul\":6660:6661   */\n      dup1\n        /* \"#utility.yul\":6653:6665   */\n      revert\n        /* \"#utility.yul\":6574:6576   */\n    tag_234:\n        /* \"#utility.yul\":6564:6673   */\n      pop\n      jump\t// out\n\n    auxdata: 0xa26469706673582212200607274924cf1b4c0e7330c28384d7f4b7a979be32c5bb668191a56f88c2dd4064736f6c63430007060033\n}\n",
				"bytecode": {
					"linkReferences": {},
					"object": "60c060405234801561001057600080fd5b5060405161130e38038061130e83398101604081905261002f91610069565b6001600160601b0319606092831b8116608052911b1660a05261009b565b80516001600160a01b038116811461006457600080fd5b919050565b6000806040838503121561007b578182fd5b6100848361004d565b91506100926020840161004d565b90509250929050565b60805160601c60a05160601c6112406100ce60003980610342525080610366528061058652806106d552506112406000f3fe608060405234801561001057600080fd5b506004361061007d5760003560e01c8063c45a01551161005b578063c45a0155146100d3578063cdca1753146100db578063f7729d43146100ee578063fa461e33146101015761007d565b80632f80bb1d1461008257806330d07f21146100ab5780634aa4a4fc146100be575b600080fd5b610095610090366004610e9e565b610116565b6040516100a29190611148565b60405180910390f35b6100956100b9366004610e30565b61017b565b6100c6610340565b6040516100a29190611084565b6100c6610364565b6100956100e9366004610e9e565b610388565b6100956100fc366004610e30565b6103d6565b61011461010f366004610f04565b610555565b005b60005b600061012484610660565b9050600080600061013487610668565b92509250925061014882848389600061017b565b955083156101605761015987610699565b965061016c565b85945050505050610175565b50505050610119565b92915050565b600073ffffffffffffffffffffffffffffffffffffffff808616878216109083166101a65760008490555b6101b18787876106ce565b73ffffffffffffffffffffffffffffffffffffffff1663128acb0830836101d78861070c565b60000373ffffffffffffffffffffffffffffffffffffffff8816156101fc5787610222565b8561021b5773fffd8963efd1fc6a506488495d951d5263988d25610222565b6401000276a45b8b8b8e6040516020016102379392919061101e565b6040516020818303038152906040526040518663ffffffff1660e01b81526004016102669594939291906110a5565b6040805180830381600087803b15801561027f57600080fd5b505af19250505080156102cd575060408051601f3d9081017fffffffffffffffffffffffffffffffffffffffffffffffffffffffffffffffe01682019092526102ca91810190610ee1565b60015b610333573d8080156102fb576040519150601f19603f3d011682016040523d82523d6000602084013e610300565b606091505b5073ffffffffffffffffffffffffffffffffffffffff841661032157600080555b61032a8161073e565b92505050610337565b5050505b95945050505050565b7f000000000000000000000000000000000000000000000000000000000000000081565b7f000000000000000000000000000000000000000000000000000000000000000081565b60005b600061039684610660565b905060008060006103a687610668565b9250925092506103ba8383838960006103d6565b95508315610160576103cb87610699565b96505050505061038b565b600073ffffffffffffffffffffffffffffffffffffffff808616908716106103ff8787876106ce565b73ffffffffffffffffffffffffffffffffffffffff1663128acb0830836104258861070c565b73ffffffffffffffffffffffffffffffffffffffff881615610447578761046d565b856104665773fffd8963efd1fc6a506488495d951d5263988d2561046d565b6401000276a45b8c8b8d6040516020016104829392919061101e565b6040516020818303038152906040526040518663ffffffff1660e01b81526004016104b19594939291906110a5565b6040805180830381600087803b1580156104ca57600080fd5b505af1925050508015610518575060408051601f3d9081017fffffffffffffffffffffffffffffffffffffffffffffffffffffffffffffffe016820190925261051591810190610ee1565b60015b610333573d808015610546576040519150601f19603f3d011682016040523d82523d6000602084013e61054b565b606091505b5061032a8161073e565b60008313806105645750600082135b61056d57600080fd5b600080600061057b84610668565b9250925092506105ad7f00000000000000000000000000000000000000000000000000000000000000008484846107ef565b5060008060008089136105f3578573ffffffffffffffffffffffffffffffffffffffff168573ffffffffffffffffffffffffffffffffffffffff1610888a600003610628565b8473ffffffffffffffffffffffffffffffffffffffff168673ffffffffffffffffffffffffffffffffffffffff161089896000035b925092509250821561063f57604051818152602081fd5b6000541561065557600054811461065557600080fd5b604051828152602081fd5b516042111590565b600080806106768482610805565b9250610683846014610905565b9050610690846017610805565b91509193909250565b80516060906101759083906017907fffffffffffffffffffffffffffffffffffffffffffffffffffffffffffffffe9016109f5565b60006107047f00000000000000000000000000000000000000000000000000000000000000006106ff868686610bdc565b610c59565b949350505050565b60007f8000000000000000000000000000000000000000000000000000000000000000821061073a57600080fd5b5090565b600081516020146107db5760448251101561078e576040517f08c379a000000000000000000000000000000000000000000000000000000000815260040161078590611111565b60405180910390fd5b600482019150818060200190518101906107a89190610f52565b6040517f08c379a000000000000000000000000000000000000000000000000000000000815260040161078591906110f7565b818060200190518101906101759190610fbc565b600061033785610800868686610bdc565b610d8f565b60008182601401101561087957604080517f08c379a000000000000000000000000000000000000000000000000000000000815260206004820152601260248201527f746f416464726573735f6f766572666c6f770000000000000000000000000000604482015290519081900360640190fd5b81601401835110156108ec57604080517f08c379a000000000000000000000000000000000000000000000000000000000815260206004820152601560248201527f746f416464726573735f6f75744f66426f756e64730000000000000000000000604482015290519081900360640190fd5b5001602001516c01000000000000000000000000900490565b60008182600301101561097957604080517f08c379a000000000000000000000000000000000000000000000000000000000815260206004820152601160248201527f746f55696e7432345f6f766572666c6f77000000000000000000000000000000604482015290519081900360640190fd5b81600301835110156109ec57604080517f08c379a000000000000000000000000000000000000000000000000000000000815260206004820152601460248201527f746f55696e7432345f6f75744f66426f756e6473000000000000000000000000604482015290519081900360640190fd5b50016003015190565b60608182601f011015610a6957604080517f08c379a000000000000000000000000000000000000000000000000000000000815260206004820152600e60248201527f736c6963655f6f766572666c6f77000000000000000000000000000000000000604482015290519081900360640190fd5b828284011015610ada57604080517f08c379a000000000000000000000000000000000000000000000000000000000815260206004820152600e60248201527f736c6963655f6f766572666c6f77000000000000000000000000000000000000604482015290519081900360640190fd5b81830184511015610b4c57604080517f08c379a000000000000000000000000000000000000000000000000000000000815260206004820152601160248201527f736c6963655f6f75744f66426f756e6473000000000000000000000000000000604482015290519081900360640190fd5b606082158015610b6b5760405191506000825260208201604052610bd3565b6040519150601f8416801560200281840101858101878315602002848b0101015b81831015610ba4578051835260209283019201610b8c565b5050858452601f017fffffffffffffffffffffffffffffffffffffffffffffffffffffffffffffffe016604052505b50949350505050565b610be4610dbf565b8273ffffffffffffffffffffffffffffffffffffffff168473ffffffffffffffffffffffffffffffffffffffff161115610c1c579192915b506040805160608101825273ffffffffffffffffffffffffffffffffffffffff948516815292909316602083015262ffffff169181019190915290565b6000816020015173ffffffffffffffffffffffffffffffffffffffff16826000015173ffffffffffffffffffffffffffffffffffffffff1610610c9b57600080fd5b508051602080830151604093840151845173ffffffffffffffffffffffffffffffffffffffff94851681850152939091168385015262ffffff166060808401919091528351808403820181526080840185528051908301207fff0000000000000000000000000000000000000000000000000000000000000060a085015294901b7fffffffffffffffffffffffffffffffffffffffff0000000000000000000000001660a183015260b58201939093527ff1804c752c7c65cc02f2ee3526f62cd20f9f0f6b31c1608c7d7504d2c177bc2360d5808301919091528251808303909101815260f5909101909152805191012090565b6000610d9b8383610c59565b90503373ffffffffffffffffffffffffffffffffffffffff82161461017557600080fd5b604080516060810182526000808252602082018190529181019190915290565b600082601f830112610def578081fd5b8135610e02610dfd82611175565b611151565b818152846020838601011115610e16578283fd5b816020850160208301379081016020019190915292915050565b600080600080600060a08688031215610e47578081fd5b8535610e52816111e5565b94506020860135610e62816111e5565b9350604086013562ffffff81168114610e79578182fd5b9250606086013591506080860135610e90816111e5565b809150509295509295909350565b60008060408385031215610eb0578182fd5b823567ffffffffffffffff811115610ec6578283fd5b610ed285828601610ddf565b95602094909401359450505050565b60008060408385031215610ef3578182fd5b505080516020909101519092909150565b600080600060608486031215610f18578283fd5b8335925060208401359150604084013567ffffffffffffffff811115610f3c578182fd5b610f4886828701610ddf565b9150509250925092565b600060208284031215610f63578081fd5b815167ffffffffffffffff811115610f79578182fd5b8201601f81018413610f89578182fd5b8051610f97610dfd82611175565b818152856020838501011115610fab578384fd5b6103378260208301602086016111b5565b600060208284031215610fcd578081fd5b5051919050565b60008151808452610fec8160208601602086016111b5565b601f017fffffffffffffffffffffffffffffffffffffffffffffffffffffffffffffffe0169290920160200192915050565b606093841b7fffffffffffffffffffffffffffffffffffffffff000000000000000000000000908116825260e89390931b7fffffff0000000000000000000000000000000000000000000000000000000000166014820152921b166017820152602b0190565b73ffffffffffffffffffffffffffffffffffffffff91909116815260200190565b600073ffffffffffffffffffffffffffffffffffffffff8088168352861515602084015285604084015280851660608401525060a060808301526110ec60a0830184610fd4565b979650505050505050565b60006020825261110a6020830184610fd4565b9392505050565b60208082526010908201527f556e6578706563746564206572726f7200000000000000000000000000000000604082015260600190565b90815260200190565b60405181810167ffffffffffffffff8111828210171561116d57fe5b604052919050565b600067ffffffffffffffff82111561118957fe5b50601f017fffffffffffffffffffffffffffffffffffffffffffffffffffffffffffffffe01660200190565b60005b838110156111d05781810151838201526020016111b8565b838111156111df576000848401525b50505050565b73ffffffffffffffffffffffffffffffffffffffff8116811461120757600080fd5b5056fea26469706673582212200607274924cf1b4c0e7330c28384d7f4b7a979be32c5bb668191a56f88c2dd4064736f6c63430007060033",
					"opcodes": "PUSH1 0xC0 PUSH1 0x40 MSTORE CALLVALUE DUP1 ISZERO PUSH2 0x10 JUMPI PUSH1 0x0 DUP1 REVERT JUMPDEST POP PUSH1 0x40 MLOAD PUSH2 0x130E CODESIZE SUB DUP1 PUSH2 0x130E DUP4 CODECOPY DUP2 ADD PUSH1 0x40 DUP2 SWAP1 MSTORE PUSH2 0x2F SWAP2 PUSH2 0x69 JUMP JUMPDEST PUSH1 0x1 PUSH1 0x1 PUSH1 0x60 SHL SUB NOT PUSH1 0x60 SWAP3 DUP4 SHL DUP2 AND PUSH1 0x80 MSTORE SWAP2 SHL AND PUSH1 0xA0 MSTORE PUSH2 0x9B JUMP JUMPDEST DUP1 MLOAD PUSH1 0x1 PUSH1 0x1 PUSH1 0xA0 SHL SUB DUP2 AND DUP2 EQ PUSH2 0x64 JUMPI PUSH1 0x0 DUP1 REVERT JUMPDEST SWAP2 SWAP1 POP JUMP JUMPDEST PUSH1 0x0 DUP1 PUSH1 0x40 DUP4 DUP6 SUB SLT ISZERO PUSH2 0x7B JUMPI DUP2 DUP3 REVERT JUMPDEST PUSH2 0x84 DUP4 PUSH2 0x4D JUMP JUMPDEST SWAP2 POP PUSH2 0x92 PUSH1 0x20 DUP5 ADD PUSH2 0x4D JUMP JUMPDEST SWAP1 POP SWAP3 POP SWAP3 SWAP1 POP JUMP JUMPDEST PUSH1 0x80 MLOAD PUSH1 0x60 SHR PUSH1 0xA0 MLOAD PUSH1 0x60 SHR PUSH2 0x1240 PUSH2 0xCE PUSH1 0x0 CODECOPY DUP1 PUSH2 0x342 MSTORE POP DUP1 PUSH2 0x366 MSTORE DUP1 PUSH2 0x586 MSTORE DUP1 PUSH2 0x6D5 MSTORE POP PUSH2 0x1240 PUSH1 0x0 RETURN INVALID PUSH1 0x80 PUSH1 0x40 MSTORE CALLVALUE DUP1 ISZERO PUSH2 0x10 JUMPI PUSH1 0x0 DUP1 REVERT JUMPDEST POP PUSH1 0x4 CALLDATASIZE LT PUSH2 0x7D JUMPI PUSH1 0x0 CALLDATALOAD PUSH1 0xE0 SHR DUP1 PUSH4 0xC45A0155 GT PUSH2 0x5B JUMPI DUP1 PUSH4 0xC45A0155 EQ PUSH2 0xD3 JUMPI DUP1 PUSH4 0xCDCA1753 EQ PUSH2 0xDB JUMPI DUP1 PUSH4 0xF7729D43 EQ PUSH2 0xEE JUMPI DUP1 PUSH4 0xFA461E33 EQ PUSH2 0x101 JUMPI PUSH2 0x7D JUMP JUMPDEST DUP1 PUSH4 0x2F80BB1D EQ PUSH2 0x82 JUMPI DUP1 PUSH4 0x30D07F21 EQ PUSH2 0xAB JUMPI DUP1 PUSH4 0x4AA4A4FC EQ PUSH2 0xBE JUMPI JUMPDEST PUSH1 0x0 DUP1 REVERT JUMPDEST PUSH2 0x95 PUSH2 0x90 CALLDATASIZE PUSH1 0x4 PUSH2 0xE9E JUMP JUMPDEST PUSH2 0x116 JUMP JUMPDEST PUSH1 0x40 MLOAD PUSH2 0xA2 SWAP2 SWAP1 PUSH2 0x1148 JUMP JUMPDEST PUSH1 0x40 MLOAD DUP1 SWAP2 SUB SWAP1 RETURN JUMPDEST PUSH2 0x95 PUSH2 0xB9 CALLDATASIZE PUSH1 0x4 PUSH2 0xE30 JUMP JUMPDEST PUSH2 0x17B JUMP JUMPDEST PUSH2 0xC6 PUSH2 0x340 JUMP JUMPDEST PUSH1 0x40 MLOAD PUSH2 0xA2 SWAP2 SWAP1 PUSH2 0x1084 JUMP JUMPDEST PUSH2 0xC6 PUSH2 0x364 JUMP JUMPDEST PUSH2 0x95 PUSH2 0xE9 CALLDATASIZE PUSH1 0x4 PUSH2 0xE9E JUMP JUMPDEST PUSH2 0x388 JUMP JUMPDEST PUSH2 0x95 PUSH2 0xFC CALLDATASIZE PUSH1 0x4 PUSH2 0xE30 JUMP JUMPDEST PUSH2 0x3D6 JUMP JUMPDEST PUSH2 0x114 PUSH2 0x10F CALLDATASIZE PUSH1 0x4 PUSH2 0xF04 JUMP JUMPDEST PUSH2 0x555 JUMP JUMPDEST STOP JUMPDEST PUSH1 0x0 JUMPDEST PUSH1 0x0 PUSH2 0x124 DUP5 PUSH2 0x660 JUMP JUMPDEST SWAP1 POP PUSH1 0x0 DUP1 PUSH1 0x0 PUSH2 0x134 DUP8 PUSH2 0x668 JUMP JUMPDEST SWAP3 POP SWAP3 POP SWAP3 POP PUSH2 0x148 DUP3 DUP5 DUP4 DUP10 PUSH1 0x0 PUSH2 0x17B JUMP JUMPDEST SWAP6 POP DUP4 ISZERO PUSH2 0x160 JUMPI PUSH2 0x159 DUP8 PUSH2 0x699 JUMP JUMPDEST SWAP7 POP PUSH2 0x16C JUMP JUMPDEST DUP6 SWAP5 POP POP POP POP POP PUSH2 0x175 JUMP JUMPDEST POP POP POP POP PUSH2 0x119 JUMP JUMPDEST SWAP3 SWAP2 POP POP JUMP JUMPDEST PUSH1 0x0 PUSH20 0xFFFFFFFFFFFFFFFFFFFFFFFFFFFFFFFFFFFFFFFF DUP1 DUP7 AND DUP8 DUP3 AND LT SWAP1 DUP4 AND PUSH2 0x1A6 JUMPI PUSH1 0x0 DUP5 SWAP1 SSTORE JUMPDEST PUSH2 0x1B1 DUP8 DUP8 DUP8 PUSH2 0x6CE JUMP JUMPDEST PUSH20 0xFFFFFFFFFFFFFFFFFFFFFFFFFFFFFFFFFFFFFFFF AND PUSH4 0x128ACB08 ADDRESS DUP4 PUSH2 0x1D7 DUP9 PUSH2 0x70C JUMP JUMPDEST PUSH1 0x0 SUB PUSH20 0xFFFFFFFFFFFFFFFFFFFFFFFFFFFFFFFFFFFFFFFF DUP9 AND ISZERO PUSH2 0x1FC JUMPI DUP8 PUSH2 0x222 JUMP JUMPDEST DUP6 PUSH2 0x21B JUMPI PUSH20 0xFFFD8963EFD1FC6A506488495D951D5263988D25 PUSH2 0x222 JUMP JUMPDEST PUSH5 0x1000276A4 JUMPDEST DUP12 DUP12 DUP15 PUSH1 0x40 MLOAD PUSH1 0x20 ADD PUSH2 0x237 SWAP4 SWAP3 SWAP2 SWAP1 PUSH2 0x101E JUMP JUMPDEST PUSH1 0x40 MLOAD PUSH1 0x20 DUP2 DUP4 SUB SUB DUP2 MSTORE SWAP1 PUSH1 0x40 MSTORE PUSH1 0x40 MLOAD DUP7 PUSH4 0xFFFFFFFF AND PUSH1 0xE0 SHL DUP2 MSTORE PUSH1 0x4 ADD PUSH2 0x266 SWAP6 SWAP5 SWAP4 SWAP3 SWAP2 SWAP1 PUSH2 0x10A5 JUMP JUMPDEST PUSH1 0x40 DUP1 MLOAD DUP1 DUP4 SUB DUP2 PUSH1 0x0 DUP8 DUP1 EXTCODESIZE ISZERO DUP1 ISZERO PUSH2 0x27F JUMPI PUSH1 0x0 DUP1 REVERT JUMPDEST POP GAS CALL SWAP3 POP POP POP DUP1 ISZERO PUSH2 0x2CD JUMPI POP PUSH1 0x40 DUP1 MLOAD PUSH1 0x1F RETURNDATASIZE SWAP1 DUP2 ADD PUSH32 0xFFFFFFFFFFFFFFFFFFFFFFFFFFFFFFFFFFFFFFFFFFFFFFFFFFFFFFFFFFFFFFE0 AND DUP3 ADD SWAP1 SWAP3 MSTORE PUSH2 0x2CA SWAP2 DUP2 ADD SWAP1 PUSH2 0xEE1 JUMP JUMPDEST PUSH1 0x1 JUMPDEST PUSH2 0x333 JUMPI RETURNDATASIZE DUP1 DUP1 ISZERO PUSH2 0x2FB JUMPI PUSH1 0x40 MLOAD SWAP2 POP PUSH1 0x1F NOT PUSH1 0x3F RETURNDATASIZE ADD AND DUP3 ADD PUSH1 0x40 MSTORE RETURNDATASIZE DUP3 MSTORE RETURNDATASIZE PUSH1 0x0 PUSH1 0x20 DUP5 ADD RETURNDATACOPY PUSH2 0x300 JUMP JUMPDEST PUSH1 0x60 SWAP2 POP JUMPDEST POP PUSH20 0xFFFFFFFFFFFFFFFFFFFFFFFFFFFFFFFFFFFFFFFF DUP5 AND PUSH2 0x321 JUMPI PUSH1 0x0 DUP1 SSTORE JUMPDEST PUSH2 0x32A DUP2 PUSH2 0x73E JUMP JUMPDEST SWAP3 POP POP POP PUSH2 0x337 JUMP JUMPDEST POP POP POP JUMPDEST SWAP6 SWAP5 POP POP POP POP POP JUMP JUMPDEST PUSH32 0x0 DUP2 JUMP JUMPDEST PUSH32 0x0 DUP2 JUMP JUMPDEST PUSH1 0x0 JUMPDEST PUSH1 0x0 PUSH2 0x396 DUP5 PUSH2 0x660 JUMP JUMPDEST SWAP1 POP PUSH1 0x0 DUP1 PUSH1 0x0 PUSH2 0x3A6 DUP8 PUSH2 0x668 JUMP JUMPDEST SWAP3 POP SWAP3 POP SWAP3 POP PUSH2 0x3BA DUP4 DUP4 DUP4 DUP10 PUSH1 0x0 PUSH2 0x3D6 JUMP JUMPDEST SWAP6 POP DUP4 ISZERO PUSH2 0x160 JUMPI PUSH2 0x3CB DUP8 PUSH2 0x699 JUMP JUMPDEST SWAP7 POP POP POP POP POP PUSH2 0x38B JUMP JUMPDEST PUSH1 0x0 PUSH20 0xFFFFFFFFFFFFFFFFFFFFFFFFFFFFFFFFFFFFFFFF DUP1 DUP7 AND SWAP1 DUP8 AND LT PUSH2 0x3FF DUP8 DUP8 DUP8 PUSH2 0x6CE JUMP JUMPDEST PUSH20 0xFFFFFFFFFFFFFFFFFFFFFFFFFFFFFFFFFFFFFFFF AND PUSH4 0x128ACB08 ADDRESS DUP4 PUSH2 0x425 DUP9 PUSH2 0x70C JUMP JUMPDEST PUSH20 0xFFFFFFFFFFFFFFFFFFFFFFFFFFFFFFFFFFFFFFFF DUP9 AND ISZERO PUSH2 0x447 JUMPI DUP8 PUSH2 0x46D JUMP JUMPDEST DUP6 PUSH2 0x466 JUMPI PUSH20 0xFFFD8963EFD1FC6A506488495D951D5263988D25 PUSH2 0x46D JUMP JUMPDEST PUSH5 0x1000276A4 JUMPDEST DUP13 DUP12 DUP14 PUSH1 0x40 MLOAD PUSH1 0x20 ADD PUSH2 0x482 SWAP4 SWAP3 SWAP2 SWAP1 PUSH2 0x101E JUMP JUMPDEST PUSH1 0x40 MLOAD PUSH1 0x20 DUP2 DUP4 SUB SUB DUP2 MSTORE SWAP1 PUSH1 0x40 MSTORE PUSH1 0x40 MLOAD DUP7 PUSH4 0xFFFFFFFF AND PUSH1 0xE0 SHL DUP2 MSTORE PUSH1 0x4 ADD PUSH2 0x4B1 SWAP6 SWAP5 SWAP4 SWAP3 SWAP2 SWAP1 PUSH2 0x10A5 JUMP JUMPDEST PUSH1 0x40 DUP1 MLOAD DUP1 DUP4 SUB DUP2 PUSH1 0x0 DUP8 DUP1 EXTCODESIZE ISZERO DUP1 ISZERO PUSH2 0x4CA JUMPI PUSH1 0x0 DUP1 REVERT JUMPDEST POP GAS CALL SWAP3 POP POP POP DUP1 ISZERO PUSH2 0x518 JUMPI POP PUSH1 0x40 DUP1 MLOAD PUSH1 0x1F RETURNDATASIZE SWAP1 DUP2 ADD PUSH32 0xFFFFFFFFFFFFFFFFFFFFFFFFFFFFFFFFFFFFFFFFFFFFFFFFFFFFFFFFFFFFFFE0 AND DUP3 ADD SWAP1 SWAP3 MSTORE PUSH2 0x515 SWAP2 DUP2 ADD SWAP1 PUSH2 0xEE1 JUMP JUMPDEST PUSH1 0x1 JUMPDEST PUSH2 0x333 JUMPI RETURNDATASIZE DUP1 DUP1 ISZERO PUSH2 0x546 JUMPI PUSH1 0x40 MLOAD SWAP2 POP PUSH1 0x1F NOT PUSH1 0x3F RETURNDATASIZE ADD AND DUP3 ADD PUSH1 0x40 MSTORE RETURNDATASIZE DUP3 MSTORE RETURNDATASIZE PUSH1 0x0 PUSH1 0x20 DUP5 ADD RETURNDATACOPY PUSH2 0x54B JUMP JUMPDEST PUSH1 0x60 SWAP2 POP JUMPDEST POP PUSH2 0x32A DUP2 PUSH2 0x73E JUMP JUMPDEST PUSH1 0x0 DUP4 SGT DUP1 PUSH2 0x564 JUMPI POP PUSH1 0x0 DUP3 SGT JUMPDEST PUSH2 0x56D JUMPI PUSH1 0x0 DUP1 REVERT JUMPDEST PUSH1 0x0 DUP1 PUSH1 0x0 PUSH2 0x57B DUP5 PUSH2 0x668 JUMP JUMPDEST SWAP3 POP SWAP3 POP SWAP3 POP PUSH2 0x5AD PUSH32 0x0 DUP5 DUP5 DUP5 PUSH2 0x7EF JUMP JUMPDEST POP PUSH1 0x0 DUP1 PUSH1 0x0 DUP1 DUP10 SGT PUSH2 0x5F3 JUMPI DUP6 PUSH20 0xFFFFFFFFFFFFFFFFFFFFFFFFFFFFFFFFFFFFFFFF AND DUP6 PUSH20 0xFFFFFFFFFFFFFFFFFFFFFFFFFFFFFFFFFFFFFFFF AND LT DUP9 DUP11 PUSH1 0x0 SUB PUSH2 0x628 JUMP JUMPDEST DUP5 PUSH20 0xFFFFFFFFFFFFFFFFFFFFFFFFFFFFFFFFFFFFFFFF AND DUP7 PUSH20 0xFFFFFFFFFFFFFFFFFFFFFFFFFFFFFFFFFFFFFFFF AND LT DUP10 DUP10 PUSH1 0x0 SUB JUMPDEST SWAP3 POP SWAP3 POP SWAP3 POP DUP3 ISZERO PUSH2 0x63F JUMPI PUSH1 0x40 MLOAD DUP2 DUP2 MSTORE PUSH1 0x20 DUP2 REVERT JUMPDEST PUSH1 0x0 SLOAD ISZERO PUSH2 0x655 JUMPI PUSH1 0x0 SLOAD DUP2 EQ PUSH2 0x655 JUMPI PUSH1 0x0 DUP1 REVERT JUMPDEST PUSH1 0x40 MLOAD DUP3 DUP2 MSTORE PUSH1 0x20 DUP2 REVERT JUMPDEST MLOAD PUSH1 0x42 GT ISZERO SWAP1 JUMP JUMPDEST PUSH1 0x0 DUP1 DUP1 PUSH2 0x676 DUP5 DUP3 PUSH2 0x805 JUMP JUMPDEST SWAP3 POP PUSH2 0x683 DUP5 PUSH1 0x14 PUSH2 0x905 JUMP JUMPDEST SWAP1 POP PUSH2 0x690 DUP5 PUSH1 0x17 PUSH2 0x805 JUMP JUMPDEST SWAP2 POP SWAP2 SWAP4 SWAP1 SWAP3 POP JUMP JUMPDEST DUP1 MLOAD PUSH1 0x60 SWAP1 PUSH2 0x175 SWAP1 DUP4 SWAP1 PUSH1 0x17 SWAP1 PUSH32 0xFFFFFFFFFFFFFFFFFFFFFFFFFFFFFFFFFFFFFFFFFFFFFFFFFFFFFFFFFFFFFFE9 ADD PUSH2 0x9F5 JUMP JUMPDEST PUSH1 0x0 PUSH2 0x704 PUSH32 0x0 PUSH2 0x6FF DUP7 DUP7 DUP7 PUSH2 0xBDC JUMP JUMPDEST PUSH2 0xC59 JUMP JUMPDEST SWAP5 SWAP4 POP POP POP POP JUMP JUMPDEST PUSH1 0x0 PUSH32 0x8000000000000000000000000000000000000000000000000000000000000000 DUP3 LT PUSH2 0x73A JUMPI PUSH1 0x0 DUP1 REVERT JUMPDEST POP SWAP1 JUMP JUMPDEST PUSH1 0x0 DUP2 MLOAD PUSH1 0x20 EQ PUSH2 0x7DB JUMPI PUSH1 0x44 DUP3 MLOAD LT ISZERO PUSH2 0x78E JUMPI PUSH1 0x40 MLOAD PUSH32 0x8C379A000000000000000000000000000000000000000000000000000000000 DUP2 MSTORE PUSH1 0x4 ADD PUSH2 0x785 SWAP1 PUSH2 0x1111 JUMP JUMPDEST PUSH1 0x40 MLOAD DUP1 SWAP2 SUB SWAP1 REVERT JUMPDEST PUSH1 0x4 DUP3 ADD SWAP2 POP DUP2 DUP1 PUSH1 0x20 ADD SWAP1 MLOAD DUP2 ADD SWAP1 PUSH2 0x7A8 SWAP2 SWAP1 PUSH2 0xF52 JUMP JUMPDEST PUSH1 0x40 MLOAD PUSH32 0x8C379A000000000000000000000000000000000000000000000000000000000 DUP2 MSTORE PUSH1 0x4 ADD PUSH2 0x785 SWAP2 SWAP1 PUSH2 0x10F7 JUMP JUMPDEST DUP2 DUP1 PUSH1 0x20 ADD SWAP1 MLOAD DUP2 ADD SWAP1 PUSH2 0x175 SWAP2 SWAP1 PUSH2 0xFBC JUMP JUMPDEST PUSH1 0x0 PUSH2 0x337 DUP6 PUSH2 0x800 DUP7 DUP7 DUP7 PUSH2 0xBDC JUMP JUMPDEST PUSH2 0xD8F JUMP JUMPDEST PUSH1 0x0 DUP2 DUP3 PUSH1 0x14 ADD LT ISZERO PUSH2 0x879 JUMPI PUSH1 0x40 DUP1 MLOAD PUSH32 0x8C379A000000000000000000000000000000000000000000000000000000000 DUP2 MSTORE PUSH1 0x20 PUSH1 0x4 DUP3 ADD MSTORE PUSH1 0x12 PUSH1 0x24 DUP3 ADD MSTORE PUSH32 0x746F416464726573735F6F766572666C6F770000000000000000000000000000 PUSH1 0x44 DUP3 ADD MSTORE SWAP1 MLOAD SWAP1 DUP2 SWAP1 SUB PUSH1 0x64 ADD SWAP1 REVERT JUMPDEST DUP2 PUSH1 0x14 ADD DUP4 MLOAD LT ISZERO PUSH2 0x8EC JUMPI PUSH1 0x40 DUP1 MLOAD PUSH32 0x8C379A000000000000000000000000000000000000000000000000000000000 DUP2 MSTORE PUSH1 0x20 PUSH1 0x4 DUP3 ADD MSTORE PUSH1 0x15 PUSH1 0x24 DUP3 ADD MSTORE PUSH32 0x746F416464726573735F6F75744F66426F756E64730000000000000000000000 PUSH1 0x44 DUP3 ADD MSTORE SWAP1 MLOAD SWAP1 DUP2 SWAP1 SUB PUSH1 0x64 ADD SWAP1 REVERT JUMPDEST POP ADD PUSH1 0x20 ADD MLOAD PUSH13 0x1000000000000000000000000 SWAP1 DIV SWAP1 JUMP JUMPDEST PUSH1 0x0 DUP2 DUP3 PUSH1 0x3 ADD LT ISZERO PUSH2 0x979 JUMPI PUSH1 0x40 DUP1 MLOAD PUSH32 0x8C379A000000000000000000000000000000000000000000000000000000000 DUP2 MSTORE PUSH1 0x20 PUSH1 0x4 DUP3 ADD MSTORE PUSH1 0x11 PUSH1 0x24 DUP3 ADD MSTORE PUSH32 0x746F55696E7432345F6F766572666C6F77000000000000000000000000000000 PUSH1 0x44 DUP3 ADD MSTORE SWAP1 MLOAD SWAP1 DUP2 SWAP1 SUB PUSH1 0x64 ADD SWAP1 REVERT JUMPDEST DUP2 PUSH1 0x3 ADD DUP4 MLOAD LT ISZERO PUSH2 0x9EC JUMPI PUSH1 0x40 DUP1 MLOAD PUSH32 0x8C379A000000000000000000000000000000000000000000000000000000000 DUP2 MSTORE PUSH1 0x20 PUSH1 0x4 DUP3 ADD MSTORE PUSH1 0x14 PUSH1 0x24 DUP3 ADD MSTORE PUSH32 0x746F55696E7432345F6F75744F66426F756E6473000000000000000000000000 PUSH1 0x44 DUP3 ADD MSTORE SWAP1 MLOAD SWAP1 DUP2 SWAP1 SUB PUSH1 0x64 ADD SWAP1 REVERT JUMPDEST POP ADD PUSH1 0x3 ADD MLOAD SWAP1 JUMP JUMPDEST PUSH1 0x60 DUP2 DUP3 PUSH1 0x1F ADD LT ISZERO PUSH2 0xA69 JUMPI PUSH1 0x40 DUP1 MLOAD PUSH32 0x8C379A000000000000000000000000000000000000000000000000000000000 DUP2 MSTORE PUSH1 0x20 PUSH1 0x4 DUP3 ADD MSTORE PUSH1 0xE PUSH1 0x24 DUP3 ADD MSTORE PUSH32 0x736C6963655F6F766572666C6F77000000000000000000000000000000000000 PUSH1 0x44 DUP3 ADD MSTORE SWAP1 MLOAD SWAP1 DUP2 SWAP1 SUB PUSH1 0x64 ADD SWAP1 REVERT JUMPDEST DUP3 DUP3 DUP5 ADD LT ISZERO PUSH2 0xADA JUMPI PUSH1 0x40 DUP1 MLOAD PUSH32 0x8C379A000000000000000000000000000000000000000000000000000000000 DUP2 MSTORE PUSH1 0x20 PUSH1 0x4 DUP3 ADD MSTORE PUSH1 0xE PUSH1 0x24 DUP3 ADD MSTORE PUSH32 0x736C6963655F6F766572666C6F77000000000000000000000000000000000000 PUSH1 0x44 DUP3 ADD MSTORE SWAP1 MLOAD SWAP1 DUP2 SWAP1 SUB PUSH1 0x64 ADD SWAP1 REVERT JUMPDEST DUP2 DUP4 ADD DUP5 MLOAD LT ISZERO PUSH2 0xB4C JUMPI PUSH1 0x40 DUP1 MLOAD PUSH32 0x8C379A000000000000000000000000000000000000000000000000000000000 DUP2 MSTORE PUSH1 0x20 PUSH1 0x4 DUP3 ADD MSTORE PUSH1 0x11 PUSH1 0x24 DUP3 ADD MSTORE PUSH32 0x736C6963655F6F75744F66426F756E6473000000000000000000000000000000 PUSH1 0x44 DUP3 ADD MSTORE SWAP1 MLOAD SWAP1 DUP2 SWAP1 SUB PUSH1 0x64 ADD SWAP1 REVERT JUMPDEST PUSH1 0x60 DUP3 ISZERO DUP1 ISZERO PUSH2 0xB6B JUMPI PUSH1 0x40 MLOAD SWAP2 POP PUSH1 0x0 DUP3 MSTORE PUSH1 0x20 DUP3 ADD PUSH1 0x40 MSTORE PUSH2 0xBD3 JUMP JUMPDEST PUSH1 0x40 MLOAD SWAP2 POP PUSH1 0x1F DUP5 AND DUP1 ISZERO PUSH1 0x20 MUL DUP2 DUP5 ADD ADD DUP6 DUP2 ADD DUP8 DUP4 ISZERO PUSH1 0x20 MUL DUP5 DUP12 ADD ADD ADD JUMPDEST DUP2 DUP4 LT ISZERO PUSH2 0xBA4 JUMPI DUP1 MLOAD DUP4 MSTORE PUSH1 0x20 SWAP3 DUP4 ADD SWAP3 ADD PUSH2 0xB8C JUMP JUMPDEST POP POP DUP6 DUP5 MSTORE PUSH1 0x1F ADD PUSH32 0xFFFFFFFFFFFFFFFFFFFFFFFFFFFFFFFFFFFFFFFFFFFFFFFFFFFFFFFFFFFFFFE0 AND PUSH1 0x40 MSTORE POP JUMPDEST POP SWAP5 SWAP4 POP POP POP POP JUMP JUMPDEST PUSH2 0xBE4 PUSH2 0xDBF JUMP JUMPDEST DUP3 PUSH20 0xFFFFFFFFFFFFFFFFFFFFFFFFFFFFFFFFFFFFFFFF AND DUP5 PUSH20 0xFFFFFFFFFFFFFFFFFFFFFFFFFFFFFFFFFFFFFFFF AND GT ISZERO PUSH2 0xC1C JUMPI SWAP2 SWAP3 SWAP2 JUMPDEST POP PUSH1 0x40 DUP1 MLOAD PUSH1 0x60 DUP2 ADD DUP3 MSTORE PUSH20 0xFFFFFFFFFFFFFFFFFFFFFFFFFFFFFFFFFFFFFFFF SWAP5 DUP6 AND DUP2 MSTORE SWAP3 SWAP1 SWAP4 AND PUSH1 0x20 DUP4 ADD MSTORE PUSH3 0xFFFFFF AND SWAP2 DUP2 ADD SWAP2 SWAP1 SWAP2 MSTORE SWAP1 JUMP JUMPDEST PUSH1 0x0 DUP2 PUSH1 0x20 ADD MLOAD PUSH20 0xFFFFFFFFFFFFFFFFFFFFFFFFFFFFFFFFFFFFFFFF AND DUP3 PUSH1 0x0 ADD MLOAD PUSH20 0xFFFFFFFFFFFFFFFFFFFFFFFFFFFFFFFFFFFFFFFF AND LT PUSH2 0xC9B JUMPI PUSH1 0x0 DUP1 REVERT JUMPDEST POP DUP1 MLOAD PUSH1 0x20 DUP1 DUP4 ADD MLOAD PUSH1 0x40 SWAP4 DUP5 ADD MLOAD DUP5 MLOAD PUSH20 0xFFFFFFFFFFFFFFFFFFFFFFFFFFFFFFFFFFFFFFFF SWAP5 DUP6 AND DUP2 DUP6 ADD MSTORE SWAP4 SWAP1 SWAP2 AND DUP4 DUP6 ADD MSTORE PUSH3 0xFFFFFF AND PUSH1 0x60 DUP1 DUP5 ADD SWAP2 SWAP1 SWAP2 MSTORE DUP4 MLOAD DUP1 DUP5 SUB DUP3 ADD DUP2 MSTORE PUSH1 0x80 DUP5 ADD DUP6 MSTORE DUP1 MLOAD SWAP1 DUP4 ADD KECCAK256 PUSH32 0xFF00000000000000000000000000000000000000000000000000000000000000 PUSH1 0xA0 DUP6 ADD MSTORE SWAP5 SWAP1 SHL PUSH32 0xFFFFFFFFFFFFFFFFFFFFFFFFFFFFFFFFFFFFFFFF000000000000000000000000 AND PUSH1 0xA1 DUP4 ADD MSTORE PUSH1 0xB5 DUP3 ADD SWAP4 SWAP1 SWAP4 MSTORE PUSH32 0xF1804C752C7C65CC02F2EE3526F62CD20F9F0F6B31C1608C7D7504D2C177BC23 PUSH1 0xD5 DUP1 DUP4 ADD SWAP2 SWAP1 SWAP2 MSTORE DUP3 MLOAD DUP1 DUP4 SUB SWAP1 SWAP2 ADD DUP2 MSTORE PUSH1 0xF5 SWAP1 SWAP2 ADD SWAP1 SWAP2 MSTORE DUP1 MLOAD SWAP2 ADD KECCAK256 SWAP1 JUMP JUMPDEST PUSH1 0x0 PUSH2 0xD9B DUP4 DUP4 PUSH2 0xC59 JUMP JUMPDEST SWAP1 POP CALLER PUSH20 0xFFFFFFFFFFFFFFFFFFFFFFFFFFFFFFFFFFFFFFFF DUP3 AND EQ PUSH2 0x175 JUMPI PUSH1 0x0 DUP1 REVERT JUMPDEST PUSH1 0x40 DUP1 MLOAD PUSH1 0x60 DUP2 ADD DUP3 MSTORE PUSH1 0x0 DUP1 DUP3 MSTORE PUSH1 0x20 DUP3 ADD DUP2 SWAP1 MSTORE SWAP2 DUP2 ADD SWAP2 SWAP1 SWAP2 MSTORE SWAP1 JUMP JUMPDEST PUSH1 0x0 DUP3 PUSH1 0x1F DUP4 ADD SLT PUSH2 0xDEF JUMPI DUP1 DUP2 REVERT JUMPDEST DUP2 CALLDATALOAD PUSH2 0xE02 PUSH2 0xDFD DUP3 PUSH2 0x1175 JUMP JUMPDEST PUSH2 0x1151 JUMP JUMPDEST DUP2 DUP2 MSTORE DUP5 PUSH1 0x20 DUP4 DUP7 ADD ADD GT ISZERO PUSH2 0xE16 JUMPI DUP3 DUP4 REVERT JUMPDEST DUP2 PUSH1 0x20 DUP6 ADD PUSH1 0x20 DUP4 ADD CALLDATACOPY SWAP1 DUP2 ADD PUSH1 0x20 ADD SWAP2 SWAP1 SWAP2 MSTORE SWAP3 SWAP2 POP POP JUMP JUMPDEST PUSH1 0x0 DUP1 PUSH1 0x0 DUP1 PUSH1 0x0 PUSH1 0xA0 DUP7 DUP9 SUB SLT ISZERO PUSH2 0xE47 JUMPI DUP1 DUP2 REVERT JUMPDEST DUP6 CALLDATALOAD PUSH2 0xE52 DUP2 PUSH2 0x11E5 JUMP JUMPDEST SWAP5 POP PUSH1 0x20 DUP7 ADD CALLDATALOAD PUSH2 0xE62 DUP2 PUSH2 0x11E5 JUMP JUMPDEST SWAP4 POP PUSH1 0x40 DUP7 ADD CALLDATALOAD PUSH3 0xFFFFFF DUP2 AND DUP2 EQ PUSH2 0xE79 JUMPI DUP2 DUP3 REVERT JUMPDEST SWAP3 POP PUSH1 0x60 DUP7 ADD CALLDATALOAD SWAP2 POP PUSH1 0x80 DUP7 ADD CALLDATALOAD PUSH2 0xE90 DUP2 PUSH2 0x11E5 JUMP JUMPDEST DUP1 SWAP2 POP POP SWAP3 SWAP6 POP SWAP3 SWAP6 SWAP1 SWAP4 POP JUMP JUMPDEST PUSH1 0x0 DUP1 PUSH1 0x40 DUP4 DUP6 SUB SLT ISZERO PUSH2 0xEB0 JUMPI DUP2 DUP3 REVERT JUMPDEST DUP3 CALLDATALOAD PUSH8 0xFFFFFFFFFFFFFFFF DUP2 GT ISZERO PUSH2 0xEC6 JUMPI DUP3 DUP4 REVERT JUMPDEST PUSH2 0xED2 DUP6 DUP3 DUP7 ADD PUSH2 0xDDF JUMP JUMPDEST SWAP6 PUSH1 0x20 SWAP5 SWAP1 SWAP5 ADD CALLDATALOAD SWAP5 POP POP POP POP JUMP JUMPDEST PUSH1 0x0 DUP1 PUSH1 0x40 DUP4 DUP6 SUB SLT ISZERO PUSH2 0xEF3 JUMPI DUP2 DUP3 REVERT JUMPDEST POP POP DUP1 MLOAD PUSH1 0x20 SWAP1 SWAP2 ADD MLOAD SWAP1 SWAP3 SWAP1 SWAP2 POP JUMP JUMPDEST PUSH1 0x0 DUP1 PUSH1 0x0 PUSH1 0x60 DUP5 DUP7 SUB SLT ISZERO PUSH2 0xF18 JUMPI DUP3 DUP4 REVERT JUMPDEST DUP4 CALLDATALOAD SWAP3 POP PUSH1 0x20 DUP5 ADD CALLDATALOAD SWAP2 POP PUSH1 0x40 DUP5 ADD CALLDATALOAD PUSH8 0xFFFFFFFFFFFFFFFF DUP2 GT ISZERO PUSH2 0xF3C JUMPI DUP2 DUP3 REVERT JUMPDEST PUSH2 0xF48 DUP7 DUP3 DUP8 ADD PUSH2 0xDDF JUMP JUMPDEST SWAP2 POP POP SWAP3 POP SWAP3 POP SWAP3 JUMP JUMPDEST PUSH1 0x0 PUSH1 0x20 DUP3 DUP5 SUB SLT ISZERO PUSH2 0xF63 JUMPI DUP1 DUP2 REVERT JUMPDEST DUP2 MLOAD PUSH8 0xFFFFFFFFFFFFFFFF DUP2 GT ISZERO PUSH2 0xF79 JUMPI DUP2 DUP3 REVERT JUMPDEST DUP3 ADD PUSH1 0x1F DUP2 ADD DUP5 SGT PUSH2 0xF89 JUMPI DUP2 DUP3 REVERT JUMPDEST DUP1 MLOAD PUSH2 0xF97 PUSH2 0xDFD DUP3 PUSH2 0x1175 JUMP JUMPDEST DUP2 DUP2 MSTORE DUP6 PUSH1 0x20 DUP4 DUP6 ADD ADD GT ISZERO PUSH2 0xFAB JUMPI DUP4 DUP5 REVERT JUMPDEST PUSH2 0x337 DUP3 PUSH1 0x20 DUP4 ADD PUSH1 0x20 DUP7 ADD PUSH2 0x11B5 JUMP JUMPDEST PUSH1 0x0 PUSH1 0x20 DUP3 DUP5 SUB SLT ISZERO PUSH2 0xFCD JUMPI DUP1 DUP2 REVERT JUMPDEST POP MLOAD SWAP2 SWAP1 POP JUMP JUMPDEST PUSH1 0x0 DUP2 MLOAD DUP1 DUP5 MSTORE PUSH2 0xFEC DUP2 PUSH1 0x20 DUP7 ADD PUSH1 0x20 DUP7 ADD PUSH2 0x11B5 JUMP JUMPDEST PUSH1 0x1F ADD PUSH32 0xFFFFFFFFFFFFFFFFFFFFFFFFFFFFFFFFFFFFFFFFFFFFFFFFFFFFFFFFFFFFFFE0 AND SWAP3 SWAP1 SWAP3 ADD PUSH1 0x20 ADD SWAP3 SWAP2 POP POP JUMP JUMPDEST PUSH1 0x60 SWAP4 DUP5 SHL PUSH32 0xFFFFFFFFFFFFFFFFFFFFFFFFFFFFFFFFFFFFFFFF000000000000000000000000 SWAP1 DUP2 AND DUP3 MSTORE PUSH1 0xE8 SWAP4 SWAP1 SWAP4 SHL PUSH32 0xFFFFFF0000000000000000000000000000000000000000000000000000000000 AND PUSH1 0x14 DUP3 ADD MSTORE SWAP3 SHL AND PUSH1 0x17 DUP3 ADD MSTORE PUSH1 0x2B ADD SWAP1 JUMP JUMPDEST PUSH20 0xFFFFFFFFFFFFFFFFFFFFFFFFFFFFFFFFFFFFFFFF SWAP2 SWAP1 SWAP2 AND DUP2 MSTORE PUSH1 0x20 ADD SWAP1 JUMP JUMPDEST PUSH1 0x0 PUSH20 0xFFFFFFFFFFFFFFFFFFFFFFFFFFFFFFFFFFFFFFFF DUP1 DUP9 AND DUP4 MSTORE DUP7 ISZERO ISZERO PUSH1 0x20 DUP5 ADD MSTORE DUP6 PUSH1 0x40 DUP5 ADD MSTORE DUP1 DUP6 AND PUSH1 0x60 DUP5 ADD MSTORE POP PUSH1 0xA0 PUSH1 0x80 DUP4 ADD MSTORE PUSH2 0x10EC PUSH1 0xA0 DUP4 ADD DUP5 PUSH2 0xFD4 JUMP JUMPDEST SWAP8 SWAP7 POP POP POP POP POP POP POP JUMP JUMPDEST PUSH1 0x0 PUSH1 0x20 DUP3 MSTORE PUSH2 0x110A PUSH1 0x20 DUP4 ADD DUP5 PUSH2 0xFD4 JUMP JUMPDEST SWAP4 SWAP3 POP POP POP JUMP JUMPDEST PUSH1 0x20 DUP1 DUP3 MSTORE PUSH1 0x10 SWAP1 DUP3 ADD MSTORE PUSH32 0x556E6578706563746564206572726F7200000000000000000000000000000000 PUSH1 0x40 DUP3 ADD MSTORE PUSH1 0x60 ADD SWAP1 JUMP JUMPDEST SWAP1 DUP2 MSTORE PUSH1 0x20 ADD SWAP1 JUMP JUMPDEST PUSH1 0x40 MLOAD DUP2 DUP2 ADD PUSH8 0xFFFFFFFFFFFFFFFF DUP2 GT DUP3 DUP3 LT OR ISZERO PUSH2 0x116D JUMPI INVALID JUMPDEST PUSH1 0x40 MSTORE SWAP2 SWAP1 POP JUMP JUMPDEST PUSH1 0x0 PUSH8 0xFFFFFFFFFFFFFFFF DUP3 GT ISZERO PUSH2 0x1189 JUMPI INVALID JUMPDEST POP PUSH1 0x1F ADD PUSH32 0xFFFFFFFFFFFFFFFFFFFFFFFFFFFFFFFFFFFFFFFFFFFFFFFFFFFFFFFFFFFFFFE0 AND PUSH1 0x20 ADD SWAP1 JUMP JUMPDEST PUSH1 0x0 JUMPDEST DUP4 DUP2 LT ISZERO PUSH2 0x11D0 JUMPI DUP2 DUP2 ADD MLOAD DUP4 DUP3 ADD MSTORE PUSH1 0x20 ADD PUSH2 0x11B8 JUMP JUMPDEST DUP4 DUP2 GT ISZERO PUSH2 0x11DF JUMPI PUSH1 0x0 DUP5 DUP5 ADD MSTORE JUMPDEST POP POP POP POP JUMP JUMPDEST PUSH20 0xFFFFFFFFFFFFFFFFFFFFFFFFFFFFFFFFFFFFFFFF DUP2 AND DUP2 EQ PUSH2 0x1207 JUMPI PUSH1 0x0 DUP1 REVERT JUMPDEST POP JUMP INVALID LOG2 PUSH5 0x6970667358 0x22 SLT KECCAK256 MOD SMOD 0x27 0x49 0x24 0xCF SHL 0x4C 0xE PUSH20 0x30C28384D7F4B7A979BE32C5BB668191A56F88C2 0xDD BLOCKHASH PUSH5 0x736F6C6343 STOP SMOD MOD STOP CALLER "
				},
				"gasEstimates": {
					"creation": {
						"codeDepositCost": "934400",
						"executionCost": "infinite",
						"totalCost": "infinite"
					},
					"external": {
						"WETH9()": "infinite",
						"factory()": "infinite",
						"quoteExactInput(bytes,uint256)": "infinite",
						"quoteExactInputSingle(address,address,uint24,uint256,uint160)": "infinite",
						"quoteExactOutput(bytes,uint256)": "infinite",
						"quoteExactOutputSingle(address,address,uint24,uint256,uint160)": "infinite",
						"uniswapV3SwapCallback(int256,int256,bytes)": "infinite"
					},
					"internal": {
						"getPool(address,address,uint24)": "infinite",
						"parseRevertReason(bytes memory)": "infinite"
					}
				},
				"methodIdentifiers": {
					"WETH9()": "4aa4a4fc",
					"factory()": "c45a0155",
					"quoteExactInput(bytes,uint256)": "cdca1753",
					"quoteExactInputSingle(address,address,uint24,uint256,uint160)": "f7729d43",
					"quoteExactOutput(bytes,uint256)": "2f80bb1d",
					"quoteExactOutputSingle(address,address,uint24,uint256,uint160)": "30d07f21",
					"uniswapV3SwapCallback(int256,int256,bytes)": "fa461e33"
				}
			},
			"storageLayout": {
				"storage": [
					{
						"astId": 974,
						"contract": "contracts/Quoter/Quoter.sol:Quoter",
						"label": "amountOutCached",
						"offset": 0,
						"slot": "0",
						"type": "t_uint256"
					}
				],
				"types": {
					"t_uint256": {
						"encoding": "inplace",
						"label": "uint256",
						"numberOfBytes": "32"
					}
				}
			},
			"userdoc": {
				"kind": "user",
				"methods": {
					"quoteExactInput(bytes,uint256)": {
						"notice": "Returns the amount out received for a given exact input swap without executing the swap"
					},
					"quoteExactInputSingle(address,address,uint24,uint256,uint160)": {
						"notice": "Returns the amount out received for a given exact input but for a swap of a single pool"
					},
					"quoteExactOutput(bytes,uint256)": {
						"notice": "Returns the amount in required for a given exact output swap without executing the swap"
					},
					"quoteExactOutputSingle(address,address,uint24,uint256,uint160)": {
						"notice": "Returns the amount in required to receive the given exact output amount but for a swap of a single pool"
					},
					"uniswapV3SwapCallback(int256,int256,bytes)": {
						"notice": "Called to `msg.sender` after executing a swap via IUniswapV3Pool#swap."
					}
				},
				"notice": "Allows getting the expected amount out or amount in for a given swap without executing the swap",
				"version": 1
			}
		}
	}
}