{
	"data": {
		"bytecode": {
			"linkReferences": {},
			"object": "6101606040523480156200001257600080fd5b503060601b60805260408051630890357360e41b81529051600091339163890357309160048082019260a092909190829003018186803b1580156200005657600080fd5b505afa1580156200006b573d6000803e3d6000fd5b505050506040513d60a08110156200008257600080fd5b508051602080830151604084015160608086015160809096015160e896871b6001600160e81b0319166101005291811b6001600160601b031990811660e05292811b831660c0529390931b1660a052600282810b900b90921b610120529150620000f79082906200010f811b62003e2317901c565b60801b6001600160801b03191661014052506200017d565b60008082600281900b620d89e719816200012557fe5b05029050600083600281900b620d89e8816200013d57fe5b0502905060008460020b83830360020b816200015557fe5b0560010190508062ffffff166001600160801b038016816200017357fe5b0495945050505050565b60805160601c60a05160601c60c05160601c60e05160601c6101005160e81c6101205160e81c6101405160801c6177326200024a60003980612c5352806168c752806168fe525080610ed75280613a5e5280616932528061696452508061103f528061236d52806123a45280613aa65250806116ca52806124275280612af752806133155280613a8252806155c85250806109b2528061183952806123f65280612a72528061323c5280615426525080612d70528061305f5280613a3a525080613ecc52506177326000f3fe608060405234801561001057600080fd5b50600436106101ae5760003560e01c806370cf754a116100ee578063c45a015511610097578063ddca3f4311610071578063ddca3f43146108bd578063f3058399146108dd578063f30dba93146108e5578063f637731d1461097d576101ae565b8063c45a01551461088e578063d0c93a7c14610896578063d21220a7146108b5576101ae565b8063883bdbfd116100c8578063883bdbfd146106da578063a34123a7146107e3578063a38807f214610826576101ae565b806370cf754a146106575780638206a4d11461065f57806385b6672914610687576101ae565b80633850c7bd1161015b578063490e6cbc11610135578063490e6cbc146104d55780634f1eb3d81461056e578063514ea4bf146105d55780635339c29614610637576101ae565b80633850c7bd1461039d5780633c8a7d8d1461040357806346141319146104bb576101ae565b80631ad8b03b1161018c5780631ad8b03b146102cd578063252c09d71461031657806332148f671461037a576101ae565b80630dfe1681146101b3578063128acb08146101e45780631a686502146102a0575b600080fd5b6101bb6109b0565b6040805173ffffffffffffffffffffffffffffffffffffffff9092168252519081900360200190f35b610287600480360360a08110156101fa57600080fd5b73ffffffffffffffffffffffffffffffffffffffff82358116926020810135151592604082013592606083013516919081019060a08101608082013564010000000081111561024857600080fd5b82018360208201111561025a57600080fd5b8035906020019184600183028401116401000000008311171561027c57600080fd5b5090925090506109d4565b6040805192835260208301919091528051918290030190f35b6102a8611a7e565b604080516fffffffffffffffffffffffffffffffff9092168252519081900360200190f35b6102d5611a96565b60405180836fffffffffffffffffffffffffffffffff168152602001826fffffffffffffffffffffffffffffffff1681526020019250505060405180910390f35b6103336004803603602081101561032c57600080fd5b5035611ac6565b6040805163ffffffff909516855260069390930b602085015273ffffffffffffffffffffffffffffffffffffffff9091168383015215156060830152519081900360800190f35b61039b6004803603602081101561039057600080fd5b503561ffff16611b3d565b005b6103a5611d21565b6040805173ffffffffffffffffffffffffffffffffffffffff909816885260029690960b602088015261ffff9485168787015292841660608701529216608085015260ff90911660a0840152151560c0830152519081900360e00190f35b610287600480360360a081101561041957600080fd5b73ffffffffffffffffffffffffffffffffffffffff823516916020810135600290810b92604083013590910b916fffffffffffffffffffffffffffffffff6060820135169181019060a08101608082013564010000000081111561047c57600080fd5b82018360208201111561048e57600080fd5b803590602001918460018302840111640100000000831117156104b057600080fd5b509092509050611e06565b6104c361221b565b60408051918252519081900360200190f35b61039b600480360360808110156104eb57600080fd5b73ffffffffffffffffffffffffffffffffffffffff823516916020810135916040820135919081019060808101606082013564010000000081111561052f57600080fd5b82018360208201111561054157600080fd5b8035906020019184600183028401116401000000008311171561056357600080fd5b509092509050612221565b6102d5600480360360a081101561058457600080fd5b5073ffffffffffffffffffffffffffffffffffffffff813516906020810135600290810b91604081013590910b906fffffffffffffffffffffffffffffffff60608201358116916080013516612895565b6105f2600480360360208110156105eb57600080fd5b5035612bec565b604080516fffffffffffffffffffffffffffffffff96871681526020810195909552848101939093529084166060840152909216608082015290519081900360a00190f35b6104c36004803603602081101561064d57600080fd5b503560010b612c3f565b6102a8612c51565b61039b6004803603604081101561067557600080fd5b5060ff81358116916020013516612c75565b6102d56004803603606081101561069d57600080fd5b5073ffffffffffffffffffffffffffffffffffffffff813516906fffffffffffffffffffffffffffffffff60208201358116916040013516612f61565b61074a600480360360208110156106f057600080fd5b81019060208101813564010000000081111561070b57600080fd5b82018360208201111561071d57600080fd5b8035906020019184602083028401116401000000008311171561073f57600080fd5b5090925090506133f9565b604051808060200180602001838103835285818151815260200191508051906020019060200280838360005b8381101561078e578181015183820152602001610776565b50505050905001838103825284818151815260200191508051906020019060200280838360005b838110156107cd5781810151838201526020016107b5565b5050505090500194505050505060405180910390f35b610287600480360360608110156107f957600080fd5b508035600290810b91602081013590910b90604001356fffffffffffffffffffffffffffffffff166134ca565b6108506004803603604081101561083c57600080fd5b508035600290810b9160200135900b613721565b6040805160069490940b845273ffffffffffffffffffffffffffffffffffffffff909216602084015263ffffffff1682820152519081900360600190f35b6101bb613a38565b61089e613a5c565b6040805160029290920b8252519081900360200190f35b6101bb613a80565b6108c5613aa4565b6040805162ffffff9092168252519081900360200190f35b6104c3613ac8565b610905600480360360208110156108fb57600080fd5b503560020b613ace565b604080516fffffffffffffffffffffffffffffffff9099168952600f9790970b602089015287870195909552606087019390935260069190910b608086015273ffffffffffffffffffffffffffffffffffffffff1660a085015263ffffffff1660c0840152151560e083015251908190036101000190f35b61039b6004803603602081101561099357600080fd5b503573ffffffffffffffffffffffffffffffffffffffff16613b93565b7f000000000000000000000000000000000000000000000000000000000000000081565b6000806109df613eb4565b85610a4b57604080517f08c379a000000000000000000000000000000000000000000000000000000000815260206004820152600260248201527f4153000000000000000000000000000000000000000000000000000000000000604482015290519081900360640190fd5b6040805160e08101825260005473ffffffffffffffffffffffffffffffffffffffff81168252740100000000000000000000000000000000000000008104600290810b810b900b602083015261ffff7701000000000000000000000000000000000000000000000082048116938301939093527901000000000000000000000000000000000000000000000000008104831660608301527b010000000000000000000000000000000000000000000000000000008104909216608082015260ff7d0100000000000000000000000000000000000000000000000000000000008304811660a08301527e01000000000000000000000000000000000000000000000000000000000000909204909116151560c08201819052610bcd57604080517f08c379a000000000000000000000000000000000000000000000000000000000815260206004820152600360248201527f4c4f4b0000000000000000000000000000000000000000000000000000000000604482015290519081900360640190fd5b87610c3f57806000015173ffffffffffffffffffffffffffffffffffffffff168673ffffffffffffffffffffffffffffffffffffffff16118015610c3a575073fffd8963efd1fc6a506488495d951d5263988d2673ffffffffffffffffffffffffffffffffffffffff8716105b610c98565b806000015173ffffffffffffffffffffffffffffffffffffffff168673ffffffffffffffffffffffffffffffffffffffff16108015610c9857506401000276a373ffffffffffffffffffffffffffffffffffffffff8716115b610d0357604080517f08c379a000000000000000000000000000000000000000000000000000000000815260206004820152600360248201527f53504c0000000000000000000000000000000000000000000000000000000000604482015290519081900360640190fd5b600080547fff00ffffffffffffffffffffffffffffffffffffffffffffffffffffffffffff1681556040805160c08101909152808a610d4d5760048460a0015160ff16901c610d60565b60108460a0015160ff1681610d5e57fe5b065b60ff1681526004546fffffffffffffffffffffffffffffffff166020820152604001610d8a613ef8565b63ffffffff168152602001600060060b8152602001600073ffffffffffffffffffffffffffffffffffffffff1681526020016000151581525090506000808913905060006040518060e001604052808b815260200160008152602001856000015173ffffffffffffffffffffffffffffffffffffffff168152602001856020015160020b81526020018c610e2057600254610e24565b6001545b815260200160006fffffffffffffffffffffffffffffffff16815260200184602001516fffffffffffffffffffffffffffffffff1681525090505b805115801590610e9f57508873ffffffffffffffffffffffffffffffffffffffff16816040015173ffffffffffffffffffffffffffffffffffffffff1614155b1561136e57610eac617699565b604082015173ffffffffffffffffffffffffffffffffffffffff1681526060820151610efc906006907f00000000000000000000000000000000000000000000000000000000000000008f613efc565b15156040830152600290810b810b602083018190527ffffffffffffffffffffffffffffffffffffffffffffffffffffffffffff27618910b1215610f65577ffffffffffffffffffffffffffffffffffffffffffffffffffffffffffff276186020820152610f84565b6020810151620d89e860029190910b1315610f8457620d89e860208201525b610f91816020015161407a565b73ffffffffffffffffffffffffffffffffffffffff1660608201526040820151611063908d610ff2578b73ffffffffffffffffffffffffffffffffffffffff16836060015173ffffffffffffffffffffffffffffffffffffffff1611611026565b8b73ffffffffffffffffffffffffffffffffffffffff16836060015173ffffffffffffffffffffffffffffffffffffffff16105b611034578260600151611036565b8b5b60c085015185517f000000000000000000000000000000000000000000000000000000000000000061440d565b60c085015260a0840152608083015273ffffffffffffffffffffffffffffffffffffffff16604083015282156110d2576110a68160c00151826080015101614633565b825103825260a08101516110c8906110bd90614633565b602084015190614665565b602083015261110d565b6110df8160a00151614633565b825101825260c08101516080820151611107916110fc9101614633565b602084015190614681565b60208301525b835160ff161561115c576000846000015160ff168260c001518161112d57fe5b60c0840180519290910491829003905260a0840180519091016fffffffffffffffffffffffffffffffff169052505b60c08201516fffffffffffffffffffffffffffffffff16156111ba576111ae8160c001517001000000000000000000000000000000008460c001516fffffffffffffffffffffffffffffffff16614697565b60808301805190910190525b806060015173ffffffffffffffffffffffffffffffffffffffff16826040015173ffffffffffffffffffffffffffffffffffffffff161415611313578060400151156112ea578360a0015161126b5761123c846040015160008760200151886040015188602001518a606001516008614765909695949392919063ffffffff16565b73ffffffffffffffffffffffffffffffffffffffff166080860152600690810b900b6060850152600160a08501525b60006112b782602001518e61128257600154611288565b84608001515b8f61129757856080015161129b565b6002545b608089015160608a015160408b01516005959493929190614936565b90508c156112c3576000035b6112d18360c0015182614a6b565b6fffffffffffffffffffffffffffffffff1660c0840152505b8b6112f9578060200151611302565b60018160200151035b600290810b900b6060830152611368565b806000015173ffffffffffffffffffffffffffffffffffffffff16826040015173ffffffffffffffffffffffffffffffffffffffff16146113685761135b8260400151614baf565b600290810b900b60608301525b50610e5f565b836020015160020b816060015160020b146114e9576000806113bc86604001518660400151886020015188602001518a606001518b608001516008614f7b909695949392919063ffffffff16565b60408501516060860151600080547fffffffffff0000ffffffffffffffffffffffffffffffffffffffffffffffffff1679010000000000000000000000000000000000000000000000000061ffff95861602177fffffffffffffff0000ffffffffffffffffffffffffffffffffffffffffffffff16770100000000000000000000000000000000000000000000009590941694909402929092177fffffffffffffffffff000000ffffffffffffffffffffffffffffffffffffffff167401000000000000000000000000000000000000000062ffffff60029490940b9390931692909202919091177fffffffffffffffffffffffff00000000000000000000000000000000000000001673ffffffffffffffffffffffffffffffffffffffff909116179055506115339050565b6040810151600080547fffffffffffffffffffffffff00000000000000000000000000000000000000001673ffffffffffffffffffffffffffffffffffffffff9092169190911790555b8060c001516fffffffffffffffffffffffffffffffff1683602001516fffffffffffffffffffffffffffffffff16146115ac5760c0810151600480547fffffffffffffffffffffffffffffffff00000000000000000000000000000000166fffffffffffffffffffffffffffffffff9092169190911790555b8a1561162657608081015160015560a08101516fffffffffffffffffffffffffffffffff16156116215760a0810151600380547fffffffffffffffffffffffffffffffff0000000000000000000000000000000081166fffffffffffffffffffffffffffffffff918216909301169190911790555b61168b565b608081015160025560a08101516fffffffffffffffffffffffffffffffff161561168b5760a0810151600380546fffffffffffffffffffffffffffffffff80821670010000000000000000000000000000000092839004821690940116029190911790555b8115158b1515146116a457602081015181518b036116b1565b80600001518a0381602001515b90965094508a1561182b5760008512156116f3576116f37f00000000000000000000000000000000000000000000000000000000000000008d876000036151c1565b60006116fd61539d565b90503373ffffffffffffffffffffffffffffffffffffffff1663fa461e3388888c8c6040518563ffffffff1660e01b815260040180858152602001848152602001806020018281038252848482818152602001925080828437600081840152601f19601f82011690508083019250505095505050505050600060405180830381600087803b15801561178e57600080fd5b505af11580156117a2573d6000803e3d6000fd5b505050506117ae61539d565b6117b8828961552f565b111561182557604080517f08c379a000000000000000000000000000000000000000000000000000000000815260206004820152600360248201527f4949410000000000000000000000000000000000000000000000000000000000604482015290519081900360640190fd5b50611996565b6000861215611862576118627f00000000000000000000000000000000000000000000000000000000000000008d886000036151c1565b600061186c61553f565b90503373ffffffffffffffffffffffffffffffffffffffff1663fa461e3388888c8c6040518563ffffffff1660e01b815260040180858152602001848152602001806020018281038252848482818152602001925080828437600081840152601f19601f82011690508083019250505095505050505050600060405180830381600087803b1580156118fd57600080fd5b505af1158015611911573d6000803e3d6000fd5b5050505061191d61553f565b611927828861552f565b111561199457604080517f08c379a000000000000000000000000000000000000000000000000000000000815260206004820152600360248201527f4949410000000000000000000000000000000000000000000000000000000000604482015290519081900360640190fd5b505b60408082015160c083015160608085015184518b8152602081018b905273ffffffffffffffffffffffffffffffffffffffff948516818701526fffffffffffffffffffffffffffffffff9093169183019190915260020b60808201529151908e169133917fc42079f94a6350d7e6235f29174924f928cc2ac818eb64fed8004e115fbcca679181900360a00190a35050600080547fff00ffffffffffffffffffffffffffffffffffffffffffffffffffffffffffff167e0100000000000000000000000000000000000000000000000000000000000017905550919890975095505050505050565b6004546fffffffffffffffffffffffffffffffff1681565b6003546fffffffffffffffffffffffffffffffff8082169170010000000000000000000000000000000090041682565b60088161ffff8110611ad757600080fd5b015463ffffffff81169150640100000000810460060b906b010000000000000000000000810473ffffffffffffffffffffffffffffffffffffffff16907f0100000000000000000000000000000000000000000000000000000000000000900460ff1684565b6000547e01000000000000000000000000000000000000000000000000000000000000900460ff16611bd057604080517f08c379a000000000000000000000000000000000000000000000000000000000815260206004820152600360248201527f4c4f4b0000000000000000000000000000000000000000000000000000000000604482015290519081900360640190fd5b600080547fff00ffffffffffffffffffffffffffffffffffffffffffffffffffffffffffff169055611c00613eb4565b600080547b01000000000000000000000000000000000000000000000000000000900461ffff1690611c3460088385615630565b6000805461ffff8084167b0100000000000000000000000000000000000000000000000000000081027fffffff0000ffffffffffffffffffffffffffffffffffffffffffffffffffffff90931692909217909255919250831614611cd3576040805161ffff80851682528316602082015281517fac49e518f90a358f652e4400164f05a5d8f7e35e7747279bc3a93dbf584e125a929181900390910190a15b5050600080547fff00ffffffffffffffffffffffffffffffffffffffffffffffffffffffffffff167e0100000000000000000000000000000000000000000000000000000000000017905550565b60005473ffffffffffffffffffffffffffffffffffffffff81169074010000000000000000000000000000000000000000810460020b9061ffff77010000000000000000000000000000000000000000000000820481169179010000000000000000000000000000000000000000000000000081048216917b010000000000000000000000000000000000000000000000000000008204169060ff7d01000000000000000000000000000000000000000000000000000000000082048116917e0100000000000000000000000000000000000000000000000000000000000090041687565b6000805481907e01000000000000000000000000000000000000000000000000000000000000900460ff16611e9c57604080517f08c379a000000000000000000000000000000000000000000000000000000000815260206004820152600360248201527f4c4f4b0000000000000000000000000000000000000000000000000000000000604482015290519081900360640190fd5b600080547fff00ffffffffffffffffffffffffffffffffffffffffffffffffffffffffffff1690556fffffffffffffffffffffffffffffffff8516611ee057600080fd5b600080611f4460405180608001604052808c73ffffffffffffffffffffffffffffffffffffffff1681526020018b60020b81526020018a60020b8152602001611f3a8a6fffffffffffffffffffffffffffffffff16615724565b600f0b9052615735565b92509250508193508092506000806000861115611f6657611f6361539d565b91505b8415611f7757611f7461553f565b90505b3373ffffffffffffffffffffffffffffffffffffffff1663d348799787878b8b6040518563ffffffff1660e01b815260040180858152602001848152602001806020018281038252848482818152602001925080828437600081840152601f19601f82011690508083019250505095505050505050600060405180830381600087803b15801561200657600080fd5b505af115801561201a573d6000803e3d6000fd5b5050505060008611156120a65761202f61539d565b612039838861552f565b11156120a657604080517f08c379a000000000000000000000000000000000000000000000000000000000815260206004820152600260248201527f4d30000000000000000000000000000000000000000000000000000000000000604482015290519081900360640190fd5b841561212b576120b461553f565b6120be828761552f565b111561212b57604080517f08c379a000000000000000000000000000000000000000000000000000000000815260206004820152600260248201527f4d31000000000000000000000000000000000000000000000000000000000000604482015290519081900360640190fd5b8960020b8b60020b8d73ffffffffffffffffffffffffffffffffffffffff167f7a53080ba414158be7ec69b987b5fb7d07dee101fe85488f0853ae16239d0bde338d8b8b604051808573ffffffffffffffffffffffffffffffffffffffff168152602001846fffffffffffffffffffffffffffffffff16815260200183815260200182815260200194505050505060405180910390a45050600080547fff00ffffffffffffffffffffffffffffffffffffffffffffffffffffffffffff167e0100000000000000000000000000000000000000000000000000000000000017905550919890975095505050505050565b60025481565b6000547e01000000000000000000000000000000000000000000000000000000000000900460ff166122b457604080517f08c379a000000000000000000000000000000000000000000000000000000000815260206004820152600360248201527f4c4f4b0000000000000000000000000000000000000000000000000000000000604482015290519081900360640190fd5b600080547fff00ffffffffffffffffffffffffffffffffffffffffffffffffffffffffffff1690556122e4613eb4565b6004546fffffffffffffffffffffffffffffffff168061236557604080517f08c379a000000000000000000000000000000000000000000000000000000000815260206004820152600160248201527f4c00000000000000000000000000000000000000000000000000000000000000604482015290519081900360640190fd5b600061239a867f000000000000000000000000000000000000000000000000000000000000000062ffffff16620f4240615a92565b905060006123d1867f000000000000000000000000000000000000000000000000000000000000000062ffffff16620f4240615a92565b905060006123dd61539d565b905060006123e961553f565b9050881561241c5761241c7f00000000000000000000000000000000000000000000000000000000000000008b8b6151c1565b871561244d5761244d7f00000000000000000000000000000000000000000000000000000000000000008b8a6151c1565b3373ffffffffffffffffffffffffffffffffffffffff1663e9cbafb085858a8a6040518563ffffffff1660e01b815260040180858152602001848152602001806020018281038252848482818152602001925080828437600081840152601f19601f82011690508083019250505095505050505050600060405180830381600087803b1580156124dc57600080fd5b505af11580156124f0573d6000803e3d6000fd5b5050505060006124fe61539d565b9050600061250a61553f565b905081612517858861552f565b111561258457604080517f08c379a000000000000000000000000000000000000000000000000000000000815260206004820152600260248201527f4630000000000000000000000000000000000000000000000000000000000000604482015290519081900360640190fd5b8061258f848761552f565b11156125fc57604080517f08c379a000000000000000000000000000000000000000000000000000000000815260206004820152600260248201527f4631000000000000000000000000000000000000000000000000000000000000604482015290519081900360640190fd5b83820383820381156126e557600080547d0100000000000000000000000000000000000000000000000000000000009004600f16908115612649578160ff16848161264357fe5b0461264c565b60005b90506fffffffffffffffffffffffffffffffff8116156126a957600380546fffffffffffffffffffffffffffffffff8082168401167fffffffffffffffffffffffffffffffff000000000000000000000000000000009091161790555b6126d98185037001000000000000000000000000000000008d6fffffffffffffffffffffffffffffffff16614697565b60018054909101905550505b80156127bf57600080547d010000000000000000000000000000000000000000000000000000000000900460041c600f1690811561272f578160ff16838161272957fe5b04612732565b60005b90506fffffffffffffffffffffffffffffffff81161561278357600380546fffffffffffffffffffffffffffffffff7001000000000000000000000000000000008083048216850182160291161790555b6127b38184037001000000000000000000000000000000008d6fffffffffffffffffffffffffffffffff16614697565b60028054909101905550505b8d73ffffffffffffffffffffffffffffffffffffffff163373ffffffffffffffffffffffffffffffffffffffff167fbdbdb71d7860376ba52b25a5028beea23581364a40522f6bcfb86bb1f2dca6338f8f86866040518085815260200184815260200183815260200182815260200194505050505060405180910390a35050600080547fff00ffffffffffffffffffffffffffffffffffffffffffffffffffffffffffff167e01000000000000000000000000000000000000000000000000000000000000179055505050505050505050505050565b6000805481907e01000000000000000000000000000000000000000000000000000000000000900460ff1661292b57604080517f08c379a000000000000000000000000000000000000000000000000000000000815260206004820152600360248201527f4c4f4b0000000000000000000000000000000000000000000000000000000000604482015290519081900360640190fd5b600080547fff00ffffffffffffffffffffffffffffffffffffffffffffffffffffffffffff1681556129606007338989615aea565b60038101549091506fffffffffffffffffffffffffffffffff9081169086161161298a57846129a2565b60038101546fffffffffffffffffffffffffffffffff165b60038201549093506fffffffffffffffffffffffffffffffff7001000000000000000000000000000000009091048116908516116129e05783612a0c565b600381015470010000000000000000000000000000000090046fffffffffffffffffffffffffffffffff165b91506fffffffffffffffffffffffffffffffff831615612a9b576003810180547fffffffffffffffffffffffffffffffff0000000000000000000000000000000081166fffffffffffffffffffffffffffffffff918216869003821617909155612a9b907f0000000000000000000000000000000000000000000000000000000000000000908a9086166151c1565b6fffffffffffffffffffffffffffffffff821615612b20576003810180546fffffffffffffffffffffffffffffffff700100000000000000000000000000000000808304821686900382160291811691909117909155612b20907f0000000000000000000000000000000000000000000000000000000000000000908a9085166151c1565b6040805173ffffffffffffffffffffffffffffffffffffffff8a1681526fffffffffffffffffffffffffffffffff80861660208301528416818301529051600288810b92908a900b9133917f70935338e69775456a85ddef226c395fb668b63fa0115f5f20610b388e6ca9c0919081900360600190a450600080547fff00ffffffffffffffffffffffffffffffffffffffffffffffffffffffffffff167e0100000000000000000000000000000000000000000000000000000000000017905590969095509350505050565b60076020526000908152604090208054600182015460028301546003909301546fffffffffffffffffffffffffffffffff9283169391928181169170010000000000000000000000000000000090041685565b60066020526000908152604090205481565b7f000000000000000000000000000000000000000000000000000000000000000081565b6000547e01000000000000000000000000000000000000000000000000000000000000900460ff16612d0857604080517f08c379a000000000000000000000000000000000000000000000000000000000815260206004820152600360248201527f4c4f4b0000000000000000000000000000000000000000000000000000000000604482015290519081900360640190fd5b600080547fff00ffffffffffffffffffffffffffffffffffffffffffffffffffffffffffff169055604080517f8da5cb5b000000000000000000000000000000000000000000000000000000008152905173ffffffffffffffffffffffffffffffffffffffff7f00000000000000000000000000000000000000000000000000000000000000001691638da5cb5b916004808301926020929190829003018186803b158015612db657600080fd5b505afa158015612dca573d6000803e3d6000fd5b505050506040513d6020811015612de057600080fd5b505173ffffffffffffffffffffffffffffffffffffffff163314612e0357600080fd5b60ff82161580612e26575060048260ff1610158015612e265750600a8260ff1611155b8015612e50575060ff81161580612e50575060048160ff1610158015612e505750600a8160ff1611155b612e5957600080fd5b60008054610ff0600484901b16840160ff9081167d0100000000000000000000000000000000000000000000000000000000009081027fffff00ffffffffffffffffffffffffffffffffffffffffffffffffffffffffff841617909355919004167f973d8d92bb299f4af6ce49b52a8adb85ae46b9f214c4c4fc06ac77401237b1336010826040805160ff9390920683168252600f600486901c16602083015286831682820152918516606082015290519081900360800190a15050600080547fff00ffffffffffffffffffffffffffffffffffffffffffffffffffffffffffff167e0100000000000000000000000000000000000000000000000000000000000017905550565b6000805481907e01000000000000000000000000000000000000000000000000000000000000900460ff16612ff757604080517f08c379a000000000000000000000000000000000000000000000000000000000815260206004820152600360248201527f4c4f4b0000000000000000000000000000000000000000000000000000000000604482015290519081900360640190fd5b600080547fff00ffffffffffffffffffffffffffffffffffffffffffffffffffffffffffff169055604080517f8da5cb5b000000000000000000000000000000000000000000000000000000008152905173ffffffffffffffffffffffffffffffffffffffff7f00000000000000000000000000000000000000000000000000000000000000001691638da5cb5b916004808301926020929190829003018186803b1580156130a557600080fd5b505afa1580156130b9573d6000803e3d6000fd5b505050506040513d60208110156130cf57600080fd5b505173ffffffffffffffffffffffffffffffffffffffff1633146130f257600080fd5b6003546fffffffffffffffffffffffffffffffff90811690851611613117578361312d565b6003546fffffffffffffffffffffffffffffffff165b6003549092506fffffffffffffffffffffffffffffffff7001000000000000000000000000000000009091048116908416116131695782613193565b60035470010000000000000000000000000000000090046fffffffffffffffffffffffffffffffff165b90506fffffffffffffffffffffffffffffffff821615613265576003546fffffffffffffffffffffffffffffffff838116911614156131f2577fffffffffffffffffffffffffffffffffffffffffffffffffffffffffffffffff909101905b600380547fffffffffffffffffffffffffffffffff0000000000000000000000000000000081166fffffffffffffffffffffffffffffffff918216859003821617909155613265907f000000000000000000000000000000000000000000000000000000000000000090879085166151c1565b6fffffffffffffffffffffffffffffffff81161561333e576003546fffffffffffffffffffffffffffffffff8281167001000000000000000000000000000000009092041614156132d3577fffffffffffffffffffffffffffffffffffffffffffffffffffffffffffffffff015b600380546fffffffffffffffffffffffffffffffff70010000000000000000000000000000000080830482168590038216029181169190911790915561333e907f000000000000000000000000000000000000000000000000000000000000000090879084166151c1565b604080516fffffffffffffffffffffffffffffffff808516825283166020820152815173ffffffffffffffffffffffffffffffffffffffff88169233927f596b573906218d3411850b26a6b437d6c4522fdb43d2d2386263f86d50b8b151929081900390910190a3600080547fff00ffffffffffffffffffffffffffffffffffffffffffffffffffffffffffff167e010000000000000000000000000000000000000000000000000000000000001790559094909350915050565b606080613404613eb4565b6134bf61340f613ef8565b85858080602002602001604051908101604052809392919081815260200183836020028082843760009201829052505460045460089695945074010000000000000000000000000000000000000000820460020b935061ffff770100000000000000000000000000000000000000000000008304811693506fffffffffffffffffffffffffffffffff90911691790100000000000000000000000000000000000000000000000000900416615b61565b915091509250929050565b6000805481907e01000000000000000000000000000000000000000000000000000000000000900460ff1661356057604080517f08c379a000000000000000000000000000000000000000000000000000000000815260206004820152600360248201527f4c4f4b0000000000000000000000000000000000000000000000000000000000604482015290519081900360640190fd5b600080547fff00ffffffffffffffffffffffffffffffffffffffffffffffffffffffffffff16815560408051608081018252338152600288810b602083015287900b91810191909152819081906135dd90606081016135d06fffffffffffffffffffffffffffffffff8a16615724565b600003600f0b9052615735565b92509250925081600003945080600003935060008511806135fe5750600084115b1561366b576003830180546fffffffffffffffffffffffffffffffff808216808901821670010000000000000000000000000000000093849004831689019092169092029091177fffffffffffffffffffffffffffffffff00000000000000000000000000000000161790555b604080516fffffffffffffffffffffffffffffffff88168152602081018790528082018690529051600289810b92908b900b9133917f0c396cd989a39f4459b5fa1aed6a9a8dcdbc45908acfd67e028cd568da98982c919081900360600190a45050600080547fff00ffffffffffffffffffffffffffffffffffffffffffffffffffffffffffff167e01000000000000000000000000000000000000000000000000000000000000179055509094909350915050565b600080600061372e613eb4565b6137388585615d0b565b600285810b810b60009081526005602052604080822087840b90930b825281206003830154600681900b93670100000000000000820473ffffffffffffffffffffffffffffffffffffffff169284927b01000000000000000000000000000000000000000000000000000000810463ffffffff1692849290917f0100000000000000000000000000000000000000000000000000000000000000900460ff16806137e157600080fd5b6003820154600681900b9850670100000000000000810473ffffffffffffffffffffffffffffffffffffffff1696507b01000000000000000000000000000000000000000000000000000000810463ffffffff1694507f0100000000000000000000000000000000000000000000000000000000000000900460ff168061386757600080fd5b50506040805160e08101825260005473ffffffffffffffffffffffffffffffffffffffff81168252740100000000000000000000000000000000000000008104600290810b810b810b6020840181905261ffff7701000000000000000000000000000000000000000000000084048116958501959095527901000000000000000000000000000000000000000000000000008304851660608501527b010000000000000000000000000000000000000000000000000000008304909416608084015260ff7d0100000000000000000000000000000000000000000000000000000000008304811660a08501527e01000000000000000000000000000000000000000000000000000000000000909204909116151560c08301529093508e810b91900b121590506139a557509390940396509003935090039050613a31565b8a60020b816020015160020b1215613a225760006139c1613ef8565b6020830151604084015160045460608601519394506000938493613a00936008938893879392916fffffffffffffffffffffffffffffffff1690614765565b9a9003989098039b505094909603929092039650909103039250613a31915050565b50949093039650039350900390505b9250925092565b7f000000000000000000000000000000000000000000000000000000000000000081565b7f000000000000000000000000000000000000000000000000000000000000000081565b7f000000000000000000000000000000000000000000000000000000000000000081565b7f000000000000000000000000000000000000000000000000000000000000000081565b60015481565b60056020526000908152604090208054600182015460028301546003909301546fffffffffffffffffffffffffffffffff831693700100000000000000000000000000000000909304600f0b9290600681900b90670100000000000000810473ffffffffffffffffffffffffffffffffffffffff16907b01000000000000000000000000000000000000000000000000000000810463ffffffff16907f0100000000000000000000000000000000000000000000000000000000000000900460ff1688565b60005473ffffffffffffffffffffffffffffffffffffffff1615613c1857604080517f08c379a000000000000000000000000000000000000000000000000000000000815260206004820152600260248201527f4149000000000000000000000000000000000000000000000000000000000000604482015290519081900360640190fd5b6000613c2382614baf565b9050600080613c3b613c33613ef8565b600890615e8c565b6040805160e08101825273ffffffffffffffffffffffffffffffffffffffff8816808252600288810b6020808501829052600085870181905261ffff898116606088018190529089166080880181905260a08801839052600160c09098019790975281547e010000000000000000000000000000000000000000000000000000000000007fffffffffffffffffffffffff000000000000000000000000000000000000000090911687177fffffffffffffffffff000000ffffffffffffffffffffffffffffffffffffffff167401000000000000000000000000000000000000000062ffffff9787900b9790971696909602959095177fffffffffff00000000ffffffffffffffffffffffffffffffffffffffffffffff16790100000000000000000000000000000000000000000000000000909102177fffffff0000ffffffffffffffffffffffffffffffffffffffffffffffffffffff167b01000000000000000000000000000000000000000000000000000000909602959095177fff0000ffffffffffffffffffffffffffffffffffffffffffffffffffffffffff1692909217909355835191825281019190915281519395509193507f98636036cb66a9c19a37435efc1e90142190214e8abeb821bdba3f2990dd4c9592918290030190a150505050565b60008082600281900b7ffffffffffffffffffffffffffffffffffffffffffffffffffffffffffff2761881613e5457fe5b05029050600083600281900b620d89e881613e6b57fe5b0502905060008460020b83830360020b81613e8257fe5b0560010190508062ffffff166fffffffffffffffffffffffffffffffff801681613ea857fe5b0493505050505b919050565b3073ffffffffffffffffffffffffffffffffffffffff7f00000000000000000000000000000000000000000000000000000000000000001614613ef657600080fd5b565b4290565b60008060008460020b8660020b81613f1057fe5b05905060008660020b128015613f3757508460020b8660020b81613f3057fe5b0760020b15155b15613f5f577fffffffffffffffffffffffffffffffffffffffffffffffffffffffffffffffff015b8315613ff257600080613f7183615f0f565b600182810b810b600090815260208d9052604090205460ff83169190911b80017fffffffffffffffffffffffffffffffffffffffffffffffffffffffffffffffff0190811680151597509294509092509085613fd457888360ff16860302613fe7565b88613fde82615f21565b840360ff168603025b965050505050614070565b60008061400183600101615f0f565b91509150600060018260ff166001901b031990506000818b60008660010b60010b815260200190815260200160002054169050806000141595508561405357888360ff0360ff16866001010102614069565b888361405e83615fce565b0360ff168660010101025b9650505050505b5094509492505050565b60008060008360020b12614091578260020b614099565b8260020b6000035b9050620d89e881111561410d57604080517f08c379a000000000000000000000000000000000000000000000000000000000815260206004820152600160248201527f5400000000000000000000000000000000000000000000000000000000000000604482015290519081900360640190fd5b60006001821661412e57700100000000000000000000000000000000614140565b6ffffcb933bd6fad37aa2d162d1a5940015b70ffffffffffffffffffffffffffffffffff1690506002821615614174576ffff97272373d413259a46990580e213a0260801c5b6004821615614193576ffff2e50f5f656932ef12357cf3c7fdcc0260801c5b60088216156141b2576fffe5caca7e10e4e61c3624eaa0941cd00260801c5b60108216156141d1576fffcb9843d60f6159c9db58835c9266440260801c5b60208216156141f0576fff973b41fa98c081472e6896dfb254c00260801c5b604082161561420f576fff2ea16466c96a3843ec78b326b528610260801c5b608082161561422e576ffe5dee046a99a2a811c461f1969c30530260801c5b61010082161561424e576ffcbe86c7900a88aedcffc83b479aa3a40260801c5b61020082161561426e576ff987a7253ac413176f2b074cf7815e540260801c5b61040082161561428e576ff3392b0822b70005940c7a398e4b70f30260801c5b6108008216156142ae576fe7159475a2c29b7443b29c7fa6e889d90260801c5b6110008216156142ce576fd097f3bdfd2022b8845ad8f792aa58250260801c5b6120008216156142ee576fa9f746462d870fdf8a65dc1f90e061e50260801c5b61400082161561430e576f70d869a156d2a1b890bb3df62baf32f70260801c5b61800082161561432e576f31be135f97d08fd981231505542fcfa60260801c5b6201000082161561434f576f09aa508b5b7a84e1c677de54f3e99bc90260801c5b6202000082161561436f576e5d6af8dedb81196699c329225ee6040260801c5b6204000082161561438e576d2216e584f5fa1ea926041bedfe980260801c5b620800008216156143ab576b048a170391f7dc42444e8fa20260801c5b60008460020b13156143e457807fffffffffffffffffffffffffffffffffffffffffffffffffffffffffffffffff816143e057fe5b0490505b6401000000008106156143f85760016143fb565b60005b60ff16602082901c0192505050919050565b600080808073ffffffffffffffffffffffffffffffffffffffff808916908a16101581871280159061449f5760006144538989620f42400362ffffff16620f4240614697565b90508261446c576144678c8c8c60016161b1565b614479565b6144798b8d8c6001616284565b955085811061448a578a9650614499565b6144968c8b838661639c565b96505b506144e9565b816144b6576144b18b8b8b6000616284565b6144c3565b6144c38a8c8b60006161b1565b93508388600003106144d7578995506144e9565b6144e68b8a8a600003856163fe565b95505b73ffffffffffffffffffffffffffffffffffffffff8a8116908716148215614559578080156145155750815b61452b57614526878d8c6001616284565b61452d565b855b955080801561453a575081155b6145505761454b878d8c60006161b1565b614552565b845b94506145a3565b8080156145635750815b614579576145748c888c60016161b1565b61457b565b855b9550808015614588575081155b61459e576145998c888c6000616284565b6145a0565b845b94505b811580156145b357508860000385115b156145bf578860000394505b8180156145f857508a73ffffffffffffffffffffffffffffffffffffffff168773ffffffffffffffffffffffffffffffffffffffff1614155b15614607578589039350614624565b614621868962ffffff168a620f42400362ffffff16615a92565b93505b50505095509550955095915050565b60007f8000000000000000000000000000000000000000000000000000000000000000821061466157600080fd5b5090565b8082038281131560008312151461467b57600080fd5b92915050565b8181018281121560008312151461467b57600080fd5b600080807fffffffffffffffffffffffffffffffffffffffffffffffffffffffffffffffff858709868602925082811090839003039050806146eb57600084116146e057600080fd5b50829004905061475e565b8084116146f757600080fd5b6000848688096000868103871696879004966002600389028118808a02820302808a02820302808a02820302808a02820302808a02820302808a02909103029181900381900460010186841190950394909402919094039290920491909117919091029150505b9392505050565b60008063ffffffff871661483d576000898661ffff1661ffff811061478657fe5b60408051608081018252919092015463ffffffff8082168084526401000000008304600690810b810b900b60208501526b010000000000000000000000830473ffffffffffffffffffffffffffffffffffffffff16948401949094527f010000000000000000000000000000000000000000000000000000000000000090910460ff16151560608301529092508a161461482957614826818a8988616460565b90505b80602001518160400151925092505061492a565b8688036000806148528c8c858c8c8c8c61652f565b91509150816000015163ffffffff168363ffffffff16141561488457816020015182604001519450945050505061492a565b805163ffffffff848116911614156148ac57806020015181604001519450945050505061492a565b8151815160208085015190840151918390039286039163ffffffff80841692908516910360060b816148da57fe5b05028460200151018263ffffffff168263ffffffff16866040015186604001510373ffffffffffffffffffffffffffffffffffffffff16028161491957fe5b048560400151019650965050505050505b97509795505050505050565b600295860b860b60009081526020979097526040909620600181018054909503909455938301805490920390915560038201805463ffffffff7b0100000000000000000000000000000000000000000000000000000073ffffffffffffffffffffffffffffffffffffffff6701000000000000008085048216909603169094027fffffffffff0000000000000000000000000000000000000000ffffffffffffff90921691909117600681810b90960390950b66ffffffffffffff167fffffffffffffffffffffffffffffffffffffffffffffffffff00000000000000909516949094178281048516909503909316027fff00000000ffffffffffffffffffffffffffffffffffffffffffffffffffffff909316929092179055547001000000000000000000000000000000009004600f0b90565b60008082600f0b1215614b1757826fffffffffffffffffffffffffffffffff168260000384039150816fffffffffffffffffffffffffffffffff1610614b1257604080517f08c379a000000000000000000000000000000000000000000000000000000000815260206004820152600260248201527f4c53000000000000000000000000000000000000000000000000000000000000604482015290519081900360640190fd5b61467b565b826fffffffffffffffffffffffffffffffff168284019150816fffffffffffffffffffffffffffffffff16101561467b57604080517f08c379a000000000000000000000000000000000000000000000000000000000815260206004820152600260248201527f4c41000000000000000000000000000000000000000000000000000000000000604482015290519081900360640190fd5b60006401000276a373ffffffffffffffffffffffffffffffffffffffff831610801590614c05575073fffd8963efd1fc6a506488495d951d5263988d2673ffffffffffffffffffffffffffffffffffffffff8316105b614c7057604080517f08c379a000000000000000000000000000000000000000000000000000000000815260206004820152600160248201527f5200000000000000000000000000000000000000000000000000000000000000604482015290519081900360640190fd5b77ffffffffffffffffffffffffffffffffffffffff00000000602083901b166fffffffffffffffffffffffffffffffff811160071b81811c67ffffffffffffffff811160061b90811c63ffffffff811160051b90811c61ffff811160041b90811c60ff8111600390811b91821c600f811160021b90811c918211600190811b92831c97908811961790941790921717909117171760808110614d1a57607f810383901c9150614d24565b80607f0383901b91505b908002607f81811c60ff83811c9190911c800280831c81831c1c800280841c81841c1c800280851c81851c1c800280861c81861c1c800280871c81871c1c800280881c81881c1c800280891c81891c1c8002808a1c818a1c1c8002808b1c818b1c1c8002808c1c818c1c1c8002808d1c818d1c1c8002808e1c9c81901c9c909c1c80029c8d901c9e9d7fffffffffffffffffffffffffffffffffffffffffffffffffffffffffffffff808f0160401b60c09190911c678000000000000000161760c19b909b1c674000000000000000169a909a1760c29990991c672000000000000000169890981760c39790971c671000000000000000169690961760c49590951c670800000000000000169490941760c59390931c670400000000000000169290921760c69190911c670200000000000000161760c79190911c670100000000000000161760c89190911c6680000000000000161760c99190911c6640000000000000161760ca9190911c6620000000000000161760cb9190911c6610000000000000161760cc9190911c6608000000000000161760cd9190911c66040000000000001617693627a301d71055774c8581027ffffffffffffffffffffffffffffffffffd709b7e5480fba5a50fed5e62ffc5568101608090811d906fdb2df09e81959a81455e260799a0632f8301901d600281810b9083900b14614f6c578873ffffffffffffffffffffffffffffffffffffffff16614f438261407a565b73ffffffffffffffffffffffffffffffffffffffff161115614f655781614f67565b805b614f6e565b815b9998505050505050505050565b6000806000898961ffff1661ffff8110614f9157fe5b60408051608081018252919092015463ffffffff8082168084526401000000008304600690810b810b900b60208501526b010000000000000000000000830473ffffffffffffffffffffffffffffffffffffffff16948401949094527f010000000000000000000000000000000000000000000000000000000000000090910460ff161515606083015290925089161415615032578885925092505061492a565b8461ffff168461ffff1611801561505357506001850361ffff168961ffff16145b1561506057839150615064565b8491505b8161ffff168960010161ffff168161507857fe5b06925061508781898989616460565b8a8461ffff1661ffff811061509857fe5b8251910180546020840151604085015160609095015115157f0100000000000000000000000000000000000000000000000000000000000000027effffffffffffffffffffffffffffffffffffffffffffffffffffffffffffff73ffffffffffffffffffffffffffffffffffffffff9096166b010000000000000000000000027fff0000000000000000000000000000000000000000ffffffffffffffffffffff60069390930b66ffffffffffffff16640100000000027fffffffffffffffffffffffffffffffffffffffffff00000000000000ffffffff63ffffffff9097167fffffffffffffffffffffffffffffffffffffffffffffffffffffffff000000009095169490941795909516929092171692909217929092161790555097509795505050505050565b6040805173ffffffffffffffffffffffffffffffffffffffff8481166024830152604480830185905283518084039091018152606490920183526020820180517bffffffffffffffffffffffffffffffffffffffffffffffffffffffff167fa9059cbb000000000000000000000000000000000000000000000000000000001781529251825160009485949389169392918291908083835b6020831061529657805182527fffffffffffffffffffffffffffffffffffffffffffffffffffffffffffffffe09092019160209182019101615259565b6001836020036101000a0380198251168184511680821785525050505050509050019150506000604051808303816000865af19150503d80600081146152f8576040519150601f19603f3d011682016040523d82523d6000602084013e6152fd565b606091505b509150915081801561532b57508051158061532b575080806020019051602081101561532857600080fd5b50515b61539657604080517f08c379a000000000000000000000000000000000000000000000000000000000815260206004820152600260248201527f5446000000000000000000000000000000000000000000000000000000000000604482015290519081900360640190fd5b5050505050565b604080513060248083019190915282518083039091018152604490910182526020810180517bffffffffffffffffffffffffffffffffffffffffffffffffffffffff167f70a0823100000000000000000000000000000000000000000000000000000000178152915181516000938493849373ffffffffffffffffffffffffffffffffffffffff7f00000000000000000000000000000000000000000000000000000000000000001693919290918291908083835b6020831061548f57805182527fffffffffffffffffffffffffffffffffffffffffffffffffffffffffffffffe09092019160209182019101615452565b6001836020036101000a038019825116818451168082178552505050505050905001915050600060405180830381855afa9150503d80600081146154ef576040519150601f19603f3d011682016040523d82523d6000602084013e6154f4565b606091505b509150915081801561550857506020815110155b61551157600080fd5b80806020019051602081101561552657600080fd5b50519250505090565b8082018281101561467b57600080fd5b604080513060248083019190915282518083039091018152604490910182526020810180517bffffffffffffffffffffffffffffffffffffffffffffffffffffffff167f70a0823100000000000000000000000000000000000000000000000000000000178152915181516000938493849373ffffffffffffffffffffffffffffffffffffffff7f00000000000000000000000000000000000000000000000000000000000000001693919290918291908083836020831061548f57805182527fffffffffffffffffffffffffffffffffffffffffffffffffffffffffffffffe09092019160209182019101615452565b6000808361ffff16116156a457604080517f08c379a000000000000000000000000000000000000000000000000000000000815260206004820152600160248201527f4900000000000000000000000000000000000000000000000000000000000000604482015290519081900360640190fd5b8261ffff168261ffff16116156ba57508161475e565b825b8261ffff168161ffff16101561571b576001858261ffff1661ffff81106156df57fe5b0180547fffffffffffffffffffffffffffffffffffffffffffffffffffffffff000000001663ffffffff929092169190911790556001016156bc565b50909392505050565b80600f81900b8114613eaf57600080fd5b6000806000615742613eb4565b61575484602001518560400151615d0b565b6040805160e08101825260005473ffffffffffffffffffffffffffffffffffffffff81168252740100000000000000000000000000000000000000008104600290810b810b900b602080840182905261ffff770100000000000000000000000000000000000000000000008404811685870152790100000000000000000000000000000000000000000000000000840481166060808701919091527b010000000000000000000000000000000000000000000000000000008504909116608086015260ff7d0100000000000000000000000000000000000000000000000000000000008504811660a08701527e01000000000000000000000000000000000000000000000000000000000000909404909316151560c08501528851908901519489015192890151939461588d94919390929091906167f3565b93508460600151600f0b600014615a8a57846020015160020b816020015160020b12156158e2576158db6158c4866020015161407a565b6158d1876040015161407a565b87606001516169ec565b9250615a8a565b846040015160020b816020015160020b1215615a605760045460408201516fffffffffffffffffffffffffffffffff9091169061593d90615921613ef8565b6020850151606086015160808701516008949392918791614f7b565b600080547fffffffffff0000ffffffffffffffffffffffffffffffffffffffffffffffffff1679010000000000000000000000000000000000000000000000000061ffff93841602177fffffffffffffff0000ffffffffffffffffffffffffffffffffffffffffffffff16770100000000000000000000000000000000000000000000009390921692909202179055815160408701516159eb91906159e19061407a565b88606001516169ec565b9350615a096159fd876020015161407a565b83516060890151616a30565b9250615a19818760600151614a6b565b600480547fffffffffffffffffffffffffffffffff00000000000000000000000000000000166fffffffffffffffffffffffffffffffff9290921691909117905550615a8a565b615a87615a70866020015161407a565b615a7d876040015161407a565b8760600151616a30565b91505b509193909250565b6000615a9f848484614697565b905060008280615aab57fe5b848609111561475e577fffffffffffffffffffffffffffffffffffffffffffffffffffffffffffffffff8110615ae057600080fd5b6001019392505050565b6040805160609490941b7fffffffffffffffffffffffffffffffffffffffff00000000000000000000000016602080860191909152600293840b60e890811b60348701529290930b90911b60378401528051808403601a018152603a90930181528251928201929092206000908152929052902090565b60608060008361ffff1611615bd757604080517f08c379a000000000000000000000000000000000000000000000000000000000815260206004820152600160248201527f4900000000000000000000000000000000000000000000000000000000000000604482015290519081900360640190fd5b865167ffffffffffffffff81118015615bef57600080fd5b50604051908082528060200260200182016040528015615c19578160200160208202803683370190505b509150865167ffffffffffffffff81118015615c3457600080fd5b50604051908082528060200260200182016040528015615c5e578160200160208202803683370190505b50905060005b8751811015615cfe57615c8f8a8a8a8481518110615c7e57fe5b60200260200101518a8a8a8a614765565b848381518110615c9b57fe5b60200260200101848481518110615cae57fe5b602002602001018273ffffffffffffffffffffffffffffffffffffffff1673ffffffffffffffffffffffffffffffffffffffff168152508260060b60060b81525050508080600101915050615c64565b5097509795505050505050565b8060020b8260020b12615d7f57604080517f08c379a000000000000000000000000000000000000000000000000000000000815260206004820152600360248201527f544c550000000000000000000000000000000000000000000000000000000000604482015290519081900360640190fd5b7ffffffffffffffffffffffffffffffffffffffffffffffffffffffffffff27618600283900b1215615e1257604080517f08c379a000000000000000000000000000000000000000000000000000000000815260206004820152600360248201527f544c4d0000000000000000000000000000000000000000000000000000000000604482015290519081900360640190fd5b620d89e8600282900b1315615e8857604080517f08c379a000000000000000000000000000000000000000000000000000000000815260206004820152600360248201527f54554d0000000000000000000000000000000000000000000000000000000000604482015290519081900360640190fd5b5050565b6040805160808101825263ffffffff928316808252600060208301819052928201929092526001606090910181905283547fffffffffffffffffffffffffffffffffffffffffffffffffffffffff00000000169091179091167f010000000000000000000000000000000000000000000000000000000000000017909155908190565b60020b600881901d9161010090910790565b6000808211615f2f57600080fd5b7001000000000000000000000000000000008210615f4f57608091821c91015b680100000000000000008210615f6757604091821c91015b6401000000008210615f7b57602091821c91015b620100008210615f8d57601091821c91015b6101008210615f9e57600891821c91015b60108210615fae57600491821c91015b60048210615fbe57600291821c91015b60028210613eaf57600101919050565b6000808211615fdc57600080fd5b5060ff6fffffffffffffffffffffffffffffffff82161561601e577fffffffffffffffffffffffffffffffffffffffffffffffffffffffffffffff8001616026565b608082901c91505b67ffffffffffffffff82161561605d577fffffffffffffffffffffffffffffffffffffffffffffffffffffffffffffffc001616065565b604082901c91505b63ffffffff821615616098577fffffffffffffffffffffffffffffffffffffffffffffffffffffffffffffffe0016160a0565b602082901c91505b61ffff8216156160d1577ffffffffffffffffffffffffffffffffffffffffffffffffffffffffffffffff0016160d9565b601082901c91505b60ff821615616109577ffffffffffffffffffffffffffffffffffffffffffffffffffffffffffffffff801616111565b600882901c91505b600f821615616141577ffffffffffffffffffffffffffffffffffffffffffffffffffffffffffffffffc01616149565b600482901c91505b6003821615616179577ffffffffffffffffffffffffffffffffffffffffffffffffffffffffffffffffe01616181565b600282901c91505b6001821615613eaf577fffffffffffffffffffffffffffffffffffffffffffffffffffffffffffffffff01919050565b60008373ffffffffffffffffffffffffffffffffffffffff168573ffffffffffffffffffffffffffffffffffffffff1611156161eb579293925b8161623757616232836fffffffffffffffffffffffffffffffff1686860373ffffffffffffffffffffffffffffffffffffffff166c01000000000000000000000000614697565b616279565b616279836fffffffffffffffffffffffffffffffff1686860373ffffffffffffffffffffffffffffffffffffffff166c01000000000000000000000000615a92565b90505b949350505050565b60008373ffffffffffffffffffffffffffffffffffffffff168573ffffffffffffffffffffffffffffffffffffffff1611156162be579293925b7bffffffffffffffffffffffffffffffff000000000000000000000000606084901b1673ffffffffffffffffffffffffffffffffffffffff868603811690871661630757600080fd5b83616351578673ffffffffffffffffffffffffffffffffffffffff1661634483838973ffffffffffffffffffffffffffffffffffffffff16614697565b8161634b57fe5b04616391565b61639161637583838973ffffffffffffffffffffffffffffffffffffffff16615a92565b8873ffffffffffffffffffffffffffffffffffffffff16616a5f565b979650505050505050565b6000808573ffffffffffffffffffffffffffffffffffffffff16116163c057600080fd5b6000846fffffffffffffffffffffffffffffffff16116163df57600080fd5b816163f1576162328585856001616a6a565b6162798585856001616bc2565b6000808573ffffffffffffffffffffffffffffffffffffffff161161642257600080fd5b6000846fffffffffffffffffffffffffffffffff161161644157600080fd5b81616453576162328585856000616bc2565b6162798585856000616a6a565b6164686176d5565b600085600001518503905060405180608001604052808663ffffffff1681526020018263ffffffff168660020b0288602001510160060b81526020016000856fffffffffffffffffffffffffffffffff16116164c55760016164c7565b845b6fffffffffffffffffffffffffffffffff1673ffffffff00000000000000000000000000000000608085901b16816164fb57fe5b0488604001510173ffffffffffffffffffffffffffffffffffffffff16815260200160011515815250915050949350505050565b6165376176d5565b61653f6176d5565b888561ffff1661ffff811061655057fe5b60408051608081018252919092015463ffffffff81168083526401000000008204600690810b810b900b60208401526b010000000000000000000000820473ffffffffffffffffffffffffffffffffffffffff16938301939093527f0100000000000000000000000000000000000000000000000000000000000000900460ff161515606082015292506165e690899089616cf8565b1561661e578663ffffffff16826000015163ffffffff1614156166085761492a565b8161661583898988616460565b9150915061492a565b888361ffff168660010161ffff168161663357fe5b0661ffff1661ffff811061664357fe5b60408051608081018252929091015463ffffffff811683526401000000008104600690810b810b900b602084015273ffffffffffffffffffffffffffffffffffffffff6b0100000000000000000000008204169183019190915260ff7f01000000000000000000000000000000000000000000000000000000000000009091041615156060820181905290925061675c57604080516080810182528a5463ffffffff811682526401000000008104600690810b810b900b60208301526b010000000000000000000000810473ffffffffffffffffffffffffffffffffffffffff16928201929092527f010000000000000000000000000000000000000000000000000000000000000090910460ff161515606082015291505b61676b88836000015189616cf8565b6167d657604080517f08c379a000000000000000000000000000000000000000000000000000000000815260206004820152600360248201527f4f4c440000000000000000000000000000000000000000000000000000000000604482015290519081900360640190fd5b6167e38989898887616dbb565b9150915097509795505050505050565b60006168026007878787615aea565b60015460025491925090600080600f87900b1561698c576000616823613ef8565b60008054600454929350909182916168b1916008918691859174010000000000000000000000000000000000000000810460020b9161ffff7701000000000000000000000000000000000000000000000083048116926fffffffffffffffffffffffffffffffff90921691790100000000000000000000000000000000000000000000000000900416614765565b90925090506168eb60058d8b8d8b8b87898b60007f0000000000000000000000000000000000000000000000000000000000000000616fbd565b945061692260058c8b8d8b8b87898b60017f0000000000000000000000000000000000000000000000000000000000000000616fbd565b935084156169565761695660068d7f00000000000000000000000000000000000000000000000000000000000000006172c2565b83156169885761698860068c7f00000000000000000000000000000000000000000000000000000000000000006172c2565b5050505b60008061699e60058c8c8b8a8a617328565b90925090506169af878a84846173d4565b600089600f0b12156169dd5783156169cc576169cc60058c61764a565b82156169dd576169dd60058b61764a565b50505050505095945050505050565b60008082600f0b12616a1257616a0d616a088585856001616284565b614633565b61627c565b616a25616a088585856000036000616284565b600003949350505050565b60008082600f0b12616a4c57616a0d616a0885858560016161b1565b616a25616a0885858560000360006161b1565b808204910615150190565b60008115616b1257600073ffffffffffffffffffffffffffffffffffffffff841115616abf57616aba846c01000000000000000000000000876fffffffffffffffffffffffffffffffff16614697565b616ae0565b6fffffffffffffffffffffffffffffffff8516606085901b81616ade57fe5b045b9050616b0a616b0573ffffffffffffffffffffffffffffffffffffffff88168361552f565b617676565b91505061627c565b600073ffffffffffffffffffffffffffffffffffffffff841115616b5f57616b5a846c01000000000000000000000000876fffffffffffffffffffffffffffffffff16615a92565b616b7f565b616b7f606085901b6fffffffffffffffffffffffffffffffff8716616a5f565b9050808673ffffffffffffffffffffffffffffffffffffffff1611616ba357600080fd5b73ffffffffffffffffffffffffffffffffffffffff861603905061627c565b600082616bd057508361627c565b7bffffffffffffffffffffffffffffffff000000000000000000000000606085901b168215616c975773ffffffffffffffffffffffffffffffffffffffff861684810290858281616c1d57fe5b041415616c5b57818101828110616c5957616c4f838973ffffffffffffffffffffffffffffffffffffffff1683615a92565b935050505061627c565b505b616c8e82616c89878a73ffffffffffffffffffffffffffffffffffffffff168681616c8257fe5b049061552f565b616a5f565b9250505061627c565b73ffffffffffffffffffffffffffffffffffffffff861684810290858281616cbb57fe5b04148015616cc857508082115b616cd157600080fd5b808203616c4f616b058473ffffffffffffffffffffffffffffffffffffffff8b1684615a92565b60008363ffffffff168363ffffffff1611158015616d2257508363ffffffff168263ffffffff1611155b15616d3e578163ffffffff168363ffffffff161115905061475e565b60008463ffffffff168463ffffffff1611616d66578363ffffffff1664010000000001616d6e565b8363ffffffff165b64ffffffffff16905060008563ffffffff168463ffffffff1611616d9f578363ffffffff1664010000000001616da7565b8363ffffffff165b64ffffffffff169091111595945050505050565b616dc36176d5565b616dcb6176d5565b60008361ffff168560010161ffff1681616de157fe5b0661ffff169050600060018561ffff16830103905060005b506002818301048961ffff87168281616e0e57fe5b0661ffff8110616e1a57fe5b60408051608081018252929091015463ffffffff811683526401000000008104600690810b810b900b602084015273ffffffffffffffffffffffffffffffffffffffff6b0100000000000000000000008204169183019190915260ff7f010000000000000000000000000000000000000000000000000000000000000090910416151560608201819052909550616eb657806001019250616df9565b898661ffff168260010181616ec757fe5b0661ffff8110616ed357fe5b60408051608081018252929091015463ffffffff811683526401000000008104600690810b810b900b602084015273ffffffffffffffffffffffffffffffffffffffff6b0100000000000000000000008204169183019190915260ff7f010000000000000000000000000000000000000000000000000000000000000090910416151560608201528551909450600090616f6f908b908b616cf8565b9050808015616f885750616f888a8a8760000151616cf8565b15616f935750616fb0565b80616fa357600182039250616faa565b8160010193505b50616df9565b5050509550959350505050565b60028a810b900b600090815260208c90526040812080546fffffffffffffffffffffffffffffffff1682616ff1828d614a6b565b9050846fffffffffffffffffffffffffffffffff16816fffffffffffffffffffffffffffffffff16111561708657604080517f08c379a000000000000000000000000000000000000000000000000000000000815260206004820152600260248201527f4c4f000000000000000000000000000000000000000000000000000000000000604482015290519081900360640190fd5b6fffffffffffffffffffffffffffffffff82811615908216158114159450156171d6578c60020b8e60020b1361718a57600183018b9055600283018a90556003830180547fffffffffff0000000000000000000000000000000000000000ffffffffffffff1667010000000000000073ffffffffffffffffffffffffffffffffffffffff8c1602177fffffffffffffffffffffffffffffffffffffffffffffffffff000000000000001666ffffffffffffff60068b900b16177fff00000000ffffffffffffffffffffffffffffffffffffffffffffffffffffff167b0100000000000000000000000000000000000000000000000000000063ffffffff8a16021790555b6003830180547effffffffffffffffffffffffffffffffffffffffffffffffffffffffffffff167f01000000000000000000000000000000000000000000000000000000000000001790555b82547fffffffffffffffffffffffffffffffff00000000000000000000000000000000166fffffffffffffffffffffffffffffffff82161783558561724d57825461724890617243907001000000000000000000000000000000009004600f90810b810b908f900b614681565b615724565b61727b565b825461727b90617243907001000000000000000000000000000000009004600f90810b810b908f900b614665565b8354600f9190910b6fffffffffffffffffffffffffffffffff9081167001000000000000000000000000000000000291161790925550909c9b505050505050505050505050565b8060020b8260020b816172d157fe5b0760020b156172df57600080fd5b6000806172fa8360020b8560020b816172f457fe5b05615f0f565b600191820b820b60009081526020979097526040909620805460ff9097169190911b90951890945550505050565b600285810b80820b60009081526020899052604080822088850b850b83529082209193849391929184918291908a900b1261736e57505060018201546002830154617381565b8360010154880391508360020154870390505b6000808b60020b8b60020b12156173a3575050600183015460028401546173b6565b84600101548a0391508460020154890390505b92909803979097039b96909503949094039850939650505050505050565b6040805160a08101825285546fffffffffffffffffffffffffffffffff90811682526001870154602083015260028701549282019290925260038601548083166060830152700100000000000000000000000000000000900490911660808201526000600f85900b6174c75781516fffffffffffffffffffffffffffffffff166174bf57604080517f08c379a000000000000000000000000000000000000000000000000000000000815260206004820152600260248201527f4e50000000000000000000000000000000000000000000000000000000000000604482015290519081900360640190fd5b5080516174d6565b81516174d39086614a6b565b90505b60006175108360200151860384600001516fffffffffffffffffffffffffffffffff16700100000000000000000000000000000000614697565b9050600061754c8460400151860385600001516fffffffffffffffffffffffffffffffff16700100000000000000000000000000000000614697565b905086600f0b6000146175945787547fffffffffffffffffffffffffffffffff00000000000000000000000000000000166fffffffffffffffffffffffffffffffff84161788555b60018801869055600288018590556fffffffffffffffffffffffffffffffff82161515806175d457506000816fffffffffffffffffffffffffffffffff16115b15617640576003880180547fffffffffffffffffffffffffffffffff0000000000000000000000000000000081166fffffffffffffffffffffffffffffffff91821685018216178082167001000000000000000000000000000000009182900483168501909216021790555b5050505050505050565b600290810b810b6000908152602092909252604082208281556001810183905590810182905560030155565b8073ffffffffffffffffffffffffffffffffffffffff81168114613eaf57600080fd5b6040805160e081018252600080825260208201819052918101829052606081018290526080810182905260a0810182905260c081019190915290565b6040805160808101825260008082526020820181905291810182905260608101919091529056fea26469706673582212201903e24e095e899606c5c8c81a4a2df2310d6e14f3f370fd8b81a3ccced6d27d64736f6c63430007060033",
			"opcodes": "PUSH2 0x160 PUSH1 0x40 MSTORE CALLVALUE DUP1 ISZERO PUSH3 0x12 JUMPI PUSH1 0x0 DUP1 REVERT JUMPDEST POP ADDRESS PUSH1 0x60 SHL PUSH1 0x80 MSTORE PUSH1 0x40 DUP1 MLOAD PUSH4 0x8903573 PUSH1 0xE4 SHL DUP2 MSTORE SWAP1 MLOAD PUSH1 0x0 SWAP2 CALLER SWAP2 PUSH4 0x89035730 SWAP2 PUSH1 0x4 DUP1 DUP3 ADD SWAP3 PUSH1 0xA0 SWAP3 SWAP1 SWAP2 SWAP1 DUP3 SWAP1 SUB ADD DUP2 DUP7 DUP1 EXTCODESIZE ISZERO DUP1 ISZERO PUSH3 0x56 JUMPI PUSH1 0x0 DUP1 REVERT JUMPDEST POP GAS STATICCALL ISZERO DUP1 ISZERO PUSH3 0x6B JUMPI RETURNDATASIZE PUSH1 0x0 DUP1 RETURNDATACOPY RETURNDATASIZE PUSH1 0x0 REVERT JUMPDEST POP POP POP POP PUSH1 0x40 MLOAD RETURNDATASIZE PUSH1 0xA0 DUP2 LT ISZERO PUSH3 0x82 JUMPI PUSH1 0x0 DUP1 REVERT JUMPDEST POP DUP1 MLOAD PUSH1 0x20 DUP1 DUP4 ADD MLOAD PUSH1 0x40 DUP5 ADD MLOAD PUSH1 0x60 DUP1 DUP7 ADD MLOAD PUSH1 0x80 SWAP1 SWAP7 ADD MLOAD PUSH1 0xE8 SWAP7 DUP8 SHL PUSH1 0x1 PUSH1 0x1 PUSH1 0xE8 SHL SUB NOT AND PUSH2 0x100 MSTORE SWAP2 DUP2 SHL PUSH1 0x1 PUSH1 0x1 PUSH1 0x60 SHL SUB NOT SWAP1 DUP2 AND PUSH1 0xE0 MSTORE SWAP3 DUP2 SHL DUP4 AND PUSH1 0xC0 MSTORE SWAP4 SWAP1 SWAP4 SHL AND PUSH1 0xA0 MSTORE PUSH1 0x2 DUP3 DUP2 SIGNEXTEND SWAP1 SIGNEXTEND SWAP1 SWAP3 SHL PUSH2 0x120 MSTORE SWAP2 POP PUSH3 0xF7 SWAP1 DUP3 SWAP1 PUSH3 0x10F DUP2 SHL PUSH3 0x3E23 OR SWAP1 SHR JUMP JUMPDEST PUSH1 0x80 SHL PUSH1 0x1 PUSH1 0x1 PUSH1 0x80 SHL SUB NOT AND PUSH2 0x140 MSTORE POP PUSH3 0x17D JUMP JUMPDEST PUSH1 0x0 DUP1 DUP3 PUSH1 0x2 DUP2 SWAP1 SIGNEXTEND PUSH3 0xD89E7 NOT DUP2 PUSH3 0x125 JUMPI INVALID JUMPDEST SDIV MUL SWAP1 POP PUSH1 0x0 DUP4 PUSH1 0x2 DUP2 SWAP1 SIGNEXTEND PUSH3 0xD89E8 DUP2 PUSH3 0x13D JUMPI INVALID JUMPDEST SDIV MUL SWAP1 POP PUSH1 0x0 DUP5 PUSH1 0x2 SIGNEXTEND DUP4 DUP4 SUB PUSH1 0x2 SIGNEXTEND DUP2 PUSH3 0x155 JUMPI INVALID JUMPDEST SDIV PUSH1 0x1 ADD SWAP1 POP DUP1 PUSH3 0xFFFFFF AND PUSH1 0x1 PUSH1 0x1 PUSH1 0x80 SHL SUB DUP1 AND DUP2 PUSH3 0x173 JUMPI INVALID JUMPDEST DIV SWAP6 SWAP5 POP POP POP POP POP JUMP JUMPDEST PUSH1 0x80 MLOAD PUSH1 0x60 SHR PUSH1 0xA0 MLOAD PUSH1 0x60 SHR PUSH1 0xC0 MLOAD PUSH1 0x60 SHR PUSH1 0xE0 MLOAD PUSH1 0x60 SHR PUSH2 0x100 MLOAD PUSH1 0xE8 SHR PUSH2 0x120 MLOAD PUSH1 0xE8 SHR PUSH2 0x140 MLOAD PUSH1 0x80 SHR PUSH2 0x7732 PUSH3 0x24A PUSH1 0x0 CODECOPY DUP1 PUSH2 0x2C53 MSTORE DUP1 PUSH2 0x68C7 MSTORE DUP1 PUSH2 0x68FE MSTORE POP DUP1 PUSH2 0xED7 MSTORE DUP1 PUSH2 0x3A5E MSTORE DUP1 PUSH2 0x6932 MSTORE DUP1 PUSH2 0x6964 MSTORE POP DUP1 PUSH2 0x103F MSTORE DUP1 PUSH2 0x236D MSTORE DUP1 PUSH2 0x23A4 MSTORE DUP1 PUSH2 0x3AA6 MSTORE POP DUP1 PUSH2 0x16CA MSTORE DUP1 PUSH2 0x2427 MSTORE DUP1 PUSH2 0x2AF7 MSTORE DUP1 PUSH2 0x3315 MSTORE DUP1 PUSH2 0x3A82 MSTORE DUP1 PUSH2 0x55C8 MSTORE POP DUP1 PUSH2 0x9B2 MSTORE DUP1 PUSH2 0x1839 MSTORE DUP1 PUSH2 0x23F6 MSTORE DUP1 PUSH2 0x2A72 MSTORE DUP1 PUSH2 0x323C MSTORE DUP1 PUSH2 0x5426 MSTORE POP DUP1 PUSH2 0x2D70 MSTORE DUP1 PUSH2 0x305F MSTORE DUP1 PUSH2 0x3A3A MSTORE POP DUP1 PUSH2 0x3ECC MSTORE POP PUSH2 0x7732 PUSH1 0x0 RETURN INVALID PUSH1 0x80 PUSH1 0x40 MSTORE CALLVALUE DUP1 ISZERO PUSH2 0x10 JUMPI PUSH1 0x0 DUP1 REVERT JUMPDEST POP PUSH1 0x4 CALLDATASIZE LT PUSH2 0x1AE JUMPI PUSH1 0x0 CALLDATALOAD PUSH1 0xE0 SHR DUP1 PUSH4 0x70CF754A GT PUSH2 0xEE JUMPI DUP1 PUSH4 0xC45A0155 GT PUSH2 0x97 JUMPI DUP1 PUSH4 0xDDCA3F43 GT PUSH2 0x71 JUMPI DUP1 PUSH4 0xDDCA3F43 EQ PUSH2 0x8BD JUMPI DUP1 PUSH4 0xF3058399 EQ PUSH2 0x8DD JUMPI DUP1 PUSH4 0xF30DBA93 EQ PUSH2 0x8E5 JUMPI DUP1 PUSH4 0xF637731D EQ PUSH2 0x97D JUMPI PUSH2 0x1AE JUMP JUMPDEST DUP1 PUSH4 0xC45A0155 EQ PUSH2 0x88E JUMPI DUP1 PUSH4 0xD0C93A7C EQ PUSH2 0x896 JUMPI DUP1 PUSH4 0xD21220A7 EQ PUSH2 0x8B5 JUMPI PUSH2 0x1AE JUMP JUMPDEST DUP1 PUSH4 0x883BDBFD GT PUSH2 0xC8 JUMPI DUP1 PUSH4 0x883BDBFD EQ PUSH2 0x6DA JUMPI DUP1 PUSH4 0xA34123A7 EQ PUSH2 0x7E3 JUMPI DUP1 PUSH4 0xA38807F2 EQ PUSH2 0x826 JUMPI PUSH2 0x1AE JUMP JUMPDEST DUP1 PUSH4 0x70CF754A EQ PUSH2 0x657 JUMPI DUP1 PUSH4 0x8206A4D1 EQ PUSH2 0x65F JUMPI DUP1 PUSH4 0x85B66729 EQ PUSH2 0x687 JUMPI PUSH2 0x1AE JUMP JUMPDEST DUP1 PUSH4 0x3850C7BD GT PUSH2 0x15B JUMPI DUP1 PUSH4 0x490E6CBC GT PUSH2 0x135 JUMPI DUP1 PUSH4 0x490E6CBC EQ PUSH2 0x4D5 JUMPI DUP1 PUSH4 0x4F1EB3D8 EQ PUSH2 0x56E JUMPI DUP1 PUSH4 0x514EA4BF EQ PUSH2 0x5D5 JUMPI DUP1 PUSH4 0x5339C296 EQ PUSH2 0x637 JUMPI PUSH2 0x1AE JUMP JUMPDEST DUP1 PUSH4 0x3850C7BD EQ PUSH2 0x39D JUMPI DUP1 PUSH4 0x3C8A7D8D EQ PUSH2 0x403 JUMPI DUP1 PUSH4 0x46141319 EQ PUSH2 0x4BB JUMPI PUSH2 0x1AE JUMP JUMPDEST DUP1 PUSH4 0x1AD8B03B GT PUSH2 0x18C JUMPI DUP1 PUSH4 0x1AD8B03B EQ PUSH2 0x2CD JUMPI DUP1 PUSH4 0x252C09D7 EQ PUSH2 0x316 JUMPI DUP1 PUSH4 0x32148F67 EQ PUSH2 0x37A JUMPI PUSH2 0x1AE JUMP JUMPDEST DUP1 PUSH4 0xDFE1681 EQ PUSH2 0x1B3 JUMPI DUP1 PUSH4 0x128ACB08 EQ PUSH2 0x1E4 JUMPI DUP1 PUSH4 0x1A686502 EQ PUSH2 0x2A0 JUMPI JUMPDEST PUSH1 0x0 DUP1 REVERT JUMPDEST PUSH2 0x1BB PUSH2 0x9B0 JUMP JUMPDEST PUSH1 0x40 DUP1 MLOAD PUSH20 0xFFFFFFFFFFFFFFFFFFFFFFFFFFFFFFFFFFFFFFFF SWAP1 SWAP3 AND DUP3 MSTORE MLOAD SWAP1 DUP2 SWAP1 SUB PUSH1 0x20 ADD SWAP1 RETURN JUMPDEST PUSH2 0x287 PUSH1 0x4 DUP1 CALLDATASIZE SUB PUSH1 0xA0 DUP2 LT ISZERO PUSH2 0x1FA JUMPI PUSH1 0x0 DUP1 REVERT JUMPDEST PUSH20 0xFFFFFFFFFFFFFFFFFFFFFFFFFFFFFFFFFFFFFFFF DUP3 CALLDATALOAD DUP2 AND SWAP3 PUSH1 0x20 DUP2 ADD CALLDATALOAD ISZERO ISZERO SWAP3 PUSH1 0x40 DUP3 ADD CALLDATALOAD SWAP3 PUSH1 0x60 DUP4 ADD CALLDATALOAD AND SWAP2 SWAP1 DUP2 ADD SWAP1 PUSH1 0xA0 DUP2 ADD PUSH1 0x80 DUP3 ADD CALLDATALOAD PUSH5 0x100000000 DUP2 GT ISZERO PUSH2 0x248 JUMPI PUSH1 0x0 DUP1 REVERT JUMPDEST DUP3 ADD DUP4 PUSH1 0x20 DUP3 ADD GT ISZERO PUSH2 0x25A JUMPI PUSH1 0x0 DUP1 REVERT JUMPDEST DUP1 CALLDATALOAD SWAP1 PUSH1 0x20 ADD SWAP2 DUP5 PUSH1 0x1 DUP4 MUL DUP5 ADD GT PUSH5 0x100000000 DUP4 GT OR ISZERO PUSH2 0x27C JUMPI PUSH1 0x0 DUP1 REVERT JUMPDEST POP SWAP1 SWAP3 POP SWAP1 POP PUSH2 0x9D4 JUMP JUMPDEST PUSH1 0x40 DUP1 MLOAD SWAP3 DUP4 MSTORE PUSH1 0x20 DUP4 ADD SWAP2 SWAP1 SWAP2 MSTORE DUP1 MLOAD SWAP2 DUP3 SWAP1 SUB ADD SWAP1 RETURN JUMPDEST PUSH2 0x2A8 PUSH2 0x1A7E JUMP JUMPDEST PUSH1 0x40 DUP1 MLOAD PUSH16 0xFFFFFFFFFFFFFFFFFFFFFFFFFFFFFFFF SWAP1 SWAP3 AND DUP3 MSTORE MLOAD SWAP1 DUP2 SWAP1 SUB PUSH1 0x20 ADD SWAP1 RETURN JUMPDEST PUSH2 0x2D5 PUSH2 0x1A96 JUMP JUMPDEST PUSH1 0x40 MLOAD DUP1 DUP4 PUSH16 0xFFFFFFFFFFFFFFFFFFFFFFFFFFFFFFFF AND DUP2 MSTORE PUSH1 0x20 ADD DUP3 PUSH16 0xFFFFFFFFFFFFFFFFFFFFFFFFFFFFFFFF AND DUP2 MSTORE PUSH1 0x20 ADD SWAP3 POP POP POP PUSH1 0x40 MLOAD DUP1 SWAP2 SUB SWAP1 RETURN JUMPDEST PUSH2 0x333 PUSH1 0x4 DUP1 CALLDATASIZE SUB PUSH1 0x20 DUP2 LT ISZERO PUSH2 0x32C JUMPI PUSH1 0x0 DUP1 REVERT JUMPDEST POP CALLDATALOAD PUSH2 0x1AC6 JUMP JUMPDEST PUSH1 0x40 DUP1 MLOAD PUSH4 0xFFFFFFFF SWAP1 SWAP6 AND DUP6 MSTORE PUSH1 0x6 SWAP4 SWAP1 SWAP4 SIGNEXTEND PUSH1 0x20 DUP6 ADD MSTORE PUSH20 0xFFFFFFFFFFFFFFFFFFFFFFFFFFFFFFFFFFFFFFFF SWAP1 SWAP2 AND DUP4 DUP4 ADD MSTORE ISZERO ISZERO PUSH1 0x60 DUP4 ADD MSTORE MLOAD SWAP1 DUP2 SWAP1 SUB PUSH1 0x80 ADD SWAP1 RETURN JUMPDEST PUSH2 0x39B PUSH1 0x4 DUP1 CALLDATASIZE SUB PUSH1 0x20 DUP2 LT ISZERO PUSH2 0x390 JUMPI PUSH1 0x0 DUP1 REVERT JUMPDEST POP CALLDATALOAD PUSH2 0xFFFF AND PUSH2 0x1B3D JUMP JUMPDEST STOP JUMPDEST PUSH2 0x3A5 PUSH2 0x1D21 JUMP JUMPDEST PUSH1 0x40 DUP1 MLOAD PUSH20 0xFFFFFFFFFFFFFFFFFFFFFFFFFFFFFFFFFFFFFFFF SWAP1 SWAP9 AND DUP9 MSTORE PUSH1 0x2 SWAP7 SWAP1 SWAP7 SIGNEXTEND PUSH1 0x20 DUP9 ADD MSTORE PUSH2 0xFFFF SWAP5 DUP6 AND DUP8 DUP8 ADD MSTORE SWAP3 DUP5 AND PUSH1 0x60 DUP8 ADD MSTORE SWAP3 AND PUSH1 0x80 DUP6 ADD MSTORE PUSH1 0xFF SWAP1 SWAP2 AND PUSH1 0xA0 DUP5 ADD MSTORE ISZERO ISZERO PUSH1 0xC0 DUP4 ADD MSTORE MLOAD SWAP1 DUP2 SWAP1 SUB PUSH1 0xE0 ADD SWAP1 RETURN JUMPDEST PUSH2 0x287 PUSH1 0x4 DUP1 CALLDATASIZE SUB PUSH1 0xA0 DUP2 LT ISZERO PUSH2 0x419 JUMPI PUSH1 0x0 DUP1 REVERT JUMPDEST PUSH20 0xFFFFFFFFFFFFFFFFFFFFFFFFFFFFFFFFFFFFFFFF DUP3 CALLDATALOAD AND SWAP2 PUSH1 0x20 DUP2 ADD CALLDATALOAD PUSH1 0x2 SWAP1 DUP2 SIGNEXTEND SWAP3 PUSH1 0x40 DUP4 ADD CALLDATALOAD SWAP1 SWAP2 SIGNEXTEND SWAP2 PUSH16 0xFFFFFFFFFFFFFFFFFFFFFFFFFFFFFFFF PUSH1 0x60 DUP3 ADD CALLDATALOAD AND SWAP2 DUP2 ADD SWAP1 PUSH1 0xA0 DUP2 ADD PUSH1 0x80 DUP3 ADD CALLDATALOAD PUSH5 0x100000000 DUP2 GT ISZERO PUSH2 0x47C JUMPI PUSH1 0x0 DUP1 REVERT JUMPDEST DUP3 ADD DUP4 PUSH1 0x20 DUP3 ADD GT ISZERO PUSH2 0x48E JUMPI PUSH1 0x0 DUP1 REVERT JUMPDEST DUP1 CALLDATALOAD SWAP1 PUSH1 0x20 ADD SWAP2 DUP5 PUSH1 0x1 DUP4 MUL DUP5 ADD GT PUSH5 0x100000000 DUP4 GT OR ISZERO PUSH2 0x4B0 JUMPI PUSH1 0x0 DUP1 REVERT JUMPDEST POP SWAP1 SWAP3 POP SWAP1 POP PUSH2 0x1E06 JUMP JUMPDEST PUSH2 0x4C3 PUSH2 0x221B JUMP JUMPDEST PUSH1 0x40 DUP1 MLOAD SWAP2 DUP3 MSTORE MLOAD SWAP1 DUP2 SWAP1 SUB PUSH1 0x20 ADD SWAP1 RETURN JUMPDEST PUSH2 0x39B PUSH1 0x4 DUP1 CALLDATASIZE SUB PUSH1 0x80 DUP2 LT ISZERO PUSH2 0x4EB JUMPI PUSH1 0x0 DUP1 REVERT JUMPDEST PUSH20 0xFFFFFFFFFFFFFFFFFFFFFFFFFFFFFFFFFFFFFFFF DUP3 CALLDATALOAD AND SWAP2 PUSH1 0x20 DUP2 ADD CALLDATALOAD SWAP2 PUSH1 0x40 DUP3 ADD CALLDATALOAD SWAP2 SWAP1 DUP2 ADD SWAP1 PUSH1 0x80 DUP2 ADD PUSH1 0x60 DUP3 ADD CALLDATALOAD PUSH5 0x100000000 DUP2 GT ISZERO PUSH2 0x52F JUMPI PUSH1 0x0 DUP1 REVERT JUMPDEST DUP3 ADD DUP4 PUSH1 0x20 DUP3 ADD GT ISZERO PUSH2 0x541 JUMPI PUSH1 0x0 DUP1 REVERT JUMPDEST DUP1 CALLDATALOAD SWAP1 PUSH1 0x20 ADD SWAP2 DUP5 PUSH1 0x1 DUP4 MUL DUP5 ADD GT PUSH5 0x100000000 DUP4 GT OR ISZERO PUSH2 0x563 JUMPI PUSH1 0x0 DUP1 REVERT JUMPDEST POP SWAP1 SWAP3 POP SWAP1 POP PUSH2 0x2221 JUMP JUMPDEST PUSH2 0x2D5 PUSH1 0x4 DUP1 CALLDATASIZE SUB PUSH1 0xA0 DUP2 LT ISZERO PUSH2 0x584 JUMPI PUSH1 0x0 DUP1 REVERT JUMPDEST POP PUSH20 0xFFFFFFFFFFFFFFFFFFFFFFFFFFFFFFFFFFFFFFFF DUP2 CALLDATALOAD AND SWAP1 PUSH1 0x20 DUP2 ADD CALLDATALOAD PUSH1 0x2 SWAP1 DUP2 SIGNEXTEND SWAP2 PUSH1 0x40 DUP2 ADD CALLDATALOAD SWAP1 SWAP2 SIGNEXTEND SWAP1 PUSH16 0xFFFFFFFFFFFFFFFFFFFFFFFFFFFFFFFF PUSH1 0x60 DUP3 ADD CALLDATALOAD DUP2 AND SWAP2 PUSH1 0x80 ADD CALLDATALOAD AND PUSH2 0x2895 JUMP JUMPDEST PUSH2 0x5F2 PUSH1 0x4 DUP1 CALLDATASIZE SUB PUSH1 0x20 DUP2 LT ISZERO PUSH2 0x5EB JUMPI PUSH1 0x0 DUP1 REVERT JUMPDEST POP CALLDATALOAD PUSH2 0x2BEC JUMP JUMPDEST PUSH1 0x40 DUP1 MLOAD PUSH16 0xFFFFFFFFFFFFFFFFFFFFFFFFFFFFFFFF SWAP7 DUP8 AND DUP2 MSTORE PUSH1 0x20 DUP2 ADD SWAP6 SWAP1 SWAP6 MSTORE DUP5 DUP2 ADD SWAP4 SWAP1 SWAP4 MSTORE SWAP1 DUP5 AND PUSH1 0x60 DUP5 ADD MSTORE SWAP1 SWAP3 AND PUSH1 0x80 DUP3 ADD MSTORE SWAP1 MLOAD SWAP1 DUP2 SWAP1 SUB PUSH1 0xA0 ADD SWAP1 RETURN JUMPDEST PUSH2 0x4C3 PUSH1 0x4 DUP1 CALLDATASIZE SUB PUSH1 0x20 DUP2 LT ISZERO PUSH2 0x64D JUMPI PUSH1 0x0 DUP1 REVERT JUMPDEST POP CALLDATALOAD PUSH1 0x1 SIGNEXTEND PUSH2 0x2C3F JUMP JUMPDEST PUSH2 0x2A8 PUSH2 0x2C51 JUMP JUMPDEST PUSH2 0x39B PUSH1 0x4 DUP1 CALLDATASIZE SUB PUSH1 0x40 DUP2 LT ISZERO PUSH2 0x675 JUMPI PUSH1 0x0 DUP1 REVERT JUMPDEST POP PUSH1 0xFF DUP2 CALLDATALOAD DUP2 AND SWAP2 PUSH1 0x20 ADD CALLDATALOAD AND PUSH2 0x2C75 JUMP JUMPDEST PUSH2 0x2D5 PUSH1 0x4 DUP1 CALLDATASIZE SUB PUSH1 0x60 DUP2 LT ISZERO PUSH2 0x69D JUMPI PUSH1 0x0 DUP1 REVERT JUMPDEST POP PUSH20 0xFFFFFFFFFFFFFFFFFFFFFFFFFFFFFFFFFFFFFFFF DUP2 CALLDATALOAD AND SWAP1 PUSH16 0xFFFFFFFFFFFFFFFFFFFFFFFFFFFFFFFF PUSH1 0x20 DUP3 ADD CALLDATALOAD DUP2 AND SWAP2 PUSH1 0x40 ADD CALLDATALOAD AND PUSH2 0x2F61 JUMP JUMPDEST PUSH2 0x74A PUSH1 0x4 DUP1 CALLDATASIZE SUB PUSH1 0x20 DUP2 LT ISZERO PUSH2 0x6F0 JUMPI PUSH1 0x0 DUP1 REVERT JUMPDEST DUP2 ADD SWAP1 PUSH1 0x20 DUP2 ADD DUP2 CALLDATALOAD PUSH5 0x100000000 DUP2 GT ISZERO PUSH2 0x70B JUMPI PUSH1 0x0 DUP1 REVERT JUMPDEST DUP3 ADD DUP4 PUSH1 0x20 DUP3 ADD GT ISZERO PUSH2 0x71D JUMPI PUSH1 0x0 DUP1 REVERT JUMPDEST DUP1 CALLDATALOAD SWAP1 PUSH1 0x20 ADD SWAP2 DUP5 PUSH1 0x20 DUP4 MUL DUP5 ADD GT PUSH5 0x100000000 DUP4 GT OR ISZERO PUSH2 0x73F JUMPI PUSH1 0x0 DUP1 REVERT JUMPDEST POP SWAP1 SWAP3 POP SWAP1 POP PUSH2 0x33F9 JUMP JUMPDEST PUSH1 0x40 MLOAD DUP1 DUP1 PUSH1 0x20 ADD DUP1 PUSH1 0x20 ADD DUP4 DUP2 SUB DUP4 MSTORE DUP6 DUP2 DUP2 MLOAD DUP2 MSTORE PUSH1 0x20 ADD SWAP2 POP DUP1 MLOAD SWAP1 PUSH1 0x20 ADD SWAP1 PUSH1 0x20 MUL DUP1 DUP4 DUP4 PUSH1 0x0 JUMPDEST DUP4 DUP2 LT ISZERO PUSH2 0x78E JUMPI DUP2 DUP2 ADD MLOAD DUP4 DUP3 ADD MSTORE PUSH1 0x20 ADD PUSH2 0x776 JUMP JUMPDEST POP POP POP POP SWAP1 POP ADD DUP4 DUP2 SUB DUP3 MSTORE DUP5 DUP2 DUP2 MLOAD DUP2 MSTORE PUSH1 0x20 ADD SWAP2 POP DUP1 MLOAD SWAP1 PUSH1 0x20 ADD SWAP1 PUSH1 0x20 MUL DUP1 DUP4 DUP4 PUSH1 0x0 JUMPDEST DUP4 DUP2 LT ISZERO PUSH2 0x7CD JUMPI DUP2 DUP2 ADD MLOAD DUP4 DUP3 ADD MSTORE PUSH1 0x20 ADD PUSH2 0x7B5 JUMP JUMPDEST POP POP POP POP SWAP1 POP ADD SWAP5 POP POP POP POP POP PUSH1 0x40 MLOAD DUP1 SWAP2 SUB SWAP1 RETURN JUMPDEST PUSH2 0x287 PUSH1 0x4 DUP1 CALLDATASIZE SUB PUSH1 0x60 DUP2 LT ISZERO PUSH2 0x7F9 JUMPI PUSH1 0x0 DUP1 REVERT JUMPDEST POP DUP1 CALLDATALOAD PUSH1 0x2 SWAP1 DUP2 SIGNEXTEND SWAP2 PUSH1 0x20 DUP2 ADD CALLDATALOAD SWAP1 SWAP2 SIGNEXTEND SWAP1 PUSH1 0x40 ADD CALLDATALOAD PUSH16 0xFFFFFFFFFFFFFFFFFFFFFFFFFFFFFFFF AND PUSH2 0x34CA JUMP JUMPDEST PUSH2 0x850 PUSH1 0x4 DUP1 CALLDATASIZE SUB PUSH1 0x40 DUP2 LT ISZERO PUSH2 0x83C JUMPI PUSH1 0x0 DUP1 REVERT JUMPDEST POP DUP1 CALLDATALOAD PUSH1 0x2 SWAP1 DUP2 SIGNEXTEND SWAP2 PUSH1 0x20 ADD CALLDATALOAD SWAP1 SIGNEXTEND PUSH2 0x3721 JUMP JUMPDEST PUSH1 0x40 DUP1 MLOAD PUSH1 0x6 SWAP5 SWAP1 SWAP5 SIGNEXTEND DUP5 MSTORE PUSH20 0xFFFFFFFFFFFFFFFFFFFFFFFFFFFFFFFFFFFFFFFF SWAP1 SWAP3 AND PUSH1 0x20 DUP5 ADD MSTORE PUSH4 0xFFFFFFFF AND DUP3 DUP3 ADD MSTORE MLOAD SWAP1 DUP2 SWAP1 SUB PUSH1 0x60 ADD SWAP1 RETURN JUMPDEST PUSH2 0x1BB PUSH2 0x3A38 JUMP JUMPDEST PUSH2 0x89E PUSH2 0x3A5C JUMP JUMPDEST PUSH1 0x40 DUP1 MLOAD PUSH1 0x2 SWAP3 SWAP1 SWAP3 SIGNEXTEND DUP3 MSTORE MLOAD SWAP1 DUP2 SWAP1 SUB PUSH1 0x20 ADD SWAP1 RETURN JUMPDEST PUSH2 0x1BB PUSH2 0x3A80 JUMP JUMPDEST PUSH2 0x8C5 PUSH2 0x3AA4 JUMP JUMPDEST PUSH1 0x40 DUP1 MLOAD PUSH3 0xFFFFFF SWAP1 SWAP3 AND DUP3 MSTORE MLOAD SWAP1 DUP2 SWAP1 SUB PUSH1 0x20 ADD SWAP1 RETURN JUMPDEST PUSH2 0x4C3 PUSH2 0x3AC8 JUMP JUMPDEST PUSH2 0x905 PUSH1 0x4 DUP1 CALLDATASIZE SUB PUSH1 0x20 DUP2 LT ISZERO PUSH2 0x8FB JUMPI PUSH1 0x0 DUP1 REVERT JUMPDEST POP CALLDATALOAD PUSH1 0x2 SIGNEXTEND PUSH2 0x3ACE JUMP JUMPDEST PUSH1 0x40 DUP1 MLOAD PUSH16 0xFFFFFFFFFFFFFFFFFFFFFFFFFFFFFFFF SWAP1 SWAP10 AND DUP10 MSTORE PUSH1 0xF SWAP8 SWAP1 SWAP8 SIGNEXTEND PUSH1 0x20 DUP10 ADD MSTORE DUP8 DUP8 ADD SWAP6 SWAP1 SWAP6 MSTORE PUSH1 0x60 DUP8 ADD SWAP4 SWAP1 SWAP4 MSTORE PUSH1 0x6 SWAP2 SWAP1 SWAP2 SIGNEXTEND PUSH1 0x80 DUP7 ADD MSTORE PUSH20 0xFFFFFFFFFFFFFFFFFFFFFFFFFFFFFFFFFFFFFFFF AND PUSH1 0xA0 DUP6 ADD MSTORE PUSH4 0xFFFFFFFF AND PUSH1 0xC0 DUP5 ADD MSTORE ISZERO ISZERO PUSH1 0xE0 DUP4 ADD MSTORE MLOAD SWAP1 DUP2 SWAP1 SUB PUSH2 0x100 ADD SWAP1 RETURN JUMPDEST PUSH2 0x39B PUSH1 0x4 DUP1 CALLDATASIZE SUB PUSH1 0x20 DUP2 LT ISZERO PUSH2 0x993 JUMPI PUSH1 0x0 DUP1 REVERT JUMPDEST POP CALLDATALOAD PUSH20 0xFFFFFFFFFFFFFFFFFFFFFFFFFFFFFFFFFFFFFFFF AND PUSH2 0x3B93 JUMP JUMPDEST PUSH32 0x0 DUP2 JUMP JUMPDEST PUSH1 0x0 DUP1 PUSH2 0x9DF PUSH2 0x3EB4 JUMP JUMPDEST DUP6 PUSH2 0xA4B JUMPI PUSH1 0x40 DUP1 MLOAD PUSH32 0x8C379A000000000000000000000000000000000000000000000000000000000 DUP2 MSTORE PUSH1 0x20 PUSH1 0x4 DUP3 ADD MSTORE PUSH1 0x2 PUSH1 0x24 DUP3 ADD MSTORE PUSH32 0x4153000000000000000000000000000000000000000000000000000000000000 PUSH1 0x44 DUP3 ADD MSTORE SWAP1 MLOAD SWAP1 DUP2 SWAP1 SUB PUSH1 0x64 ADD SWAP1 REVERT JUMPDEST PUSH1 0x40 DUP1 MLOAD PUSH1 0xE0 DUP2 ADD DUP3 MSTORE PUSH1 0x0 SLOAD PUSH20 0xFFFFFFFFFFFFFFFFFFFFFFFFFFFFFFFFFFFFFFFF DUP2 AND DUP3 MSTORE PUSH21 0x10000000000000000000000000000000000000000 DUP2 DIV PUSH1 0x2 SWAP1 DUP2 SIGNEXTEND DUP2 SIGNEXTEND SWAP1 SIGNEXTEND PUSH1 0x20 DUP4 ADD MSTORE PUSH2 0xFFFF PUSH24 0x10000000000000000000000000000000000000000000000 DUP3 DIV DUP2 AND SWAP4 DUP4 ADD SWAP4 SWAP1 SWAP4 MSTORE PUSH26 0x100000000000000000000000000000000000000000000000000 DUP2 DIV DUP4 AND PUSH1 0x60 DUP4 ADD MSTORE PUSH28 0x1000000000000000000000000000000000000000000000000000000 DUP2 DIV SWAP1 SWAP3 AND PUSH1 0x80 DUP3 ADD MSTORE PUSH1 0xFF PUSH30 0x10000000000000000000000000000000000000000000000000000000000 DUP4 DIV DUP2 AND PUSH1 0xA0 DUP4 ADD MSTORE PUSH31 0x1000000000000000000000000000000000000000000000000000000000000 SWAP1 SWAP3 DIV SWAP1 SWAP2 AND ISZERO ISZERO PUSH1 0xC0 DUP3 ADD DUP2 SWAP1 MSTORE PUSH2 0xBCD JUMPI PUSH1 0x40 DUP1 MLOAD PUSH32 0x8C379A000000000000000000000000000000000000000000000000000000000 DUP2 MSTORE PUSH1 0x20 PUSH1 0x4 DUP3 ADD MSTORE PUSH1 0x3 PUSH1 0x24 DUP3 ADD MSTORE PUSH32 0x4C4F4B0000000000000000000000000000000000000000000000000000000000 PUSH1 0x44 DUP3 ADD MSTORE SWAP1 MLOAD SWAP1 DUP2 SWAP1 SUB PUSH1 0x64 ADD SWAP1 REVERT JUMPDEST DUP8 PUSH2 0xC3F JUMPI DUP1 PUSH1 0x0 ADD MLOAD PUSH20 0xFFFFFFFFFFFFFFFFFFFFFFFFFFFFFFFFFFFFFFFF AND DUP7 PUSH20 0xFFFFFFFFFFFFFFFFFFFFFFFFFFFFFFFFFFFFFFFF AND GT DUP1 ISZERO PUSH2 0xC3A JUMPI POP PUSH20 0xFFFD8963EFD1FC6A506488495D951D5263988D26 PUSH20 0xFFFFFFFFFFFFFFFFFFFFFFFFFFFFFFFFFFFFFFFF DUP8 AND LT JUMPDEST PUSH2 0xC98 JUMP JUMPDEST DUP1 PUSH1 0x0 ADD MLOAD PUSH20 0xFFFFFFFFFFFFFFFFFFFFFFFFFFFFFFFFFFFFFFFF AND DUP7 PUSH20 0xFFFFFFFFFFFFFFFFFFFFFFFFFFFFFFFFFFFFFFFF AND LT DUP1 ISZERO PUSH2 0xC98 JUMPI POP PUSH5 0x1000276A3 PUSH20 0xFFFFFFFFFFFFFFFFFFFFFFFFFFFFFFFFFFFFFFFF DUP8 AND GT JUMPDEST PUSH2 0xD03 JUMPI PUSH1 0x40 DUP1 MLOAD PUSH32 0x8C379A000000000000000000000000000000000000000000000000000000000 DUP2 MSTORE PUSH1 0x20 PUSH1 0x4 DUP3 ADD MSTORE PUSH1 0x3 PUSH1 0x24 DUP3 ADD MSTORE PUSH32 0x53504C0000000000000000000000000000000000000000000000000000000000 PUSH1 0x44 DUP3 ADD MSTORE SWAP1 MLOAD SWAP1 DUP2 SWAP1 SUB PUSH1 0x64 ADD SWAP1 REVERT JUMPDEST PUSH1 0x0 DUP1 SLOAD PUSH32 0xFF00FFFFFFFFFFFFFFFFFFFFFFFFFFFFFFFFFFFFFFFFFFFFFFFFFFFFFFFFFFFF AND DUP2 SSTORE PUSH1 0x40 DUP1 MLOAD PUSH1 0xC0 DUP2 ADD SWAP1 SWAP2 MSTORE DUP1 DUP11 PUSH2 0xD4D JUMPI PUSH1 0x4 DUP5 PUSH1 0xA0 ADD MLOAD PUSH1 0xFF AND SWAP1 SHR PUSH2 0xD60 JUMP JUMPDEST PUSH1 0x10 DUP5 PUSH1 0xA0 ADD MLOAD PUSH1 0xFF AND DUP2 PUSH2 0xD5E JUMPI INVALID JUMPDEST MOD JUMPDEST PUSH1 0xFF AND DUP2 MSTORE PUSH1 0x4 SLOAD PUSH16 0xFFFFFFFFFFFFFFFFFFFFFFFFFFFFFFFF AND PUSH1 0x20 DUP3 ADD MSTORE PUSH1 0x40 ADD PUSH2 0xD8A PUSH2 0x3EF8 JUMP JUMPDEST PUSH4 0xFFFFFFFF AND DUP2 MSTORE PUSH1 0x20 ADD PUSH1 0x0 PUSH1 0x6 SIGNEXTEND DUP2 MSTORE PUSH1 0x20 ADD PUSH1 0x0 PUSH20 0xFFFFFFFFFFFFFFFFFFFFFFFFFFFFFFFFFFFFFFFF AND DUP2 MSTORE PUSH1 0x20 ADD PUSH1 0x0 ISZERO ISZERO DUP2 MSTORE POP SWAP1 POP PUSH1 0x0 DUP1 DUP10 SGT SWAP1 POP PUSH1 0x0 PUSH1 0x40 MLOAD DUP1 PUSH1 0xE0 ADD PUSH1 0x40 MSTORE DUP1 DUP12 DUP2 MSTORE PUSH1 0x20 ADD PUSH1 0x0 DUP2 MSTORE PUSH1 0x20 ADD DUP6 PUSH1 0x0 ADD MLOAD PUSH20 0xFFFFFFFFFFFFFFFFFFFFFFFFFFFFFFFFFFFFFFFF AND DUP2 MSTORE PUSH1 0x20 ADD DUP6 PUSH1 0x20 ADD MLOAD PUSH1 0x2 SIGNEXTEND DUP2 MSTORE PUSH1 0x20 ADD DUP13 PUSH2 0xE20 JUMPI PUSH1 0x2 SLOAD PUSH2 0xE24 JUMP JUMPDEST PUSH1 0x1 SLOAD JUMPDEST DUP2 MSTORE PUSH1 0x20 ADD PUSH1 0x0 PUSH16 0xFFFFFFFFFFFFFFFFFFFFFFFFFFFFFFFF AND DUP2 MSTORE PUSH1 0x20 ADD DUP5 PUSH1 0x20 ADD MLOAD PUSH16 0xFFFFFFFFFFFFFFFFFFFFFFFFFFFFFFFF AND DUP2 MSTORE POP SWAP1 POP JUMPDEST DUP1 MLOAD ISZERO DUP1 ISZERO SWAP1 PUSH2 0xE9F JUMPI POP DUP9 PUSH20 0xFFFFFFFFFFFFFFFFFFFFFFFFFFFFFFFFFFFFFFFF AND DUP2 PUSH1 0x40 ADD MLOAD PUSH20 0xFFFFFFFFFFFFFFFFFFFFFFFFFFFFFFFFFFFFFFFF AND EQ ISZERO JUMPDEST ISZERO PUSH2 0x136E JUMPI PUSH2 0xEAC PUSH2 0x7699 JUMP JUMPDEST PUSH1 0x40 DUP3 ADD MLOAD PUSH20 0xFFFFFFFFFFFFFFFFFFFFFFFFFFFFFFFFFFFFFFFF AND DUP2 MSTORE PUSH1 0x60 DUP3 ADD MLOAD PUSH2 0xEFC SWAP1 PUSH1 0x6 SWAP1 PUSH32 0x0 DUP16 PUSH2 0x3EFC JUMP JUMPDEST ISZERO ISZERO PUSH1 0x40 DUP4 ADD MSTORE PUSH1 0x2 SWAP1 DUP2 SIGNEXTEND DUP2 SIGNEXTEND PUSH1 0x20 DUP4 ADD DUP2 SWAP1 MSTORE PUSH32 0xFFFFFFFFFFFFFFFFFFFFFFFFFFFFFFFFFFFFFFFFFFFFFFFFFFFFFFFFFFF27618 SWAP2 SIGNEXTEND SLT ISZERO PUSH2 0xF65 JUMPI PUSH32 0xFFFFFFFFFFFFFFFFFFFFFFFFFFFFFFFFFFFFFFFFFFFFFFFFFFFFFFFFFFF27618 PUSH1 0x20 DUP3 ADD MSTORE PUSH2 0xF84 JUMP JUMPDEST PUSH1 0x20 DUP2 ADD MLOAD PUSH3 0xD89E8 PUSH1 0x2 SWAP2 SWAP1 SWAP2 SIGNEXTEND SGT ISZERO PUSH2 0xF84 JUMPI PUSH3 0xD89E8 PUSH1 0x20 DUP3 ADD MSTORE JUMPDEST PUSH2 0xF91 DUP2 PUSH1 0x20 ADD MLOAD PUSH2 0x407A JUMP JUMPDEST PUSH20 0xFFFFFFFFFFFFFFFFFFFFFFFFFFFFFFFFFFFFFFFF AND PUSH1 0x60 DUP3 ADD MSTORE PUSH1 0x40 DUP3 ADD MLOAD PUSH2 0x1063 SWAP1 DUP14 PUSH2 0xFF2 JUMPI DUP12 PUSH20 0xFFFFFFFFFFFFFFFFFFFFFFFFFFFFFFFFFFFFFFFF AND DUP4 PUSH1 0x60 ADD MLOAD PUSH20 0xFFFFFFFFFFFFFFFFFFFFFFFFFFFFFFFFFFFFFFFF AND GT PUSH2 0x1026 JUMP JUMPDEST DUP12 PUSH20 0xFFFFFFFFFFFFFFFFFFFFFFFFFFFFFFFFFFFFFFFF AND DUP4 PUSH1 0x60 ADD MLOAD PUSH20 0xFFFFFFFFFFFFFFFFFFFFFFFFFFFFFFFFFFFFFFFF AND LT JUMPDEST PUSH2 0x1034 JUMPI DUP3 PUSH1 0x60 ADD MLOAD PUSH2 0x1036 JUMP JUMPDEST DUP12 JUMPDEST PUSH1 0xC0 DUP6 ADD MLOAD DUP6 MLOAD PUSH32 0x0 PUSH2 0x440D JUMP JUMPDEST PUSH1 0xC0 DUP6 ADD MSTORE PUSH1 0xA0 DUP5 ADD MSTORE PUSH1 0x80 DUP4 ADD MSTORE PUSH20 0xFFFFFFFFFFFFFFFFFFFFFFFFFFFFFFFFFFFFFFFF AND PUSH1 0x40 DUP4 ADD MSTORE DUP3 ISZERO PUSH2 0x10D2 JUMPI PUSH2 0x10A6 DUP2 PUSH1 0xC0 ADD MLOAD DUP3 PUSH1 0x80 ADD MLOAD ADD PUSH2 0x4633 JUMP JUMPDEST DUP3 MLOAD SUB DUP3 MSTORE PUSH1 0xA0 DUP2 ADD MLOAD PUSH2 0x10C8 SWAP1 PUSH2 0x10BD SWAP1 PUSH2 0x4633 JUMP JUMPDEST PUSH1 0x20 DUP5 ADD MLOAD SWAP1 PUSH2 0x4665 JUMP JUMPDEST PUSH1 0x20 DUP4 ADD MSTORE PUSH2 0x110D JUMP JUMPDEST PUSH2 0x10DF DUP2 PUSH1 0xA0 ADD MLOAD PUSH2 0x4633 JUMP JUMPDEST DUP3 MLOAD ADD DUP3 MSTORE PUSH1 0xC0 DUP2 ADD MLOAD PUSH1 0x80 DUP3 ADD MLOAD PUSH2 0x1107 SWAP2 PUSH2 0x10FC SWAP2 ADD PUSH2 0x4633 JUMP JUMPDEST PUSH1 0x20 DUP5 ADD MLOAD SWAP1 PUSH2 0x4681 JUMP JUMPDEST PUSH1 0x20 DUP4 ADD MSTORE JUMPDEST DUP4 MLOAD PUSH1 0xFF AND ISZERO PUSH2 0x115C JUMPI PUSH1 0x0 DUP5 PUSH1 0x0 ADD MLOAD PUSH1 0xFF AND DUP3 PUSH1 0xC0 ADD MLOAD DUP2 PUSH2 0x112D JUMPI INVALID JUMPDEST PUSH1 0xC0 DUP5 ADD DUP1 MLOAD SWAP3 SWAP1 SWAP2 DIV SWAP2 DUP3 SWAP1 SUB SWAP1 MSTORE PUSH1 0xA0 DUP5 ADD DUP1 MLOAD SWAP1 SWAP2 ADD PUSH16 0xFFFFFFFFFFFFFFFFFFFFFFFFFFFFFFFF AND SWAP1 MSTORE POP JUMPDEST PUSH1 0xC0 DUP3 ADD MLOAD PUSH16 0xFFFFFFFFFFFFFFFFFFFFFFFFFFFFFFFF AND ISZERO PUSH2 0x11BA JUMPI PUSH2 0x11AE DUP2 PUSH1 0xC0 ADD MLOAD PUSH17 0x100000000000000000000000000000000 DUP5 PUSH1 0xC0 ADD MLOAD PUSH16 0xFFFFFFFFFFFFFFFFFFFFFFFFFFFFFFFF AND PUSH2 0x4697 JUMP JUMPDEST PUSH1 0x80 DUP4 ADD DUP1 MLOAD SWAP1 SWAP2 ADD SWAP1 MSTORE JUMPDEST DUP1 PUSH1 0x60 ADD MLOAD PUSH20 0xFFFFFFFFFFFFFFFFFFFFFFFFFFFFFFFFFFFFFFFF AND DUP3 PUSH1 0x40 ADD MLOAD PUSH20 0xFFFFFFFFFFFFFFFFFFFFFFFFFFFFFFFFFFFFFFFF AND EQ ISZERO PUSH2 0x1313 JUMPI DUP1 PUSH1 0x40 ADD MLOAD ISZERO PUSH2 0x12EA JUMPI DUP4 PUSH1 0xA0 ADD MLOAD PUSH2 0x126B JUMPI PUSH2 0x123C DUP5 PUSH1 0x40 ADD MLOAD PUSH1 0x0 DUP8 PUSH1 0x20 ADD MLOAD DUP9 PUSH1 0x40 ADD MLOAD DUP9 PUSH1 0x20 ADD MLOAD DUP11 PUSH1 0x60 ADD MLOAD PUSH1 0x8 PUSH2 0x4765 SWAP1 SWAP7 SWAP6 SWAP5 SWAP4 SWAP3 SWAP2 SWAP1 PUSH4 0xFFFFFFFF AND JUMP JUMPDEST PUSH20 0xFFFFFFFFFFFFFFFFFFFFFFFFFFFFFFFFFFFFFFFF AND PUSH1 0x80 DUP7 ADD MSTORE PUSH1 0x6 SWAP1 DUP2 SIGNEXTEND SWAP1 SIGNEXTEND PUSH1 0x60 DUP6 ADD MSTORE PUSH1 0x1 PUSH1 0xA0 DUP6 ADD MSTORE JUMPDEST PUSH1 0x0 PUSH2 0x12B7 DUP3 PUSH1 0x20 ADD MLOAD DUP15 PUSH2 0x1282 JUMPI PUSH1 0x1 SLOAD PUSH2 0x1288 JUMP JUMPDEST DUP5 PUSH1 0x80 ADD MLOAD JUMPDEST DUP16 PUSH2 0x1297 JUMPI DUP6 PUSH1 0x80 ADD MLOAD PUSH2 0x129B JUMP JUMPDEST PUSH1 0x2 SLOAD JUMPDEST PUSH1 0x80 DUP10 ADD MLOAD PUSH1 0x60 DUP11 ADD MLOAD PUSH1 0x40 DUP12 ADD MLOAD PUSH1 0x5 SWAP6 SWAP5 SWAP4 SWAP3 SWAP2 SWAP1 PUSH2 0x4936 JUMP JUMPDEST SWAP1 POP DUP13 ISZERO PUSH2 0x12C3 JUMPI PUSH1 0x0 SUB JUMPDEST PUSH2 0x12D1 DUP4 PUSH1 0xC0 ADD MLOAD DUP3 PUSH2 0x4A6B JUMP JUMPDEST PUSH16 0xFFFFFFFFFFFFFFFFFFFFFFFFFFFFFFFF AND PUSH1 0xC0 DUP5 ADD MSTORE POP JUMPDEST DUP12 PUSH2 0x12F9 JUMPI DUP1 PUSH1 0x20 ADD MLOAD PUSH2 0x1302 JUMP JUMPDEST PUSH1 0x1 DUP2 PUSH1 0x20 ADD MLOAD SUB JUMPDEST PUSH1 0x2 SWAP1 DUP2 SIGNEXTEND SWAP1 SIGNEXTEND PUSH1 0x60 DUP4 ADD MSTORE PUSH2 0x1368 JUMP JUMPDEST DUP1 PUSH1 0x0 ADD MLOAD PUSH20 0xFFFFFFFFFFFFFFFFFFFFFFFFFFFFFFFFFFFFFFFF AND DUP3 PUSH1 0x40 ADD MLOAD PUSH20 0xFFFFFFFFFFFFFFFFFFFFFFFFFFFFFFFFFFFFFFFF AND EQ PUSH2 0x1368 JUMPI PUSH2 0x135B DUP3 PUSH1 0x40 ADD MLOAD PUSH2 0x4BAF JUMP JUMPDEST PUSH1 0x2 SWAP1 DUP2 SIGNEXTEND SWAP1 SIGNEXTEND PUSH1 0x60 DUP4 ADD MSTORE JUMPDEST POP PUSH2 0xE5F JUMP JUMPDEST DUP4 PUSH1 0x20 ADD MLOAD PUSH1 0x2 SIGNEXTEND DUP2 PUSH1 0x60 ADD MLOAD PUSH1 0x2 SIGNEXTEND EQ PUSH2 0x14E9 JUMPI PUSH1 0x0 DUP1 PUSH2 0x13BC DUP7 PUSH1 0x40 ADD MLOAD DUP7 PUSH1 0x40 ADD MLOAD DUP9 PUSH1 0x20 ADD MLOAD DUP9 PUSH1 0x20 ADD MLOAD DUP11 PUSH1 0x60 ADD MLOAD DUP12 PUSH1 0x80 ADD MLOAD PUSH1 0x8 PUSH2 0x4F7B SWAP1 SWAP7 SWAP6 SWAP5 SWAP4 SWAP3 SWAP2 SWAP1 PUSH4 0xFFFFFFFF AND JUMP JUMPDEST PUSH1 0x40 DUP6 ADD MLOAD PUSH1 0x60 DUP7 ADD MLOAD PUSH1 0x0 DUP1 SLOAD PUSH32 0xFFFFFFFFFF0000FFFFFFFFFFFFFFFFFFFFFFFFFFFFFFFFFFFFFFFFFFFFFFFFFF AND PUSH26 0x100000000000000000000000000000000000000000000000000 PUSH2 0xFFFF SWAP6 DUP7 AND MUL OR PUSH32 0xFFFFFFFFFFFFFF0000FFFFFFFFFFFFFFFFFFFFFFFFFFFFFFFFFFFFFFFFFFFFFF AND PUSH24 0x10000000000000000000000000000000000000000000000 SWAP6 SWAP1 SWAP5 AND SWAP5 SWAP1 SWAP5 MUL SWAP3 SWAP1 SWAP3 OR PUSH32 0xFFFFFFFFFFFFFFFFFF000000FFFFFFFFFFFFFFFFFFFFFFFFFFFFFFFFFFFFFFFF AND PUSH21 0x10000000000000000000000000000000000000000 PUSH3 0xFFFFFF PUSH1 0x2 SWAP5 SWAP1 SWAP5 SIGNEXTEND SWAP4 SWAP1 SWAP4 AND SWAP3 SWAP1 SWAP3 MUL SWAP2 SWAP1 SWAP2 OR PUSH32 0xFFFFFFFFFFFFFFFFFFFFFFFF0000000000000000000000000000000000000000 AND PUSH20 0xFFFFFFFFFFFFFFFFFFFFFFFFFFFFFFFFFFFFFFFF SWAP1 SWAP2 AND OR SWAP1 SSTORE POP PUSH2 0x1533 SWAP1 POP JUMP JUMPDEST PUSH1 0x40 DUP2 ADD MLOAD PUSH1 0x0 DUP1 SLOAD PUSH32 0xFFFFFFFFFFFFFFFFFFFFFFFF0000000000000000000000000000000000000000 AND PUSH20 0xFFFFFFFFFFFFFFFFFFFFFFFFFFFFFFFFFFFFFFFF SWAP1 SWAP3 AND SWAP2 SWAP1 SWAP2 OR SWAP1 SSTORE JUMPDEST DUP1 PUSH1 0xC0 ADD MLOAD PUSH16 0xFFFFFFFFFFFFFFFFFFFFFFFFFFFFFFFF AND DUP4 PUSH1 0x20 ADD MLOAD PUSH16 0xFFFFFFFFFFFFFFFFFFFFFFFFFFFFFFFF AND EQ PUSH2 0x15AC JUMPI PUSH1 0xC0 DUP2 ADD MLOAD PUSH1 0x4 DUP1 SLOAD PUSH32 0xFFFFFFFFFFFFFFFFFFFFFFFFFFFFFFFF00000000000000000000000000000000 AND PUSH16 0xFFFFFFFFFFFFFFFFFFFFFFFFFFFFFFFF SWAP1 SWAP3 AND SWAP2 SWAP1 SWAP2 OR SWAP1 SSTORE JUMPDEST DUP11 ISZERO PUSH2 0x1626 JUMPI PUSH1 0x80 DUP2 ADD MLOAD PUSH1 0x1 SSTORE PUSH1 0xA0 DUP2 ADD MLOAD PUSH16 0xFFFFFFFFFFFFFFFFFFFFFFFFFFFFFFFF AND ISZERO PUSH2 0x1621 JUMPI PUSH1 0xA0 DUP2 ADD MLOAD PUSH1 0x3 DUP1 SLOAD PUSH32 0xFFFFFFFFFFFFFFFFFFFFFFFFFFFFFFFF00000000000000000000000000000000 DUP2 AND PUSH16 0xFFFFFFFFFFFFFFFFFFFFFFFFFFFFFFFF SWAP2 DUP3 AND SWAP1 SWAP4 ADD AND SWAP2 SWAP1 SWAP2 OR SWAP1 SSTORE JUMPDEST PUSH2 0x168B JUMP JUMPDEST PUSH1 0x80 DUP2 ADD MLOAD PUSH1 0x2 SSTORE PUSH1 0xA0 DUP2 ADD MLOAD PUSH16 0xFFFFFFFFFFFFFFFFFFFFFFFFFFFFFFFF AND ISZERO PUSH2 0x168B JUMPI PUSH1 0xA0 DUP2 ADD MLOAD PUSH1 0x3 DUP1 SLOAD PUSH16 0xFFFFFFFFFFFFFFFFFFFFFFFFFFFFFFFF DUP1 DUP3 AND PUSH17 0x100000000000000000000000000000000 SWAP3 DUP4 SWAP1 DIV DUP3 AND SWAP1 SWAP5 ADD AND MUL SWAP2 SWAP1 SWAP2 OR SWAP1 SSTORE JUMPDEST DUP2 ISZERO ISZERO DUP12 ISZERO ISZERO EQ PUSH2 0x16A4 JUMPI PUSH1 0x20 DUP2 ADD MLOAD DUP2 MLOAD DUP12 SUB PUSH2 0x16B1 JUMP JUMPDEST DUP1 PUSH1 0x0 ADD MLOAD DUP11 SUB DUP2 PUSH1 0x20 ADD MLOAD JUMPDEST SWAP1 SWAP7 POP SWAP5 POP DUP11 ISZERO PUSH2 0x182B JUMPI PUSH1 0x0 DUP6 SLT ISZERO PUSH2 0x16F3 JUMPI PUSH2 0x16F3 PUSH32 0x0 DUP14 DUP8 PUSH1 0x0 SUB PUSH2 0x51C1 JUMP JUMPDEST PUSH1 0x0 PUSH2 0x16FD PUSH2 0x539D JUMP JUMPDEST SWAP1 POP CALLER PUSH20 0xFFFFFFFFFFFFFFFFFFFFFFFFFFFFFFFFFFFFFFFF AND PUSH4 0xFA461E33 DUP9 DUP9 DUP13 DUP13 PUSH1 0x40 MLOAD DUP6 PUSH4 0xFFFFFFFF AND PUSH1 0xE0 SHL DUP2 MSTORE PUSH1 0x4 ADD DUP1 DUP6 DUP2 MSTORE PUSH1 0x20 ADD DUP5 DUP2 MSTORE PUSH1 0x20 ADD DUP1 PUSH1 0x20 ADD DUP3 DUP2 SUB DUP3 MSTORE DUP5 DUP5 DUP3 DUP2 DUP2 MSTORE PUSH1 0x20 ADD SWAP3 POP DUP1 DUP3 DUP5 CALLDATACOPY PUSH1 0x0 DUP2 DUP5 ADD MSTORE PUSH1 0x1F NOT PUSH1 0x1F DUP3 ADD AND SWAP1 POP DUP1 DUP4 ADD SWAP3 POP POP POP SWAP6 POP POP POP POP POP POP PUSH1 0x0 PUSH1 0x40 MLOAD DUP1 DUP4 SUB DUP2 PUSH1 0x0 DUP8 DUP1 EXTCODESIZE ISZERO DUP1 ISZERO PUSH2 0x178E JUMPI PUSH1 0x0 DUP1 REVERT JUMPDEST POP GAS CALL ISZERO DUP1 ISZERO PUSH2 0x17A2 JUMPI RETURNDATASIZE PUSH1 0x0 DUP1 RETURNDATACOPY RETURNDATASIZE PUSH1 0x0 REVERT JUMPDEST POP POP POP POP PUSH2 0x17AE PUSH2 0x539D JUMP JUMPDEST PUSH2 0x17B8 DUP3 DUP10 PUSH2 0x552F JUMP JUMPDEST GT ISZERO PUSH2 0x1825 JUMPI PUSH1 0x40 DUP1 MLOAD PUSH32 0x8C379A000000000000000000000000000000000000000000000000000000000 DUP2 MSTORE PUSH1 0x20 PUSH1 0x4 DUP3 ADD MSTORE PUSH1 0x3 PUSH1 0x24 DUP3 ADD MSTORE PUSH32 0x4949410000000000000000000000000000000000000000000000000000000000 PUSH1 0x44 DUP3 ADD MSTORE SWAP1 MLOAD SWAP1 DUP2 SWAP1 SUB PUSH1 0x64 ADD SWAP1 REVERT JUMPDEST POP PUSH2 0x1996 JUMP JUMPDEST PUSH1 0x0 DUP7 SLT ISZERO PUSH2 0x1862 JUMPI PUSH2 0x1862 PUSH32 0x0 DUP14 DUP9 PUSH1 0x0 SUB PUSH2 0x51C1 JUMP JUMPDEST PUSH1 0x0 PUSH2 0x186C PUSH2 0x553F JUMP JUMPDEST SWAP1 POP CALLER PUSH20 0xFFFFFFFFFFFFFFFFFFFFFFFFFFFFFFFFFFFFFFFF AND PUSH4 0xFA461E33 DUP9 DUP9 DUP13 DUP13 PUSH1 0x40 MLOAD DUP6 PUSH4 0xFFFFFFFF AND PUSH1 0xE0 SHL DUP2 MSTORE PUSH1 0x4 ADD DUP1 DUP6 DUP2 MSTORE PUSH1 0x20 ADD DUP5 DUP2 MSTORE PUSH1 0x20 ADD DUP1 PUSH1 0x20 ADD DUP3 DUP2 SUB DUP3 MSTORE DUP5 DUP5 DUP3 DUP2 DUP2 MSTORE PUSH1 0x20 ADD SWAP3 POP DUP1 DUP3 DUP5 CALLDATACOPY PUSH1 0x0 DUP2 DUP5 ADD MSTORE PUSH1 0x1F NOT PUSH1 0x1F DUP3 ADD AND SWAP1 POP DUP1 DUP4 ADD SWAP3 POP POP POP SWAP6 POP POP POP POP POP POP PUSH1 0x0 PUSH1 0x40 MLOAD DUP1 DUP4 SUB DUP2 PUSH1 0x0 DUP8 DUP1 EXTCODESIZE ISZERO DUP1 ISZERO PUSH2 0x18FD JUMPI PUSH1 0x0 DUP1 REVERT JUMPDEST POP GAS CALL ISZERO DUP1 ISZERO PUSH2 0x1911 JUMPI RETURNDATASIZE PUSH1 0x0 DUP1 RETURNDATACOPY RETURNDATASIZE PUSH1 0x0 REVERT JUMPDEST POP POP POP POP PUSH2 0x191D PUSH2 0x553F JUMP JUMPDEST PUSH2 0x1927 DUP3 DUP9 PUSH2 0x552F JUMP JUMPDEST GT ISZERO PUSH2 0x1994 JUMPI PUSH1 0x40 DUP1 MLOAD PUSH32 0x8C379A000000000000000000000000000000000000000000000000000000000 DUP2 MSTORE PUSH1 0x20 PUSH1 0x4 DUP3 ADD MSTORE PUSH1 0x3 PUSH1 0x24 DUP3 ADD MSTORE PUSH32 0x4949410000000000000000000000000000000000000000000000000000000000 PUSH1 0x44 DUP3 ADD MSTORE SWAP1 MLOAD SWAP1 DUP2 SWAP1 SUB PUSH1 0x64 ADD SWAP1 REVERT JUMPDEST POP JUMPDEST PUSH1 0x40 DUP1 DUP3 ADD MLOAD PUSH1 0xC0 DUP4 ADD MLOAD PUSH1 0x60 DUP1 DUP6 ADD MLOAD DUP5 MLOAD DUP12 DUP2 MSTORE PUSH1 0x20 DUP2 ADD DUP12 SWAP1 MSTORE PUSH20 0xFFFFFFFFFFFFFFFFFFFFFFFFFFFFFFFFFFFFFFFF SWAP5 DUP6 AND DUP2 DUP8 ADD MSTORE PUSH16 0xFFFFFFFFFFFFFFFFFFFFFFFFFFFFFFFF SWAP1 SWAP4 AND SWAP2 DUP4 ADD SWAP2 SWAP1 SWAP2 MSTORE PUSH1 0x2 SIGNEXTEND PUSH1 0x80 DUP3 ADD MSTORE SWAP2 MLOAD SWAP1 DUP15 AND SWAP2 CALLER SWAP2 PUSH32 0xC42079F94A6350D7E6235F29174924F928CC2AC818EB64FED8004E115FBCCA67 SWAP2 DUP2 SWAP1 SUB PUSH1 0xA0 ADD SWAP1 LOG3 POP POP PUSH1 0x0 DUP1 SLOAD PUSH32 0xFF00FFFFFFFFFFFFFFFFFFFFFFFFFFFFFFFFFFFFFFFFFFFFFFFFFFFFFFFFFFFF AND PUSH31 0x1000000000000000000000000000000000000000000000000000000000000 OR SWAP1 SSTORE POP SWAP2 SWAP9 SWAP1 SWAP8 POP SWAP6 POP POP POP POP POP POP JUMP JUMPDEST PUSH1 0x4 SLOAD PUSH16 0xFFFFFFFFFFFFFFFFFFFFFFFFFFFFFFFF AND DUP2 JUMP JUMPDEST PUSH1 0x3 SLOAD PUSH16 0xFFFFFFFFFFFFFFFFFFFFFFFFFFFFFFFF DUP1 DUP3 AND SWAP2 PUSH17 0x100000000000000000000000000000000 SWAP1 DIV AND DUP3 JUMP JUMPDEST PUSH1 0x8 DUP2 PUSH2 0xFFFF DUP2 LT PUSH2 0x1AD7 JUMPI PUSH1 0x0 DUP1 REVERT JUMPDEST ADD SLOAD PUSH4 0xFFFFFFFF DUP2 AND SWAP2 POP PUSH5 0x100000000 DUP2 DIV PUSH1 0x6 SIGNEXTEND SWAP1 PUSH12 0x10000000000000000000000 DUP2 DIV PUSH20 0xFFFFFFFFFFFFFFFFFFFFFFFFFFFFFFFFFFFFFFFF AND SWAP1 PUSH32 0x100000000000000000000000000000000000000000000000000000000000000 SWAP1 DIV PUSH1 0xFF AND DUP5 JUMP JUMPDEST PUSH1 0x0 SLOAD PUSH31 0x1000000000000000000000000000000000000000000000000000000000000 SWAP1 DIV PUSH1 0xFF AND PUSH2 0x1BD0 JUMPI PUSH1 0x40 DUP1 MLOAD PUSH32 0x8C379A000000000000000000000000000000000000000000000000000000000 DUP2 MSTORE PUSH1 0x20 PUSH1 0x4 DUP3 ADD MSTORE PUSH1 0x3 PUSH1 0x24 DUP3 ADD MSTORE PUSH32 0x4C4F4B0000000000000000000000000000000000000000000000000000000000 PUSH1 0x44 DUP3 ADD MSTORE SWAP1 MLOAD SWAP1 DUP2 SWAP1 SUB PUSH1 0x64 ADD SWAP1 REVERT JUMPDEST PUSH1 0x0 DUP1 SLOAD PUSH32 0xFF00FFFFFFFFFFFFFFFFFFFFFFFFFFFFFFFFFFFFFFFFFFFFFFFFFFFFFFFFFFFF AND SWAP1 SSTORE PUSH2 0x1C00 PUSH2 0x3EB4 JUMP JUMPDEST PUSH1 0x0 DUP1 SLOAD PUSH28 0x1000000000000000000000000000000000000000000000000000000 SWAP1 DIV PUSH2 0xFFFF AND SWAP1 PUSH2 0x1C34 PUSH1 0x8 DUP4 DUP6 PUSH2 0x5630 JUMP JUMPDEST PUSH1 0x0 DUP1 SLOAD PUSH2 0xFFFF DUP1 DUP5 AND PUSH28 0x1000000000000000000000000000000000000000000000000000000 DUP2 MUL PUSH32 0xFFFFFF0000FFFFFFFFFFFFFFFFFFFFFFFFFFFFFFFFFFFFFFFFFFFFFFFFFFFFFF SWAP1 SWAP4 AND SWAP3 SWAP1 SWAP3 OR SWAP1 SWAP3 SSTORE SWAP2 SWAP3 POP DUP4 AND EQ PUSH2 0x1CD3 JUMPI PUSH1 0x40 DUP1 MLOAD PUSH2 0xFFFF DUP1 DUP6 AND DUP3 MSTORE DUP4 AND PUSH1 0x20 DUP3 ADD MSTORE DUP2 MLOAD PUSH32 0xAC49E518F90A358F652E4400164F05A5D8F7E35E7747279BC3A93DBF584E125A SWAP3 SWAP2 DUP2 SWAP1 SUB SWAP1 SWAP2 ADD SWAP1 LOG1 JUMPDEST POP POP PUSH1 0x0 DUP1 SLOAD PUSH32 0xFF00FFFFFFFFFFFFFFFFFFFFFFFFFFFFFFFFFFFFFFFFFFFFFFFFFFFFFFFFFFFF AND PUSH31 0x1000000000000000000000000000000000000000000000000000000000000 OR SWAP1 SSTORE POP JUMP JUMPDEST PUSH1 0x0 SLOAD PUSH20 0xFFFFFFFFFFFFFFFFFFFFFFFFFFFFFFFFFFFFFFFF DUP2 AND SWAP1 PUSH21 0x10000000000000000000000000000000000000000 DUP2 DIV PUSH1 0x2 SIGNEXTEND SWAP1 PUSH2 0xFFFF PUSH24 0x10000000000000000000000000000000000000000000000 DUP3 DIV DUP2 AND SWAP2 PUSH26 0x100000000000000000000000000000000000000000000000000 DUP2 DIV DUP3 AND SWAP2 PUSH28 0x1000000000000000000000000000000000000000000000000000000 DUP3 DIV AND SWAP1 PUSH1 0xFF PUSH30 0x10000000000000000000000000000000000000000000000000000000000 DUP3 DIV DUP2 AND SWAP2 PUSH31 0x1000000000000000000000000000000000000000000000000000000000000 SWAP1 DIV AND DUP8 JUMP JUMPDEST PUSH1 0x0 DUP1 SLOAD DUP2 SWAP1 PUSH31 0x1000000000000000000000000000000000000000000000000000000000000 SWAP1 DIV PUSH1 0xFF AND PUSH2 0x1E9C JUMPI PUSH1 0x40 DUP1 MLOAD PUSH32 0x8C379A000000000000000000000000000000000000000000000000000000000 DUP2 MSTORE PUSH1 0x20 PUSH1 0x4 DUP3 ADD MSTORE PUSH1 0x3 PUSH1 0x24 DUP3 ADD MSTORE PUSH32 0x4C4F4B0000000000000000000000000000000000000000000000000000000000 PUSH1 0x44 DUP3 ADD MSTORE SWAP1 MLOAD SWAP1 DUP2 SWAP1 SUB PUSH1 0x64 ADD SWAP1 REVERT JUMPDEST PUSH1 0x0 DUP1 SLOAD PUSH32 0xFF00FFFFFFFFFFFFFFFFFFFFFFFFFFFFFFFFFFFFFFFFFFFFFFFFFFFFFFFFFFFF AND SWAP1 SSTORE PUSH16 0xFFFFFFFFFFFFFFFFFFFFFFFFFFFFFFFF DUP6 AND PUSH2 0x1EE0 JUMPI PUSH1 0x0 DUP1 REVERT JUMPDEST PUSH1 0x0 DUP1 PUSH2 0x1F44 PUSH1 0x40 MLOAD DUP1 PUSH1 0x80 ADD PUSH1 0x40 MSTORE DUP1 DUP13 PUSH20 0xFFFFFFFFFFFFFFFFFFFFFFFFFFFFFFFFFFFFFFFF AND DUP2 MSTORE PUSH1 0x20 ADD DUP12 PUSH1 0x2 SIGNEXTEND DUP2 MSTORE PUSH1 0x20 ADD DUP11 PUSH1 0x2 SIGNEXTEND DUP2 MSTORE PUSH1 0x20 ADD PUSH2 0x1F3A DUP11 PUSH16 0xFFFFFFFFFFFFFFFFFFFFFFFFFFFFFFFF AND PUSH2 0x5724 JUMP JUMPDEST PUSH1 0xF SIGNEXTEND SWAP1 MSTORE PUSH2 0x5735 JUMP JUMPDEST SWAP3 POP SWAP3 POP POP DUP2 SWAP4 POP DUP1 SWAP3 POP PUSH1 0x0 DUP1 PUSH1 0x0 DUP7 GT ISZERO PUSH2 0x1F66 JUMPI PUSH2 0x1F63 PUSH2 0x539D JUMP JUMPDEST SWAP2 POP JUMPDEST DUP5 ISZERO PUSH2 0x1F77 JUMPI PUSH2 0x1F74 PUSH2 0x553F JUMP JUMPDEST SWAP1 POP JUMPDEST CALLER PUSH20 0xFFFFFFFFFFFFFFFFFFFFFFFFFFFFFFFFFFFFFFFF AND PUSH4 0xD3487997 DUP8 DUP8 DUP12 DUP12 PUSH1 0x40 MLOAD DUP6 PUSH4 0xFFFFFFFF AND PUSH1 0xE0 SHL DUP2 MSTORE PUSH1 0x4 ADD DUP1 DUP6 DUP2 MSTORE PUSH1 0x20 ADD DUP5 DUP2 MSTORE PUSH1 0x20 ADD DUP1 PUSH1 0x20 ADD DUP3 DUP2 SUB DUP3 MSTORE DUP5 DUP5 DUP3 DUP2 DUP2 MSTORE PUSH1 0x20 ADD SWAP3 POP DUP1 DUP3 DUP5 CALLDATACOPY PUSH1 0x0 DUP2 DUP5 ADD MSTORE PUSH1 0x1F NOT PUSH1 0x1F DUP3 ADD AND SWAP1 POP DUP1 DUP4 ADD SWAP3 POP POP POP SWAP6 POP POP POP POP POP POP PUSH1 0x0 PUSH1 0x40 MLOAD DUP1 DUP4 SUB DUP2 PUSH1 0x0 DUP8 DUP1 EXTCODESIZE ISZERO DUP1 ISZERO PUSH2 0x2006 JUMPI PUSH1 0x0 DUP1 REVERT JUMPDEST POP GAS CALL ISZERO DUP1 ISZERO PUSH2 0x201A JUMPI RETURNDATASIZE PUSH1 0x0 DUP1 RETURNDATACOPY RETURNDATASIZE PUSH1 0x0 REVERT JUMPDEST POP POP POP POP PUSH1 0x0 DUP7 GT ISZERO PUSH2 0x20A6 JUMPI PUSH2 0x202F PUSH2 0x539D JUMP JUMPDEST PUSH2 0x2039 DUP4 DUP9 PUSH2 0x552F JUMP JUMPDEST GT ISZERO PUSH2 0x20A6 JUMPI PUSH1 0x40 DUP1 MLOAD PUSH32 0x8C379A000000000000000000000000000000000000000000000000000000000 DUP2 MSTORE PUSH1 0x20 PUSH1 0x4 DUP3 ADD MSTORE PUSH1 0x2 PUSH1 0x24 DUP3 ADD MSTORE PUSH32 0x4D30000000000000000000000000000000000000000000000000000000000000 PUSH1 0x44 DUP3 ADD MSTORE SWAP1 MLOAD SWAP1 DUP2 SWAP1 SUB PUSH1 0x64 ADD SWAP1 REVERT JUMPDEST DUP5 ISZERO PUSH2 0x212B JUMPI PUSH2 0x20B4 PUSH2 0x553F JUMP JUMPDEST PUSH2 0x20BE DUP3 DUP8 PUSH2 0x552F JUMP JUMPDEST GT ISZERO PUSH2 0x212B JUMPI PUSH1 0x40 DUP1 MLOAD PUSH32 0x8C379A000000000000000000000000000000000000000000000000000000000 DUP2 MSTORE PUSH1 0x20 PUSH1 0x4 DUP3 ADD MSTORE PUSH1 0x2 PUSH1 0x24 DUP3 ADD MSTORE PUSH32 0x4D31000000000000000000000000000000000000000000000000000000000000 PUSH1 0x44 DUP3 ADD MSTORE SWAP1 MLOAD SWAP1 DUP2 SWAP1 SUB PUSH1 0x64 ADD SWAP1 REVERT JUMPDEST DUP10 PUSH1 0x2 SIGNEXTEND DUP12 PUSH1 0x2 SIGNEXTEND DUP14 PUSH20 0xFFFFFFFFFFFFFFFFFFFFFFFFFFFFFFFFFFFFFFFF AND PUSH32 0x7A53080BA414158BE7EC69B987B5FB7D07DEE101FE85488F0853AE16239D0BDE CALLER DUP14 DUP12 DUP12 PUSH1 0x40 MLOAD DUP1 DUP6 PUSH20 0xFFFFFFFFFFFFFFFFFFFFFFFFFFFFFFFFFFFFFFFF AND DUP2 MSTORE PUSH1 0x20 ADD DUP5 PUSH16 0xFFFFFFFFFFFFFFFFFFFFFFFFFFFFFFFF AND DUP2 MSTORE PUSH1 0x20 ADD DUP4 DUP2 MSTORE PUSH1 0x20 ADD DUP3 DUP2 MSTORE PUSH1 0x20 ADD SWAP5 POP POP POP POP POP PUSH1 0x40 MLOAD DUP1 SWAP2 SUB SWAP1 LOG4 POP POP PUSH1 0x0 DUP1 SLOAD PUSH32 0xFF00FFFFFFFFFFFFFFFFFFFFFFFFFFFFFFFFFFFFFFFFFFFFFFFFFFFFFFFFFFFF AND PUSH31 0x1000000000000000000000000000000000000000000000000000000000000 OR SWAP1 SSTORE POP SWAP2 SWAP9 SWAP1 SWAP8 POP SWAP6 POP POP POP POP POP POP JUMP JUMPDEST PUSH1 0x2 SLOAD DUP2 JUMP JUMPDEST PUSH1 0x0 SLOAD PUSH31 0x1000000000000000000000000000000000000000000000000000000000000 SWAP1 DIV PUSH1 0xFF AND PUSH2 0x22B4 JUMPI PUSH1 0x40 DUP1 MLOAD PUSH32 0x8C379A000000000000000000000000000000000000000000000000000000000 DUP2 MSTORE PUSH1 0x20 PUSH1 0x4 DUP3 ADD MSTORE PUSH1 0x3 PUSH1 0x24 DUP3 ADD MSTORE PUSH32 0x4C4F4B0000000000000000000000000000000000000000000000000000000000 PUSH1 0x44 DUP3 ADD MSTORE SWAP1 MLOAD SWAP1 DUP2 SWAP1 SUB PUSH1 0x64 ADD SWAP1 REVERT JUMPDEST PUSH1 0x0 DUP1 SLOAD PUSH32 0xFF00FFFFFFFFFFFFFFFFFFFFFFFFFFFFFFFFFFFFFFFFFFFFFFFFFFFFFFFFFFFF AND SWAP1 SSTORE PUSH2 0x22E4 PUSH2 0x3EB4 JUMP JUMPDEST PUSH1 0x4 SLOAD PUSH16 0xFFFFFFFFFFFFFFFFFFFFFFFFFFFFFFFF AND DUP1 PUSH2 0x2365 JUMPI PUSH1 0x40 DUP1 MLOAD PUSH32 0x8C379A000000000000000000000000000000000000000000000000000000000 DUP2 MSTORE PUSH1 0x20 PUSH1 0x4 DUP3 ADD MSTORE PUSH1 0x1 PUSH1 0x24 DUP3 ADD MSTORE PUSH32 0x4C00000000000000000000000000000000000000000000000000000000000000 PUSH1 0x44 DUP3 ADD MSTORE SWAP1 MLOAD SWAP1 DUP2 SWAP1 SUB PUSH1 0x64 ADD SWAP1 REVERT JUMPDEST PUSH1 0x0 PUSH2 0x239A DUP7 PUSH32 0x0 PUSH3 0xFFFFFF AND PUSH3 0xF4240 PUSH2 0x5A92 JUMP JUMPDEST SWAP1 POP PUSH1 0x0 PUSH2 0x23D1 DUP7 PUSH32 0x0 PUSH3 0xFFFFFF AND PUSH3 0xF4240 PUSH2 0x5A92 JUMP JUMPDEST SWAP1 POP PUSH1 0x0 PUSH2 0x23DD PUSH2 0x539D JUMP JUMPDEST SWAP1 POP PUSH1 0x0 PUSH2 0x23E9 PUSH2 0x553F JUMP JUMPDEST SWAP1 POP DUP9 ISZERO PUSH2 0x241C JUMPI PUSH2 0x241C PUSH32 0x0 DUP12 DUP12 PUSH2 0x51C1 JUMP JUMPDEST DUP8 ISZERO PUSH2 0x244D JUMPI PUSH2 0x244D PUSH32 0x0 DUP12 DUP11 PUSH2 0x51C1 JUMP JUMPDEST CALLER PUSH20 0xFFFFFFFFFFFFFFFFFFFFFFFFFFFFFFFFFFFFFFFF AND PUSH4 0xE9CBAFB0 DUP6 DUP6 DUP11 DUP11 PUSH1 0x40 MLOAD DUP6 PUSH4 0xFFFFFFFF AND PUSH1 0xE0 SHL DUP2 MSTORE PUSH1 0x4 ADD DUP1 DUP6 DUP2 MSTORE PUSH1 0x20 ADD DUP5 DUP2 MSTORE PUSH1 0x20 ADD DUP1 PUSH1 0x20 ADD DUP3 DUP2 SUB DUP3 MSTORE DUP5 DUP5 DUP3 DUP2 DUP2 MSTORE PUSH1 0x20 ADD SWAP3 POP DUP1 DUP3 DUP5 CALLDATACOPY PUSH1 0x0 DUP2 DUP5 ADD MSTORE PUSH1 0x1F NOT PUSH1 0x1F DUP3 ADD AND SWAP1 POP DUP1 DUP4 ADD SWAP3 POP POP POP SWAP6 POP POP POP POP POP POP PUSH1 0x0 PUSH1 0x40 MLOAD DUP1 DUP4 SUB DUP2 PUSH1 0x0 DUP8 DUP1 EXTCODESIZE ISZERO DUP1 ISZERO PUSH2 0x24DC JUMPI PUSH1 0x0 DUP1 REVERT JUMPDEST POP GAS CALL ISZERO DUP1 ISZERO PUSH2 0x24F0 JUMPI RETURNDATASIZE PUSH1 0x0 DUP1 RETURNDATACOPY RETURNDATASIZE PUSH1 0x0 REVERT JUMPDEST POP POP POP POP PUSH1 0x0 PUSH2 0x24FE PUSH2 0x539D JUMP JUMPDEST SWAP1 POP PUSH1 0x0 PUSH2 0x250A PUSH2 0x553F JUMP JUMPDEST SWAP1 POP DUP2 PUSH2 0x2517 DUP6 DUP9 PUSH2 0x552F JUMP JUMPDEST GT ISZERO PUSH2 0x2584 JUMPI PUSH1 0x40 DUP1 MLOAD PUSH32 0x8C379A000000000000000000000000000000000000000000000000000000000 DUP2 MSTORE PUSH1 0x20 PUSH1 0x4 DUP3 ADD MSTORE PUSH1 0x2 PUSH1 0x24 DUP3 ADD MSTORE PUSH32 0x4630000000000000000000000000000000000000000000000000000000000000 PUSH1 0x44 DUP3 ADD MSTORE SWAP1 MLOAD SWAP1 DUP2 SWAP1 SUB PUSH1 0x64 ADD SWAP1 REVERT JUMPDEST DUP1 PUSH2 0x258F DUP5 DUP8 PUSH2 0x552F JUMP JUMPDEST GT ISZERO PUSH2 0x25FC JUMPI PUSH1 0x40 DUP1 MLOAD PUSH32 0x8C379A000000000000000000000000000000000000000000000000000000000 DUP2 MSTORE PUSH1 0x20 PUSH1 0x4 DUP3 ADD MSTORE PUSH1 0x2 PUSH1 0x24 DUP3 ADD MSTORE PUSH32 0x4631000000000000000000000000000000000000000000000000000000000000 PUSH1 0x44 DUP3 ADD MSTORE SWAP1 MLOAD SWAP1 DUP2 SWAP1 SUB PUSH1 0x64 ADD SWAP1 REVERT JUMPDEST DUP4 DUP3 SUB DUP4 DUP3 SUB DUP2 ISZERO PUSH2 0x26E5 JUMPI PUSH1 0x0 DUP1 SLOAD PUSH30 0x10000000000000000000000000000000000000000000000000000000000 SWAP1 DIV PUSH1 0xF AND SWAP1 DUP2 ISZERO PUSH2 0x2649 JUMPI DUP2 PUSH1 0xFF AND DUP5 DUP2 PUSH2 0x2643 JUMPI INVALID JUMPDEST DIV PUSH2 0x264C JUMP JUMPDEST PUSH1 0x0 JUMPDEST SWAP1 POP PUSH16 0xFFFFFFFFFFFFFFFFFFFFFFFFFFFFFFFF DUP2 AND ISZERO PUSH2 0x26A9 JUMPI PUSH1 0x3 DUP1 SLOAD PUSH16 0xFFFFFFFFFFFFFFFFFFFFFFFFFFFFFFFF DUP1 DUP3 AND DUP5 ADD AND PUSH32 0xFFFFFFFFFFFFFFFFFFFFFFFFFFFFFFFF00000000000000000000000000000000 SWAP1 SWAP2 AND OR SWAP1 SSTORE JUMPDEST PUSH2 0x26D9 DUP2 DUP6 SUB PUSH17 0x100000000000000000000000000000000 DUP14 PUSH16 0xFFFFFFFFFFFFFFFFFFFFFFFFFFFFFFFF AND PUSH2 0x4697 JUMP JUMPDEST PUSH1 0x1 DUP1 SLOAD SWAP1 SWAP2 ADD SWAP1 SSTORE POP POP JUMPDEST DUP1 ISZERO PUSH2 0x27BF JUMPI PUSH1 0x0 DUP1 SLOAD PUSH30 0x10000000000000000000000000000000000000000000000000000000000 SWAP1 DIV PUSH1 0x4 SHR PUSH1 0xF AND SWAP1 DUP2 ISZERO PUSH2 0x272F JUMPI DUP2 PUSH1 0xFF AND DUP4 DUP2 PUSH2 0x2729 JUMPI INVALID JUMPDEST DIV PUSH2 0x2732 JUMP JUMPDEST PUSH1 0x0 JUMPDEST SWAP1 POP PUSH16 0xFFFFFFFFFFFFFFFFFFFFFFFFFFFFFFFF DUP2 AND ISZERO PUSH2 0x2783 JUMPI PUSH1 0x3 DUP1 SLOAD PUSH16 0xFFFFFFFFFFFFFFFFFFFFFFFFFFFFFFFF PUSH17 0x100000000000000000000000000000000 DUP1 DUP4 DIV DUP3 AND DUP6 ADD DUP3 AND MUL SWAP2 AND OR SWAP1 SSTORE JUMPDEST PUSH2 0x27B3 DUP2 DUP5 SUB PUSH17 0x100000000000000000000000000000000 DUP14 PUSH16 0xFFFFFFFFFFFFFFFFFFFFFFFFFFFFFFFF AND PUSH2 0x4697 JUMP JUMPDEST PUSH1 0x2 DUP1 SLOAD SWAP1 SWAP2 ADD SWAP1 SSTORE POP POP JUMPDEST DUP14 PUSH20 0xFFFFFFFFFFFFFFFFFFFFFFFFFFFFFFFFFFFFFFFF AND CALLER PUSH20 0xFFFFFFFFFFFFFFFFFFFFFFFFFFFFFFFFFFFFFFFF AND PUSH32 0xBDBDB71D7860376BA52B25A5028BEEA23581364A40522F6BCFB86BB1F2DCA633 DUP16 DUP16 DUP7 DUP7 PUSH1 0x40 MLOAD DUP1 DUP6 DUP2 MSTORE PUSH1 0x20 ADD DUP5 DUP2 MSTORE PUSH1 0x20 ADD DUP4 DUP2 MSTORE PUSH1 0x20 ADD DUP3 DUP2 MSTORE PUSH1 0x20 ADD SWAP5 POP POP POP POP POP PUSH1 0x40 MLOAD DUP1 SWAP2 SUB SWAP1 LOG3 POP POP PUSH1 0x0 DUP1 SLOAD PUSH32 0xFF00FFFFFFFFFFFFFFFFFFFFFFFFFFFFFFFFFFFFFFFFFFFFFFFFFFFFFFFFFFFF AND PUSH31 0x1000000000000000000000000000000000000000000000000000000000000 OR SWAP1 SSTORE POP POP POP POP POP POP POP POP POP POP POP POP JUMP JUMPDEST PUSH1 0x0 DUP1 SLOAD DUP2 SWAP1 PUSH31 0x1000000000000000000000000000000000000000000000000000000000000 SWAP1 DIV PUSH1 0xFF AND PUSH2 0x292B JUMPI PUSH1 0x40 DUP1 MLOAD PUSH32 0x8C379A000000000000000000000000000000000000000000000000000000000 DUP2 MSTORE PUSH1 0x20 PUSH1 0x4 DUP3 ADD MSTORE PUSH1 0x3 PUSH1 0x24 DUP3 ADD MSTORE PUSH32 0x4C4F4B0000000000000000000000000000000000000000000000000000000000 PUSH1 0x44 DUP3 ADD MSTORE SWAP1 MLOAD SWAP1 DUP2 SWAP1 SUB PUSH1 0x64 ADD SWAP1 REVERT JUMPDEST PUSH1 0x0 DUP1 SLOAD PUSH32 0xFF00FFFFFFFFFFFFFFFFFFFFFFFFFFFFFFFFFFFFFFFFFFFFFFFFFFFFFFFFFFFF AND DUP2 SSTORE PUSH2 0x2960 PUSH1 0x7 CALLER DUP10 DUP10 PUSH2 0x5AEA JUMP JUMPDEST PUSH1 0x3 DUP2 ADD SLOAD SWAP1 SWAP2 POP PUSH16 0xFFFFFFFFFFFFFFFFFFFFFFFFFFFFFFFF SWAP1 DUP2 AND SWAP1 DUP7 AND GT PUSH2 0x298A JUMPI DUP5 PUSH2 0x29A2 JUMP JUMPDEST PUSH1 0x3 DUP2 ADD SLOAD PUSH16 0xFFFFFFFFFFFFFFFFFFFFFFFFFFFFFFFF AND JUMPDEST PUSH1 0x3 DUP3 ADD SLOAD SWAP1 SWAP4 POP PUSH16 0xFFFFFFFFFFFFFFFFFFFFFFFFFFFFFFFF PUSH17 0x100000000000000000000000000000000 SWAP1 SWAP2 DIV DUP2 AND SWAP1 DUP6 AND GT PUSH2 0x29E0 JUMPI DUP4 PUSH2 0x2A0C JUMP JUMPDEST PUSH1 0x3 DUP2 ADD SLOAD PUSH17 0x100000000000000000000000000000000 SWAP1 DIV PUSH16 0xFFFFFFFFFFFFFFFFFFFFFFFFFFFFFFFF AND JUMPDEST SWAP2 POP PUSH16 0xFFFFFFFFFFFFFFFFFFFFFFFFFFFFFFFF DUP4 AND ISZERO PUSH2 0x2A9B JUMPI PUSH1 0x3 DUP2 ADD DUP1 SLOAD PUSH32 0xFFFFFFFFFFFFFFFFFFFFFFFFFFFFFFFF00000000000000000000000000000000 DUP2 AND PUSH16 0xFFFFFFFFFFFFFFFFFFFFFFFFFFFFFFFF SWAP2 DUP3 AND DUP7 SWAP1 SUB DUP3 AND OR SWAP1 SWAP2 SSTORE PUSH2 0x2A9B SWAP1 PUSH32 0x0 SWAP1 DUP11 SWAP1 DUP7 AND PUSH2 0x51C1 JUMP JUMPDEST PUSH16 0xFFFFFFFFFFFFFFFFFFFFFFFFFFFFFFFF DUP3 AND ISZERO PUSH2 0x2B20 JUMPI PUSH1 0x3 DUP2 ADD DUP1 SLOAD PUSH16 0xFFFFFFFFFFFFFFFFFFFFFFFFFFFFFFFF PUSH17 0x100000000000000000000000000000000 DUP1 DUP4 DIV DUP3 AND DUP7 SWAP1 SUB DUP3 AND MUL SWAP2 DUP2 AND SWAP2 SWAP1 SWAP2 OR SWAP1 SWAP2 SSTORE PUSH2 0x2B20 SWAP1 PUSH32 0x0 SWAP1 DUP11 SWAP1 DUP6 AND PUSH2 0x51C1 JUMP JUMPDEST PUSH1 0x40 DUP1 MLOAD PUSH20 0xFFFFFFFFFFFFFFFFFFFFFFFFFFFFFFFFFFFFFFFF DUP11 AND DUP2 MSTORE PUSH16 0xFFFFFFFFFFFFFFFFFFFFFFFFFFFFFFFF DUP1 DUP7 AND PUSH1 0x20 DUP4 ADD MSTORE DUP5 AND DUP2 DUP4 ADD MSTORE SWAP1 MLOAD PUSH1 0x2 DUP9 DUP2 SIGNEXTEND SWAP3 SWAP1 DUP11 SWAP1 SIGNEXTEND SWAP2 CALLER SWAP2 PUSH32 0x70935338E69775456A85DDEF226C395FB668B63FA0115F5F20610B388E6CA9C0 SWAP2 SWAP1 DUP2 SWAP1 SUB PUSH1 0x60 ADD SWAP1 LOG4 POP PUSH1 0x0 DUP1 SLOAD PUSH32 0xFF00FFFFFFFFFFFFFFFFFFFFFFFFFFFFFFFFFFFFFFFFFFFFFFFFFFFFFFFFFFFF AND PUSH31 0x1000000000000000000000000000000000000000000000000000000000000 OR SWAP1 SSTORE SWAP1 SWAP7 SWAP1 SWAP6 POP SWAP4 POP POP POP POP JUMP JUMPDEST PUSH1 0x7 PUSH1 0x20 MSTORE PUSH1 0x0 SWAP1 DUP2 MSTORE PUSH1 0x40 SWAP1 KECCAK256 DUP1 SLOAD PUSH1 0x1 DUP3 ADD SLOAD PUSH1 0x2 DUP4 ADD SLOAD PUSH1 0x3 SWAP1 SWAP4 ADD SLOAD PUSH16 0xFFFFFFFFFFFFFFFFFFFFFFFFFFFFFFFF SWAP3 DUP4 AND SWAP4 SWAP2 SWAP3 DUP2 DUP2 AND SWAP2 PUSH17 0x100000000000000000000000000000000 SWAP1 DIV AND DUP6 JUMP JUMPDEST PUSH1 0x6 PUSH1 0x20 MSTORE PUSH1 0x0 SWAP1 DUP2 MSTORE PUSH1 0x40 SWAP1 KECCAK256 SLOAD DUP2 JUMP JUMPDEST PUSH32 0x0 DUP2 JUMP JUMPDEST PUSH1 0x0 SLOAD PUSH31 0x1000000000000000000000000000000000000000000000000000000000000 SWAP1 DIV PUSH1 0xFF AND PUSH2 0x2D08 JUMPI PUSH1 0x40 DUP1 MLOAD PUSH32 0x8C379A000000000000000000000000000000000000000000000000000000000 DUP2 MSTORE PUSH1 0x20 PUSH1 0x4 DUP3 ADD MSTORE PUSH1 0x3 PUSH1 0x24 DUP3 ADD MSTORE PUSH32 0x4C4F4B0000000000000000000000000000000000000000000000000000000000 PUSH1 0x44 DUP3 ADD MSTORE SWAP1 MLOAD SWAP1 DUP2 SWAP1 SUB PUSH1 0x64 ADD SWAP1 REVERT JUMPDEST PUSH1 0x0 DUP1 SLOAD PUSH32 0xFF00FFFFFFFFFFFFFFFFFFFFFFFFFFFFFFFFFFFFFFFFFFFFFFFFFFFFFFFFFFFF AND SWAP1 SSTORE PUSH1 0x40 DUP1 MLOAD PUSH32 0x8DA5CB5B00000000000000000000000000000000000000000000000000000000 DUP2 MSTORE SWAP1 MLOAD PUSH20 0xFFFFFFFFFFFFFFFFFFFFFFFFFFFFFFFFFFFFFFFF PUSH32 0x0 AND SWAP2 PUSH4 0x8DA5CB5B SWAP2 PUSH1 0x4 DUP1 DUP4 ADD SWAP3 PUSH1 0x20 SWAP3 SWAP2 SWAP1 DUP3 SWAP1 SUB ADD DUP2 DUP7 DUP1 EXTCODESIZE ISZERO DUP1 ISZERO PUSH2 0x2DB6 JUMPI PUSH1 0x0 DUP1 REVERT JUMPDEST POP GAS STATICCALL ISZERO DUP1 ISZERO PUSH2 0x2DCA JUMPI RETURNDATASIZE PUSH1 0x0 DUP1 RETURNDATACOPY RETURNDATASIZE PUSH1 0x0 REVERT JUMPDEST POP POP POP POP PUSH1 0x40 MLOAD RETURNDATASIZE PUSH1 0x20 DUP2 LT ISZERO PUSH2 0x2DE0 JUMPI PUSH1 0x0 DUP1 REVERT JUMPDEST POP MLOAD PUSH20 0xFFFFFFFFFFFFFFFFFFFFFFFFFFFFFFFFFFFFFFFF AND CALLER EQ PUSH2 0x2E03 JUMPI PUSH1 0x0 DUP1 REVERT JUMPDEST PUSH1 0xFF DUP3 AND ISZERO DUP1 PUSH2 0x2E26 JUMPI POP PUSH1 0x4 DUP3 PUSH1 0xFF AND LT ISZERO DUP1 ISZERO PUSH2 0x2E26 JUMPI POP PUSH1 0xA DUP3 PUSH1 0xFF AND GT ISZERO JUMPDEST DUP1 ISZERO PUSH2 0x2E50 JUMPI POP PUSH1 0xFF DUP2 AND ISZERO DUP1 PUSH2 0x2E50 JUMPI POP PUSH1 0x4 DUP2 PUSH1 0xFF AND LT ISZERO DUP1 ISZERO PUSH2 0x2E50 JUMPI POP PUSH1 0xA DUP2 PUSH1 0xFF AND GT ISZERO JUMPDEST PUSH2 0x2E59 JUMPI PUSH1 0x0 DUP1 REVERT JUMPDEST PUSH1 0x0 DUP1 SLOAD PUSH2 0xFF0 PUSH1 0x4 DUP5 SWAP1 SHL AND DUP5 ADD PUSH1 0xFF SWAP1 DUP2 AND PUSH30 0x10000000000000000000000000000000000000000000000000000000000 SWAP1 DUP2 MUL PUSH32 0xFFFF00FFFFFFFFFFFFFFFFFFFFFFFFFFFFFFFFFFFFFFFFFFFFFFFFFFFFFFFFFF DUP5 AND OR SWAP1 SWAP4 SSTORE SWAP2 SWAP1 DIV AND PUSH32 0x973D8D92BB299F4AF6CE49B52A8ADB85AE46B9F214C4C4FC06AC77401237B133 PUSH1 0x10 DUP3 PUSH1 0x40 DUP1 MLOAD PUSH1 0xFF SWAP4 SWAP1 SWAP3 MOD DUP4 AND DUP3 MSTORE PUSH1 0xF PUSH1 0x4 DUP7 SWAP1 SHR AND PUSH1 0x20 DUP4 ADD MSTORE DUP7 DUP4 AND DUP3 DUP3 ADD MSTORE SWAP2 DUP6 AND PUSH1 0x60 DUP3 ADD MSTORE SWAP1 MLOAD SWAP1 DUP2 SWAP1 SUB PUSH1 0x80 ADD SWAP1 LOG1 POP POP PUSH1 0x0 DUP1 SLOAD PUSH32 0xFF00FFFFFFFFFFFFFFFFFFFFFFFFFFFFFFFFFFFFFFFFFFFFFFFFFFFFFFFFFFFF AND PUSH31 0x1000000000000000000000000000000000000000000000000000000000000 OR SWAP1 SSTORE POP JUMP JUMPDEST PUSH1 0x0 DUP1 SLOAD DUP2 SWAP1 PUSH31 0x1000000000000000000000000000000000000000000000000000000000000 SWAP1 DIV PUSH1 0xFF AND PUSH2 0x2FF7 JUMPI PUSH1 0x40 DUP1 MLOAD PUSH32 0x8C379A000000000000000000000000000000000000000000000000000000000 DUP2 MSTORE PUSH1 0x20 PUSH1 0x4 DUP3 ADD MSTORE PUSH1 0x3 PUSH1 0x24 DUP3 ADD MSTORE PUSH32 0x4C4F4B0000000000000000000000000000000000000000000000000000000000 PUSH1 0x44 DUP3 ADD MSTORE SWAP1 MLOAD SWAP1 DUP2 SWAP1 SUB PUSH1 0x64 ADD SWAP1 REVERT JUMPDEST PUSH1 0x0 DUP1 SLOAD PUSH32 0xFF00FFFFFFFFFFFFFFFFFFFFFFFFFFFFFFFFFFFFFFFFFFFFFFFFFFFFFFFFFFFF AND SWAP1 SSTORE PUSH1 0x40 DUP1 MLOAD PUSH32 0x8DA5CB5B00000000000000000000000000000000000000000000000000000000 DUP2 MSTORE SWAP1 MLOAD PUSH20 0xFFFFFFFFFFFFFFFFFFFFFFFFFFFFFFFFFFFFFFFF PUSH32 0x0 AND SWAP2 PUSH4 0x8DA5CB5B SWAP2 PUSH1 0x4 DUP1 DUP4 ADD SWAP3 PUSH1 0x20 SWAP3 SWAP2 SWAP1 DUP3 SWAP1 SUB ADD DUP2 DUP7 DUP1 EXTCODESIZE ISZERO DUP1 ISZERO PUSH2 0x30A5 JUMPI PUSH1 0x0 DUP1 REVERT JUMPDEST POP GAS STATICCALL ISZERO DUP1 ISZERO PUSH2 0x30B9 JUMPI RETURNDATASIZE PUSH1 0x0 DUP1 RETURNDATACOPY RETURNDATASIZE PUSH1 0x0 REVERT JUMPDEST POP POP POP POP PUSH1 0x40 MLOAD RETURNDATASIZE PUSH1 0x20 DUP2 LT ISZERO PUSH2 0x30CF JUMPI PUSH1 0x0 DUP1 REVERT JUMPDEST POP MLOAD PUSH20 0xFFFFFFFFFFFFFFFFFFFFFFFFFFFFFFFFFFFFFFFF AND CALLER EQ PUSH2 0x30F2 JUMPI PUSH1 0x0 DUP1 REVERT JUMPDEST PUSH1 0x3 SLOAD PUSH16 0xFFFFFFFFFFFFFFFFFFFFFFFFFFFFFFFF SWAP1 DUP2 AND SWAP1 DUP6 AND GT PUSH2 0x3117 JUMPI DUP4 PUSH2 0x312D JUMP JUMPDEST PUSH1 0x3 SLOAD PUSH16 0xFFFFFFFFFFFFFFFFFFFFFFFFFFFFFFFF AND JUMPDEST PUSH1 0x3 SLOAD SWAP1 SWAP3 POP PUSH16 0xFFFFFFFFFFFFFFFFFFFFFFFFFFFFFFFF PUSH17 0x100000000000000000000000000000000 SWAP1 SWAP2 DIV DUP2 AND SWAP1 DUP5 AND GT PUSH2 0x3169 JUMPI DUP3 PUSH2 0x3193 JUMP JUMPDEST PUSH1 0x3 SLOAD PUSH17 0x100000000000000000000000000000000 SWAP1 DIV PUSH16 0xFFFFFFFFFFFFFFFFFFFFFFFFFFFFFFFF AND JUMPDEST SWAP1 POP PUSH16 0xFFFFFFFFFFFFFFFFFFFFFFFFFFFFFFFF DUP3 AND ISZERO PUSH2 0x3265 JUMPI PUSH1 0x3 SLOAD PUSH16 0xFFFFFFFFFFFFFFFFFFFFFFFFFFFFFFFF DUP4 DUP2 AND SWAP2 AND EQ ISZERO PUSH2 0x31F2 JUMPI PUSH32 0xFFFFFFFFFFFFFFFFFFFFFFFFFFFFFFFFFFFFFFFFFFFFFFFFFFFFFFFFFFFFFFFF SWAP1 SWAP2 ADD SWAP1 JUMPDEST PUSH1 0x3 DUP1 SLOAD PUSH32 0xFFFFFFFFFFFFFFFFFFFFFFFFFFFFFFFF00000000000000000000000000000000 DUP2 AND PUSH16 0xFFFFFFFFFFFFFFFFFFFFFFFFFFFFFFFF SWAP2 DUP3 AND DUP6 SWAP1 SUB DUP3 AND OR SWAP1 SWAP2 SSTORE PUSH2 0x3265 SWAP1 PUSH32 0x0 SWAP1 DUP8 SWAP1 DUP6 AND PUSH2 0x51C1 JUMP JUMPDEST PUSH16 0xFFFFFFFFFFFFFFFFFFFFFFFFFFFFFFFF DUP2 AND ISZERO PUSH2 0x333E JUMPI PUSH1 0x3 SLOAD PUSH16 0xFFFFFFFFFFFFFFFFFFFFFFFFFFFFFFFF DUP3 DUP2 AND PUSH17 0x100000000000000000000000000000000 SWAP1 SWAP3 DIV AND EQ ISZERO PUSH2 0x32D3 JUMPI PUSH32 0xFFFFFFFFFFFFFFFFFFFFFFFFFFFFFFFFFFFFFFFFFFFFFFFFFFFFFFFFFFFFFFFF ADD JUMPDEST PUSH1 0x3 DUP1 SLOAD PUSH16 0xFFFFFFFFFFFFFFFFFFFFFFFFFFFFFFFF PUSH17 0x100000000000000000000000000000000 DUP1 DUP4 DIV DUP3 AND DUP6 SWAP1 SUB DUP3 AND MUL SWAP2 DUP2 AND SWAP2 SWAP1 SWAP2 OR SWAP1 SWAP2 SSTORE PUSH2 0x333E SWAP1 PUSH32 0x0 SWAP1 DUP8 SWAP1 DUP5 AND PUSH2 0x51C1 JUMP JUMPDEST PUSH1 0x40 DUP1 MLOAD PUSH16 0xFFFFFFFFFFFFFFFFFFFFFFFFFFFFFFFF DUP1 DUP6 AND DUP3 MSTORE DUP4 AND PUSH1 0x20 DUP3 ADD MSTORE DUP2 MLOAD PUSH20 0xFFFFFFFFFFFFFFFFFFFFFFFFFFFFFFFFFFFFFFFF DUP9 AND SWAP3 CALLER SWAP3 PUSH32 0x596B573906218D3411850B26A6B437D6C4522FDB43D2D2386263F86D50B8B151 SWAP3 SWAP1 DUP2 SWAP1 SUB SWAP1 SWAP2 ADD SWAP1 LOG3 PUSH1 0x0 DUP1 SLOAD PUSH32 0xFF00FFFFFFFFFFFFFFFFFFFFFFFFFFFFFFFFFFFFFFFFFFFFFFFFFFFFFFFFFFFF AND PUSH31 0x1000000000000000000000000000000000000000000000000000000000000 OR SWAP1 SSTORE SWAP1 SWAP5 SWAP1 SWAP4 POP SWAP2 POP POP JUMP JUMPDEST PUSH1 0x60 DUP1 PUSH2 0x3404 PUSH2 0x3EB4 JUMP JUMPDEST PUSH2 0x34BF PUSH2 0x340F PUSH2 0x3EF8 JUMP JUMPDEST DUP6 DUP6 DUP1 DUP1 PUSH1 0x20 MUL PUSH1 0x20 ADD PUSH1 0x40 MLOAD SWAP1 DUP2 ADD PUSH1 0x40 MSTORE DUP1 SWAP4 SWAP3 SWAP2 SWAP1 DUP2 DUP2 MSTORE PUSH1 0x20 ADD DUP4 DUP4 PUSH1 0x20 MUL DUP1 DUP3 DUP5 CALLDATACOPY PUSH1 0x0 SWAP3 ADD DUP3 SWAP1 MSTORE POP SLOAD PUSH1 0x4 SLOAD PUSH1 0x8 SWAP7 SWAP6 SWAP5 POP PUSH21 0x10000000000000000000000000000000000000000 DUP3 DIV PUSH1 0x2 SIGNEXTEND SWAP4 POP PUSH2 0xFFFF PUSH24 0x10000000000000000000000000000000000000000000000 DUP4 DIV DUP2 AND SWAP4 POP PUSH16 0xFFFFFFFFFFFFFFFFFFFFFFFFFFFFFFFF SWAP1 SWAP2 AND SWAP2 PUSH26 0x100000000000000000000000000000000000000000000000000 SWAP1 DIV AND PUSH2 0x5B61 JUMP JUMPDEST SWAP2 POP SWAP2 POP SWAP3 POP SWAP3 SWAP1 POP JUMP JUMPDEST PUSH1 0x0 DUP1 SLOAD DUP2 SWAP1 PUSH31 0x1000000000000000000000000000000000000000000000000000000000000 SWAP1 DIV PUSH1 0xFF AND PUSH2 0x3560 JUMPI PUSH1 0x40 DUP1 MLOAD PUSH32 0x8C379A000000000000000000000000000000000000000000000000000000000 DUP2 MSTORE PUSH1 0x20 PUSH1 0x4 DUP3 ADD MSTORE PUSH1 0x3 PUSH1 0x24 DUP3 ADD MSTORE PUSH32 0x4C4F4B0000000000000000000000000000000000000000000000000000000000 PUSH1 0x44 DUP3 ADD MSTORE SWAP1 MLOAD SWAP1 DUP2 SWAP1 SUB PUSH1 0x64 ADD SWAP1 REVERT JUMPDEST PUSH1 0x0 DUP1 SLOAD PUSH32 0xFF00FFFFFFFFFFFFFFFFFFFFFFFFFFFFFFFFFFFFFFFFFFFFFFFFFFFFFFFFFFFF AND DUP2 SSTORE PUSH1 0x40 DUP1 MLOAD PUSH1 0x80 DUP2 ADD DUP3 MSTORE CALLER DUP2 MSTORE PUSH1 0x2 DUP9 DUP2 SIGNEXTEND PUSH1 0x20 DUP4 ADD MSTORE DUP8 SWAP1 SIGNEXTEND SWAP2 DUP2 ADD SWAP2 SWAP1 SWAP2 MSTORE DUP2 SWAP1 DUP2 SWAP1 PUSH2 0x35DD SWAP1 PUSH1 0x60 DUP2 ADD PUSH2 0x35D0 PUSH16 0xFFFFFFFFFFFFFFFFFFFFFFFFFFFFFFFF DUP11 AND PUSH2 0x5724 JUMP JUMPDEST PUSH1 0x0 SUB PUSH1 0xF SIGNEXTEND SWAP1 MSTORE PUSH2 0x5735 JUMP JUMPDEST SWAP3 POP SWAP3 POP SWAP3 POP DUP2 PUSH1 0x0 SUB SWAP5 POP DUP1 PUSH1 0x0 SUB SWAP4 POP PUSH1 0x0 DUP6 GT DUP1 PUSH2 0x35FE JUMPI POP PUSH1 0x0 DUP5 GT JUMPDEST ISZERO PUSH2 0x366B JUMPI PUSH1 0x3 DUP4 ADD DUP1 SLOAD PUSH16 0xFFFFFFFFFFFFFFFFFFFFFFFFFFFFFFFF DUP1 DUP3 AND DUP1 DUP10 ADD DUP3 AND PUSH17 0x100000000000000000000000000000000 SWAP4 DUP5 SWAP1 DIV DUP4 AND DUP10 ADD SWAP1 SWAP3 AND SWAP1 SWAP3 MUL SWAP1 SWAP2 OR PUSH32 0xFFFFFFFFFFFFFFFFFFFFFFFFFFFFFFFF00000000000000000000000000000000 AND OR SWAP1 SSTORE JUMPDEST PUSH1 0x40 DUP1 MLOAD PUSH16 0xFFFFFFFFFFFFFFFFFFFFFFFFFFFFFFFF DUP9 AND DUP2 MSTORE PUSH1 0x20 DUP2 ADD DUP8 SWAP1 MSTORE DUP1 DUP3 ADD DUP7 SWAP1 MSTORE SWAP1 MLOAD PUSH1 0x2 DUP10 DUP2 SIGNEXTEND SWAP3 SWAP1 DUP12 SWAP1 SIGNEXTEND SWAP2 CALLER SWAP2 PUSH32 0xC396CD989A39F4459B5FA1AED6A9A8DCDBC45908ACFD67E028CD568DA98982C SWAP2 SWAP1 DUP2 SWAP1 SUB PUSH1 0x60 ADD SWAP1 LOG4 POP POP PUSH1 0x0 DUP1 SLOAD PUSH32 0xFF00FFFFFFFFFFFFFFFFFFFFFFFFFFFFFFFFFFFFFFFFFFFFFFFFFFFFFFFFFFFF AND PUSH31 0x1000000000000000000000000000000000000000000000000000000000000 OR SWAP1 SSTORE POP SWAP1 SWAP5 SWAP1 SWAP4 POP SWAP2 POP POP JUMP JUMPDEST PUSH1 0x0 DUP1 PUSH1 0x0 PUSH2 0x372E PUSH2 0x3EB4 JUMP JUMPDEST PUSH2 0x3738 DUP6 DUP6 PUSH2 0x5D0B JUMP JUMPDEST PUSH1 0x2 DUP6 DUP2 SIGNEXTEND DUP2 SIGNEXTEND PUSH1 0x0 SWAP1 DUP2 MSTORE PUSH1 0x5 PUSH1 0x20 MSTORE PUSH1 0x40 DUP1 DUP3 KECCAK256 DUP8 DUP5 SIGNEXTEND SWAP1 SWAP4 SIGNEXTEND DUP3 MSTORE DUP2 KECCAK256 PUSH1 0x3 DUP4 ADD SLOAD PUSH1 0x6 DUP2 SWAP1 SIGNEXTEND SWAP4 PUSH8 0x100000000000000 DUP3 DIV PUSH20 0xFFFFFFFFFFFFFFFFFFFFFFFFFFFFFFFFFFFFFFFF AND SWAP3 DUP5 SWAP3 PUSH28 0x1000000000000000000000000000000000000000000000000000000 DUP2 DIV PUSH4 0xFFFFFFFF AND SWAP3 DUP5 SWAP3 SWAP1 SWAP2 PUSH32 0x100000000000000000000000000000000000000000000000000000000000000 SWAP1 DIV PUSH1 0xFF AND DUP1 PUSH2 0x37E1 JUMPI PUSH1 0x0 DUP1 REVERT JUMPDEST PUSH1 0x3 DUP3 ADD SLOAD PUSH1 0x6 DUP2 SWAP1 SIGNEXTEND SWAP9 POP PUSH8 0x100000000000000 DUP2 DIV PUSH20 0xFFFFFFFFFFFFFFFFFFFFFFFFFFFFFFFFFFFFFFFF AND SWAP7 POP PUSH28 0x1000000000000000000000000000000000000000000000000000000 DUP2 DIV PUSH4 0xFFFFFFFF AND SWAP5 POP PUSH32 0x100000000000000000000000000000000000000000000000000000000000000 SWAP1 DIV PUSH1 0xFF AND DUP1 PUSH2 0x3867 JUMPI PUSH1 0x0 DUP1 REVERT JUMPDEST POP POP PUSH1 0x40 DUP1 MLOAD PUSH1 0xE0 DUP2 ADD DUP3 MSTORE PUSH1 0x0 SLOAD PUSH20 0xFFFFFFFFFFFFFFFFFFFFFFFFFFFFFFFFFFFFFFFF DUP2 AND DUP3 MSTORE PUSH21 0x10000000000000000000000000000000000000000 DUP2 DIV PUSH1 0x2 SWAP1 DUP2 SIGNEXTEND DUP2 SIGNEXTEND DUP2 SIGNEXTEND PUSH1 0x20 DUP5 ADD DUP2 SWAP1 MSTORE PUSH2 0xFFFF PUSH24 0x10000000000000000000000000000000000000000000000 DUP5 DIV DUP2 AND SWAP6 DUP6 ADD SWAP6 SWAP1 SWAP6 MSTORE PUSH26 0x100000000000000000000000000000000000000000000000000 DUP4 DIV DUP6 AND PUSH1 0x60 DUP6 ADD MSTORE PUSH28 0x1000000000000000000000000000000000000000000000000000000 DUP4 DIV SWAP1 SWAP5 AND PUSH1 0x80 DUP5 ADD MSTORE PUSH1 0xFF PUSH30 0x10000000000000000000000000000000000000000000000000000000000 DUP4 DIV DUP2 AND PUSH1 0xA0 DUP6 ADD MSTORE PUSH31 0x1000000000000000000000000000000000000000000000000000000000000 SWAP1 SWAP3 DIV SWAP1 SWAP2 AND ISZERO ISZERO PUSH1 0xC0 DUP4 ADD MSTORE SWAP1 SWAP4 POP DUP15 DUP2 SIGNEXTEND SWAP2 SWAP1 SIGNEXTEND SLT ISZERO SWAP1 POP PUSH2 0x39A5 JUMPI POP SWAP4 SWAP1 SWAP5 SUB SWAP7 POP SWAP1 SUB SWAP4 POP SWAP1 SUB SWAP1 POP PUSH2 0x3A31 JUMP JUMPDEST DUP11 PUSH1 0x2 SIGNEXTEND DUP2 PUSH1 0x20 ADD MLOAD PUSH1 0x2 SIGNEXTEND SLT ISZERO PUSH2 0x3A22 JUMPI PUSH1 0x0 PUSH2 0x39C1 PUSH2 0x3EF8 JUMP JUMPDEST PUSH1 0x20 DUP4 ADD MLOAD PUSH1 0x40 DUP5 ADD MLOAD PUSH1 0x4 SLOAD PUSH1 0x60 DUP7 ADD MLOAD SWAP4 SWAP5 POP PUSH1 0x0 SWAP4 DUP5 SWAP4 PUSH2 0x3A00 SWAP4 PUSH1 0x8 SWAP4 DUP9 SWAP4 DUP8 SWAP4 SWAP3 SWAP2 PUSH16 0xFFFFFFFFFFFFFFFFFFFFFFFFFFFFFFFF AND SWAP1 PUSH2 0x4765 JUMP JUMPDEST SWAP11 SWAP1 SUB SWAP9 SWAP1 SWAP9 SUB SWAP12 POP POP SWAP5 SWAP1 SWAP7 SUB SWAP3 SWAP1 SWAP3 SUB SWAP7 POP SWAP1 SWAP2 SUB SUB SWAP3 POP PUSH2 0x3A31 SWAP2 POP POP JUMP JUMPDEST POP SWAP5 SWAP1 SWAP4 SUB SWAP7 POP SUB SWAP4 POP SWAP1 SUB SWAP1 POP JUMPDEST SWAP3 POP SWAP3 POP SWAP3 JUMP JUMPDEST PUSH32 0x0 DUP2 JUMP JUMPDEST PUSH32 0x0 DUP2 JUMP JUMPDEST PUSH32 0x0 DUP2 JUMP JUMPDEST PUSH32 0x0 DUP2 JUMP JUMPDEST PUSH1 0x1 SLOAD DUP2 JUMP JUMPDEST PUSH1 0x5 PUSH1 0x20 MSTORE PUSH1 0x0 SWAP1 DUP2 MSTORE PUSH1 0x40 SWAP1 KECCAK256 DUP1 SLOAD PUSH1 0x1 DUP3 ADD SLOAD PUSH1 0x2 DUP4 ADD SLOAD PUSH1 0x3 SWAP1 SWAP4 ADD SLOAD PUSH16 0xFFFFFFFFFFFFFFFFFFFFFFFFFFFFFFFF DUP4 AND SWAP4 PUSH17 0x100000000000000000000000000000000 SWAP1 SWAP4 DIV PUSH1 0xF SIGNEXTEND SWAP3 SWAP1 PUSH1 0x6 DUP2 SWAP1 SIGNEXTEND SWAP1 PUSH8 0x100000000000000 DUP2 DIV PUSH20 0xFFFFFFFFFFFFFFFFFFFFFFFFFFFFFFFFFFFFFFFF AND SWAP1 PUSH28 0x1000000000000000000000000000000000000000000000000000000 DUP2 DIV PUSH4 0xFFFFFFFF AND SWAP1 PUSH32 0x100000000000000000000000000000000000000000000000000000000000000 SWAP1 DIV PUSH1 0xFF AND DUP9 JUMP JUMPDEST PUSH1 0x0 SLOAD PUSH20 0xFFFFFFFFFFFFFFFFFFFFFFFFFFFFFFFFFFFFFFFF AND ISZERO PUSH2 0x3C18 JUMPI PUSH1 0x40 DUP1 MLOAD PUSH32 0x8C379A000000000000000000000000000000000000000000000000000000000 DUP2 MSTORE PUSH1 0x20 PUSH1 0x4 DUP3 ADD MSTORE PUSH1 0x2 PUSH1 0x24 DUP3 ADD MSTORE PUSH32 0x4149000000000000000000000000000000000000000000000000000000000000 PUSH1 0x44 DUP3 ADD MSTORE SWAP1 MLOAD SWAP1 DUP2 SWAP1 SUB PUSH1 0x64 ADD SWAP1 REVERT JUMPDEST PUSH1 0x0 PUSH2 0x3C23 DUP3 PUSH2 0x4BAF JUMP JUMPDEST SWAP1 POP PUSH1 0x0 DUP1 PUSH2 0x3C3B PUSH2 0x3C33 PUSH2 0x3EF8 JUMP JUMPDEST PUSH1 0x8 SWAP1 PUSH2 0x5E8C JUMP JUMPDEST PUSH1 0x40 DUP1 MLOAD PUSH1 0xE0 DUP2 ADD DUP3 MSTORE PUSH20 0xFFFFFFFFFFFFFFFFFFFFFFFFFFFFFFFFFFFFFFFF DUP9 AND DUP1 DUP3 MSTORE PUSH1 0x2 DUP9 DUP2 SIGNEXTEND PUSH1 0x20 DUP1 DUP6 ADD DUP3 SWAP1 MSTORE PUSH1 0x0 DUP6 DUP8 ADD DUP2 SWAP1 MSTORE PUSH2 0xFFFF DUP10 DUP2 AND PUSH1 0x60 DUP9 ADD DUP2 SWAP1 MSTORE SWAP1 DUP10 AND PUSH1 0x80 DUP9 ADD DUP2 SWAP1 MSTORE PUSH1 0xA0 DUP9 ADD DUP4 SWAP1 MSTORE PUSH1 0x1 PUSH1 0xC0 SWAP1 SWAP9 ADD SWAP8 SWAP1 SWAP8 MSTORE DUP2 SLOAD PUSH31 0x1000000000000000000000000000000000000000000000000000000000000 PUSH32 0xFFFFFFFFFFFFFFFFFFFFFFFF0000000000000000000000000000000000000000 SWAP1 SWAP2 AND DUP8 OR PUSH32 0xFFFFFFFFFFFFFFFFFF000000FFFFFFFFFFFFFFFFFFFFFFFFFFFFFFFFFFFFFFFF AND PUSH21 0x10000000000000000000000000000000000000000 PUSH3 0xFFFFFF SWAP8 DUP8 SWAP1 SIGNEXTEND SWAP8 SWAP1 SWAP8 AND SWAP7 SWAP1 SWAP7 MUL SWAP6 SWAP1 SWAP6 OR PUSH32 0xFFFFFFFFFF00000000FFFFFFFFFFFFFFFFFFFFFFFFFFFFFFFFFFFFFFFFFFFFFF AND PUSH26 0x100000000000000000000000000000000000000000000000000 SWAP1 SWAP2 MUL OR PUSH32 0xFFFFFF0000FFFFFFFFFFFFFFFFFFFFFFFFFFFFFFFFFFFFFFFFFFFFFFFFFFFFFF AND PUSH28 0x1000000000000000000000000000000000000000000000000000000 SWAP1 SWAP7 MUL SWAP6 SWAP1 SWAP6 OR PUSH32 0xFF0000FFFFFFFFFFFFFFFFFFFFFFFFFFFFFFFFFFFFFFFFFFFFFFFFFFFFFFFFFF AND SWAP3 SWAP1 SWAP3 OR SWAP1 SWAP4 SSTORE DUP4 MLOAD SWAP2 DUP3 MSTORE DUP2 ADD SWAP2 SWAP1 SWAP2 MSTORE DUP2 MLOAD SWAP4 SWAP6 POP SWAP2 SWAP4 POP PUSH32 0x98636036CB66A9C19A37435EFC1E90142190214E8ABEB821BDBA3F2990DD4C95 SWAP3 SWAP2 DUP3 SWAP1 SUB ADD SWAP1 LOG1 POP POP POP POP JUMP JUMPDEST PUSH1 0x0 DUP1 DUP3 PUSH1 0x2 DUP2 SWAP1 SIGNEXTEND PUSH32 0xFFFFFFFFFFFFFFFFFFFFFFFFFFFFFFFFFFFFFFFFFFFFFFFFFFFFFFFFFFF27618 DUP2 PUSH2 0x3E54 JUMPI INVALID JUMPDEST SDIV MUL SWAP1 POP PUSH1 0x0 DUP4 PUSH1 0x2 DUP2 SWAP1 SIGNEXTEND PUSH3 0xD89E8 DUP2 PUSH2 0x3E6B JUMPI INVALID JUMPDEST SDIV MUL SWAP1 POP PUSH1 0x0 DUP5 PUSH1 0x2 SIGNEXTEND DUP4 DUP4 SUB PUSH1 0x2 SIGNEXTEND DUP2 PUSH2 0x3E82 JUMPI INVALID JUMPDEST SDIV PUSH1 0x1 ADD SWAP1 POP DUP1 PUSH3 0xFFFFFF AND PUSH16 0xFFFFFFFFFFFFFFFFFFFFFFFFFFFFFFFF DUP1 AND DUP2 PUSH2 0x3EA8 JUMPI INVALID JUMPDEST DIV SWAP4 POP POP POP POP JUMPDEST SWAP2 SWAP1 POP JUMP JUMPDEST ADDRESS PUSH20 0xFFFFFFFFFFFFFFFFFFFFFFFFFFFFFFFFFFFFFFFF PUSH32 0x0 AND EQ PUSH2 0x3EF6 JUMPI PUSH1 0x0 DUP1 REVERT JUMPDEST JUMP JUMPDEST TIMESTAMP SWAP1 JUMP JUMPDEST PUSH1 0x0 DUP1 PUSH1 0x0 DUP5 PUSH1 0x2 SIGNEXTEND DUP7 PUSH1 0x2 SIGNEXTEND DUP2 PUSH2 0x3F10 JUMPI INVALID JUMPDEST SDIV SWAP1 POP PUSH1 0x0 DUP7 PUSH1 0x2 SIGNEXTEND SLT DUP1 ISZERO PUSH2 0x3F37 JUMPI POP DUP5 PUSH1 0x2 SIGNEXTEND DUP7 PUSH1 0x2 SIGNEXTEND DUP2 PUSH2 0x3F30 JUMPI INVALID JUMPDEST SMOD PUSH1 0x2 SIGNEXTEND ISZERO ISZERO JUMPDEST ISZERO PUSH2 0x3F5F JUMPI PUSH32 0xFFFFFFFFFFFFFFFFFFFFFFFFFFFFFFFFFFFFFFFFFFFFFFFFFFFFFFFFFFFFFFFF ADD JUMPDEST DUP4 ISZERO PUSH2 0x3FF2 JUMPI PUSH1 0x0 DUP1 PUSH2 0x3F71 DUP4 PUSH2 0x5F0F JUMP JUMPDEST PUSH1 0x1 DUP3 DUP2 SIGNEXTEND DUP2 SIGNEXTEND PUSH1 0x0 SWAP1 DUP2 MSTORE PUSH1 0x20 DUP14 SWAP1 MSTORE PUSH1 0x40 SWAP1 KECCAK256 SLOAD PUSH1 0xFF DUP4 AND SWAP2 SWAP1 SWAP2 SHL DUP1 ADD PUSH32 0xFFFFFFFFFFFFFFFFFFFFFFFFFFFFFFFFFFFFFFFFFFFFFFFFFFFFFFFFFFFFFFFF ADD SWAP1 DUP2 AND DUP1 ISZERO ISZERO SWAP8 POP SWAP3 SWAP5 POP SWAP1 SWAP3 POP SWAP1 DUP6 PUSH2 0x3FD4 JUMPI DUP9 DUP4 PUSH1 0xFF AND DUP7 SUB MUL PUSH2 0x3FE7 JUMP JUMPDEST DUP9 PUSH2 0x3FDE DUP3 PUSH2 0x5F21 JUMP JUMPDEST DUP5 SUB PUSH1 0xFF AND DUP7 SUB MUL JUMPDEST SWAP7 POP POP POP POP POP PUSH2 0x4070 JUMP JUMPDEST PUSH1 0x0 DUP1 PUSH2 0x4001 DUP4 PUSH1 0x1 ADD PUSH2 0x5F0F JUMP JUMPDEST SWAP2 POP SWAP2 POP PUSH1 0x0 PUSH1 0x1 DUP3 PUSH1 0xFF AND PUSH1 0x1 SWAP1 SHL SUB NOT SWAP1 POP PUSH1 0x0 DUP2 DUP12 PUSH1 0x0 DUP7 PUSH1 0x1 SIGNEXTEND PUSH1 0x1 SIGNEXTEND DUP2 MSTORE PUSH1 0x20 ADD SWAP1 DUP2 MSTORE PUSH1 0x20 ADD PUSH1 0x0 KECCAK256 SLOAD AND SWAP1 POP DUP1 PUSH1 0x0 EQ ISZERO SWAP6 POP DUP6 PUSH2 0x4053 JUMPI DUP9 DUP4 PUSH1 0xFF SUB PUSH1 0xFF AND DUP7 PUSH1 0x1 ADD ADD MUL PUSH2 0x4069 JUMP JUMPDEST DUP9 DUP4 PUSH2 0x405E DUP4 PUSH2 0x5FCE JUMP JUMPDEST SUB PUSH1 0xFF AND DUP7 PUSH1 0x1 ADD ADD MUL JUMPDEST SWAP7 POP POP POP POP POP JUMPDEST POP SWAP5 POP SWAP5 SWAP3 POP POP POP JUMP JUMPDEST PUSH1 0x0 DUP1 PUSH1 0x0 DUP4 PUSH1 0x2 SIGNEXTEND SLT PUSH2 0x4091 JUMPI DUP3 PUSH1 0x2 SIGNEXTEND PUSH2 0x4099 JUMP JUMPDEST DUP3 PUSH1 0x2 SIGNEXTEND PUSH1 0x0 SUB JUMPDEST SWAP1 POP PUSH3 0xD89E8 DUP2 GT ISZERO PUSH2 0x410D JUMPI PUSH1 0x40 DUP1 MLOAD PUSH32 0x8C379A000000000000000000000000000000000000000000000000000000000 DUP2 MSTORE PUSH1 0x20 PUSH1 0x4 DUP3 ADD MSTORE PUSH1 0x1 PUSH1 0x24 DUP3 ADD MSTORE PUSH32 0x5400000000000000000000000000000000000000000000000000000000000000 PUSH1 0x44 DUP3 ADD MSTORE SWAP1 MLOAD SWAP1 DUP2 SWAP1 SUB PUSH1 0x64 ADD SWAP1 REVERT JUMPDEST PUSH1 0x0 PUSH1 0x1 DUP3 AND PUSH2 0x412E JUMPI PUSH17 0x100000000000000000000000000000000 PUSH2 0x4140 JUMP JUMPDEST PUSH16 0xFFFCB933BD6FAD37AA2D162D1A594001 JUMPDEST PUSH17 0xFFFFFFFFFFFFFFFFFFFFFFFFFFFFFFFFFF AND SWAP1 POP PUSH1 0x2 DUP3 AND ISZERO PUSH2 0x4174 JUMPI PUSH16 0xFFF97272373D413259A46990580E213A MUL PUSH1 0x80 SHR JUMPDEST PUSH1 0x4 DUP3 AND ISZERO PUSH2 0x4193 JUMPI PUSH16 0xFFF2E50F5F656932EF12357CF3C7FDCC MUL PUSH1 0x80 SHR JUMPDEST PUSH1 0x8 DUP3 AND ISZERO PUSH2 0x41B2 JUMPI PUSH16 0xFFE5CACA7E10E4E61C3624EAA0941CD0 MUL PUSH1 0x80 SHR JUMPDEST PUSH1 0x10 DUP3 AND ISZERO PUSH2 0x41D1 JUMPI PUSH16 0xFFCB9843D60F6159C9DB58835C926644 MUL PUSH1 0x80 SHR JUMPDEST PUSH1 0x20 DUP3 AND ISZERO PUSH2 0x41F0 JUMPI PUSH16 0xFF973B41FA98C081472E6896DFB254C0 MUL PUSH1 0x80 SHR JUMPDEST PUSH1 0x40 DUP3 AND ISZERO PUSH2 0x420F JUMPI PUSH16 0xFF2EA16466C96A3843EC78B326B52861 MUL PUSH1 0x80 SHR JUMPDEST PUSH1 0x80 DUP3 AND ISZERO PUSH2 0x422E JUMPI PUSH16 0xFE5DEE046A99A2A811C461F1969C3053 MUL PUSH1 0x80 SHR JUMPDEST PUSH2 0x100 DUP3 AND ISZERO PUSH2 0x424E JUMPI PUSH16 0xFCBE86C7900A88AEDCFFC83B479AA3A4 MUL PUSH1 0x80 SHR JUMPDEST PUSH2 0x200 DUP3 AND ISZERO PUSH2 0x426E JUMPI PUSH16 0xF987A7253AC413176F2B074CF7815E54 MUL PUSH1 0x80 SHR JUMPDEST PUSH2 0x400 DUP3 AND ISZERO PUSH2 0x428E JUMPI PUSH16 0xF3392B0822B70005940C7A398E4B70F3 MUL PUSH1 0x80 SHR JUMPDEST PUSH2 0x800 DUP3 AND ISZERO PUSH2 0x42AE JUMPI PUSH16 0xE7159475A2C29B7443B29C7FA6E889D9 MUL PUSH1 0x80 SHR JUMPDEST PUSH2 0x1000 DUP3 AND ISZERO PUSH2 0x42CE JUMPI PUSH16 0xD097F3BDFD2022B8845AD8F792AA5825 MUL PUSH1 0x80 SHR JUMPDEST PUSH2 0x2000 DUP3 AND ISZERO PUSH2 0x42EE JUMPI PUSH16 0xA9F746462D870FDF8A65DC1F90E061E5 MUL PUSH1 0x80 SHR JUMPDEST PUSH2 0x4000 DUP3 AND ISZERO PUSH2 0x430E JUMPI PUSH16 0x70D869A156D2A1B890BB3DF62BAF32F7 MUL PUSH1 0x80 SHR JUMPDEST PUSH2 0x8000 DUP3 AND ISZERO PUSH2 0x432E JUMPI PUSH16 0x31BE135F97D08FD981231505542FCFA6 MUL PUSH1 0x80 SHR JUMPDEST PUSH3 0x10000 DUP3 AND ISZERO PUSH2 0x434F JUMPI PUSH16 0x9AA508B5B7A84E1C677DE54F3E99BC9 MUL PUSH1 0x80 SHR JUMPDEST PUSH3 0x20000 DUP3 AND ISZERO PUSH2 0x436F JUMPI PUSH15 0x5D6AF8DEDB81196699C329225EE604 MUL PUSH1 0x80 SHR JUMPDEST PUSH3 0x40000 DUP3 AND ISZERO PUSH2 0x438E JUMPI PUSH14 0x2216E584F5FA1EA926041BEDFE98 MUL PUSH1 0x80 SHR JUMPDEST PUSH3 0x80000 DUP3 AND ISZERO PUSH2 0x43AB JUMPI PUSH12 0x48A170391F7DC42444E8FA2 MUL PUSH1 0x80 SHR JUMPDEST PUSH1 0x0 DUP5 PUSH1 0x2 SIGNEXTEND SGT ISZERO PUSH2 0x43E4 JUMPI DUP1 PUSH32 0xFFFFFFFFFFFFFFFFFFFFFFFFFFFFFFFFFFFFFFFFFFFFFFFFFFFFFFFFFFFFFFFF DUP2 PUSH2 0x43E0 JUMPI INVALID JUMPDEST DIV SWAP1 POP JUMPDEST PUSH5 0x100000000 DUP2 MOD ISZERO PUSH2 0x43F8 JUMPI PUSH1 0x1 PUSH2 0x43FB JUMP JUMPDEST PUSH1 0x0 JUMPDEST PUSH1 0xFF AND PUSH1 0x20 DUP3 SWAP1 SHR ADD SWAP3 POP POP POP SWAP2 SWAP1 POP JUMP JUMPDEST PUSH1 0x0 DUP1 DUP1 DUP1 PUSH20 0xFFFFFFFFFFFFFFFFFFFFFFFFFFFFFFFFFFFFFFFF DUP1 DUP10 AND SWAP1 DUP11 AND LT ISZERO DUP2 DUP8 SLT DUP1 ISZERO SWAP1 PUSH2 0x449F JUMPI PUSH1 0x0 PUSH2 0x4453 DUP10 DUP10 PUSH3 0xF4240 SUB PUSH3 0xFFFFFF AND PUSH3 0xF4240 PUSH2 0x4697 JUMP JUMPDEST SWAP1 POP DUP3 PUSH2 0x446C JUMPI PUSH2 0x4467 DUP13 DUP13 DUP13 PUSH1 0x1 PUSH2 0x61B1 JUMP JUMPDEST PUSH2 0x4479 JUMP JUMPDEST PUSH2 0x4479 DUP12 DUP14 DUP13 PUSH1 0x1 PUSH2 0x6284 JUMP JUMPDEST SWAP6 POP DUP6 DUP2 LT PUSH2 0x448A JUMPI DUP11 SWAP7 POP PUSH2 0x4499 JUMP JUMPDEST PUSH2 0x4496 DUP13 DUP12 DUP4 DUP7 PUSH2 0x639C JUMP JUMPDEST SWAP7 POP JUMPDEST POP PUSH2 0x44E9 JUMP JUMPDEST DUP2 PUSH2 0x44B6 JUMPI PUSH2 0x44B1 DUP12 DUP12 DUP12 PUSH1 0x0 PUSH2 0x6284 JUMP JUMPDEST PUSH2 0x44C3 JUMP JUMPDEST PUSH2 0x44C3 DUP11 DUP13 DUP12 PUSH1 0x0 PUSH2 0x61B1 JUMP JUMPDEST SWAP4 POP DUP4 DUP9 PUSH1 0x0 SUB LT PUSH2 0x44D7 JUMPI DUP10 SWAP6 POP PUSH2 0x44E9 JUMP JUMPDEST PUSH2 0x44E6 DUP12 DUP11 DUP11 PUSH1 0x0 SUB DUP6 PUSH2 0x63FE JUMP JUMPDEST SWAP6 POP JUMPDEST PUSH20 0xFFFFFFFFFFFFFFFFFFFFFFFFFFFFFFFFFFFFFFFF DUP11 DUP2 AND SWAP1 DUP8 AND EQ DUP3 ISZERO PUSH2 0x4559 JUMPI DUP1 DUP1 ISZERO PUSH2 0x4515 JUMPI POP DUP2 JUMPDEST PUSH2 0x452B JUMPI PUSH2 0x4526 DUP8 DUP14 DUP13 PUSH1 0x1 PUSH2 0x6284 JUMP JUMPDEST PUSH2 0x452D JUMP JUMPDEST DUP6 JUMPDEST SWAP6 POP DUP1 DUP1 ISZERO PUSH2 0x453A JUMPI POP DUP2 ISZERO JUMPDEST PUSH2 0x4550 JUMPI PUSH2 0x454B DUP8 DUP14 DUP13 PUSH1 0x0 PUSH2 0x61B1 JUMP JUMPDEST PUSH2 0x4552 JUMP JUMPDEST DUP5 JUMPDEST SWAP5 POP PUSH2 0x45A3 JUMP JUMPDEST DUP1 DUP1 ISZERO PUSH2 0x4563 JUMPI POP DUP2 JUMPDEST PUSH2 0x4579 JUMPI PUSH2 0x4574 DUP13 DUP9 DUP13 PUSH1 0x1 PUSH2 0x61B1 JUMP JUMPDEST PUSH2 0x457B JUMP JUMPDEST DUP6 JUMPDEST SWAP6 POP DUP1 DUP1 ISZERO PUSH2 0x4588 JUMPI POP DUP2 ISZERO JUMPDEST PUSH2 0x459E JUMPI PUSH2 0x4599 DUP13 DUP9 DUP13 PUSH1 0x0 PUSH2 0x6284 JUMP JUMPDEST PUSH2 0x45A0 JUMP JUMPDEST DUP5 JUMPDEST SWAP5 POP JUMPDEST DUP2 ISZERO DUP1 ISZERO PUSH2 0x45B3 JUMPI POP DUP9 PUSH1 0x0 SUB DUP6 GT JUMPDEST ISZERO PUSH2 0x45BF JUMPI DUP9 PUSH1 0x0 SUB SWAP5 POP JUMPDEST DUP2 DUP1 ISZERO PUSH2 0x45F8 JUMPI POP DUP11 PUSH20 0xFFFFFFFFFFFFFFFFFFFFFFFFFFFFFFFFFFFFFFFF AND DUP8 PUSH20 0xFFFFFFFFFFFFFFFFFFFFFFFFFFFFFFFFFFFFFFFF AND EQ ISZERO JUMPDEST ISZERO PUSH2 0x4607 JUMPI DUP6 DUP10 SUB SWAP4 POP PUSH2 0x4624 JUMP JUMPDEST PUSH2 0x4621 DUP7 DUP10 PUSH3 0xFFFFFF AND DUP11 PUSH3 0xF4240 SUB PUSH3 0xFFFFFF AND PUSH2 0x5A92 JUMP JUMPDEST SWAP4 POP JUMPDEST POP POP POP SWAP6 POP SWAP6 POP SWAP6 POP SWAP6 SWAP2 POP POP JUMP JUMPDEST PUSH1 0x0 PUSH32 0x8000000000000000000000000000000000000000000000000000000000000000 DUP3 LT PUSH2 0x4661 JUMPI PUSH1 0x0 DUP1 REVERT JUMPDEST POP SWAP1 JUMP JUMPDEST DUP1 DUP3 SUB DUP3 DUP2 SGT ISZERO PUSH1 0x0 DUP4 SLT ISZERO EQ PUSH2 0x467B JUMPI PUSH1 0x0 DUP1 REVERT JUMPDEST SWAP3 SWAP2 POP POP JUMP JUMPDEST DUP2 DUP2 ADD DUP3 DUP2 SLT ISZERO PUSH1 0x0 DUP4 SLT ISZERO EQ PUSH2 0x467B JUMPI PUSH1 0x0 DUP1 REVERT JUMPDEST PUSH1 0x0 DUP1 DUP1 PUSH32 0xFFFFFFFFFFFFFFFFFFFFFFFFFFFFFFFFFFFFFFFFFFFFFFFFFFFFFFFFFFFFFFFF DUP6 DUP8 MULMOD DUP7 DUP7 MUL SWAP3 POP DUP3 DUP2 LT SWAP1 DUP4 SWAP1 SUB SUB SWAP1 POP DUP1 PUSH2 0x46EB JUMPI PUSH1 0x0 DUP5 GT PUSH2 0x46E0 JUMPI PUSH1 0x0 DUP1 REVERT JUMPDEST POP DUP3 SWAP1 DIV SWAP1 POP PUSH2 0x475E JUMP JUMPDEST DUP1 DUP5 GT PUSH2 0x46F7 JUMPI PUSH1 0x0 DUP1 REVERT JUMPDEST PUSH1 0x0 DUP5 DUP7 DUP9 MULMOD PUSH1 0x0 DUP7 DUP2 SUB DUP8 AND SWAP7 DUP8 SWAP1 DIV SWAP7 PUSH1 0x2 PUSH1 0x3 DUP10 MUL DUP2 XOR DUP1 DUP11 MUL DUP3 SUB MUL DUP1 DUP11 MUL DUP3 SUB MUL DUP1 DUP11 MUL DUP3 SUB MUL DUP1 DUP11 MUL DUP3 SUB MUL DUP1 DUP11 MUL DUP3 SUB MUL DUP1 DUP11 MUL SWAP1 SWAP2 SUB MUL SWAP2 DUP2 SWAP1 SUB DUP2 SWAP1 DIV PUSH1 0x1 ADD DUP7 DUP5 GT SWAP1 SWAP6 SUB SWAP5 SWAP1 SWAP5 MUL SWAP2 SWAP1 SWAP5 SUB SWAP3 SWAP1 SWAP3 DIV SWAP2 SWAP1 SWAP2 OR SWAP2 SWAP1 SWAP2 MUL SWAP2 POP POP JUMPDEST SWAP4 SWAP3 POP POP POP JUMP JUMPDEST PUSH1 0x0 DUP1 PUSH4 0xFFFFFFFF DUP8 AND PUSH2 0x483D JUMPI PUSH1 0x0 DUP10 DUP7 PUSH2 0xFFFF AND PUSH2 0xFFFF DUP2 LT PUSH2 0x4786 JUMPI INVALID JUMPDEST PUSH1 0x40 DUP1 MLOAD PUSH1 0x80 DUP2 ADD DUP3 MSTORE SWAP2 SWAP1 SWAP3 ADD SLOAD PUSH4 0xFFFFFFFF DUP1 DUP3 AND DUP1 DUP5 MSTORE PUSH5 0x100000000 DUP4 DIV PUSH1 0x6 SWAP1 DUP2 SIGNEXTEND DUP2 SIGNEXTEND SWAP1 SIGNEXTEND PUSH1 0x20 DUP6 ADD MSTORE PUSH12 0x10000000000000000000000 DUP4 DIV PUSH20 0xFFFFFFFFFFFFFFFFFFFFFFFFFFFFFFFFFFFFFFFF AND SWAP5 DUP5 ADD SWAP5 SWAP1 SWAP5 MSTORE PUSH32 0x100000000000000000000000000000000000000000000000000000000000000 SWAP1 SWAP2 DIV PUSH1 0xFF AND ISZERO ISZERO PUSH1 0x60 DUP4 ADD MSTORE SWAP1 SWAP3 POP DUP11 AND EQ PUSH2 0x4829 JUMPI PUSH2 0x4826 DUP2 DUP11 DUP10 DUP9 PUSH2 0x6460 JUMP JUMPDEST SWAP1 POP JUMPDEST DUP1 PUSH1 0x20 ADD MLOAD DUP2 PUSH1 0x40 ADD MLOAD SWAP3 POP SWAP3 POP POP PUSH2 0x492A JUMP JUMPDEST DUP7 DUP9 SUB PUSH1 0x0 DUP1 PUSH2 0x4852 DUP13 DUP13 DUP6 DUP13 DUP13 DUP13 DUP13 PUSH2 0x652F JUMP JUMPDEST SWAP2 POP SWAP2 POP DUP2 PUSH1 0x0 ADD MLOAD PUSH4 0xFFFFFFFF AND DUP4 PUSH4 0xFFFFFFFF AND EQ ISZERO PUSH2 0x4884 JUMPI DUP2 PUSH1 0x20 ADD MLOAD DUP3 PUSH1 0x40 ADD MLOAD SWAP5 POP SWAP5 POP POP POP POP PUSH2 0x492A JUMP JUMPDEST DUP1 MLOAD PUSH4 0xFFFFFFFF DUP5 DUP2 AND SWAP2 AND EQ ISZERO PUSH2 0x48AC JUMPI DUP1 PUSH1 0x20 ADD MLOAD DUP2 PUSH1 0x40 ADD MLOAD SWAP5 POP SWAP5 POP POP POP POP PUSH2 0x492A JUMP JUMPDEST DUP2 MLOAD DUP2 MLOAD PUSH1 0x20 DUP1 DUP6 ADD MLOAD SWAP1 DUP5 ADD MLOAD SWAP2 DUP4 SWAP1 SUB SWAP3 DUP7 SUB SWAP2 PUSH4 0xFFFFFFFF DUP1 DUP5 AND SWAP3 SWAP1 DUP6 AND SWAP2 SUB PUSH1 0x6 SIGNEXTEND DUP2 PUSH2 0x48DA JUMPI INVALID JUMPDEST SDIV MUL DUP5 PUSH1 0x20 ADD MLOAD ADD DUP3 PUSH4 0xFFFFFFFF AND DUP3 PUSH4 0xFFFFFFFF AND DUP7 PUSH1 0x40 ADD MLOAD DUP7 PUSH1 0x40 ADD MLOAD SUB PUSH20 0xFFFFFFFFFFFFFFFFFFFFFFFFFFFFFFFFFFFFFFFF AND MUL DUP2 PUSH2 0x4919 JUMPI INVALID JUMPDEST DIV DUP6 PUSH1 0x40 ADD MLOAD ADD SWAP7 POP SWAP7 POP POP POP POP POP POP JUMPDEST SWAP8 POP SWAP8 SWAP6 POP POP POP POP POP POP JUMP JUMPDEST PUSH1 0x2 SWAP6 DUP7 SIGNEXTEND DUP7 SIGNEXTEND PUSH1 0x0 SWAP1 DUP2 MSTORE PUSH1 0x20 SWAP8 SWAP1 SWAP8 MSTORE PUSH1 0x40 SWAP1 SWAP7 KECCAK256 PUSH1 0x1 DUP2 ADD DUP1 SLOAD SWAP1 SWAP6 SUB SWAP1 SWAP5 SSTORE SWAP4 DUP4 ADD DUP1 SLOAD SWAP1 SWAP3 SUB SWAP1 SWAP2 SSTORE PUSH1 0x3 DUP3 ADD DUP1 SLOAD PUSH4 0xFFFFFFFF PUSH28 0x1000000000000000000000000000000000000000000000000000000 PUSH20 0xFFFFFFFFFFFFFFFFFFFFFFFFFFFFFFFFFFFFFFFF PUSH8 0x100000000000000 DUP1 DUP6 DIV DUP3 AND SWAP1 SWAP7 SUB AND SWAP1 SWAP5 MUL PUSH32 0xFFFFFFFFFF0000000000000000000000000000000000000000FFFFFFFFFFFFFF SWAP1 SWAP3 AND SWAP2 SWAP1 SWAP2 OR PUSH1 0x6 DUP2 DUP2 SIGNEXTEND SWAP1 SWAP7 SUB SWAP1 SWAP6 SIGNEXTEND PUSH7 0xFFFFFFFFFFFFFF AND PUSH32 0xFFFFFFFFFFFFFFFFFFFFFFFFFFFFFFFFFFFFFFFFFFFFFFFFFF00000000000000 SWAP1 SWAP6 AND SWAP5 SWAP1 SWAP5 OR DUP3 DUP2 DIV DUP6 AND SWAP1 SWAP6 SUB SWAP1 SWAP4 AND MUL PUSH32 0xFF00000000FFFFFFFFFFFFFFFFFFFFFFFFFFFFFFFFFFFFFFFFFFFFFFFFFFFFFF SWAP1 SWAP4 AND SWAP3 SWAP1 SWAP3 OR SWAP1 SSTORE SLOAD PUSH17 0x100000000000000000000000000000000 SWAP1 DIV PUSH1 0xF SIGNEXTEND SWAP1 JUMP JUMPDEST PUSH1 0x0 DUP1 DUP3 PUSH1 0xF SIGNEXTEND SLT ISZERO PUSH2 0x4B17 JUMPI DUP3 PUSH16 0xFFFFFFFFFFFFFFFFFFFFFFFFFFFFFFFF AND DUP3 PUSH1 0x0 SUB DUP5 SUB SWAP2 POP DUP2 PUSH16 0xFFFFFFFFFFFFFFFFFFFFFFFFFFFFFFFF AND LT PUSH2 0x4B12 JUMPI PUSH1 0x40 DUP1 MLOAD PUSH32 0x8C379A000000000000000000000000000000000000000000000000000000000 DUP2 MSTORE PUSH1 0x20 PUSH1 0x4 DUP3 ADD MSTORE PUSH1 0x2 PUSH1 0x24 DUP3 ADD MSTORE PUSH32 0x4C53000000000000000000000000000000000000000000000000000000000000 PUSH1 0x44 DUP3 ADD MSTORE SWAP1 MLOAD SWAP1 DUP2 SWAP1 SUB PUSH1 0x64 ADD SWAP1 REVERT JUMPDEST PUSH2 0x467B JUMP JUMPDEST DUP3 PUSH16 0xFFFFFFFFFFFFFFFFFFFFFFFFFFFFFFFF AND DUP3 DUP5 ADD SWAP2 POP DUP2 PUSH16 0xFFFFFFFFFFFFFFFFFFFFFFFFFFFFFFFF AND LT ISZERO PUSH2 0x467B JUMPI PUSH1 0x40 DUP1 MLOAD PUSH32 0x8C379A000000000000000000000000000000000000000000000000000000000 DUP2 MSTORE PUSH1 0x20 PUSH1 0x4 DUP3 ADD MSTORE PUSH1 0x2 PUSH1 0x24 DUP3 ADD MSTORE PUSH32 0x4C41000000000000000000000000000000000000000000000000000000000000 PUSH1 0x44 DUP3 ADD MSTORE SWAP1 MLOAD SWAP1 DUP2 SWAP1 SUB PUSH1 0x64 ADD SWAP1 REVERT JUMPDEST PUSH1 0x0 PUSH5 0x1000276A3 PUSH20 0xFFFFFFFFFFFFFFFFFFFFFFFFFFFFFFFFFFFFFFFF DUP4 AND LT DUP1 ISZERO SWAP1 PUSH2 0x4C05 JUMPI POP PUSH20 0xFFFD8963EFD1FC6A506488495D951D5263988D26 PUSH20 0xFFFFFFFFFFFFFFFFFFFFFFFFFFFFFFFFFFFFFFFF DUP4 AND LT JUMPDEST PUSH2 0x4C70 JUMPI PUSH1 0x40 DUP1 MLOAD PUSH32 0x8C379A000000000000000000000000000000000000000000000000000000000 DUP2 MSTORE PUSH1 0x20 PUSH1 0x4 DUP3 ADD MSTORE PUSH1 0x1 PUSH1 0x24 DUP3 ADD MSTORE PUSH32 0x5200000000000000000000000000000000000000000000000000000000000000 PUSH1 0x44 DUP3 ADD MSTORE SWAP1 MLOAD SWAP1 DUP2 SWAP1 SUB PUSH1 0x64 ADD SWAP1 REVERT JUMPDEST PUSH24 0xFFFFFFFFFFFFFFFFFFFFFFFFFFFFFFFFFFFFFFFF00000000 PUSH1 0x20 DUP4 SWAP1 SHL AND PUSH16 0xFFFFFFFFFFFFFFFFFFFFFFFFFFFFFFFF DUP2 GT PUSH1 0x7 SHL DUP2 DUP2 SHR PUSH8 0xFFFFFFFFFFFFFFFF DUP2 GT PUSH1 0x6 SHL SWAP1 DUP2 SHR PUSH4 0xFFFFFFFF DUP2 GT PUSH1 0x5 SHL SWAP1 DUP2 SHR PUSH2 0xFFFF DUP2 GT PUSH1 0x4 SHL SWAP1 DUP2 SHR PUSH1 0xFF DUP2 GT PUSH1 0x3 SWAP1 DUP2 SHL SWAP2 DUP3 SHR PUSH1 0xF DUP2 GT PUSH1 0x2 SHL SWAP1 DUP2 SHR SWAP2 DUP3 GT PUSH1 0x1 SWAP1 DUP2 SHL SWAP3 DUP4 SHR SWAP8 SWAP1 DUP9 GT SWAP7 OR SWAP1 SWAP5 OR SWAP1 SWAP3 OR OR SWAP1 SWAP2 OR OR OR PUSH1 0x80 DUP2 LT PUSH2 0x4D1A JUMPI PUSH1 0x7F DUP2 SUB DUP4 SWAP1 SHR SWAP2 POP PUSH2 0x4D24 JUMP JUMPDEST DUP1 PUSH1 0x7F SUB DUP4 SWAP1 SHL SWAP2 POP JUMPDEST SWAP1 DUP1 MUL PUSH1 0x7F DUP2 DUP2 SHR PUSH1 0xFF DUP4 DUP2 SHR SWAP2 SWAP1 SWAP2 SHR DUP1 MUL DUP1 DUP4 SHR DUP2 DUP4 SHR SHR DUP1 MUL DUP1 DUP5 SHR DUP2 DUP5 SHR SHR DUP1 MUL DUP1 DUP6 SHR DUP2 DUP6 SHR SHR DUP1 MUL DUP1 DUP7 SHR DUP2 DUP7 SHR SHR DUP1 MUL DUP1 DUP8 SHR DUP2 DUP8 SHR SHR DUP1 MUL DUP1 DUP9 SHR DUP2 DUP9 SHR SHR DUP1 MUL DUP1 DUP10 SHR DUP2 DUP10 SHR SHR DUP1 MUL DUP1 DUP11 SHR DUP2 DUP11 SHR SHR DUP1 MUL DUP1 DUP12 SHR DUP2 DUP12 SHR SHR DUP1 MUL DUP1 DUP13 SHR DUP2 DUP13 SHR SHR DUP1 MUL DUP1 DUP14 SHR DUP2 DUP14 SHR SHR DUP1 MUL DUP1 DUP15 SHR SWAP13 DUP2 SWAP1 SHR SWAP13 SWAP1 SWAP13 SHR DUP1 MUL SWAP13 DUP14 SWAP1 SHR SWAP15 SWAP14 PUSH32 0xFFFFFFFFFFFFFFFFFFFFFFFFFFFFFFFFFFFFFFFFFFFFFFFFFFFFFFFFFFFFFF80 DUP16 ADD PUSH1 0x40 SHL PUSH1 0xC0 SWAP2 SWAP1 SWAP2 SHR PUSH8 0x8000000000000000 AND OR PUSH1 0xC1 SWAP12 SWAP1 SWAP12 SHR PUSH8 0x4000000000000000 AND SWAP11 SWAP1 SWAP11 OR PUSH1 0xC2 SWAP10 SWAP1 SWAP10 SHR PUSH8 0x2000000000000000 AND SWAP9 SWAP1 SWAP9 OR PUSH1 0xC3 SWAP8 SWAP1 SWAP8 SHR PUSH8 0x1000000000000000 AND SWAP7 SWAP1 SWAP7 OR PUSH1 0xC4 SWAP6 SWAP1 SWAP6 SHR PUSH8 0x800000000000000 AND SWAP5 SWAP1 SWAP5 OR PUSH1 0xC5 SWAP4 SWAP1 SWAP4 SHR PUSH8 0x400000000000000 AND SWAP3 SWAP1 SWAP3 OR PUSH1 0xC6 SWAP2 SWAP1 SWAP2 SHR PUSH8 0x200000000000000 AND OR PUSH1 0xC7 SWAP2 SWAP1 SWAP2 SHR PUSH8 0x100000000000000 AND OR PUSH1 0xC8 SWAP2 SWAP1 SWAP2 SHR PUSH7 0x80000000000000 AND OR PUSH1 0xC9 SWAP2 SWAP1 SWAP2 SHR PUSH7 0x40000000000000 AND OR PUSH1 0xCA SWAP2 SWAP1 SWAP2 SHR PUSH7 0x20000000000000 AND OR PUSH1 0xCB SWAP2 SWAP1 SWAP2 SHR PUSH7 0x10000000000000 AND OR PUSH1 0xCC SWAP2 SWAP1 SWAP2 SHR PUSH7 0x8000000000000 AND OR PUSH1 0xCD SWAP2 SWAP1 SWAP2 SHR PUSH7 0x4000000000000 AND OR PUSH10 0x3627A301D71055774C85 DUP2 MUL PUSH32 0xFFFFFFFFFFFFFFFFFFFFFFFFFFFFFFFFFD709B7E5480FBA5A50FED5E62FFC556 DUP2 ADD PUSH1 0x80 SWAP1 DUP2 SAR SWAP1 PUSH16 0xDB2DF09E81959A81455E260799A0632F DUP4 ADD SWAP1 SAR PUSH1 0x2 DUP2 DUP2 SIGNEXTEND SWAP1 DUP4 SWAP1 SIGNEXTEND EQ PUSH2 0x4F6C JUMPI DUP9 PUSH20 0xFFFFFFFFFFFFFFFFFFFFFFFFFFFFFFFFFFFFFFFF AND PUSH2 0x4F43 DUP3 PUSH2 0x407A JUMP JUMPDEST PUSH20 0xFFFFFFFFFFFFFFFFFFFFFFFFFFFFFFFFFFFFFFFF AND GT ISZERO PUSH2 0x4F65 JUMPI DUP2 PUSH2 0x4F67 JUMP JUMPDEST DUP1 JUMPDEST PUSH2 0x4F6E JUMP JUMPDEST DUP2 JUMPDEST SWAP10 SWAP9 POP POP POP POP POP POP POP POP POP JUMP JUMPDEST PUSH1 0x0 DUP1 PUSH1 0x0 DUP10 DUP10 PUSH2 0xFFFF AND PUSH2 0xFFFF DUP2 LT PUSH2 0x4F91 JUMPI INVALID JUMPDEST PUSH1 0x40 DUP1 MLOAD PUSH1 0x80 DUP2 ADD DUP3 MSTORE SWAP2 SWAP1 SWAP3 ADD SLOAD PUSH4 0xFFFFFFFF DUP1 DUP3 AND DUP1 DUP5 MSTORE PUSH5 0x100000000 DUP4 DIV PUSH1 0x6 SWAP1 DUP2 SIGNEXTEND DUP2 SIGNEXTEND SWAP1 SIGNEXTEND PUSH1 0x20 DUP6 ADD MSTORE PUSH12 0x10000000000000000000000 DUP4 DIV PUSH20 0xFFFFFFFFFFFFFFFFFFFFFFFFFFFFFFFFFFFFFFFF AND SWAP5 DUP5 ADD SWAP5 SWAP1 SWAP5 MSTORE PUSH32 0x100000000000000000000000000000000000000000000000000000000000000 SWAP1 SWAP2 DIV PUSH1 0xFF AND ISZERO ISZERO PUSH1 0x60 DUP4 ADD MSTORE SWAP1 SWAP3 POP DUP10 AND EQ ISZERO PUSH2 0x5032 JUMPI DUP9 DUP6 SWAP3 POP SWAP3 POP POP PUSH2 0x492A JUMP JUMPDEST DUP5 PUSH2 0xFFFF AND DUP5 PUSH2 0xFFFF AND GT DUP1 ISZERO PUSH2 0x5053 JUMPI POP PUSH1 0x1 DUP6 SUB PUSH2 0xFFFF AND DUP10 PUSH2 0xFFFF AND EQ JUMPDEST ISZERO PUSH2 0x5060 JUMPI DUP4 SWAP2 POP PUSH2 0x5064 JUMP JUMPDEST DUP5 SWAP2 POP JUMPDEST DUP2 PUSH2 0xFFFF AND DUP10 PUSH1 0x1 ADD PUSH2 0xFFFF AND DUP2 PUSH2 0x5078 JUMPI INVALID JUMPDEST MOD SWAP3 POP PUSH2 0x5087 DUP2 DUP10 DUP10 DUP10 PUSH2 0x6460 JUMP JUMPDEST DUP11 DUP5 PUSH2 0xFFFF AND PUSH2 0xFFFF DUP2 LT PUSH2 0x5098 JUMPI INVALID JUMPDEST DUP3 MLOAD SWAP2 ADD DUP1 SLOAD PUSH1 0x20 DUP5 ADD MLOAD PUSH1 0x40 DUP6 ADD MLOAD PUSH1 0x60 SWAP1 SWAP6 ADD MLOAD ISZERO ISZERO PUSH32 0x100000000000000000000000000000000000000000000000000000000000000 MUL PUSH31 0xFFFFFFFFFFFFFFFFFFFFFFFFFFFFFFFFFFFFFFFFFFFFFFFFFFFFFFFFFFFFFF PUSH20 0xFFFFFFFFFFFFFFFFFFFFFFFFFFFFFFFFFFFFFFFF SWAP1 SWAP7 AND PUSH12 0x10000000000000000000000 MUL PUSH32 0xFF0000000000000000000000000000000000000000FFFFFFFFFFFFFFFFFFFFFF PUSH1 0x6 SWAP4 SWAP1 SWAP4 SIGNEXTEND PUSH7 0xFFFFFFFFFFFFFF AND PUSH5 0x100000000 MUL PUSH32 0xFFFFFFFFFFFFFFFFFFFFFFFFFFFFFFFFFFFFFFFFFF00000000000000FFFFFFFF PUSH4 0xFFFFFFFF SWAP1 SWAP8 AND PUSH32 0xFFFFFFFFFFFFFFFFFFFFFFFFFFFFFFFFFFFFFFFFFFFFFFFFFFFFFFFF00000000 SWAP1 SWAP6 AND SWAP5 SWAP1 SWAP5 OR SWAP6 SWAP1 SWAP6 AND SWAP3 SWAP1 SWAP3 OR AND SWAP3 SWAP1 SWAP3 OR SWAP3 SWAP1 SWAP3 AND OR SWAP1 SSTORE POP SWAP8 POP SWAP8 SWAP6 POP POP POP POP POP POP JUMP JUMPDEST PUSH1 0x40 DUP1 MLOAD PUSH20 0xFFFFFFFFFFFFFFFFFFFFFFFFFFFFFFFFFFFFFFFF DUP5 DUP2 AND PUSH1 0x24 DUP4 ADD MSTORE PUSH1 0x44 DUP1 DUP4 ADD DUP6 SWAP1 MSTORE DUP4 MLOAD DUP1 DUP5 SUB SWAP1 SWAP2 ADD DUP2 MSTORE PUSH1 0x64 SWAP1 SWAP3 ADD DUP4 MSTORE PUSH1 0x20 DUP3 ADD DUP1 MLOAD PUSH28 0xFFFFFFFFFFFFFFFFFFFFFFFFFFFFFFFFFFFFFFFFFFFFFFFFFFFFFFFF AND PUSH32 0xA9059CBB00000000000000000000000000000000000000000000000000000000 OR DUP2 MSTORE SWAP3 MLOAD DUP3 MLOAD PUSH1 0x0 SWAP5 DUP6 SWAP5 SWAP4 DUP10 AND SWAP4 SWAP3 SWAP2 DUP3 SWAP2 SWAP1 DUP1 DUP4 DUP4 JUMPDEST PUSH1 0x20 DUP4 LT PUSH2 0x5296 JUMPI DUP1 MLOAD DUP3 MSTORE PUSH32 0xFFFFFFFFFFFFFFFFFFFFFFFFFFFFFFFFFFFFFFFFFFFFFFFFFFFFFFFFFFFFFFE0 SWAP1 SWAP3 ADD SWAP2 PUSH1 0x20 SWAP2 DUP3 ADD SWAP2 ADD PUSH2 0x5259 JUMP JUMPDEST PUSH1 0x1 DUP4 PUSH1 0x20 SUB PUSH2 0x100 EXP SUB DUP1 NOT DUP3 MLOAD AND DUP2 DUP5 MLOAD AND DUP1 DUP3 OR DUP6 MSTORE POP POP POP POP POP POP SWAP1 POP ADD SWAP2 POP POP PUSH1 0x0 PUSH1 0x40 MLOAD DUP1 DUP4 SUB DUP2 PUSH1 0x0 DUP7 GAS CALL SWAP2 POP POP RETURNDATASIZE DUP1 PUSH1 0x0 DUP2 EQ PUSH2 0x52F8 JUMPI PUSH1 0x40 MLOAD SWAP2 POP PUSH1 0x1F NOT PUSH1 0x3F RETURNDATASIZE ADD AND DUP3 ADD PUSH1 0x40 MSTORE RETURNDATASIZE DUP3 MSTORE RETURNDATASIZE PUSH1 0x0 PUSH1 0x20 DUP5 ADD RETURNDATACOPY PUSH2 0x52FD JUMP JUMPDEST PUSH1 0x60 SWAP2 POP JUMPDEST POP SWAP2 POP SWAP2 POP DUP2 DUP1 ISZERO PUSH2 0x532B JUMPI POP DUP1 MLOAD ISZERO DUP1 PUSH2 0x532B JUMPI POP DUP1 DUP1 PUSH1 0x20 ADD SWAP1 MLOAD PUSH1 0x20 DUP2 LT ISZERO PUSH2 0x5328 JUMPI PUSH1 0x0 DUP1 REVERT JUMPDEST POP MLOAD JUMPDEST PUSH2 0x5396 JUMPI PUSH1 0x40 DUP1 MLOAD PUSH32 0x8C379A000000000000000000000000000000000000000000000000000000000 DUP2 MSTORE PUSH1 0x20 PUSH1 0x4 DUP3 ADD MSTORE PUSH1 0x2 PUSH1 0x24 DUP3 ADD MSTORE PUSH32 0x5446000000000000000000000000000000000000000000000000000000000000 PUSH1 0x44 DUP3 ADD MSTORE SWAP1 MLOAD SWAP1 DUP2 SWAP1 SUB PUSH1 0x64 ADD SWAP1 REVERT JUMPDEST POP POP POP POP POP JUMP JUMPDEST PUSH1 0x40 DUP1 MLOAD ADDRESS PUSH1 0x24 DUP1 DUP4 ADD SWAP2 SWAP1 SWAP2 MSTORE DUP3 MLOAD DUP1 DUP4 SUB SWAP1 SWAP2 ADD DUP2 MSTORE PUSH1 0x44 SWAP1 SWAP2 ADD DUP3 MSTORE PUSH1 0x20 DUP2 ADD DUP1 MLOAD PUSH28 0xFFFFFFFFFFFFFFFFFFFFFFFFFFFFFFFFFFFFFFFFFFFFFFFFFFFFFFFF AND PUSH32 0x70A0823100000000000000000000000000000000000000000000000000000000 OR DUP2 MSTORE SWAP2 MLOAD DUP2 MLOAD PUSH1 0x0 SWAP4 DUP5 SWAP4 DUP5 SWAP4 PUSH20 0xFFFFFFFFFFFFFFFFFFFFFFFFFFFFFFFFFFFFFFFF PUSH32 0x0 AND SWAP4 SWAP2 SWAP3 SWAP1 SWAP2 DUP3 SWAP2 SWAP1 DUP1 DUP4 DUP4 JUMPDEST PUSH1 0x20 DUP4 LT PUSH2 0x548F JUMPI DUP1 MLOAD DUP3 MSTORE PUSH32 0xFFFFFFFFFFFFFFFFFFFFFFFFFFFFFFFFFFFFFFFFFFFFFFFFFFFFFFFFFFFFFFE0 SWAP1 SWAP3 ADD SWAP2 PUSH1 0x20 SWAP2 DUP3 ADD SWAP2 ADD PUSH2 0x5452 JUMP JUMPDEST PUSH1 0x1 DUP4 PUSH1 0x20 SUB PUSH2 0x100 EXP SUB DUP1 NOT DUP3 MLOAD AND DUP2 DUP5 MLOAD AND DUP1 DUP3 OR DUP6 MSTORE POP POP POP POP POP POP SWAP1 POP ADD SWAP2 POP POP PUSH1 0x0 PUSH1 0x40 MLOAD DUP1 DUP4 SUB DUP2 DUP6 GAS STATICCALL SWAP2 POP POP RETURNDATASIZE DUP1 PUSH1 0x0 DUP2 EQ PUSH2 0x54EF JUMPI PUSH1 0x40 MLOAD SWAP2 POP PUSH1 0x1F NOT PUSH1 0x3F RETURNDATASIZE ADD AND DUP3 ADD PUSH1 0x40 MSTORE RETURNDATASIZE DUP3 MSTORE RETURNDATASIZE PUSH1 0x0 PUSH1 0x20 DUP5 ADD RETURNDATACOPY PUSH2 0x54F4 JUMP JUMPDEST PUSH1 0x60 SWAP2 POP JUMPDEST POP SWAP2 POP SWAP2 POP DUP2 DUP1 ISZERO PUSH2 0x5508 JUMPI POP PUSH1 0x20 DUP2 MLOAD LT ISZERO JUMPDEST PUSH2 0x5511 JUMPI PUSH1 0x0 DUP1 REVERT JUMPDEST DUP1 DUP1 PUSH1 0x20 ADD SWAP1 MLOAD PUSH1 0x20 DUP2 LT ISZERO PUSH2 0x5526 JUMPI PUSH1 0x0 DUP1 REVERT JUMPDEST POP MLOAD SWAP3 POP POP POP SWAP1 JUMP JUMPDEST DUP1 DUP3 ADD DUP3 DUP2 LT ISZERO PUSH2 0x467B JUMPI PUSH1 0x0 DUP1 REVERT JUMPDEST PUSH1 0x40 DUP1 MLOAD ADDRESS PUSH1 0x24 DUP1 DUP4 ADD SWAP2 SWAP1 SWAP2 MSTORE DUP3 MLOAD DUP1 DUP4 SUB SWAP1 SWAP2 ADD DUP2 MSTORE PUSH1 0x44 SWAP1 SWAP2 ADD DUP3 MSTORE PUSH1 0x20 DUP2 ADD DUP1 MLOAD PUSH28 0xFFFFFFFFFFFFFFFFFFFFFFFFFFFFFFFFFFFFFFFFFFFFFFFFFFFFFFFF AND PUSH32 0x70A0823100000000000000000000000000000000000000000000000000000000 OR DUP2 MSTORE SWAP2 MLOAD DUP2 MLOAD PUSH1 0x0 SWAP4 DUP5 SWAP4 DUP5 SWAP4 PUSH20 0xFFFFFFFFFFFFFFFFFFFFFFFFFFFFFFFFFFFFFFFF PUSH32 0x0 AND SWAP4 SWAP2 SWAP3 SWAP1 SWAP2 DUP3 SWAP2 SWAP1 DUP1 DUP4 DUP4 PUSH1 0x20 DUP4 LT PUSH2 0x548F JUMPI DUP1 MLOAD DUP3 MSTORE PUSH32 0xFFFFFFFFFFFFFFFFFFFFFFFFFFFFFFFFFFFFFFFFFFFFFFFFFFFFFFFFFFFFFFE0 SWAP1 SWAP3 ADD SWAP2 PUSH1 0x20 SWAP2 DUP3 ADD SWAP2 ADD PUSH2 0x5452 JUMP JUMPDEST PUSH1 0x0 DUP1 DUP4 PUSH2 0xFFFF AND GT PUSH2 0x56A4 JUMPI PUSH1 0x40 DUP1 MLOAD PUSH32 0x8C379A000000000000000000000000000000000000000000000000000000000 DUP2 MSTORE PUSH1 0x20 PUSH1 0x4 DUP3 ADD MSTORE PUSH1 0x1 PUSH1 0x24 DUP3 ADD MSTORE PUSH32 0x4900000000000000000000000000000000000000000000000000000000000000 PUSH1 0x44 DUP3 ADD MSTORE SWAP1 MLOAD SWAP1 DUP2 SWAP1 SUB PUSH1 0x64 ADD SWAP1 REVERT JUMPDEST DUP3 PUSH2 0xFFFF AND DUP3 PUSH2 0xFFFF AND GT PUSH2 0x56BA JUMPI POP DUP2 PUSH2 0x475E JUMP JUMPDEST DUP3 JUMPDEST DUP3 PUSH2 0xFFFF AND DUP2 PUSH2 0xFFFF AND LT ISZERO PUSH2 0x571B JUMPI PUSH1 0x1 DUP6 DUP3 PUSH2 0xFFFF AND PUSH2 0xFFFF DUP2 LT PUSH2 0x56DF JUMPI INVALID JUMPDEST ADD DUP1 SLOAD PUSH32 0xFFFFFFFFFFFFFFFFFFFFFFFFFFFFFFFFFFFFFFFFFFFFFFFFFFFFFFFF00000000 AND PUSH4 0xFFFFFFFF SWAP3 SWAP1 SWAP3 AND SWAP2 SWAP1 SWAP2 OR SWAP1 SSTORE PUSH1 0x1 ADD PUSH2 0x56BC JUMP JUMPDEST POP SWAP1 SWAP4 SWAP3 POP POP POP JUMP JUMPDEST DUP1 PUSH1 0xF DUP2 SWAP1 SIGNEXTEND DUP2 EQ PUSH2 0x3EAF JUMPI PUSH1 0x0 DUP1 REVERT JUMPDEST PUSH1 0x0 DUP1 PUSH1 0x0 PUSH2 0x5742 PUSH2 0x3EB4 JUMP JUMPDEST PUSH2 0x5754 DUP5 PUSH1 0x20 ADD MLOAD DUP6 PUSH1 0x40 ADD MLOAD PUSH2 0x5D0B JUMP JUMPDEST PUSH1 0x40 DUP1 MLOAD PUSH1 0xE0 DUP2 ADD DUP3 MSTORE PUSH1 0x0 SLOAD PUSH20 0xFFFFFFFFFFFFFFFFFFFFFFFFFFFFFFFFFFFFFFFF DUP2 AND DUP3 MSTORE PUSH21 0x10000000000000000000000000000000000000000 DUP2 DIV PUSH1 0x2 SWAP1 DUP2 SIGNEXTEND DUP2 SIGNEXTEND SWAP1 SIGNEXTEND PUSH1 0x20 DUP1 DUP5 ADD DUP3 SWAP1 MSTORE PUSH2 0xFFFF PUSH24 0x10000000000000000000000000000000000000000000000 DUP5 DIV DUP2 AND DUP6 DUP8 ADD MSTORE PUSH26 0x100000000000000000000000000000000000000000000000000 DUP5 DIV DUP2 AND PUSH1 0x60 DUP1 DUP8 ADD SWAP2 SWAP1 SWAP2 MSTORE PUSH28 0x1000000000000000000000000000000000000000000000000000000 DUP6 DIV SWAP1 SWAP2 AND PUSH1 0x80 DUP7 ADD MSTORE PUSH1 0xFF PUSH30 0x10000000000000000000000000000000000000000000000000000000000 DUP6 DIV DUP2 AND PUSH1 0xA0 DUP8 ADD MSTORE PUSH31 0x1000000000000000000000000000000000000000000000000000000000000 SWAP1 SWAP5 DIV SWAP1 SWAP4 AND ISZERO ISZERO PUSH1 0xC0 DUP6 ADD MSTORE DUP9 MLOAD SWAP1 DUP10 ADD MLOAD SWAP5 DUP10 ADD MLOAD SWAP3 DUP10 ADD MLOAD SWAP4 SWAP5 PUSH2 0x588D SWAP5 SWAP2 SWAP4 SWAP1 SWAP3 SWAP1 SWAP2 SWAP1 PUSH2 0x67F3 JUMP JUMPDEST SWAP4 POP DUP5 PUSH1 0x60 ADD MLOAD PUSH1 0xF SIGNEXTEND PUSH1 0x0 EQ PUSH2 0x5A8A JUMPI DUP5 PUSH1 0x20 ADD MLOAD PUSH1 0x2 SIGNEXTEND DUP2 PUSH1 0x20 ADD MLOAD PUSH1 0x2 SIGNEXTEND SLT ISZERO PUSH2 0x58E2 JUMPI PUSH2 0x58DB PUSH2 0x58C4 DUP7 PUSH1 0x20 ADD MLOAD PUSH2 0x407A JUMP JUMPDEST PUSH2 0x58D1 DUP8 PUSH1 0x40 ADD MLOAD PUSH2 0x407A JUMP JUMPDEST DUP8 PUSH1 0x60 ADD MLOAD PUSH2 0x69EC JUMP JUMPDEST SWAP3 POP PUSH2 0x5A8A JUMP JUMPDEST DUP5 PUSH1 0x40 ADD MLOAD PUSH1 0x2 SIGNEXTEND DUP2 PUSH1 0x20 ADD MLOAD PUSH1 0x2 SIGNEXTEND SLT ISZERO PUSH2 0x5A60 JUMPI PUSH1 0x4 SLOAD PUSH1 0x40 DUP3 ADD MLOAD PUSH16 0xFFFFFFFFFFFFFFFFFFFFFFFFFFFFFFFF SWAP1 SWAP2 AND SWAP1 PUSH2 0x593D SWAP1 PUSH2 0x5921 PUSH2 0x3EF8 JUMP JUMPDEST PUSH1 0x20 DUP6 ADD MLOAD PUSH1 0x60 DUP7 ADD MLOAD PUSH1 0x80 DUP8 ADD MLOAD PUSH1 0x8 SWAP5 SWAP4 SWAP3 SWAP2 DUP8 SWAP2 PUSH2 0x4F7B JUMP JUMPDEST PUSH1 0x0 DUP1 SLOAD PUSH32 0xFFFFFFFFFF0000FFFFFFFFFFFFFFFFFFFFFFFFFFFFFFFFFFFFFFFFFFFFFFFFFF AND PUSH26 0x100000000000000000000000000000000000000000000000000 PUSH2 0xFFFF SWAP4 DUP5 AND MUL OR PUSH32 0xFFFFFFFFFFFFFF0000FFFFFFFFFFFFFFFFFFFFFFFFFFFFFFFFFFFFFFFFFFFFFF AND PUSH24 0x10000000000000000000000000000000000000000000000 SWAP4 SWAP1 SWAP3 AND SWAP3 SWAP1 SWAP3 MUL OR SWAP1 SSTORE DUP2 MLOAD PUSH1 0x40 DUP8 ADD MLOAD PUSH2 0x59EB SWAP2 SWAP1 PUSH2 0x59E1 SWAP1 PUSH2 0x407A JUMP JUMPDEST DUP9 PUSH1 0x60 ADD MLOAD PUSH2 0x69EC JUMP JUMPDEST SWAP4 POP PUSH2 0x5A09 PUSH2 0x59FD DUP8 PUSH1 0x20 ADD MLOAD PUSH2 0x407A JUMP JUMPDEST DUP4 MLOAD PUSH1 0x60 DUP10 ADD MLOAD PUSH2 0x6A30 JUMP JUMPDEST SWAP3 POP PUSH2 0x5A19 DUP2 DUP8 PUSH1 0x60 ADD MLOAD PUSH2 0x4A6B JUMP JUMPDEST PUSH1 0x4 DUP1 SLOAD PUSH32 0xFFFFFFFFFFFFFFFFFFFFFFFFFFFFFFFF00000000000000000000000000000000 AND PUSH16 0xFFFFFFFFFFFFFFFFFFFFFFFFFFFFFFFF SWAP3 SWAP1 SWAP3 AND SWAP2 SWAP1 SWAP2 OR SWAP1 SSTORE POP PUSH2 0x5A8A JUMP JUMPDEST PUSH2 0x5A87 PUSH2 0x5A70 DUP7 PUSH1 0x20 ADD MLOAD PUSH2 0x407A JUMP JUMPDEST PUSH2 0x5A7D DUP8 PUSH1 0x40 ADD MLOAD PUSH2 0x407A JUMP JUMPDEST DUP8 PUSH1 0x60 ADD MLOAD PUSH2 0x6A30 JUMP JUMPDEST SWAP2 POP JUMPDEST POP SWAP2 SWAP4 SWAP1 SWAP3 POP JUMP JUMPDEST PUSH1 0x0 PUSH2 0x5A9F DUP5 DUP5 DUP5 PUSH2 0x4697 JUMP JUMPDEST SWAP1 POP PUSH1 0x0 DUP3 DUP1 PUSH2 0x5AAB JUMPI INVALID JUMPDEST DUP5 DUP7 MULMOD GT ISZERO PUSH2 0x475E JUMPI PUSH32 0xFFFFFFFFFFFFFFFFFFFFFFFFFFFFFFFFFFFFFFFFFFFFFFFFFFFFFFFFFFFFFFFF DUP2 LT PUSH2 0x5AE0 JUMPI PUSH1 0x0 DUP1 REVERT JUMPDEST PUSH1 0x1 ADD SWAP4 SWAP3 POP POP POP JUMP JUMPDEST PUSH1 0x40 DUP1 MLOAD PUSH1 0x60 SWAP5 SWAP1 SWAP5 SHL PUSH32 0xFFFFFFFFFFFFFFFFFFFFFFFFFFFFFFFFFFFFFFFF000000000000000000000000 AND PUSH1 0x20 DUP1 DUP7 ADD SWAP2 SWAP1 SWAP2 MSTORE PUSH1 0x2 SWAP4 DUP5 SIGNEXTEND PUSH1 0xE8 SWAP1 DUP2 SHL PUSH1 0x34 DUP8 ADD MSTORE SWAP3 SWAP1 SWAP4 SIGNEXTEND SWAP1 SWAP2 SHL PUSH1 0x37 DUP5 ADD MSTORE DUP1 MLOAD DUP1 DUP5 SUB PUSH1 0x1A ADD DUP2 MSTORE PUSH1 0x3A SWAP1 SWAP4 ADD DUP2 MSTORE DUP3 MLOAD SWAP3 DUP3 ADD SWAP3 SWAP1 SWAP3 KECCAK256 PUSH1 0x0 SWAP1 DUP2 MSTORE SWAP3 SWAP1 MSTORE SWAP1 KECCAK256 SWAP1 JUMP JUMPDEST PUSH1 0x60 DUP1 PUSH1 0x0 DUP4 PUSH2 0xFFFF AND GT PUSH2 0x5BD7 JUMPI PUSH1 0x40 DUP1 MLOAD PUSH32 0x8C379A000000000000000000000000000000000000000000000000000000000 DUP2 MSTORE PUSH1 0x20 PUSH1 0x4 DUP3 ADD MSTORE PUSH1 0x1 PUSH1 0x24 DUP3 ADD MSTORE PUSH32 0x4900000000000000000000000000000000000000000000000000000000000000 PUSH1 0x44 DUP3 ADD MSTORE SWAP1 MLOAD SWAP1 DUP2 SWAP1 SUB PUSH1 0x64 ADD SWAP1 REVERT JUMPDEST DUP7 MLOAD PUSH8 0xFFFFFFFFFFFFFFFF DUP2 GT DUP1 ISZERO PUSH2 0x5BEF JUMPI PUSH1 0x0 DUP1 REVERT JUMPDEST POP PUSH1 0x40 MLOAD SWAP1 DUP1 DUP3 MSTORE DUP1 PUSH1 0x20 MUL PUSH1 0x20 ADD DUP3 ADD PUSH1 0x40 MSTORE DUP1 ISZERO PUSH2 0x5C19 JUMPI DUP2 PUSH1 0x20 ADD PUSH1 0x20 DUP3 MUL DUP1 CALLDATASIZE DUP4 CALLDATACOPY ADD SWAP1 POP JUMPDEST POP SWAP2 POP DUP7 MLOAD PUSH8 0xFFFFFFFFFFFFFFFF DUP2 GT DUP1 ISZERO PUSH2 0x5C34 JUMPI PUSH1 0x0 DUP1 REVERT JUMPDEST POP PUSH1 0x40 MLOAD SWAP1 DUP1 DUP3 MSTORE DUP1 PUSH1 0x20 MUL PUSH1 0x20 ADD DUP3 ADD PUSH1 0x40 MSTORE DUP1 ISZERO PUSH2 0x5C5E JUMPI DUP2 PUSH1 0x20 ADD PUSH1 0x20 DUP3 MUL DUP1 CALLDATASIZE DUP4 CALLDATACOPY ADD SWAP1 POP JUMPDEST POP SWAP1 POP PUSH1 0x0 JUMPDEST DUP8 MLOAD DUP2 LT ISZERO PUSH2 0x5CFE JUMPI PUSH2 0x5C8F DUP11 DUP11 DUP11 DUP5 DUP2 MLOAD DUP2 LT PUSH2 0x5C7E JUMPI INVALID JUMPDEST PUSH1 0x20 MUL PUSH1 0x20 ADD ADD MLOAD DUP11 DUP11 DUP11 DUP11 PUSH2 0x4765 JUMP JUMPDEST DUP5 DUP4 DUP2 MLOAD DUP2 LT PUSH2 0x5C9B JUMPI INVALID JUMPDEST PUSH1 0x20 MUL PUSH1 0x20 ADD ADD DUP5 DUP5 DUP2 MLOAD DUP2 LT PUSH2 0x5CAE JUMPI INVALID JUMPDEST PUSH1 0x20 MUL PUSH1 0x20 ADD ADD DUP3 PUSH20 0xFFFFFFFFFFFFFFFFFFFFFFFFFFFFFFFFFFFFFFFF AND PUSH20 0xFFFFFFFFFFFFFFFFFFFFFFFFFFFFFFFFFFFFFFFF AND DUP2 MSTORE POP DUP3 PUSH1 0x6 SIGNEXTEND PUSH1 0x6 SIGNEXTEND DUP2 MSTORE POP POP POP DUP1 DUP1 PUSH1 0x1 ADD SWAP2 POP POP PUSH2 0x5C64 JUMP JUMPDEST POP SWAP8 POP SWAP8 SWAP6 POP POP POP POP POP POP JUMP JUMPDEST DUP1 PUSH1 0x2 SIGNEXTEND DUP3 PUSH1 0x2 SIGNEXTEND SLT PUSH2 0x5D7F JUMPI PUSH1 0x40 DUP1 MLOAD PUSH32 0x8C379A000000000000000000000000000000000000000000000000000000000 DUP2 MSTORE PUSH1 0x20 PUSH1 0x4 DUP3 ADD MSTORE PUSH1 0x3 PUSH1 0x24 DUP3 ADD MSTORE PUSH32 0x544C550000000000000000000000000000000000000000000000000000000000 PUSH1 0x44 DUP3 ADD MSTORE SWAP1 MLOAD SWAP1 DUP2 SWAP1 SUB PUSH1 0x64 ADD SWAP1 REVERT JUMPDEST PUSH32 0xFFFFFFFFFFFFFFFFFFFFFFFFFFFFFFFFFFFFFFFFFFFFFFFFFFFFFFFFFFF27618 PUSH1 0x2 DUP4 SWAP1 SIGNEXTEND SLT ISZERO PUSH2 0x5E12 JUMPI PUSH1 0x40 DUP1 MLOAD PUSH32 0x8C379A000000000000000000000000000000000000000000000000000000000 DUP2 MSTORE PUSH1 0x20 PUSH1 0x4 DUP3 ADD MSTORE PUSH1 0x3 PUSH1 0x24 DUP3 ADD MSTORE PUSH32 0x544C4D0000000000000000000000000000000000000000000000000000000000 PUSH1 0x44 DUP3 ADD MSTORE SWAP1 MLOAD SWAP1 DUP2 SWAP1 SUB PUSH1 0x64 ADD SWAP1 REVERT JUMPDEST PUSH3 0xD89E8 PUSH1 0x2 DUP3 SWAP1 SIGNEXTEND SGT ISZERO PUSH2 0x5E88 JUMPI PUSH1 0x40 DUP1 MLOAD PUSH32 0x8C379A000000000000000000000000000000000000000000000000000000000 DUP2 MSTORE PUSH1 0x20 PUSH1 0x4 DUP3 ADD MSTORE PUSH1 0x3 PUSH1 0x24 DUP3 ADD MSTORE PUSH32 0x54554D0000000000000000000000000000000000000000000000000000000000 PUSH1 0x44 DUP3 ADD MSTORE SWAP1 MLOAD SWAP1 DUP2 SWAP1 SUB PUSH1 0x64 ADD SWAP1 REVERT JUMPDEST POP POP JUMP JUMPDEST PUSH1 0x40 DUP1 MLOAD PUSH1 0x80 DUP2 ADD DUP3 MSTORE PUSH4 0xFFFFFFFF SWAP3 DUP4 AND DUP1 DUP3 MSTORE PUSH1 0x0 PUSH1 0x20 DUP4 ADD DUP2 SWAP1 MSTORE SWAP3 DUP3 ADD SWAP3 SWAP1 SWAP3 MSTORE PUSH1 0x1 PUSH1 0x60 SWAP1 SWAP2 ADD DUP2 SWAP1 MSTORE DUP4 SLOAD PUSH32 0xFFFFFFFFFFFFFFFFFFFFFFFFFFFFFFFFFFFFFFFFFFFFFFFFFFFFFFFF00000000 AND SWAP1 SWAP2 OR SWAP1 SWAP2 AND PUSH32 0x100000000000000000000000000000000000000000000000000000000000000 OR SWAP1 SWAP2 SSTORE SWAP1 DUP2 SWAP1 JUMP JUMPDEST PUSH1 0x2 SIGNEXTEND PUSH1 0x8 DUP2 SWAP1 SAR SWAP2 PUSH2 0x100 SWAP1 SWAP2 SMOD SWAP1 JUMP JUMPDEST PUSH1 0x0 DUP1 DUP3 GT PUSH2 0x5F2F JUMPI PUSH1 0x0 DUP1 REVERT JUMPDEST PUSH17 0x100000000000000000000000000000000 DUP3 LT PUSH2 0x5F4F JUMPI PUSH1 0x80 SWAP2 DUP3 SHR SWAP2 ADD JUMPDEST PUSH9 0x10000000000000000 DUP3 LT PUSH2 0x5F67 JUMPI PUSH1 0x40 SWAP2 DUP3 SHR SWAP2 ADD JUMPDEST PUSH5 0x100000000 DUP3 LT PUSH2 0x5F7B JUMPI PUSH1 0x20 SWAP2 DUP3 SHR SWAP2 ADD JUMPDEST PUSH3 0x10000 DUP3 LT PUSH2 0x5F8D JUMPI PUSH1 0x10 SWAP2 DUP3 SHR SWAP2 ADD JUMPDEST PUSH2 0x100 DUP3 LT PUSH2 0x5F9E JUMPI PUSH1 0x8 SWAP2 DUP3 SHR SWAP2 ADD JUMPDEST PUSH1 0x10 DUP3 LT PUSH2 0x5FAE JUMPI PUSH1 0x4 SWAP2 DUP3 SHR SWAP2 ADD JUMPDEST PUSH1 0x4 DUP3 LT PUSH2 0x5FBE JUMPI PUSH1 0x2 SWAP2 DUP3 SHR SWAP2 ADD JUMPDEST PUSH1 0x2 DUP3 LT PUSH2 0x3EAF JUMPI PUSH1 0x1 ADD SWAP2 SWAP1 POP JUMP JUMPDEST PUSH1 0x0 DUP1 DUP3 GT PUSH2 0x5FDC JUMPI PUSH1 0x0 DUP1 REVERT JUMPDEST POP PUSH1 0xFF PUSH16 0xFFFFFFFFFFFFFFFFFFFFFFFFFFFFFFFF DUP3 AND ISZERO PUSH2 0x601E JUMPI PUSH32 0xFFFFFFFFFFFFFFFFFFFFFFFFFFFFFFFFFFFFFFFFFFFFFFFFFFFFFFFFFFFFFF80 ADD PUSH2 0x6026 JUMP JUMPDEST PUSH1 0x80 DUP3 SWAP1 SHR SWAP2 POP JUMPDEST PUSH8 0xFFFFFFFFFFFFFFFF DUP3 AND ISZERO PUSH2 0x605D JUMPI PUSH32 0xFFFFFFFFFFFFFFFFFFFFFFFFFFFFFFFFFFFFFFFFFFFFFFFFFFFFFFFFFFFFFFC0 ADD PUSH2 0x6065 JUMP JUMPDEST PUSH1 0x40 DUP3 SWAP1 SHR SWAP2 POP JUMPDEST PUSH4 0xFFFFFFFF DUP3 AND ISZERO PUSH2 0x6098 JUMPI PUSH32 0xFFFFFFFFFFFFFFFFFFFFFFFFFFFFFFFFFFFFFFFFFFFFFFFFFFFFFFFFFFFFFFE0 ADD PUSH2 0x60A0 JUMP JUMPDEST PUSH1 0x20 DUP3 SWAP1 SHR SWAP2 POP JUMPDEST PUSH2 0xFFFF DUP3 AND ISZERO PUSH2 0x60D1 JUMPI PUSH32 0xFFFFFFFFFFFFFFFFFFFFFFFFFFFFFFFFFFFFFFFFFFFFFFFFFFFFFFFFFFFFFFF0 ADD PUSH2 0x60D9 JUMP JUMPDEST PUSH1 0x10 DUP3 SWAP1 SHR SWAP2 POP JUMPDEST PUSH1 0xFF DUP3 AND ISZERO PUSH2 0x6109 JUMPI PUSH32 0xFFFFFFFFFFFFFFFFFFFFFFFFFFFFFFFFFFFFFFFFFFFFFFFFFFFFFFFFFFFFFFF8 ADD PUSH2 0x6111 JUMP JUMPDEST PUSH1 0x8 DUP3 SWAP1 SHR SWAP2 POP JUMPDEST PUSH1 0xF DUP3 AND ISZERO PUSH2 0x6141 JUMPI PUSH32 0xFFFFFFFFFFFFFFFFFFFFFFFFFFFFFFFFFFFFFFFFFFFFFFFFFFFFFFFFFFFFFFFC ADD PUSH2 0x6149 JUMP JUMPDEST PUSH1 0x4 DUP3 SWAP1 SHR SWAP2 POP JUMPDEST PUSH1 0x3 DUP3 AND ISZERO PUSH2 0x6179 JUMPI PUSH32 0xFFFFFFFFFFFFFFFFFFFFFFFFFFFFFFFFFFFFFFFFFFFFFFFFFFFFFFFFFFFFFFFE ADD PUSH2 0x6181 JUMP JUMPDEST PUSH1 0x2 DUP3 SWAP1 SHR SWAP2 POP JUMPDEST PUSH1 0x1 DUP3 AND ISZERO PUSH2 0x3EAF JUMPI PUSH32 0xFFFFFFFFFFFFFFFFFFFFFFFFFFFFFFFFFFFFFFFFFFFFFFFFFFFFFFFFFFFFFFFF ADD SWAP2 SWAP1 POP JUMP JUMPDEST PUSH1 0x0 DUP4 PUSH20 0xFFFFFFFFFFFFFFFFFFFFFFFFFFFFFFFFFFFFFFFF AND DUP6 PUSH20 0xFFFFFFFFFFFFFFFFFFFFFFFFFFFFFFFFFFFFFFFF AND GT ISZERO PUSH2 0x61EB JUMPI SWAP3 SWAP4 SWAP3 JUMPDEST DUP2 PUSH2 0x6237 JUMPI PUSH2 0x6232 DUP4 PUSH16 0xFFFFFFFFFFFFFFFFFFFFFFFFFFFFFFFF AND DUP7 DUP7 SUB PUSH20 0xFFFFFFFFFFFFFFFFFFFFFFFFFFFFFFFFFFFFFFFF AND PUSH13 0x1000000000000000000000000 PUSH2 0x4697 JUMP JUMPDEST PUSH2 0x6279 JUMP JUMPDEST PUSH2 0x6279 DUP4 PUSH16 0xFFFFFFFFFFFFFFFFFFFFFFFFFFFFFFFF AND DUP7 DUP7 SUB PUSH20 0xFFFFFFFFFFFFFFFFFFFFFFFFFFFFFFFFFFFFFFFF AND PUSH13 0x1000000000000000000000000 PUSH2 0x5A92 JUMP JUMPDEST SWAP1 POP JUMPDEST SWAP5 SWAP4 POP POP POP POP JUMP JUMPDEST PUSH1 0x0 DUP4 PUSH20 0xFFFFFFFFFFFFFFFFFFFFFFFFFFFFFFFFFFFFFFFF AND DUP6 PUSH20 0xFFFFFFFFFFFFFFFFFFFFFFFFFFFFFFFFFFFFFFFF AND GT ISZERO PUSH2 0x62BE JUMPI SWAP3 SWAP4 SWAP3 JUMPDEST PUSH28 0xFFFFFFFFFFFFFFFFFFFFFFFFFFFFFFFF000000000000000000000000 PUSH1 0x60 DUP5 SWAP1 SHL AND PUSH20 0xFFFFFFFFFFFFFFFFFFFFFFFFFFFFFFFFFFFFFFFF DUP7 DUP7 SUB DUP2 AND SWAP1 DUP8 AND PUSH2 0x6307 JUMPI PUSH1 0x0 DUP1 REVERT JUMPDEST DUP4 PUSH2 0x6351 JUMPI DUP7 PUSH20 0xFFFFFFFFFFFFFFFFFFFFFFFFFFFFFFFFFFFFFFFF AND PUSH2 0x6344 DUP4 DUP4 DUP10 PUSH20 0xFFFFFFFFFFFFFFFFFFFFFFFFFFFFFFFFFFFFFFFF AND PUSH2 0x4697 JUMP JUMPDEST DUP2 PUSH2 0x634B JUMPI INVALID JUMPDEST DIV PUSH2 0x6391 JUMP JUMPDEST PUSH2 0x6391 PUSH2 0x6375 DUP4 DUP4 DUP10 PUSH20 0xFFFFFFFFFFFFFFFFFFFFFFFFFFFFFFFFFFFFFFFF AND PUSH2 0x5A92 JUMP JUMPDEST DUP9 PUSH20 0xFFFFFFFFFFFFFFFFFFFFFFFFFFFFFFFFFFFFFFFF AND PUSH2 0x6A5F JUMP JUMPDEST SWAP8 SWAP7 POP POP POP POP POP POP POP JUMP JUMPDEST PUSH1 0x0 DUP1 DUP6 PUSH20 0xFFFFFFFFFFFFFFFFFFFFFFFFFFFFFFFFFFFFFFFF AND GT PUSH2 0x63C0 JUMPI PUSH1 0x0 DUP1 REVERT JUMPDEST PUSH1 0x0 DUP5 PUSH16 0xFFFFFFFFFFFFFFFFFFFFFFFFFFFFFFFF AND GT PUSH2 0x63DF JUMPI PUSH1 0x0 DUP1 REVERT JUMPDEST DUP2 PUSH2 0x63F1 JUMPI PUSH2 0x6232 DUP6 DUP6 DUP6 PUSH1 0x1 PUSH2 0x6A6A JUMP JUMPDEST PUSH2 0x6279 DUP6 DUP6 DUP6 PUSH1 0x1 PUSH2 0x6BC2 JUMP JUMPDEST PUSH1 0x0 DUP1 DUP6 PUSH20 0xFFFFFFFFFFFFFFFFFFFFFFFFFFFFFFFFFFFFFFFF AND GT PUSH2 0x6422 JUMPI PUSH1 0x0 DUP1 REVERT JUMPDEST PUSH1 0x0 DUP5 PUSH16 0xFFFFFFFFFFFFFFFFFFFFFFFFFFFFFFFF AND GT PUSH2 0x6441 JUMPI PUSH1 0x0 DUP1 REVERT JUMPDEST DUP2 PUSH2 0x6453 JUMPI PUSH2 0x6232 DUP6 DUP6 DUP6 PUSH1 0x0 PUSH2 0x6BC2 JUMP JUMPDEST PUSH2 0x6279 DUP6 DUP6 DUP6 PUSH1 0x0 PUSH2 0x6A6A JUMP JUMPDEST PUSH2 0x6468 PUSH2 0x76D5 JUMP JUMPDEST PUSH1 0x0 DUP6 PUSH1 0x0 ADD MLOAD DUP6 SUB SWAP1 POP PUSH1 0x40 MLOAD DUP1 PUSH1 0x80 ADD PUSH1 0x40 MSTORE DUP1 DUP7 PUSH4 0xFFFFFFFF AND DUP2 MSTORE PUSH1 0x20 ADD DUP3 PUSH4 0xFFFFFFFF AND DUP7 PUSH1 0x2 SIGNEXTEND MUL DUP9 PUSH1 0x20 ADD MLOAD ADD PUSH1 0x6 SIGNEXTEND DUP2 MSTORE PUSH1 0x20 ADD PUSH1 0x0 DUP6 PUSH16 0xFFFFFFFFFFFFFFFFFFFFFFFFFFFFFFFF AND GT PUSH2 0x64C5 JUMPI PUSH1 0x1 PUSH2 0x64C7 JUMP JUMPDEST DUP5 JUMPDEST PUSH16 0xFFFFFFFFFFFFFFFFFFFFFFFFFFFFFFFF AND PUSH20 0xFFFFFFFF00000000000000000000000000000000 PUSH1 0x80 DUP6 SWAP1 SHL AND DUP2 PUSH2 0x64FB JUMPI INVALID JUMPDEST DIV DUP9 PUSH1 0x40 ADD MLOAD ADD PUSH20 0xFFFFFFFFFFFFFFFFFFFFFFFFFFFFFFFFFFFFFFFF AND DUP2 MSTORE PUSH1 0x20 ADD PUSH1 0x1 ISZERO ISZERO DUP2 MSTORE POP SWAP2 POP POP SWAP5 SWAP4 POP POP POP POP JUMP JUMPDEST PUSH2 0x6537 PUSH2 0x76D5 JUMP JUMPDEST PUSH2 0x653F PUSH2 0x76D5 JUMP JUMPDEST DUP9 DUP6 PUSH2 0xFFFF AND PUSH2 0xFFFF DUP2 LT PUSH2 0x6550 JUMPI INVALID JUMPDEST PUSH1 0x40 DUP1 MLOAD PUSH1 0x80 DUP2 ADD DUP3 MSTORE SWAP2 SWAP1 SWAP3 ADD SLOAD PUSH4 0xFFFFFFFF DUP2 AND DUP1 DUP4 MSTORE PUSH5 0x100000000 DUP3 DIV PUSH1 0x6 SWAP1 DUP2 SIGNEXTEND DUP2 SIGNEXTEND SWAP1 SIGNEXTEND PUSH1 0x20 DUP5 ADD MSTORE PUSH12 0x10000000000000000000000 DUP3 DIV PUSH20 0xFFFFFFFFFFFFFFFFFFFFFFFFFFFFFFFFFFFFFFFF AND SWAP4 DUP4 ADD SWAP4 SWAP1 SWAP4 MSTORE PUSH32 0x100000000000000000000000000000000000000000000000000000000000000 SWAP1 DIV PUSH1 0xFF AND ISZERO ISZERO PUSH1 0x60 DUP3 ADD MSTORE SWAP3 POP PUSH2 0x65E6 SWAP1 DUP10 SWAP1 DUP10 PUSH2 0x6CF8 JUMP JUMPDEST ISZERO PUSH2 0x661E JUMPI DUP7 PUSH4 0xFFFFFFFF AND DUP3 PUSH1 0x0 ADD MLOAD PUSH4 0xFFFFFFFF AND EQ ISZERO PUSH2 0x6608 JUMPI PUSH2 0x492A JUMP JUMPDEST DUP2 PUSH2 0x6615 DUP4 DUP10 DUP10 DUP9 PUSH2 0x6460 JUMP JUMPDEST SWAP2 POP SWAP2 POP PUSH2 0x492A JUMP JUMPDEST DUP9 DUP4 PUSH2 0xFFFF AND DUP7 PUSH1 0x1 ADD PUSH2 0xFFFF AND DUP2 PUSH2 0x6633 JUMPI INVALID JUMPDEST MOD PUSH2 0xFFFF AND PUSH2 0xFFFF DUP2 LT PUSH2 0x6643 JUMPI INVALID JUMPDEST PUSH1 0x40 DUP1 MLOAD PUSH1 0x80 DUP2 ADD DUP3 MSTORE SWAP3 SWAP1 SWAP2 ADD SLOAD PUSH4 0xFFFFFFFF DUP2 AND DUP4 MSTORE PUSH5 0x100000000 DUP2 DIV PUSH1 0x6 SWAP1 DUP2 SIGNEXTEND DUP2 SIGNEXTEND SWAP1 SIGNEXTEND PUSH1 0x20 DUP5 ADD MSTORE PUSH20 0xFFFFFFFFFFFFFFFFFFFFFFFFFFFFFFFFFFFFFFFF PUSH12 0x10000000000000000000000 DUP3 DIV AND SWAP2 DUP4 ADD SWAP2 SWAP1 SWAP2 MSTORE PUSH1 0xFF PUSH32 0x100000000000000000000000000000000000000000000000000000000000000 SWAP1 SWAP2 DIV AND ISZERO ISZERO PUSH1 0x60 DUP3 ADD DUP2 SWAP1 MSTORE SWAP1 SWAP3 POP PUSH2 0x675C JUMPI PUSH1 0x40 DUP1 MLOAD PUSH1 0x80 DUP2 ADD DUP3 MSTORE DUP11 SLOAD PUSH4 0xFFFFFFFF DUP2 AND DUP3 MSTORE PUSH5 0x100000000 DUP2 DIV PUSH1 0x6 SWAP1 DUP2 SIGNEXTEND DUP2 SIGNEXTEND SWAP1 SIGNEXTEND PUSH1 0x20 DUP4 ADD MSTORE PUSH12 0x10000000000000000000000 DUP2 DIV PUSH20 0xFFFFFFFFFFFFFFFFFFFFFFFFFFFFFFFFFFFFFFFF AND SWAP3 DUP3 ADD SWAP3 SWAP1 SWAP3 MSTORE PUSH32 0x100000000000000000000000000000000000000000000000000000000000000 SWAP1 SWAP2 DIV PUSH1 0xFF AND ISZERO ISZERO PUSH1 0x60 DUP3 ADD MSTORE SWAP2 POP JUMPDEST PUSH2 0x676B DUP9 DUP4 PUSH1 0x0 ADD MLOAD DUP10 PUSH2 0x6CF8 JUMP JUMPDEST PUSH2 0x67D6 JUMPI PUSH1 0x40 DUP1 MLOAD PUSH32 0x8C379A000000000000000000000000000000000000000000000000000000000 DUP2 MSTORE PUSH1 0x20 PUSH1 0x4 DUP3 ADD MSTORE PUSH1 0x3 PUSH1 0x24 DUP3 ADD MSTORE PUSH32 0x4F4C440000000000000000000000000000000000000000000000000000000000 PUSH1 0x44 DUP3 ADD MSTORE SWAP1 MLOAD SWAP1 DUP2 SWAP1 SUB PUSH1 0x64 ADD SWAP1 REVERT JUMPDEST PUSH2 0x67E3 DUP10 DUP10 DUP10 DUP9 DUP8 PUSH2 0x6DBB JUMP JUMPDEST SWAP2 POP SWAP2 POP SWAP8 POP SWAP8 SWAP6 POP POP POP POP POP POP JUMP JUMPDEST PUSH1 0x0 PUSH2 0x6802 PUSH1 0x7 DUP8 DUP8 DUP8 PUSH2 0x5AEA JUMP JUMPDEST PUSH1 0x1 SLOAD PUSH1 0x2 SLOAD SWAP2 SWAP3 POP SWAP1 PUSH1 0x0 DUP1 PUSH1 0xF DUP8 SWAP1 SIGNEXTEND ISZERO PUSH2 0x698C JUMPI PUSH1 0x0 PUSH2 0x6823 PUSH2 0x3EF8 JUMP JUMPDEST PUSH1 0x0 DUP1 SLOAD PUSH1 0x4 SLOAD SWAP3 SWAP4 POP SWAP1 SWAP2 DUP3 SWAP2 PUSH2 0x68B1 SWAP2 PUSH1 0x8 SWAP2 DUP7 SWAP2 DUP6 SWAP2 PUSH21 0x10000000000000000000000000000000000000000 DUP2 DIV PUSH1 0x2 SIGNEXTEND SWAP2 PUSH2 0xFFFF PUSH24 0x10000000000000000000000000000000000000000000000 DUP4 DIV DUP2 AND SWAP3 PUSH16 0xFFFFFFFFFFFFFFFFFFFFFFFFFFFFFFFF SWAP1 SWAP3 AND SWAP2 PUSH26 0x100000000000000000000000000000000000000000000000000 SWAP1 DIV AND PUSH2 0x4765 JUMP JUMPDEST SWAP1 SWAP3 POP SWAP1 POP PUSH2 0x68EB PUSH1 0x5 DUP14 DUP12 DUP14 DUP12 DUP12 DUP8 DUP10 DUP12 PUSH1 0x0 PUSH32 0x0 PUSH2 0x6FBD JUMP JUMPDEST SWAP5 POP PUSH2 0x6922 PUSH1 0x5 DUP13 DUP12 DUP14 DUP12 DUP12 DUP8 DUP10 DUP12 PUSH1 0x1 PUSH32 0x0 PUSH2 0x6FBD JUMP JUMPDEST SWAP4 POP DUP5 ISZERO PUSH2 0x6956 JUMPI PUSH2 0x6956 PUSH1 0x6 DUP14 PUSH32 0x0 PUSH2 0x72C2 JUMP JUMPDEST DUP4 ISZERO PUSH2 0x6988 JUMPI PUSH2 0x6988 PUSH1 0x6 DUP13 PUSH32 0x0 PUSH2 0x72C2 JUMP JUMPDEST POP POP POP JUMPDEST PUSH1 0x0 DUP1 PUSH2 0x699E PUSH1 0x5 DUP13 DUP13 DUP12 DUP11 DUP11 PUSH2 0x7328 JUMP JUMPDEST SWAP1 SWAP3 POP SWAP1 POP PUSH2 0x69AF DUP8 DUP11 DUP5 DUP5 PUSH2 0x73D4 JUMP JUMPDEST PUSH1 0x0 DUP10 PUSH1 0xF SIGNEXTEND SLT ISZERO PUSH2 0x69DD JUMPI DUP4 ISZERO PUSH2 0x69CC JUMPI PUSH2 0x69CC PUSH1 0x5 DUP13 PUSH2 0x764A JUMP JUMPDEST DUP3 ISZERO PUSH2 0x69DD JUMPI PUSH2 0x69DD PUSH1 0x5 DUP12 PUSH2 0x764A JUMP JUMPDEST POP POP POP POP POP POP SWAP6 SWAP5 POP POP POP POP POP JUMP JUMPDEST PUSH1 0x0 DUP1 DUP3 PUSH1 0xF SIGNEXTEND SLT PUSH2 0x6A12 JUMPI PUSH2 0x6A0D PUSH2 0x6A08 DUP6 DUP6 DUP6 PUSH1 0x1 PUSH2 0x6284 JUMP JUMPDEST PUSH2 0x4633 JUMP JUMPDEST PUSH2 0x627C JUMP JUMPDEST PUSH2 0x6A25 PUSH2 0x6A08 DUP6 DUP6 DUP6 PUSH1 0x0 SUB PUSH1 0x0 PUSH2 0x6284 JUMP JUMPDEST PUSH1 0x0 SUB SWAP5 SWAP4 POP POP POP POP JUMP JUMPDEST PUSH1 0x0 DUP1 DUP3 PUSH1 0xF SIGNEXTEND SLT PUSH2 0x6A4C JUMPI PUSH2 0x6A0D PUSH2 0x6A08 DUP6 DUP6 DUP6 PUSH1 0x1 PUSH2 0x61B1 JUMP JUMPDEST PUSH2 0x6A25 PUSH2 0x6A08 DUP6 DUP6 DUP6 PUSH1 0x0 SUB PUSH1 0x0 PUSH2 0x61B1 JUMP JUMPDEST DUP1 DUP3 DIV SWAP2 MOD ISZERO ISZERO ADD SWAP1 JUMP JUMPDEST PUSH1 0x0 DUP2 ISZERO PUSH2 0x6B12 JUMPI PUSH1 0x0 PUSH20 0xFFFFFFFFFFFFFFFFFFFFFFFFFFFFFFFFFFFFFFFF DUP5 GT ISZERO PUSH2 0x6ABF JUMPI PUSH2 0x6ABA DUP5 PUSH13 0x1000000000000000000000000 DUP8 PUSH16 0xFFFFFFFFFFFFFFFFFFFFFFFFFFFFFFFF AND PUSH2 0x4697 JUMP JUMPDEST PUSH2 0x6AE0 JUMP JUMPDEST PUSH16 0xFFFFFFFFFFFFFFFFFFFFFFFFFFFFFFFF DUP6 AND PUSH1 0x60 DUP6 SWAP1 SHL DUP2 PUSH2 0x6ADE JUMPI INVALID JUMPDEST DIV JUMPDEST SWAP1 POP PUSH2 0x6B0A PUSH2 0x6B05 PUSH20 0xFFFFFFFFFFFFFFFFFFFFFFFFFFFFFFFFFFFFFFFF DUP9 AND DUP4 PUSH2 0x552F JUMP JUMPDEST PUSH2 0x7676 JUMP JUMPDEST SWAP2 POP POP PUSH2 0x627C JUMP JUMPDEST PUSH1 0x0 PUSH20 0xFFFFFFFFFFFFFFFFFFFFFFFFFFFFFFFFFFFFFFFF DUP5 GT ISZERO PUSH2 0x6B5F JUMPI PUSH2 0x6B5A DUP5 PUSH13 0x1000000000000000000000000 DUP8 PUSH16 0xFFFFFFFFFFFFFFFFFFFFFFFFFFFFFFFF AND PUSH2 0x5A92 JUMP JUMPDEST PUSH2 0x6B7F JUMP JUMPDEST PUSH2 0x6B7F PUSH1 0x60 DUP6 SWAP1 SHL PUSH16 0xFFFFFFFFFFFFFFFFFFFFFFFFFFFFFFFF DUP8 AND PUSH2 0x6A5F JUMP JUMPDEST SWAP1 POP DUP1 DUP7 PUSH20 0xFFFFFFFFFFFFFFFFFFFFFFFFFFFFFFFFFFFFFFFF AND GT PUSH2 0x6BA3 JUMPI PUSH1 0x0 DUP1 REVERT JUMPDEST PUSH20 0xFFFFFFFFFFFFFFFFFFFFFFFFFFFFFFFFFFFFFFFF DUP7 AND SUB SWAP1 POP PUSH2 0x627C JUMP JUMPDEST PUSH1 0x0 DUP3 PUSH2 0x6BD0 JUMPI POP DUP4 PUSH2 0x627C JUMP JUMPDEST PUSH28 0xFFFFFFFFFFFFFFFFFFFFFFFFFFFFFFFF000000000000000000000000 PUSH1 0x60 DUP6 SWAP1 SHL AND DUP3 ISZERO PUSH2 0x6C97 JUMPI PUSH20 0xFFFFFFFFFFFFFFFFFFFFFFFFFFFFFFFFFFFFFFFF DUP7 AND DUP5 DUP2 MUL SWAP1 DUP6 DUP3 DUP2 PUSH2 0x6C1D JUMPI INVALID JUMPDEST DIV EQ ISZERO PUSH2 0x6C5B JUMPI DUP2 DUP2 ADD DUP3 DUP2 LT PUSH2 0x6C59 JUMPI PUSH2 0x6C4F DUP4 DUP10 PUSH20 0xFFFFFFFFFFFFFFFFFFFFFFFFFFFFFFFFFFFFFFFF AND DUP4 PUSH2 0x5A92 JUMP JUMPDEST SWAP4 POP POP POP POP PUSH2 0x627C JUMP JUMPDEST POP JUMPDEST PUSH2 0x6C8E DUP3 PUSH2 0x6C89 DUP8 DUP11 PUSH20 0xFFFFFFFFFFFFFFFFFFFFFFFFFFFFFFFFFFFFFFFF AND DUP7 DUP2 PUSH2 0x6C82 JUMPI INVALID JUMPDEST DIV SWAP1 PUSH2 0x552F JUMP JUMPDEST PUSH2 0x6A5F JUMP JUMPDEST SWAP3 POP POP POP PUSH2 0x627C JUMP JUMPDEST PUSH20 0xFFFFFFFFFFFFFFFFFFFFFFFFFFFFFFFFFFFFFFFF DUP7 AND DUP5 DUP2 MUL SWAP1 DUP6 DUP3 DUP2 PUSH2 0x6CBB JUMPI INVALID JUMPDEST DIV EQ DUP1 ISZERO PUSH2 0x6CC8 JUMPI POP DUP1 DUP3 GT JUMPDEST PUSH2 0x6CD1 JUMPI PUSH1 0x0 DUP1 REVERT JUMPDEST DUP1 DUP3 SUB PUSH2 0x6C4F PUSH2 0x6B05 DUP5 PUSH20 0xFFFFFFFFFFFFFFFFFFFFFFFFFFFFFFFFFFFFFFFF DUP12 AND DUP5 PUSH2 0x5A92 JUMP JUMPDEST PUSH1 0x0 DUP4 PUSH4 0xFFFFFFFF AND DUP4 PUSH4 0xFFFFFFFF AND GT ISZERO DUP1 ISZERO PUSH2 0x6D22 JUMPI POP DUP4 PUSH4 0xFFFFFFFF AND DUP3 PUSH4 0xFFFFFFFF AND GT ISZERO JUMPDEST ISZERO PUSH2 0x6D3E JUMPI DUP2 PUSH4 0xFFFFFFFF AND DUP4 PUSH4 0xFFFFFFFF AND GT ISZERO SWAP1 POP PUSH2 0x475E JUMP JUMPDEST PUSH1 0x0 DUP5 PUSH4 0xFFFFFFFF AND DUP5 PUSH4 0xFFFFFFFF AND GT PUSH2 0x6D66 JUMPI DUP4 PUSH4 0xFFFFFFFF AND PUSH5 0x100000000 ADD PUSH2 0x6D6E JUMP JUMPDEST DUP4 PUSH4 0xFFFFFFFF AND JUMPDEST PUSH5 0xFFFFFFFFFF AND SWAP1 POP PUSH1 0x0 DUP6 PUSH4 0xFFFFFFFF AND DUP5 PUSH4 0xFFFFFFFF AND GT PUSH2 0x6D9F JUMPI DUP4 PUSH4 0xFFFFFFFF AND PUSH5 0x100000000 ADD PUSH2 0x6DA7 JUMP JUMPDEST DUP4 PUSH4 0xFFFFFFFF AND JUMPDEST PUSH5 0xFFFFFFFFFF AND SWAP1 SWAP2 GT ISZERO SWAP6 SWAP5 POP POP POP POP POP JUMP JUMPDEST PUSH2 0x6DC3 PUSH2 0x76D5 JUMP JUMPDEST PUSH2 0x6DCB PUSH2 0x76D5 JUMP JUMPDEST PUSH1 0x0 DUP4 PUSH2 0xFFFF AND DUP6 PUSH1 0x1 ADD PUSH2 0xFFFF AND DUP2 PUSH2 0x6DE1 JUMPI INVALID JUMPDEST MOD PUSH2 0xFFFF AND SWAP1 POP PUSH1 0x0 PUSH1 0x1 DUP6 PUSH2 0xFFFF AND DUP4 ADD SUB SWAP1 POP PUSH1 0x0 JUMPDEST POP PUSH1 0x2 DUP2 DUP4 ADD DIV DUP10 PUSH2 0xFFFF DUP8 AND DUP3 DUP2 PUSH2 0x6E0E JUMPI INVALID JUMPDEST MOD PUSH2 0xFFFF DUP2 LT PUSH2 0x6E1A JUMPI INVALID JUMPDEST PUSH1 0x40 DUP1 MLOAD PUSH1 0x80 DUP2 ADD DUP3 MSTORE SWAP3 SWAP1 SWAP2 ADD SLOAD PUSH4 0xFFFFFFFF DUP2 AND DUP4 MSTORE PUSH5 0x100000000 DUP2 DIV PUSH1 0x6 SWAP1 DUP2 SIGNEXTEND DUP2 SIGNEXTEND SWAP1 SIGNEXTEND PUSH1 0x20 DUP5 ADD MSTORE PUSH20 0xFFFFFFFFFFFFFFFFFFFFFFFFFFFFFFFFFFFFFFFF PUSH12 0x10000000000000000000000 DUP3 DIV AND SWAP2 DUP4 ADD SWAP2 SWAP1 SWAP2 MSTORE PUSH1 0xFF PUSH32 0x100000000000000000000000000000000000000000000000000000000000000 SWAP1 SWAP2 DIV AND ISZERO ISZERO PUSH1 0x60 DUP3 ADD DUP2 SWAP1 MSTORE SWAP1 SWAP6 POP PUSH2 0x6EB6 JUMPI DUP1 PUSH1 0x1 ADD SWAP3 POP PUSH2 0x6DF9 JUMP JUMPDEST DUP10 DUP7 PUSH2 0xFFFF AND DUP3 PUSH1 0x1 ADD DUP2 PUSH2 0x6EC7 JUMPI INVALID JUMPDEST MOD PUSH2 0xFFFF DUP2 LT PUSH2 0x6ED3 JUMPI INVALID JUMPDEST PUSH1 0x40 DUP1 MLOAD PUSH1 0x80 DUP2 ADD DUP3 MSTORE SWAP3 SWAP1 SWAP2 ADD SLOAD PUSH4 0xFFFFFFFF DUP2 AND DUP4 MSTORE PUSH5 0x100000000 DUP2 DIV PUSH1 0x6 SWAP1 DUP2 SIGNEXTEND DUP2 SIGNEXTEND SWAP1 SIGNEXTEND PUSH1 0x20 DUP5 ADD MSTORE PUSH20 0xFFFFFFFFFFFFFFFFFFFFFFFFFFFFFFFFFFFFFFFF PUSH12 0x10000000000000000000000 DUP3 DIV AND SWAP2 DUP4 ADD SWAP2 SWAP1 SWAP2 MSTORE PUSH1 0xFF PUSH32 0x100000000000000000000000000000000000000000000000000000000000000 SWAP1 SWAP2 DIV AND ISZERO ISZERO PUSH1 0x60 DUP3 ADD MSTORE DUP6 MLOAD SWAP1 SWAP5 POP PUSH1 0x0 SWAP1 PUSH2 0x6F6F SWAP1 DUP12 SWAP1 DUP12 PUSH2 0x6CF8 JUMP JUMPDEST SWAP1 POP DUP1 DUP1 ISZERO PUSH2 0x6F88 JUMPI POP PUSH2 0x6F88 DUP11 DUP11 DUP8 PUSH1 0x0 ADD MLOAD PUSH2 0x6CF8 JUMP JUMPDEST ISZERO PUSH2 0x6F93 JUMPI POP PUSH2 0x6FB0 JUMP JUMPDEST DUP1 PUSH2 0x6FA3 JUMPI PUSH1 0x1 DUP3 SUB SWAP3 POP PUSH2 0x6FAA JUMP JUMPDEST DUP2 PUSH1 0x1 ADD SWAP4 POP JUMPDEST POP PUSH2 0x6DF9 JUMP JUMPDEST POP POP POP SWAP6 POP SWAP6 SWAP4 POP POP POP POP JUMP JUMPDEST PUSH1 0x2 DUP11 DUP2 SIGNEXTEND SWAP1 SIGNEXTEND PUSH1 0x0 SWAP1 DUP2 MSTORE PUSH1 0x20 DUP13 SWAP1 MSTORE PUSH1 0x40 DUP2 KECCAK256 DUP1 SLOAD PUSH16 0xFFFFFFFFFFFFFFFFFFFFFFFFFFFFFFFF AND DUP3 PUSH2 0x6FF1 DUP3 DUP14 PUSH2 0x4A6B JUMP JUMPDEST SWAP1 POP DUP5 PUSH16 0xFFFFFFFFFFFFFFFFFFFFFFFFFFFFFFFF AND DUP2 PUSH16 0xFFFFFFFFFFFFFFFFFFFFFFFFFFFFFFFF AND GT ISZERO PUSH2 0x7086 JUMPI PUSH1 0x40 DUP1 MLOAD PUSH32 0x8C379A000000000000000000000000000000000000000000000000000000000 DUP2 MSTORE PUSH1 0x20 PUSH1 0x4 DUP3 ADD MSTORE PUSH1 0x2 PUSH1 0x24 DUP3 ADD MSTORE PUSH32 0x4C4F000000000000000000000000000000000000000000000000000000000000 PUSH1 0x44 DUP3 ADD MSTORE SWAP1 MLOAD SWAP1 DUP2 SWAP1 SUB PUSH1 0x64 ADD SWAP1 REVERT JUMPDEST PUSH16 0xFFFFFFFFFFFFFFFFFFFFFFFFFFFFFFFF DUP3 DUP2 AND ISZERO SWAP1 DUP3 AND ISZERO DUP2 EQ ISZERO SWAP5 POP ISZERO PUSH2 0x71D6 JUMPI DUP13 PUSH1 0x2 SIGNEXTEND DUP15 PUSH1 0x2 SIGNEXTEND SGT PUSH2 0x718A JUMPI PUSH1 0x1 DUP4 ADD DUP12 SWAP1 SSTORE PUSH1 0x2 DUP4 ADD DUP11 SWAP1 SSTORE PUSH1 0x3 DUP4 ADD DUP1 SLOAD PUSH32 0xFFFFFFFFFF0000000000000000000000000000000000000000FFFFFFFFFFFFFF AND PUSH8 0x100000000000000 PUSH20 0xFFFFFFFFFFFFFFFFFFFFFFFFFFFFFFFFFFFFFFFF DUP13 AND MUL OR PUSH32 0xFFFFFFFFFFFFFFFFFFFFFFFFFFFFFFFFFFFFFFFFFFFFFFFFFF00000000000000 AND PUSH7 0xFFFFFFFFFFFFFF PUSH1 0x6 DUP12 SWAP1 SIGNEXTEND AND OR PUSH32 0xFF00000000FFFFFFFFFFFFFFFFFFFFFFFFFFFFFFFFFFFFFFFFFFFFFFFFFFFFFF AND PUSH28 0x1000000000000000000000000000000000000000000000000000000 PUSH4 0xFFFFFFFF DUP11 AND MUL OR SWAP1 SSTORE JUMPDEST PUSH1 0x3 DUP4 ADD DUP1 SLOAD PUSH31 0xFFFFFFFFFFFFFFFFFFFFFFFFFFFFFFFFFFFFFFFFFFFFFFFFFFFFFFFFFFFFFF AND PUSH32 0x100000000000000000000000000000000000000000000000000000000000000 OR SWAP1 SSTORE JUMPDEST DUP3 SLOAD PUSH32 0xFFFFFFFFFFFFFFFFFFFFFFFFFFFFFFFF00000000000000000000000000000000 AND PUSH16 0xFFFFFFFFFFFFFFFFFFFFFFFFFFFFFFFF DUP3 AND OR DUP4 SSTORE DUP6 PUSH2 0x724D JUMPI DUP3 SLOAD PUSH2 0x7248 SWAP1 PUSH2 0x7243 SWAP1 PUSH17 0x100000000000000000000000000000000 SWAP1 DIV PUSH1 0xF SWAP1 DUP2 SIGNEXTEND DUP2 SIGNEXTEND SWAP1 DUP16 SWAP1 SIGNEXTEND PUSH2 0x4681 JUMP JUMPDEST PUSH2 0x5724 JUMP JUMPDEST PUSH2 0x727B JUMP JUMPDEST DUP3 SLOAD PUSH2 0x727B SWAP1 PUSH2 0x7243 SWAP1 PUSH17 0x100000000000000000000000000000000 SWAP1 DIV PUSH1 0xF SWAP1 DUP2 SIGNEXTEND DUP2 SIGNEXTEND SWAP1 DUP16 SWAP1 SIGNEXTEND PUSH2 0x4665 JUMP JUMPDEST DUP4 SLOAD PUSH1 0xF SWAP2 SWAP1 SWAP2 SIGNEXTEND PUSH16 0xFFFFFFFFFFFFFFFFFFFFFFFFFFFFFFFF SWAP1 DUP2 AND PUSH17 0x100000000000000000000000000000000 MUL SWAP2 AND OR SWAP1 SWAP3 SSTORE POP SWAP1 SWAP13 SWAP12 POP POP POP POP POP POP POP POP POP POP POP POP JUMP JUMPDEST DUP1 PUSH1 0x2 SIGNEXTEND DUP3 PUSH1 0x2 SIGNEXTEND DUP2 PUSH2 0x72D1 JUMPI INVALID JUMPDEST SMOD PUSH1 0x2 SIGNEXTEND ISZERO PUSH2 0x72DF JUMPI PUSH1 0x0 DUP1 REVERT JUMPDEST PUSH1 0x0 DUP1 PUSH2 0x72FA DUP4 PUSH1 0x2 SIGNEXTEND DUP6 PUSH1 0x2 SIGNEXTEND DUP2 PUSH2 0x72F4 JUMPI INVALID JUMPDEST SDIV PUSH2 0x5F0F JUMP JUMPDEST PUSH1 0x1 SWAP2 DUP3 SIGNEXTEND DUP3 SIGNEXTEND PUSH1 0x0 SWAP1 DUP2 MSTORE PUSH1 0x20 SWAP8 SWAP1 SWAP8 MSTORE PUSH1 0x40 SWAP1 SWAP7 KECCAK256 DUP1 SLOAD PUSH1 0xFF SWAP1 SWAP8 AND SWAP2 SWAP1 SWAP2 SHL SWAP1 SWAP6 XOR SWAP1 SWAP5 SSTORE POP POP POP POP JUMP JUMPDEST PUSH1 0x2 DUP6 DUP2 SIGNEXTEND DUP1 DUP3 SIGNEXTEND PUSH1 0x0 SWAP1 DUP2 MSTORE PUSH1 0x20 DUP10 SWAP1 MSTORE PUSH1 0x40 DUP1 DUP3 KECCAK256 DUP9 DUP6 SIGNEXTEND DUP6 SIGNEXTEND DUP4 MSTORE SWAP1 DUP3 KECCAK256 SWAP2 SWAP4 DUP5 SWAP4 SWAP2 SWAP3 SWAP2 DUP5 SWAP2 DUP3 SWAP2 SWAP1 DUP11 SWAP1 SIGNEXTEND SLT PUSH2 0x736E JUMPI POP POP PUSH1 0x1 DUP3 ADD SLOAD PUSH1 0x2 DUP4 ADD SLOAD PUSH2 0x7381 JUMP JUMPDEST DUP4 PUSH1 0x1 ADD SLOAD DUP9 SUB SWAP2 POP DUP4 PUSH1 0x2 ADD SLOAD DUP8 SUB SWAP1 POP JUMPDEST PUSH1 0x0 DUP1 DUP12 PUSH1 0x2 SIGNEXTEND DUP12 PUSH1 0x2 SIGNEXTEND SLT ISZERO PUSH2 0x73A3 JUMPI POP POP PUSH1 0x1 DUP4 ADD SLOAD PUSH1 0x2 DUP5 ADD SLOAD PUSH2 0x73B6 JUMP JUMPDEST DUP5 PUSH1 0x1 ADD SLOAD DUP11 SUB SWAP2 POP DUP5 PUSH1 0x2 ADD SLOAD DUP10 SUB SWAP1 POP JUMPDEST SWAP3 SWAP1 SWAP9 SUB SWAP8 SWAP1 SWAP8 SUB SWAP12 SWAP7 SWAP1 SWAP6 SUB SWAP5 SWAP1 SWAP5 SUB SWAP9 POP SWAP4 SWAP7 POP POP POP POP POP POP POP JUMP JUMPDEST PUSH1 0x40 DUP1 MLOAD PUSH1 0xA0 DUP2 ADD DUP3 MSTORE DUP6 SLOAD PUSH16 0xFFFFFFFFFFFFFFFFFFFFFFFFFFFFFFFF SWAP1 DUP2 AND DUP3 MSTORE PUSH1 0x1 DUP8 ADD SLOAD PUSH1 0x20 DUP4 ADD MSTORE PUSH1 0x2 DUP8 ADD SLOAD SWAP3 DUP3 ADD SWAP3 SWAP1 SWAP3 MSTORE PUSH1 0x3 DUP7 ADD SLOAD DUP1 DUP4 AND PUSH1 0x60 DUP4 ADD MSTORE PUSH17 0x100000000000000000000000000000000 SWAP1 DIV SWAP1 SWAP2 AND PUSH1 0x80 DUP3 ADD MSTORE PUSH1 0x0 PUSH1 0xF DUP6 SWAP1 SIGNEXTEND PUSH2 0x74C7 JUMPI DUP2 MLOAD PUSH16 0xFFFFFFFFFFFFFFFFFFFFFFFFFFFFFFFF AND PUSH2 0x74BF JUMPI PUSH1 0x40 DUP1 MLOAD PUSH32 0x8C379A000000000000000000000000000000000000000000000000000000000 DUP2 MSTORE PUSH1 0x20 PUSH1 0x4 DUP3 ADD MSTORE PUSH1 0x2 PUSH1 0x24 DUP3 ADD MSTORE PUSH32 0x4E50000000000000000000000000000000000000000000000000000000000000 PUSH1 0x44 DUP3 ADD MSTORE SWAP1 MLOAD SWAP1 DUP2 SWAP1 SUB PUSH1 0x64 ADD SWAP1 REVERT JUMPDEST POP DUP1 MLOAD PUSH2 0x74D6 JUMP JUMPDEST DUP2 MLOAD PUSH2 0x74D3 SWAP1 DUP7 PUSH2 0x4A6B JUMP JUMPDEST SWAP1 POP JUMPDEST PUSH1 0x0 PUSH2 0x7510 DUP4 PUSH1 0x20 ADD MLOAD DUP7 SUB DUP5 PUSH1 0x0 ADD MLOAD PUSH16 0xFFFFFFFFFFFFFFFFFFFFFFFFFFFFFFFF AND PUSH17 0x100000000000000000000000000000000 PUSH2 0x4697 JUMP JUMPDEST SWAP1 POP PUSH1 0x0 PUSH2 0x754C DUP5 PUSH1 0x40 ADD MLOAD DUP7 SUB DUP6 PUSH1 0x0 ADD MLOAD PUSH16 0xFFFFFFFFFFFFFFFFFFFFFFFFFFFFFFFF AND PUSH17 0x100000000000000000000000000000000 PUSH2 0x4697 JUMP JUMPDEST SWAP1 POP DUP7 PUSH1 0xF SIGNEXTEND PUSH1 0x0 EQ PUSH2 0x7594 JUMPI DUP8 SLOAD PUSH32 0xFFFFFFFFFFFFFFFFFFFFFFFFFFFFFFFF00000000000000000000000000000000 AND PUSH16 0xFFFFFFFFFFFFFFFFFFFFFFFFFFFFFFFF DUP5 AND OR DUP9 SSTORE JUMPDEST PUSH1 0x1 DUP9 ADD DUP7 SWAP1 SSTORE PUSH1 0x2 DUP9 ADD DUP6 SWAP1 SSTORE PUSH16 0xFFFFFFFFFFFFFFFFFFFFFFFFFFFFFFFF DUP3 AND ISZERO ISZERO DUP1 PUSH2 0x75D4 JUMPI POP PUSH1 0x0 DUP2 PUSH16 0xFFFFFFFFFFFFFFFFFFFFFFFFFFFFFFFF AND GT JUMPDEST ISZERO PUSH2 0x7640 JUMPI PUSH1 0x3 DUP9 ADD DUP1 SLOAD PUSH32 0xFFFFFFFFFFFFFFFFFFFFFFFFFFFFFFFF00000000000000000000000000000000 DUP2 AND PUSH16 0xFFFFFFFFFFFFFFFFFFFFFFFFFFFFFFFF SWAP2 DUP3 AND DUP6 ADD DUP3 AND OR DUP1 DUP3 AND PUSH17 0x100000000000000000000000000000000 SWAP2 DUP3 SWAP1 DIV DUP4 AND DUP6 ADD SWAP1 SWAP3 AND MUL OR SWAP1 SSTORE JUMPDEST POP POP POP POP POP POP POP POP JUMP JUMPDEST PUSH1 0x2 SWAP1 DUP2 SIGNEXTEND DUP2 SIGNEXTEND PUSH1 0x0 SWAP1 DUP2 MSTORE PUSH1 0x20 SWAP3 SWAP1 SWAP3 MSTORE PUSH1 0x40 DUP3 KECCAK256 DUP3 DUP2 SSTORE PUSH1 0x1 DUP2 ADD DUP4 SWAP1 SSTORE SWAP1 DUP2 ADD DUP3 SWAP1 SSTORE PUSH1 0x3 ADD SSTORE JUMP JUMPDEST DUP1 PUSH20 0xFFFFFFFFFFFFFFFFFFFFFFFFFFFFFFFFFFFFFFFF DUP2 AND DUP2 EQ PUSH2 0x3EAF JUMPI PUSH1 0x0 DUP1 REVERT JUMPDEST PUSH1 0x40 DUP1 MLOAD PUSH1 0xE0 DUP2 ADD DUP3 MSTORE PUSH1 0x0 DUP1 DUP3 MSTORE PUSH1 0x20 DUP3 ADD DUP2 SWAP1 MSTORE SWAP2 DUP2 ADD DUP3 SWAP1 MSTORE PUSH1 0x60 DUP2 ADD DUP3 SWAP1 MSTORE PUSH1 0x80 DUP2 ADD DUP3 SWAP1 MSTORE PUSH1 0xA0 DUP2 ADD DUP3 SWAP1 MSTORE PUSH1 0xC0 DUP2 ADD SWAP2 SWAP1 SWAP2 MSTORE SWAP1 JUMP JUMPDEST PUSH1 0x40 DUP1 MLOAD PUSH1 0x80 DUP2 ADD DUP3 MSTORE PUSH1 0x0 DUP1 DUP3 MSTORE PUSH1 0x20 DUP3 ADD DUP2 SWAP1 MSTORE SWAP2 DUP2 ADD DUP3 SWAP1 MSTORE PUSH1 0x60 DUP2 ADD SWAP2 SWAP1 SWAP2 MSTORE SWAP1 JUMP INVALID LOG2 PUSH5 0x6970667358 0x22 SLT KECCAK256 NOT SUB 0xE2 0x4E MULMOD 0x5E DUP10 SWAP7 MOD 0xC5 0xC8 0xC8 BYTE 0x4A 0x2D CALLCODE BALANCE 0xD PUSH15 0x14F3F370FD8B81A3CCCED6D27D6473 PUSH16 0x6C634300070600330000000000000000 "
		},
		"gasEstimates": {
			"creation": {
				"codeDepositCost": "6102800",
				"executionCost": "infinite",
				"totalCost": "infinite"
			},
			"external": {
				"burn(int24,int24,uint128)": "infinite",
				"collect(address,int24,int24,uint128,uint128)": "infinite",
				"collectProtocol(address,uint128,uint128)": "infinite",
				"factory()": "infinite",
				"fee()": "infinite",
				"feeGrowthGlobal0X128()": "1064",
				"feeGrowthGlobal1X128()": "1088",
				"flash(address,uint256,uint256,bytes)": "infinite",
				"increaseObservationCardinalityNext(uint16)": "infinite",
				"initialize(uint160)": "47209",
				"liquidity()": "1104",
				"maxLiquidityPerTick()": "infinite",
				"mint(address,int24,int24,uint128,bytes)": "infinite",
				"observations(uint256)": "1299",
				"observe(uint32[])": "infinite",
				"positions(bytes32)": "3783",
				"protocolFees()": "1112",
				"setFeeProtocol(uint8,uint8)": "infinite",
				"slot0()": "1336",
				"snapshotCumulativesInside(int24,int24)": "infinite",
				"swap(address,bool,int256,uint160,bytes)": "infinite",
				"tickBitmap(int16)": "1225",
				"tickSpacing()": "infinite",
				"ticks(int24)": "3933",
				"token0()": "infinite",
				"token1()": "infinite"
			},
			"internal": {
				"_blockTimestamp()": "14",
				"_modifyPosition(struct UniswapV3Pool.ModifyPositionParams memory)": "infinite",
				"_updatePosition(address,int24,int24,int128,int24)": "infinite",
				"balance0()": "infinite",
				"balance1()": "infinite",
				"checkTicks(int24,int24)": "infinite"
			}
		},
		"methodIdentifiers": {
			"burn(int24,int24,uint128)": "a34123a7",
			"collect(address,int24,int24,uint128,uint128)": "4f1eb3d8",
			"collectProtocol(address,uint128,uint128)": "85b66729",
			"factory()": "c45a0155",
			"fee()": "ddca3f43",
			"feeGrowthGlobal0X128()": "f3058399",
			"feeGrowthGlobal1X128()": "46141319",
			"flash(address,uint256,uint256,bytes)": "490e6cbc",
			"increaseObservationCardinalityNext(uint16)": "32148f67",
			"initialize(uint160)": "f637731d",
			"liquidity()": "1a686502",
			"maxLiquidityPerTick()": "70cf754a",
			"mint(address,int24,int24,uint128,bytes)": "3c8a7d8d",
			"observations(uint256)": "252c09d7",
			"observe(uint32[])": "883bdbfd",
			"positions(bytes32)": "514ea4bf",
			"protocolFees()": "1ad8b03b",
			"setFeeProtocol(uint8,uint8)": "8206a4d1",
			"slot0()": "3850c7bd",
			"snapshotCumulativesInside(int24,int24)": "a38807f2",
			"swap(address,bool,int256,uint160,bytes)": "128acb08",
			"tickBitmap(int16)": "5339c296",
			"tickSpacing()": "d0c93a7c",
			"ticks(int24)": "f30dba93",
			"token0()": "0dfe1681",
			"token1()": "d21220a7"
		}
	},
	"abi": [
		{
			"inputs": [],
			"stateMutability": "nonpayable",
			"type": "constructor"
		},
		{
			"anonymous": false,
			"inputs": [
				{
					"indexed": true,
					"internalType": "address",
					"name": "owner",
					"type": "address"
				},
				{
					"indexed": true,
					"internalType": "int24",
					"name": "tickLower",
					"type": "int24"
				},
				{
					"indexed": true,
					"internalType": "int24",
					"name": "tickUpper",
					"type": "int24"
				},
				{
					"indexed": false,
					"internalType": "uint128",
					"name": "amount",
					"type": "uint128"
				},
				{
					"indexed": false,
					"internalType": "uint256",
					"name": "amount0",
					"type": "uint256"
				},
				{
					"indexed": false,
					"internalType": "uint256",
					"name": "amount1",
					"type": "uint256"
				}
			],
			"name": "Burn",
			"type": "event"
		},
		{
			"anonymous": false,
			"inputs": [
				{
					"indexed": true,
					"internalType": "address",
					"name": "owner",
					"type": "address"
				},
				{
					"indexed": false,
					"internalType": "address",
					"name": "recipient",
					"type": "address"
				},
				{
					"indexed": true,
					"internalType": "int24",
					"name": "tickLower",
					"type": "int24"
				},
				{
					"indexed": true,
					"internalType": "int24",
					"name": "tickUpper",
					"type": "int24"
				},
				{
					"indexed": false,
					"internalType": "uint128",
					"name": "amount0",
					"type": "uint128"
				},
				{
					"indexed": false,
					"internalType": "uint128",
					"name": "amount1",
					"type": "uint128"
				}
			],
			"name": "Collect",
			"type": "event"
		},
		{
			"anonymous": false,
			"inputs": [
				{
					"indexed": true,
					"internalType": "address",
					"name": "sender",
					"type": "address"
				},
				{
					"indexed": true,
					"internalType": "address",
					"name": "recipient",
					"type": "address"
				},
				{
					"indexed": false,
					"internalType": "uint128",
					"name": "amount0",
					"type": "uint128"
				},
				{
					"indexed": false,
					"internalType": "uint128",
					"name": "amount1",
					"type": "uint128"
				}
			],
			"name": "CollectProtocol",
			"type": "event"
		},
		{
			"anonymous": false,
			"inputs": [
				{
					"indexed": true,
					"internalType": "address",
					"name": "sender",
					"type": "address"
				},
				{
					"indexed": true,
					"internalType": "address",
					"name": "recipient",
					"type": "address"
				},
				{
					"indexed": false,
					"internalType": "uint256",
					"name": "amount0",
					"type": "uint256"
				},
				{
					"indexed": false,
					"internalType": "uint256",
					"name": "amount1",
					"type": "uint256"
				},
				{
					"indexed": false,
					"internalType": "uint256",
					"name": "paid0",
					"type": "uint256"
				},
				{
					"indexed": false,
					"internalType": "uint256",
					"name": "paid1",
					"type": "uint256"
				}
			],
			"name": "Flash",
			"type": "event"
		},
		{
			"anonymous": false,
			"inputs": [
				{
					"indexed": false,
					"internalType": "uint16",
					"name": "observationCardinalityNextOld",
					"type": "uint16"
				},
				{
					"indexed": false,
					"internalType": "uint16",
					"name": "observationCardinalityNextNew",
					"type": "uint16"
				}
			],
			"name": "IncreaseObservationCardinalityNext",
			"type": "event"
		},
		{
			"anonymous": false,
			"inputs": [
				{
					"indexed": false,
					"internalType": "uint160",
					"name": "sqrtPriceX96",
					"type": "uint160"
				},
				{
					"indexed": false,
					"internalType": "int24",
					"name": "tick",
					"type": "int24"
				}
			],
			"name": "Initialize",
			"type": "event"
		},
		{
			"anonymous": false,
			"inputs": [
				{
					"indexed": false,
					"internalType": "address",
					"name": "sender",
					"type": "address"
				},
				{
					"indexed": true,
					"internalType": "address",
					"name": "owner",
					"type": "address"
				},
				{
					"indexed": true,
					"internalType": "int24",
					"name": "tickLower",
					"type": "int24"
				},
				{
					"indexed": true,
					"internalType": "int24",
					"name": "tickUpper",
					"type": "int24"
				},
				{
					"indexed": false,
					"internalType": "uint128",
					"name": "amount",
					"type": "uint128"
				},
				{
					"indexed": false,
					"internalType": "uint256",
					"name": "amount0",
					"type": "uint256"
				},
				{
					"indexed": false,
					"internalType": "uint256",
					"name": "amount1",
					"type": "uint256"
				}
			],
			"name": "Mint",
			"type": "event"
		},
		{
			"anonymous": false,
			"inputs": [
				{
					"indexed": false,
					"internalType": "uint8",
					"name": "feeProtocol0Old",
					"type": "uint8"
				},
				{
					"indexed": false,
					"internalType": "uint8",
					"name": "feeProtocol1Old",
					"type": "uint8"
				},
				{
					"indexed": false,
					"internalType": "uint8",
					"name": "feeProtocol0New",
					"type": "uint8"
				},
				{
					"indexed": false,
					"internalType": "uint8",
					"name": "feeProtocol1New",
					"type": "uint8"
				}
			],
			"name": "SetFeeProtocol",
			"type": "event"
		},
		{
			"anonymous": false,
			"inputs": [
				{
					"indexed": true,
					"internalType": "address",
					"name": "sender",
					"type": "address"
				},
				{
					"indexed": true,
					"internalType": "address",
					"name": "recipient",
					"type": "address"
				},
				{
					"indexed": false,
					"internalType": "int256",
					"name": "amount0",
					"type": "int256"
				},
				{
					"indexed": false,
					"internalType": "int256",
					"name": "amount1",
					"type": "int256"
				},
				{
					"indexed": false,
					"internalType": "uint160",
					"name": "sqrtPriceX96",
					"type": "uint160"
				},
				{
					"indexed": false,
					"internalType": "uint128",
					"name": "liquidity",
					"type": "uint128"
				},
				{
					"indexed": false,
					"internalType": "int24",
					"name": "tick",
					"type": "int24"
				}
			],
			"name": "Swap",
			"type": "event"
		},
		{
			"inputs": [
				{
					"internalType": "int24",
					"name": "tickLower",
					"type": "int24"
				},
				{
					"internalType": "int24",
					"name": "tickUpper",
					"type": "int24"
				},
				{
					"internalType": "uint128",
					"name": "amount",
					"type": "uint128"
				}
			],
			"name": "burn",
			"outputs": [
				{
					"internalType": "uint256",
					"name": "amount0",
					"type": "uint256"
				},
				{
					"internalType": "uint256",
					"name": "amount1",
					"type": "uint256"
				}
			],
			"stateMutability": "nonpayable",
			"type": "function"
		},
		{
			"inputs": [
				{
					"internalType": "address",
					"name": "recipient",
					"type": "address"
				},
				{
					"internalType": "int24",
					"name": "tickLower",
					"type": "int24"
				},
				{
					"internalType": "int24",
					"name": "tickUpper",
					"type": "int24"
				},
				{
					"internalType": "uint128",
					"name": "amount0Requested",
					"type": "uint128"
				},
				{
					"internalType": "uint128",
					"name": "amount1Requested",
					"type": "uint128"
				}
			],
			"name": "collect",
			"outputs": [
				{
					"internalType": "uint128",
					"name": "amount0",
					"type": "uint128"
				},
				{
					"internalType": "uint128",
					"name": "amount1",
					"type": "uint128"
				}
			],
			"stateMutability": "nonpayable",
			"type": "function"
		},
		{
			"inputs": [
				{
					"internalType": "address",
					"name": "recipient",
					"type": "address"
				},
				{
					"internalType": "uint128",
					"name": "amount0Requested",
					"type": "uint128"
				},
				{
					"internalType": "uint128",
					"name": "amount1Requested",
					"type": "uint128"
				}
			],
			"name": "collectProtocol",
			"outputs": [
				{
					"internalType": "uint128",
					"name": "amount0",
					"type": "uint128"
				},
				{
					"internalType": "uint128",
					"name": "amount1",
					"type": "uint128"
				}
			],
			"stateMutability": "nonpayable",
			"type": "function"
		},
		{
			"inputs": [],
			"name": "factory",
			"outputs": [
				{
					"internalType": "address",
					"name": "",
					"type": "address"
				}
			],
			"stateMutability": "view",
			"type": "function"
		},
		{
			"inputs": [],
			"name": "fee",
			"outputs": [
				{
					"internalType": "uint24",
					"name": "",
					"type": "uint24"
				}
			],
			"stateMutability": "view",
			"type": "function"
		},
		{
			"inputs": [],
			"name": "feeGrowthGlobal0X128",
			"outputs": [
				{
					"internalType": "uint256",
					"name": "",
					"type": "uint256"
				}
			],
			"stateMutability": "view",
			"type": "function"
		},
		{
			"inputs": [],
			"name": "feeGrowthGlobal1X128",
			"outputs": [
				{
					"internalType": "uint256",
					"name": "",
					"type": "uint256"
				}
			],
			"stateMutability": "view",
			"type": "function"
		},
		{
			"inputs": [
				{
					"internalType": "address",
					"name": "recipient",
					"type": "address"
				},
				{
					"internalType": "uint256",
					"name": "amount0",
					"type": "uint256"
				},
				{
					"internalType": "uint256",
					"name": "amount1",
					"type": "uint256"
				},
				{
					"internalType": "bytes",
					"name": "data",
					"type": "bytes"
				}
			],
			"name": "flash",
			"outputs": [],
			"stateMutability": "nonpayable",
			"type": "function"
		},
		{
			"inputs": [
				{
					"internalType": "uint16",
					"name": "observationCardinalityNext",
					"type": "uint16"
				}
			],
			"name": "increaseObservationCardinalityNext",
			"outputs": [],
			"stateMutability": "nonpayable",
			"type": "function"
		},
		{
			"inputs": [
				{
					"internalType": "uint160",
					"name": "sqrtPriceX96",
					"type": "uint160"
				}
			],
			"name": "initialize",
			"outputs": [],
			"stateMutability": "nonpayable",
			"type": "function"
		},
		{
			"inputs": [],
			"name": "liquidity",
			"outputs": [
				{
					"internalType": "uint128",
					"name": "",
					"type": "uint128"
				}
			],
			"stateMutability": "view",
			"type": "function"
		},
		{
			"inputs": [],
			"name": "maxLiquidityPerTick",
			"outputs": [
				{
					"internalType": "uint128",
					"name": "",
					"type": "uint128"
				}
			],
			"stateMutability": "view",
			"type": "function"
		},
		{
			"inputs": [
				{
					"internalType": "address",
					"name": "recipient",
					"type": "address"
				},
				{
					"internalType": "int24",
					"name": "tickLower",
					"type": "int24"
				},
				{
					"internalType": "int24",
					"name": "tickUpper",
					"type": "int24"
				},
				{
					"internalType": "uint128",
					"name": "amount",
					"type": "uint128"
				},
				{
					"internalType": "bytes",
					"name": "data",
					"type": "bytes"
				}
			],
			"name": "mint",
			"outputs": [
				{
					"internalType": "uint256",
					"name": "amount0",
					"type": "uint256"
				},
				{
					"internalType": "uint256",
					"name": "amount1",
					"type": "uint256"
				}
			],
			"stateMutability": "nonpayable",
			"type": "function"
		},
		{
			"inputs": [
				{
					"internalType": "uint256",
					"name": "",
					"type": "uint256"
				}
			],
			"name": "observations",
			"outputs": [
				{
					"internalType": "uint32",
					"name": "blockTimestamp",
					"type": "uint32"
				},
				{
					"internalType": "int56",
					"name": "tickCumulative",
					"type": "int56"
				},
				{
					"internalType": "uint160",
					"name": "secondsPerLiquidityCumulativeX128",
					"type": "uint160"
				},
				{
					"internalType": "bool",
					"name": "initialized",
					"type": "bool"
				}
			],
			"stateMutability": "view",
			"type": "function"
		},
		{
			"inputs": [
				{
					"internalType": "uint32[]",
					"name": "secondsAgos",
					"type": "uint32[]"
				}
			],
			"name": "observe",
			"outputs": [
				{
					"internalType": "int56[]",
					"name": "tickCumulatives",
					"type": "int56[]"
				},
				{
					"internalType": "uint160[]",
					"name": "secondsPerLiquidityCumulativeX128s",
					"type": "uint160[]"
				}
			],
			"stateMutability": "view",
			"type": "function"
		},
		{
			"inputs": [
				{
					"internalType": "bytes32",
					"name": "",
					"type": "bytes32"
				}
			],
			"name": "positions",
			"outputs": [
				{
					"internalType": "uint128",
					"name": "liquidity",
					"type": "uint128"
				},
				{
					"internalType": "uint256",
					"name": "feeGrowthInside0LastX128",
					"type": "uint256"
				},
				{
					"internalType": "uint256",
					"name": "feeGrowthInside1LastX128",
					"type": "uint256"
				},
				{
					"internalType": "uint128",
					"name": "tokensOwed0",
					"type": "uint128"
				},
				{
					"internalType": "uint128",
					"name": "tokensOwed1",
					"type": "uint128"
				}
			],
			"stateMutability": "view",
			"type": "function"
		},
		{
			"inputs": [],
			"name": "protocolFees",
			"outputs": [
				{
					"internalType": "uint128",
					"name": "token0",
					"type": "uint128"
				},
				{
					"internalType": "uint128",
					"name": "token1",
					"type": "uint128"
				}
			],
			"stateMutability": "view",
			"type": "function"
		},
		{
			"inputs": [
				{
					"internalType": "uint8",
					"name": "feeProtocol0",
					"type": "uint8"
				},
				{
					"internalType": "uint8",
					"name": "feeProtocol1",
					"type": "uint8"
				}
			],
			"name": "setFeeProtocol",
			"outputs": [],
			"stateMutability": "nonpayable",
			"type": "function"
		},
		{
			"inputs": [],
			"name": "slot0",
			"outputs": [
				{
					"internalType": "uint160",
					"name": "sqrtPriceX96",
					"type": "uint160"
				},
				{
					"internalType": "int24",
					"name": "tick",
					"type": "int24"
				},
				{
					"internalType": "uint16",
					"name": "observationIndex",
					"type": "uint16"
				},
				{
					"internalType": "uint16",
					"name": "observationCardinality",
					"type": "uint16"
				},
				{
					"internalType": "uint16",
					"name": "observationCardinalityNext",
					"type": "uint16"
				},
				{
					"internalType": "uint8",
					"name": "feeProtocol",
					"type": "uint8"
				},
				{
					"internalType": "bool",
					"name": "unlocked",
					"type": "bool"
				}
			],
			"stateMutability": "view",
			"type": "function"
		},
		{
			"inputs": [
				{
					"internalType": "int24",
					"name": "tickLower",
					"type": "int24"
				},
				{
					"internalType": "int24",
					"name": "tickUpper",
					"type": "int24"
				}
			],
			"name": "snapshotCumulativesInside",
			"outputs": [
				{
					"internalType": "int56",
					"name": "tickCumulativeInside",
					"type": "int56"
				},
				{
					"internalType": "uint160",
					"name": "secondsPerLiquidityInsideX128",
					"type": "uint160"
				},
				{
					"internalType": "uint32",
					"name": "secondsInside",
					"type": "uint32"
				}
			],
			"stateMutability": "view",
			"type": "function"
		},
		{
			"inputs": [
				{
					"internalType": "address",
					"name": "recipient",
					"type": "address"
				},
				{
					"internalType": "bool",
					"name": "zeroForOne",
					"type": "bool"
				},
				{
					"internalType": "int256",
					"name": "amountSpecified",
					"type": "int256"
				},
				{
					"internalType": "uint160",
					"name": "sqrtPriceLimitX96",
					"type": "uint160"
				},
				{
					"internalType": "bytes",
					"name": "data",
					"type": "bytes"
				}
			],
			"name": "swap",
			"outputs": [
				{
					"internalType": "int256",
					"name": "amount0",
					"type": "int256"
				},
				{
					"internalType": "int256",
					"name": "amount1",
					"type": "int256"
				}
			],
			"stateMutability": "nonpayable",
			"type": "function"
		},
		{
			"inputs": [
				{
					"internalType": "int16",
					"name": "",
					"type": "int16"
				}
			],
			"name": "tickBitmap",
			"outputs": [
				{
					"internalType": "uint256",
					"name": "",
					"type": "uint256"
				}
			],
			"stateMutability": "view",
			"type": "function"
		},
		{
			"inputs": [],
			"name": "tickSpacing",
			"outputs": [
				{
					"internalType": "int24",
					"name": "",
					"type": "int24"
				}
			],
			"stateMutability": "view",
			"type": "function"
		},
		{
			"inputs": [
				{
					"internalType": "int24",
					"name": "",
					"type": "int24"
				}
			],
			"name": "ticks",
			"outputs": [
				{
					"internalType": "uint128",
					"name": "liquidityGross",
					"type": "uint128"
				},
				{
					"internalType": "int128",
					"name": "liquidityNet",
					"type": "int128"
				},
				{
					"internalType": "uint256",
					"name": "feeGrowthOutside0X128",
					"type": "uint256"
				},
				{
					"internalType": "uint256",
					"name": "feeGrowthOutside1X128",
					"type": "uint256"
				},
				{
					"internalType": "int56",
					"name": "tickCumulativeOutside",
					"type": "int56"
				},
				{
					"internalType": "uint160",
					"name": "secondsPerLiquidityOutsideX128",
					"type": "uint160"
				},
				{
					"internalType": "uint32",
					"name": "secondsOutside",
					"type": "uint32"
				},
				{
					"internalType": "bool",
					"name": "initialized",
					"type": "bool"
				}
			],
			"stateMutability": "view",
			"type": "function"
		},
		{
			"inputs": [],
			"name": "token0",
			"outputs": [
				{
					"internalType": "address",
					"name": "",
					"type": "address"
				}
			],
			"stateMutability": "view",
			"type": "function"
		},
		{
			"inputs": [],
			"name": "token1",
			"outputs": [
				{
					"internalType": "address",
					"name": "",
					"type": "address"
				}
			],
			"stateMutability": "view",
			"type": "function"
		}
	]
}